{
  "contractName": "AccountsManager",
  "abi": [
    {
      "constant": false,
      "inputs": [
        {
          "internalType": "string",
          "name": "_username",
          "type": "string"
        },
        {
          "internalType": "address payable",
          "name": "_addr",
          "type": "address"
        }
      ],
      "name": "create",
      "outputs": [],
      "payable": true,
      "stateMutability": "payable",
      "type": "function"
    },
    {
      "constant": true,
      "inputs": [],
      "name": "query",
      "outputs": [
        {
          "internalType": "string",
          "name": "",
          "type": "string"
        },
        {
          "internalType": "uint256",
          "name": "",
          "type": "uint256"
        }
      ],
      "payable": false,
      "stateMutability": "view",
      "type": "function"
    },
    {
      "constant": false,
      "inputs": [],
      "name": "deposit",
      "outputs": [],
      "payable": true,
      "stateMutability": "payable",
      "type": "function"
    },
    {
      "constant": false,
      "inputs": [
        {
          "internalType": "uint256",
          "name": "amount",
          "type": "uint256"
        }
      ],
      "name": "withdraw",
      "outputs": [],
      "payable": true,
      "stateMutability": "payable",
      "type": "function"
    },
    {
      "constant": false,
      "inputs": [
        {
          "internalType": "address payable",
          "name": "to",
          "type": "address"
        },
        {
          "internalType": "uint256",
          "name": "amount",
          "type": "uint256"
        }
      ],
      "name": "transferByAddr",
      "outputs": [],
      "payable": true,
      "stateMutability": "payable",
      "type": "function"
    },
    {
      "constant": false,
      "inputs": [
        {
          "internalType": "string",
          "name": "to",
          "type": "string"
        },
        {
          "internalType": "uint256",
          "name": "amount",
          "type": "uint256"
        }
      ],
      "name": "transferByName",
      "outputs": [],
      "payable": true,
      "stateMutability": "payable",
      "type": "function"
    },
    {
      "constant": false,
      "inputs": [],
      "name": "checkRecords",
      "outputs": [
        {
          "components": [
            {
              "internalType": "address",
              "name": "afrom",
              "type": "address"
            },
            {
              "internalType": "address",
              "name": "ato",
              "type": "address"
            },
            {
              "internalType": "string",
              "name": "ufrom",
              "type": "string"
            },
            {
              "internalType": "string",
              "name": "uto",
              "type": "string"
            },
            {
              "internalType": "uint256",
              "name": "amount",
              "type": "uint256"
            },
            {
              "internalType": "uint256",
              "name": "time",
              "type": "uint256"
            }
          ],
          "internalType": "struct AccountsManager.Record[]",
          "name": "",
          "type": "tuple[]"
        }
      ],
      "payable": false,
      "stateMutability": "nonpayable",
      "type": "function"
    }
  ],
  "bytecode": "0x608060405234801561001057600080fd5b50611d81806100206000396000f3fe6080604052600436106100705760003560e01c8063881ab2dd1161004e578063881ab2dd146100d9578063d0e30db0146100f5578063df4d7179146100ff578063e639f9911461012a57610070565b80632c46b205146100755780632e1a7d4d146100a157806384b47b0f146100bd575b600080fd5b34801561008157600080fd5b5061008a610146565b604051610098929190611aea565b60405180910390f35b6100bb60048036036100b6919081019061172d565b6102ff565b005b6100d760048036036100d29190810190611685565b610476565b005b6100f360048036036100ee9190810190611649565b610723565b005b6100fd610c4a565b005b34801561010b57600080fd5b50610114610d2d565b6040516101219190611ac8565b60405180910390f35b610144600480360361013f91908101906116d9565b61101e565b005b606060008060003373ffffffffffffffffffffffffffffffffffffffff1673ffffffffffffffffffffffffffffffffffffffff16815260200190815260200160002060030160009054906101000a900460ff166101d8576040517f08c379a00000000000000000000000000000000000000000000000000000000081526004016101cf90611b7a565b60405180910390fd5b6000803373ffffffffffffffffffffffffffffffffffffffff1673ffffffffffffffffffffffffffffffffffffffff1681526020019081526020016000206000016000803373ffffffffffffffffffffffffffffffffffffffff1673ffffffffffffffffffffffffffffffffffffffff16815260200190815260200160002060020154818054600181600116156101000203166002900480601f0160208091040260200160405190810160405280929190818152602001828054600181600116156101000203166002900480156102f05780601f106102c5576101008083540402835291602001916102f0565b820191906000526020600020905b8154815290600101906020018083116102d357829003601f168201915b50505050509150915091509091565b6000803373ffffffffffffffffffffffffffffffffffffffff1673ffffffffffffffffffffffffffffffffffffffff16815260200190815260200160002060030160009054906101000a900460ff1661038d576040517f08c379a000000000000000000000000000000000000000000000000000000000815260040161038490611b7a565b60405180910390fd5b80806000803373ffffffffffffffffffffffffffffffffffffffff1673ffffffffffffffffffffffffffffffffffffffff1681526020019081526020016000206002015410156103dc57600080fd5b3373ffffffffffffffffffffffffffffffffffffffff166108fc839081150290604051600060405180830381858888f19350505050158015610422573d6000803e3d6000fd5b50816000803373ffffffffffffffffffffffffffffffffffffffff1673ffffffffffffffffffffffffffffffffffffffff168152602001908152602001600020600201600082825403925050819055505050565b600015156000808373ffffffffffffffffffffffffffffffffffffffff1673ffffffffffffffffffffffffffffffffffffffff16815260200190815260200160002060030160009054906101000a900460ff1615151461050b576040517f08c379a000000000000000000000000000000000000000000000000000000000815260040161050290611b3a565b60405180910390fd5b600073ffffffffffffffffffffffffffffffffffffffff166001836040516105339190611ab1565b908152602001604051809103902060009054906101000a900473ffffffffffffffffffffffffffffffffffffffff1673ffffffffffffffffffffffffffffffffffffffff16146105b8576040517f08c379a00000000000000000000000000000000000000000000000000000000081526004016105af90611b5a565b60405180910390fd5b60405180608001604052808381526020018273ffffffffffffffffffffffffffffffffffffffff16815260200160008152602001600115158152506000808373ffffffffffffffffffffffffffffffffffffffff1673ffffffffffffffffffffffffffffffffffffffff168152602001908152602001600020600082015181600001908051906020019061064d929190611526565b5060208201518160010160006101000a81548173ffffffffffffffffffffffffffffffffffffffff021916908373ffffffffffffffffffffffffffffffffffffffff1602179055506040820151816002015560608201518160030160006101000a81548160ff021916908315150217905550905050806001836040516106d39190611ab1565b908152602001604051809103902060006101000a81548173ffffffffffffffffffffffffffffffffffffffff021916908373ffffffffffffffffffffffffffffffffffffffff1602179055505050565b6000803373ffffffffffffffffffffffffffffffffffffffff1673ffffffffffffffffffffffffffffffffffffffff16815260200190815260200160002060030160009054906101000a900460ff166107b1576040517f08c379a00000000000000000000000000000000000000000000000000000000081526004016107a890611b7a565b60405180910390fd5b816000808273ffffffffffffffffffffffffffffffffffffffff1673ffffffffffffffffffffffffffffffffffffffff16815260200190815260200160002060030160009054906101000a900460ff16610840576040517f08c379a000000000000000000000000000000000000000000000000000000000815260040161083790611b1a565b60405180910390fd5b81806000803373ffffffffffffffffffffffffffffffffffffffff1673ffffffffffffffffffffffffffffffffffffffff16815260200190815260200160002060020154101561088f57600080fd5b826000808673ffffffffffffffffffffffffffffffffffffffff1673ffffffffffffffffffffffffffffffffffffffff16815260200190815260200160002060020160008282540192505081905550826000803373ffffffffffffffffffffffffffffffffffffffff1673ffffffffffffffffffffffffffffffffffffffff1681526020019081526020016000206002016000828254039250508190555060026040518060c001604052803373ffffffffffffffffffffffffffffffffffffffff1681526020018673ffffffffffffffffffffffffffffffffffffffff1681526020016000803373ffffffffffffffffffffffffffffffffffffffff1673ffffffffffffffffffffffffffffffffffffffff1681526020019081526020016000206000018054600181600116156101000203166002900480601f016020809104026020016040519081016040528092919081815260200182805460018160011615610100020316600290048015610a475780601f10610a1c57610100808354040283529160200191610a47565b820191906000526020600020905b815481529060010190602001808311610a2a57829003601f168201915b505050505081526020016000808873ffffffffffffffffffffffffffffffffffffffff1673ffffffffffffffffffffffffffffffffffffffff1681526020019081526020016000206000018054600181600116156101000203166002900480601f016020809104026020016040519081016040528092919081815260200182805460018160011615610100020316600290048015610b265780601f10610afb57610100808354040283529160200191610b26565b820191906000526020600020905b815481529060010190602001808311610b0957829003601f168201915b50505050508152602001858152602001428152509080600181540180825580915050906001820390600052602060002090600602016000909192909190915060008201518160000160006101000a81548173ffffffffffffffffffffffffffffffffffffffff021916908373ffffffffffffffffffffffffffffffffffffffff16021790555060208201518160010160006101000a81548173ffffffffffffffffffffffffffffffffffffffff021916908373ffffffffffffffffffffffffffffffffffffffff1602179055506040820151816002019080519060200190610c0f929190611526565b506060820151816003019080519060200190610c2c929190611526565b506080820151816004015560a0820151816005015550505050505050565b6000803373ffffffffffffffffffffffffffffffffffffffff1673ffffffffffffffffffffffffffffffffffffffff16815260200190815260200160002060030160009054906101000a900460ff16610cd8576040517f08c379a0000000000000000000000000000000000000000000000000000000008152600401610ccf90611b7a565b60405180910390fd5b6000346000803373ffffffffffffffffffffffffffffffffffffffff1673ffffffffffffffffffffffffffffffffffffffff168152602001908152602001600020600201600082825401925050819055905050565b60606000803373ffffffffffffffffffffffffffffffffffffffff1673ffffffffffffffffffffffffffffffffffffffff16815260200190815260200160002060030160009054906101000a900460ff16610dbd576040517f08c379a0000000000000000000000000000000000000000000000000000000008152600401610db490611b7a565b60405180910390fd5b6002805480602002602001604051908101604052809291908181526020016000905b8282101561101557838290600052602060002090600602016040518060c00160405290816000820160009054906101000a900473ffffffffffffffffffffffffffffffffffffffff1673ffffffffffffffffffffffffffffffffffffffff1673ffffffffffffffffffffffffffffffffffffffff1681526020016001820160009054906101000a900473ffffffffffffffffffffffffffffffffffffffff1673ffffffffffffffffffffffffffffffffffffffff1673ffffffffffffffffffffffffffffffffffffffff168152602001600282018054600181600116156101000203166002900480601f016020809104026020016040519081016040528092919081815260200182805460018160011615610100020316600290048015610f475780601f10610f1c57610100808354040283529160200191610f47565b820191906000526020600020905b815481529060010190602001808311610f2a57829003601f168201915b50505050508152602001600382018054600181600116156101000203166002900480601f016020809104026020016040519081016040528092919081815260200182805460018160011615610100020316600290048015610fe95780601f10610fbe57610100808354040283529160200191610fe9565b820191906000526020600020905b815481529060010190602001808311610fcc57829003601f168201915b505050505081526020016004820154815260200160058201548152505081526020019060010190610ddf565b50505050905090565b6000803373ffffffffffffffffffffffffffffffffffffffff1673ffffffffffffffffffffffffffffffffffffffff16815260200190815260200160002060030160009054906101000a900460ff166110ac576040517f08c379a00000000000000000000000000000000000000000000000000000000081526004016110a390611b7a565b60405180910390fd5b6001826040516110bc9190611ab1565b908152602001604051809103902060009054906101000a900473ffffffffffffffffffffffffffffffffffffffff166000808273ffffffffffffffffffffffffffffffffffffffff1673ffffffffffffffffffffffffffffffffffffffff16815260200190815260200160002060030160009054906101000a900460ff16611179576040517f08c379a000000000000000000000000000000000000000000000000000000000815260040161117090611b1a565b60405180910390fd5b81806000803373ffffffffffffffffffffffffffffffffffffffff1673ffffffffffffffffffffffffffffffffffffffff1681526020019081526020016000206002015410156111c857600080fd5b826000806001876040516111dc9190611ab1565b908152602001604051809103902060009054906101000a900473ffffffffffffffffffffffffffffffffffffffff1673ffffffffffffffffffffffffffffffffffffffff1673ffffffffffffffffffffffffffffffffffffffff16815260200190815260200160002060020160008282540192505081905550826000803373ffffffffffffffffffffffffffffffffffffffff1673ffffffffffffffffffffffffffffffffffffffff1681526020019081526020016000206002016000828254039250508190555060026040518060c001604052803373ffffffffffffffffffffffffffffffffffffffff1681526020016001876040516112dd9190611ab1565b908152602001604051809103902060009054906101000a900473ffffffffffffffffffffffffffffffffffffffff1673ffffffffffffffffffffffffffffffffffffffff1681526020016000803373ffffffffffffffffffffffffffffffffffffffff1673ffffffffffffffffffffffffffffffffffffffff1681526020019081526020016000206000018054600181600116156101000203166002900480601f0160208091040260200160405190810160405280929190818152602001828054600181600116156101000203166002900480156113fc5780601f106113d1576101008083540402835291602001916113fc565b820191906000526020600020905b8154815290600101906020018083116113df57829003601f168201915b50505050508152602001868152602001858152602001428152509080600181540180825580915050906001820390600052602060002090600602016000909192909190915060008201518160000160006101000a81548173ffffffffffffffffffffffffffffffffffffffff021916908373ffffffffffffffffffffffffffffffffffffffff16021790555060208201518160010160006101000a81548173ffffffffffffffffffffffffffffffffffffffff021916908373ffffffffffffffffffffffffffffffffffffffff16021790555060408201518160020190805190602001906114eb929190611526565b506060820151816003019080519060200190611508929190611526565b506080820151816004015560a0820151816005015550505050505050565b828054600181600116156101000203166002900490600052602060002090601f016020900481019282601f1061156757805160ff1916838001178555611595565b82800160010185558215611595579182015b82811115611594578251825591602001919060010190611579565b5b5090506115a291906115a6565b5090565b6115c891905b808211156115c45760008160009055506001016115ac565b5090565b90565b6000813590506115da81611d10565b92915050565b600082601f8301126115f157600080fd5b81356116046115ff82611bc7565b611b9a565b9150808252602083016020830185838301111561162057600080fd5b61162b838284611cbd565b50505092915050565b60008135905061164381611d27565b92915050565b6000806040838503121561165c57600080fd5b600061166a858286016115cb565b925050602061167b85828601611634565b9150509250929050565b6000806040838503121561169857600080fd5b600083013567ffffffffffffffff8111156116b257600080fd5b6116be858286016115e0565b92505060206116cf858286016115cb565b9150509250929050565b600080604083850312156116ec57600080fd5b600083013567ffffffffffffffff81111561170657600080fd5b611712858286016115e0565b925050602061172385828601611634565b9150509250929050565b60006020828403121561173f57600080fd5b600061174d84828501611634565b91505092915050565b60006117628383611a03565b905092915050565b61177381611c6f565b82525050565b600061178482611c03565b61178e8185611c31565b9350836020820285016117a085611bf3565b8060005b858110156117dc57848403895281516117bd8582611756565b94506117c883611c24565b925060208a019950506001810190506117a4565b50829750879550505050505092915050565b60006117f982611c19565b6118038185611c53565b9350611813818560208601611ccc565b61181c81611cff565b840191505092915050565b600061183282611c19565b61183c8185611c64565b935061184c818560208601611ccc565b80840191505092915050565b600061186382611c0e565b61186d8185611c42565b935061187d818560208601611ccc565b61188681611cff565b840191505092915050565b600061189e602c83611c53565b91507f4661696c65642120546865207265636569766572206163636f756e7420646f6560008301527f6e732774206578697374732100000000000000000000000000000000000000006020830152604082019050919050565b6000611904603083611c53565b91507f4661696c656421205468697320616464726573732068617320616c726561647960008301527f206265656e207369676e656420757021000000000000000000000000000000006020830152604082019050919050565b600061196a603183611c53565b91507f4661696c65642c205468697320757365726e616d652068617320616c7265616460008301527f79206265656e207369676e6564207570210000000000000000000000000000006020830152604082019050919050565b60006119d0601f83611c53565b91507f4661696c65642120596f752068617665206e6f74207369676e656420757021006000830152602082019050919050565b600060c083016000830151611a1b600086018261176a565b506020830151611a2e602086018261176a565b5060408301518482036040860152611a468282611858565b91505060608301518482036060860152611a608282611858565b9150506080830151611a756080860182611a93565b5060a0830151611a8860a0860182611a93565b508091505092915050565b611a9c81611cb3565b82525050565b611aab81611cb3565b82525050565b6000611abd8284611827565b915081905092915050565b60006020820190508181036000830152611ae28184611779565b905092915050565b60006040820190508181036000830152611b0481856117ee565b9050611b136020830184611aa2565b9392505050565b60006020820190508181036000830152611b3381611891565b9050919050565b60006020820190508181036000830152611b53816118f7565b9050919050565b60006020820190508181036000830152611b738161195d565b9050919050565b60006020820190508181036000830152611b93816119c3565b9050919050565b6000604051905081810181811067ffffffffffffffff82111715611bbd57600080fd5b8060405250919050565b600067ffffffffffffffff821115611bde57600080fd5b601f19601f8301169050602081019050919050565b6000819050602082019050919050565b600081519050919050565b600081519050919050565b600081519050919050565b6000602082019050919050565b600082825260208201905092915050565b600082825260208201905092915050565b600082825260208201905092915050565b600081905092915050565b6000611c7a82611c93565b9050919050565b6000611c8c82611c93565b9050919050565b600073ffffffffffffffffffffffffffffffffffffffff82169050919050565b6000819050919050565b82818337600083830152505050565b60005b83811015611cea578082015181840152602081019050611ccf565b83811115611cf9576000848401525b50505050565b6000601f19601f8301169050919050565b611d1981611c81565b8114611d2457600080fd5b50565b611d3081611cb3565b8114611d3b57600080fd5b5056fea365627a7a723158206e6d4106e931e4a0472f6938ce832a298453d9f52a7226962d186eb90bce09da6c6578706572696d656e74616cf564736f6c63430005100040",
  "source": "pragma solidity >=0.4.22 <0.7.0;\npragma experimental ABIEncoderV2;\n\ncontract AccountsManager {\n    \n    // A User\n    struct User {\n        string username;\n        address payable addr;\n        uint balance;\n        bool valid; // valid or existed user\n    }\n    \n    struct Record {\n        address afrom;\n        address ato;\n        string ufrom;\n        string uto;\n        uint amount;\n        uint time;\n    }\n    \n    mapping (address => User) internal accounts; // account: an address to an user\n    mapping (string => address payable) internal usernames; // username to address\n    \n    Record [] records; //transfer record\n    \n    /*** constructor ? ***/\n    \n    /*** modifiers ***/\n    modifier validUser{\n        require(accounts[msg.sender].valid, \"Failed! You have not signed up!\");\n        _;\n    }\n    \n    modifier validReceiver(address to){\n        require(accounts[to].valid, \"Failed! The receiver account doens't exists!\");\n        _;\n    }\n    \n    modifier enoughBalance(uint amount){\n        require(accounts[msg.sender].balance >= amount);\n        _;\n    }\n    \n    /*** functions ***/\n    \n    function create(string memory _username, address payable _addr) public payable{\n        /* create an account using address\n         * args:\n         *  _username: account username, unique\n         *  _addr: your etherum address\n         * requirements:\n         *  _username and _addr not already in.\n         */ \n        require(accounts[_addr].valid == false, \"Failed! This address has already been signed up!\");\n        require(usernames[_username] == address(0), \"Failed, This username has already been signed up!\");\n        accounts[_addr] = User({\n            username: _username,\n            addr: _addr,\n            balance: 0,\n            valid: true\n        });\n        usernames[_username] = _addr;\n    }\n    \n    // query for current user's username and balance\n    function query() public view validUser returns(string memory, uint){\n        /* query username and balance for current account\n         * returns:\n         *  username: string;\n         *  balance: uint;\n         * requirements:\n         *  current user valid\n         */\n        return (accounts[msg.sender].username, accounts[msg.sender].balance);\n    } \n    \n    // deposit into contract\n    function deposit() public payable validUser{\n        /* deposit some money into this contract.\n         * args:\n         *  msg.value: amount to deposit\n         * requirements:\n         *  current user valid\n         */\n        uint amount = \n        accounts[msg.sender].balance += msg.value;\n    }\n    \n    // withdraw balance\n    function withdraw(uint amount) public payable validUser enoughBalance(amount){\n        /* withdraw some money from this contract.\n         * args:\n         *  amount: amount to withdraw\n         * requirements:\n         *  current user valid\n         *  enough balance\n         */\n        msg.sender.transfer(amount);\n        accounts[msg.sender].balance -= amount;\n    }\n    \n    // transfer using address\n    function transferByAddr(address payable to, uint amount) public payable validUser validReceiver(to) enoughBalance(amount){\n        /* transfer using address\n         * args:\n         *  to: address to transfer\n         *  amount amount to transfer\n         * requirements:\n         *  valid sender\n         *  valid receiver\n         *  enough balance.\n         */\n        accounts[to].balance += amount;\n        accounts[msg.sender].balance -= amount;\n        \n        // log\n        records.push(Record({\n            afrom: msg.sender, \n            ato: to, \n            ufrom: accounts[msg.sender].username, \n            uto: accounts[to].username, \n            amount:amount, \n            time: now\n            }));\n    }\n    \n    // transfer using username\n    function transferByName(string memory to, uint amount) public payable validUser validReceiver(usernames[to]) enoughBalance(amount){\n        /* transfer using ID\n         * args:\n         *  to: ID to transfer\n         *  amount amount to transfer\n         * requirements:\n         *  valid sender\n         *  valid receiver\n         *  enough balance.\n         */\n        accounts[usernames[to]].balance += amount;\n        accounts[msg.sender].balance -= amount;\n        \n        // log\n        records.push(Record({\n            afrom: msg.sender, \n            ato: usernames[to], \n            ufrom: accounts[msg.sender].username, \n            uto: to, \n            amount:amount, \n            time: now\n            }));\n    }\n    \n    function checkRecords() public validUser returns(Record[] memory){\n        return records;\n    }\n    \n}\n",
  "sourcePath": "/home/taliyah/coinflipping/contracts/Accounts.sol",
  "compiler": {
    "name": "solc",
    "version": "0.5.16+commit.9c3226ce.Emscripten.clang"
  },
  "schemaVersion": "3.1.0",
  "updatedAt": "2020-04-25T06:47:41.270Z",
  "devdoc": {
    "methods": {}
  },
  "userdoc": {
    "methods": {
      "create(string,address)": {
        "notice": "* functions **"
      }
    }
  }
}