{
  "contractName": "AccountsManager",
  "abi": [
    {
      "anonymous": false,
      "inputs": [
        {
          "components": [
            {
              "internalType": "address",
              "name": "afrom",
              "type": "address"
            },
            {
              "internalType": "address",
              "name": "ato",
              "type": "address"
            },
            {
              "internalType": "string",
              "name": "ufrom",
              "type": "string"
            },
            {
              "internalType": "string",
              "name": "uto",
              "type": "string"
            },
            {
              "internalType": "uint256",
              "name": "amount",
              "type": "uint256"
            },
            {
              "internalType": "uint256",
              "name": "time",
              "type": "uint256"
            }
          ],
          "indexed": false,
          "internalType": "struct AccountsManager.Record[]",
          "name": "records",
          "type": "tuple[]"
        }
      ],
      "name": "Logger",
      "type": "event"
    },
    {
      "constant": false,
      "inputs": [
        {
          "internalType": "string",
          "name": "_username",
          "type": "string"
        },
        {
          "internalType": "address payable",
          "name": "_addr",
          "type": "address"
        }
      ],
      "name": "create",
      "outputs": [],
      "payable": true,
      "stateMutability": "payable",
      "type": "function"
    },
    {
      "constant": true,
      "inputs": [],
      "name": "query",
      "outputs": [
        {
          "internalType": "string",
          "name": "",
          "type": "string"
        },
        {
          "internalType": "uint256",
          "name": "",
          "type": "uint256"
        }
      ],
      "payable": false,
      "stateMutability": "view",
      "type": "function"
    },
    {
      "constant": false,
      "inputs": [],
      "name": "deposit",
      "outputs": [],
      "payable": true,
      "stateMutability": "payable",
      "type": "function"
    },
    {
      "constant": false,
      "inputs": [
        {
          "internalType": "uint256",
          "name": "amount",
          "type": "uint256"
        }
      ],
      "name": "withdraw",
      "outputs": [],
      "payable": true,
      "stateMutability": "payable",
      "type": "function"
    },
    {
      "constant": false,
      "inputs": [
        {
          "internalType": "address payable",
          "name": "to",
          "type": "address"
        },
        {
          "internalType": "uint256",
          "name": "amount",
          "type": "uint256"
        }
      ],
      "name": "transferByAddr",
      "outputs": [],
      "payable": true,
      "stateMutability": "payable",
      "type": "function"
    },
    {
      "constant": false,
      "inputs": [
        {
          "internalType": "string",
          "name": "to",
          "type": "string"
        },
        {
          "internalType": "uint256",
          "name": "amount",
          "type": "uint256"
        }
      ],
      "name": "transferByName",
      "outputs": [],
      "payable": true,
      "stateMutability": "payable",
      "type": "function"
    },
    {
      "constant": false,
      "inputs": [],
      "name": "checkRecords",
      "outputs": [],
      "payable": false,
      "stateMutability": "nonpayable",
      "type": "function"
    }
  ],
  "bytecode": "0x608060405234801561001057600080fd5b50611c3b806100206000396000f3fe6080604052600436106100705760003560e01c8063881ab2dd1161004e578063881ab2dd146100d9578063d0e30db0146100f5578063df4d7179146100ff578063e639f9911461011657610070565b80632c46b205146100755780632e1a7d4d146100a157806384b47b0f146100bd575b600080fd5b34801561008157600080fd5b5061008a610132565b60405161009892919061192a565b60405180910390f35b6100bb60048036036100b691908101906114ec565b6102eb565b005b6100d760048036036100d29190810190611444565b610462565b005b6100f360048036036100ee9190810190611408565b61070f565b005b6100fd610c36565b005b34801561010b57600080fd5b50610114610d15565b005b610130600480360361012b9190810190611498565b610ddd565b005b606060008060003373ffffffffffffffffffffffffffffffffffffffff1673ffffffffffffffffffffffffffffffffffffffff16815260200190815260200160002060030160009054906101000a900460ff166101c4576040517f08c379a00000000000000000000000000000000000000000000000000000000081526004016101bb906119ba565b60405180910390fd5b6000803373ffffffffffffffffffffffffffffffffffffffff1673ffffffffffffffffffffffffffffffffffffffff1681526020019081526020016000206000016000803373ffffffffffffffffffffffffffffffffffffffff1673ffffffffffffffffffffffffffffffffffffffff16815260200190815260200160002060020154818054600181600116156101000203166002900480601f0160208091040260200160405190810160405280929190818152602001828054600181600116156101000203166002900480156102dc5780601f106102b1576101008083540402835291602001916102dc565b820191906000526020600020905b8154815290600101906020018083116102bf57829003601f168201915b50505050509150915091509091565b6000803373ffffffffffffffffffffffffffffffffffffffff1673ffffffffffffffffffffffffffffffffffffffff16815260200190815260200160002060030160009054906101000a900460ff16610379576040517f08c379a0000000000000000000000000000000000000000000000000000000008152600401610370906119ba565b60405180910390fd5b80806000803373ffffffffffffffffffffffffffffffffffffffff1673ffffffffffffffffffffffffffffffffffffffff1681526020019081526020016000206002015410156103c857600080fd5b3373ffffffffffffffffffffffffffffffffffffffff166108fc839081150290604051600060405180830381858888f1935050505015801561040e573d6000803e3d6000fd5b50816000803373ffffffffffffffffffffffffffffffffffffffff1673ffffffffffffffffffffffffffffffffffffffff168152602001908152602001600020600201600082825403925050819055505050565b600015156000808373ffffffffffffffffffffffffffffffffffffffff1673ffffffffffffffffffffffffffffffffffffffff16815260200190815260200160002060030160009054906101000a900460ff161515146104f7576040517f08c379a00000000000000000000000000000000000000000000000000000000081526004016104ee9061197a565b60405180910390fd5b600073ffffffffffffffffffffffffffffffffffffffff1660018360405161051f91906118f1565b908152602001604051809103902060009054906101000a900473ffffffffffffffffffffffffffffffffffffffff1673ffffffffffffffffffffffffffffffffffffffff16146105a4576040517f08c379a000000000000000000000000000000000000000000000000000000000815260040161059b9061199a565b60405180910390fd5b60405180608001604052808381526020018273ffffffffffffffffffffffffffffffffffffffff16815260200160008152602001600115158152506000808373ffffffffffffffffffffffffffffffffffffffff1673ffffffffffffffffffffffffffffffffffffffff16815260200190815260200160002060008201518160000190805190602001906106399291906112e5565b5060208201518160010160006101000a81548173ffffffffffffffffffffffffffffffffffffffff021916908373ffffffffffffffffffffffffffffffffffffffff1602179055506040820151816002015560608201518160030160006101000a81548160ff021916908315150217905550905050806001836040516106bf91906118f1565b908152602001604051809103902060006101000a81548173ffffffffffffffffffffffffffffffffffffffff021916908373ffffffffffffffffffffffffffffffffffffffff1602179055505050565b6000803373ffffffffffffffffffffffffffffffffffffffff1673ffffffffffffffffffffffffffffffffffffffff16815260200190815260200160002060030160009054906101000a900460ff1661079d576040517f08c379a0000000000000000000000000000000000000000000000000000000008152600401610794906119ba565b60405180910390fd5b816000808273ffffffffffffffffffffffffffffffffffffffff1673ffffffffffffffffffffffffffffffffffffffff16815260200190815260200160002060030160009054906101000a900460ff1661082c576040517f08c379a00000000000000000000000000000000000000000000000000000000081526004016108239061195a565b60405180910390fd5b81806000803373ffffffffffffffffffffffffffffffffffffffff1673ffffffffffffffffffffffffffffffffffffffff16815260200190815260200160002060020154101561087b57600080fd5b826000808673ffffffffffffffffffffffffffffffffffffffff1673ffffffffffffffffffffffffffffffffffffffff16815260200190815260200160002060020160008282540192505081905550826000803373ffffffffffffffffffffffffffffffffffffffff1673ffffffffffffffffffffffffffffffffffffffff1681526020019081526020016000206002016000828254039250508190555060026040518060c001604052803373ffffffffffffffffffffffffffffffffffffffff1681526020018673ffffffffffffffffffffffffffffffffffffffff1681526020016000803373ffffffffffffffffffffffffffffffffffffffff1673ffffffffffffffffffffffffffffffffffffffff1681526020019081526020016000206000018054600181600116156101000203166002900480601f016020809104026020016040519081016040528092919081815260200182805460018160011615610100020316600290048015610a335780601f10610a0857610100808354040283529160200191610a33565b820191906000526020600020905b815481529060010190602001808311610a1657829003601f168201915b505050505081526020016000808873ffffffffffffffffffffffffffffffffffffffff1673ffffffffffffffffffffffffffffffffffffffff1681526020019081526020016000206000018054600181600116156101000203166002900480601f016020809104026020016040519081016040528092919081815260200182805460018160011615610100020316600290048015610b125780601f10610ae757610100808354040283529160200191610b12565b820191906000526020600020905b815481529060010190602001808311610af557829003601f168201915b50505050508152602001858152602001428152509080600181540180825580915050906001820390600052602060002090600602016000909192909190915060008201518160000160006101000a81548173ffffffffffffffffffffffffffffffffffffffff021916908373ffffffffffffffffffffffffffffffffffffffff16021790555060208201518160010160006101000a81548173ffffffffffffffffffffffffffffffffffffffff021916908373ffffffffffffffffffffffffffffffffffffffff1602179055506040820151816002019080519060200190610bfb9291906112e5565b506060820151816003019080519060200190610c189291906112e5565b506080820151816004015560a0820151816005015550505050505050565b6000803373ffffffffffffffffffffffffffffffffffffffff1673ffffffffffffffffffffffffffffffffffffffff16815260200190815260200160002060030160009054906101000a900460ff16610cc4576040517f08c379a0000000000000000000000000000000000000000000000000000000008152600401610cbb906119ba565b60405180910390fd5b346000803373ffffffffffffffffffffffffffffffffffffffff1673ffffffffffffffffffffffffffffffffffffffff16815260200190815260200160002060020160008282540192505081905550565b6000803373ffffffffffffffffffffffffffffffffffffffff1673ffffffffffffffffffffffffffffffffffffffff16815260200190815260200160002060030160009054906101000a900460ff16610da3576040517f08c379a0000000000000000000000000000000000000000000000000000000008152600401610d9a906119ba565b60405180910390fd5b7f0a521764b934851609b3b1aca670be12c5bc0d9cddd831ac5f3d47336114884c6002604051610dd39190611908565b60405180910390a1565b6000803373ffffffffffffffffffffffffffffffffffffffff1673ffffffffffffffffffffffffffffffffffffffff16815260200190815260200160002060030160009054906101000a900460ff16610e6b576040517f08c379a0000000000000000000000000000000000000000000000000000000008152600401610e62906119ba565b60405180910390fd5b600182604051610e7b91906118f1565b908152602001604051809103902060009054906101000a900473ffffffffffffffffffffffffffffffffffffffff166000808273ffffffffffffffffffffffffffffffffffffffff1673ffffffffffffffffffffffffffffffffffffffff16815260200190815260200160002060030160009054906101000a900460ff16610f38576040517f08c379a0000000000000000000000000000000000000000000000000000000008152600401610f2f9061195a565b60405180910390fd5b81806000803373ffffffffffffffffffffffffffffffffffffffff1673ffffffffffffffffffffffffffffffffffffffff168152602001908152602001600020600201541015610f8757600080fd5b82600080600187604051610f9b91906118f1565b908152602001604051809103902060009054906101000a900473ffffffffffffffffffffffffffffffffffffffff1673ffffffffffffffffffffffffffffffffffffffff1673ffffffffffffffffffffffffffffffffffffffff16815260200190815260200160002060020160008282540192505081905550826000803373ffffffffffffffffffffffffffffffffffffffff1673ffffffffffffffffffffffffffffffffffffffff1681526020019081526020016000206002016000828254039250508190555060026040518060c001604052803373ffffffffffffffffffffffffffffffffffffffff16815260200160018760405161109c91906118f1565b908152602001604051809103902060009054906101000a900473ffffffffffffffffffffffffffffffffffffffff1673ffffffffffffffffffffffffffffffffffffffff1681526020016000803373ffffffffffffffffffffffffffffffffffffffff1673ffffffffffffffffffffffffffffffffffffffff1681526020019081526020016000206000018054600181600116156101000203166002900480601f0160208091040260200160405190810160405280929190818152602001828054600181600116156101000203166002900480156111bb5780601f10611190576101008083540402835291602001916111bb565b820191906000526020600020905b81548152906001019060200180831161119e57829003601f168201915b50505050508152602001868152602001858152602001428152509080600181540180825580915050906001820390600052602060002090600602016000909192909190915060008201518160000160006101000a81548173ffffffffffffffffffffffffffffffffffffffff021916908373ffffffffffffffffffffffffffffffffffffffff16021790555060208201518160010160006101000a81548173ffffffffffffffffffffffffffffffffffffffff021916908373ffffffffffffffffffffffffffffffffffffffff16021790555060408201518160020190805190602001906112aa9291906112e5565b5060608201518160030190805190602001906112c79291906112e5565b506080820151816004015560a0820151816005015550505050505050565b828054600181600116156101000203166002900490600052602060002090601f016020900481019282601f1061132657805160ff1916838001178555611354565b82800160010185558215611354579182015b82811115611353578251825591602001919060010190611338565b5b5090506113619190611365565b5090565b61138791905b8082111561138357600081600090555060010161136b565b5090565b90565b60008135905061139981611bca565b92915050565b600082601f8301126113b057600080fd5b81356113c36113be82611a07565b6119da565b915080825260208301602083018583830111156113df57600080fd5b6113ea838284611b36565b50505092915050565b60008135905061140281611be1565b92915050565b6000806040838503121561141b57600080fd5b60006114298582860161138a565b925050602061143a858286016113f3565b9150509250929050565b6000806040838503121561145757600080fd5b600083013567ffffffffffffffff81111561147157600080fd5b61147d8582860161139f565b925050602061148e8582860161138a565b9150509250929050565b600080604083850312156114ab57600080fd5b600083013567ffffffffffffffff8111156114c557600080fd5b6114d18582860161139f565b92505060206114e2858286016113f3565b9150509250929050565b6000602082840312156114fe57600080fd5b600061150c848285016113f3565b91505092915050565b60006115218383611817565b905092915050565b61153281611ae8565b82525050565b600061154382611a5d565b61154d8185611a80565b93508360208202850161155f85611a33565b8060005b8581101561159a5784840389528161157b8582611515565b945061158683611a73565b925060208a01995050600181019050611563565b50829750879550505050505092915050565b60006115b782611a68565b6115c18185611aa2565b93506115d1818560208601611b45565b6115da81611bac565b840191505092915050565b60006115f082611a68565b6115fa8185611ab3565b935061160a818560208601611b45565b80840191505092915050565b60008154600181166000811461163357600181146116595761169d565b607f60028304166116448187611a91565b955060ff19831686526020860193505061169d565b600282046116678187611a91565b955061167285611a48565b60005b8281101561169457815481890152600182019150602081019050611675565b80880195505050505b505092915050565b60006116b2602c83611aa2565b91507f4661696c65642120546865207265636569766572206163636f756e7420646f6560008301527f6e732774206578697374732100000000000000000000000000000000000000006020830152604082019050919050565b6000611718603083611aa2565b91507f4661696c656421205468697320616464726573732068617320616c726561647960008301527f206265656e207369676e656420757021000000000000000000000000000000006020830152604082019050919050565b600061177e603183611aa2565b91507f4661696c65642c205468697320757365726e616d652068617320616c7265616460008301527f79206265656e207369676e6564207570210000000000000000000000000000006020830152604082019050919050565b60006117e4601f83611aa2565b91507f4661696c65642120596f752068617665206e6f74207369676e656420757021006000830152602082019050919050565b600060c08301600080840154905061182e81611b78565b61183b6000870182611529565b506001840154905061184c81611b78565b6118596020870182611529565b506002840185830360408701526118708382611616565b9250506003840185830360608701526118898382611616565b9250506004840154905061189c81611b92565b6118a960808701826118d3565b50600584015490506118ba81611b92565b6118c760a08701826118d3565b50819250505092915050565b6118dc81611b2c565b82525050565b6118eb81611b2c565b82525050565b60006118fd82846115e5565b915081905092915050565b600060208201905081810360008301526119228184611538565b905092915050565b6000604082019050818103600083015261194481856115ac565b905061195360208301846118e2565b9392505050565b60006020820190508181036000830152611973816116a5565b9050919050565b600060208201905081810360008301526119938161170b565b9050919050565b600060208201905081810360008301526119b381611771565b9050919050565b600060208201905081810360008301526119d3816117d7565b9050919050565b6000604051905081810181811067ffffffffffffffff821117156119fd57600080fd5b8060405250919050565b600067ffffffffffffffff821115611a1e57600080fd5b601f19601f8301169050602081019050919050565b60008190508160005260206000209050919050565b60008190508160005260206000209050919050565b600081549050919050565b600081519050919050565b6000600682019050919050565b600082825260208201905092915050565b600082825260208201905092915050565b600082825260208201905092915050565b600081905092915050565b600073ffffffffffffffffffffffffffffffffffffffff82169050919050565b6000819050919050565b6000611af382611b0c565b9050919050565b6000611b0582611b0c565b9050919050565b600073ffffffffffffffffffffffffffffffffffffffff82169050919050565b6000819050919050565b82818337600083830152505050565b60005b83811015611b63578082015181840152602081019050611b48565b83811115611b72576000848401525b50505050565b6000611b8b611b8683611bbd565b611abe565b9050919050565b6000611ba5611ba083611bbd565b611ade565b9050919050565b6000601f19601f8301169050919050565b60008160001c9050919050565b611bd381611afa565b8114611bde57600080fd5b50565b611bea81611b2c565b8114611bf557600080fd5b5056fea365627a7a7231582090caec6e461c07a7eb1fee6f28ab16935c12a81c7ae9cf022d47cecea4c55fdd6c6578706572696d656e74616cf564736f6c63430005100040",
  "source": "pragma solidity >=0.4.22 <0.7.0;\r\npragma experimental ABIEncoderV2;\r\n\r\ncontract AccountsManager {\r\n    \r\n    // A User\r\n    struct User {\r\n        string username;\r\n        address payable addr;\r\n        uint balance;\r\n        bool valid; // valid or existed user\r\n    }\r\n    \r\n    struct Record {\r\n        address afrom;\r\n        address ato;\r\n        string ufrom;\r\n        string uto;\r\n        uint amount;\r\n        uint time;\r\n    }\r\n    \r\n    mapping (address => User) internal accounts; // account: an address to an user\r\n    mapping (string => address payable) internal usernames; // username to address\r\n    \r\n    Record [] records; //transfer record\r\n    \r\n    /*** constructor ? ***/\r\n    \r\n    /*** events ***/\r\n    // store the tranfer records\r\n    // event Logger(address afrom, address ato, string ufrom, string uto, uint amount, uint time);\r\n    event Logger(Record[] records);\r\n    \r\n    /*** modifiers ***/\r\n    modifier validUser{\r\n        require(accounts[msg.sender].valid, \"Failed! You have not signed up!\");\r\n        _;\r\n    }\r\n    \r\n    modifier validReceiver(address to){\r\n        require(accounts[to].valid, \"Failed! The receiver account doens't exists!\");\r\n        _;\r\n    }\r\n    \r\n    modifier enoughBalance(uint amount){\r\n        require(accounts[msg.sender].balance >= amount);\r\n        _;\r\n    }\r\n    \r\n    /*** functions ***/\r\n    \r\n    function create(string memory _username, address payable _addr) public payable{\r\n        /* create an account using address\r\n         * args:\r\n         *  _username: account username, unique\r\n         *  _addr: your etherum address\r\n         * requirements:\r\n         *  _username and _addr not already in.\r\n         */ \r\n        require(accounts[_addr].valid == false, \"Failed! This address has already been signed up!\");\r\n        require(usernames[_username] == address(0), \"Failed, This username has already been signed up!\");\r\n        accounts[_addr] = User({\r\n            username: _username,\r\n            addr: _addr,\r\n            balance: 0,\r\n            valid: true\r\n        });\r\n        usernames[_username] = _addr;\r\n    }\r\n    \r\n    // query for current user's username and balance\r\n    function query() public view validUser returns(string memory, uint){\r\n        /* query username and balance for current account\r\n         * returns:\r\n         *  username: string;\r\n         *  balance: uint;\r\n         * requirements:\r\n         *  current user valid\r\n         */\r\n        return (accounts[msg.sender].username, accounts[msg.sender].balance);\r\n    } \r\n    \r\n    // deposit into contract\r\n    function deposit() public payable validUser{\r\n        /* deposit some money into this contract.\r\n         * args:\r\n         *  msg.value: amount to deposit\r\n         * requirements:\r\n         *  current user valid\r\n         */\r\n        accounts[msg.sender].balance += msg.value;\r\n    }\r\n    \r\n    // withdraw balance\r\n    function withdraw(uint amount) public payable validUser enoughBalance(amount){\r\n        /* withdraw some money from this contract.\r\n         * args:\r\n         *  amount: amount to withdraw\r\n         * requirements:\r\n         *  current user valid\r\n         *  enough balance\r\n         */\r\n        msg.sender.transfer(amount);\r\n        accounts[msg.sender].balance -= amount;\r\n    }\r\n    \r\n    // transfer using address\r\n    function transferByAddr(address payable to, uint amount) public payable validUser validReceiver(to) enoughBalance(amount){\r\n        /* transfer using address\r\n         * args:\r\n         *  to: address to transfer\r\n         *  amount amount to transfer\r\n         * requirements:\r\n         *  valid sender\r\n         *  valid receiver\r\n         *  enough balance.\r\n         */\r\n        accounts[to].balance += amount;\r\n        accounts[msg.sender].balance -= amount;\r\n        \r\n        // log\r\n        records.push(Record({\r\n            afrom: msg.sender, \r\n            ato: to, \r\n            ufrom: accounts[msg.sender].username, \r\n            uto: accounts[to].username, \r\n            amount:amount, \r\n            time: now\r\n            }));\r\n    }\r\n    \r\n    // transfer using username\r\n    function transferByName(string memory to, uint amount) public payable validUser validReceiver(usernames[to]) enoughBalance(amount){\r\n        /* transfer using ID\r\n         * args:\r\n         *  to: ID to transfer\r\n         *  amount amount to transfer\r\n         * requirements:\r\n         *  valid sender\r\n         *  valid receiver\r\n         *  enough balance.\r\n         */\r\n        accounts[usernames[to]].balance += amount;\r\n        accounts[msg.sender].balance -= amount;\r\n        \r\n        // log\r\n        records.push(Record({\r\n            afrom: msg.sender, \r\n            ato: usernames[to], \r\n            ufrom: accounts[msg.sender].username, \r\n            uto: to, \r\n            amount:amount, \r\n            time: now\r\n            }));\r\n    }\r\n    \r\n    function checkRecords() public validUser {\r\n        emit Logger(records);\r\n    }\r\n    \r\n}\r\n",
  "sourcePath": "/home/taliyah/coinflipping/contracts/Accounts.sol",
  "compiler": {
    "name": "solc",
    "version": "0.5.16+commit.9c3226ce.Emscripten.clang"
  },
  "schemaVersion": "3.1.0",
  "updatedAt": "2020-04-24T05:40:20.889Z",
  "devdoc": {
    "methods": {}
  },
  "userdoc": {
    "methods": {
      "create(string,address)": {
        "notice": "* functions **"
      }
    }
  }
}