{
  "contractName": "AccountsManager",
  "abi": [
    {
      "inputs": [],
      "payable": false,
      "stateMutability": "nonpayable",
      "type": "constructor"
    },
    {
      "constant": false,
      "inputs": [
        {
          "internalType": "string",
          "name": "_username",
          "type": "string"
        },
        {
          "internalType": "address payable",
          "name": "_addr",
          "type": "address"
        }
      ],
      "name": "create",
      "outputs": [],
      "payable": true,
      "stateMutability": "payable",
      "type": "function"
    },
    {
      "constant": false,
      "inputs": [],
      "name": "deposit",
      "outputs": [],
      "payable": true,
      "stateMutability": "payable",
      "type": "function"
    },
    {
      "constant": false,
      "inputs": [
        {
          "internalType": "uint256",
          "name": "amount",
          "type": "uint256"
        }
      ],
      "name": "withdraw",
      "outputs": [],
      "payable": true,
      "stateMutability": "payable",
      "type": "function"
    },
    {
      "constant": false,
      "inputs": [
        {
          "internalType": "address payable",
          "name": "to",
          "type": "address"
        },
        {
          "internalType": "uint256",
          "name": "amount",
          "type": "uint256"
        }
      ],
      "name": "transferByAddr",
      "outputs": [],
      "payable": true,
      "stateMutability": "payable",
      "type": "function"
    },
    {
      "constant": false,
      "inputs": [
        {
          "internalType": "string",
          "name": "to",
          "type": "string"
        },
        {
          "internalType": "uint256",
          "name": "amount",
          "type": "uint256"
        }
      ],
      "name": "transferByName",
      "outputs": [],
      "payable": true,
      "stateMutability": "payable",
      "type": "function"
    },
    {
      "constant": true,
      "inputs": [],
      "name": "query",
      "outputs": [
        {
          "internalType": "string",
          "name": "",
          "type": "string"
        },
        {
          "internalType": "uint256",
          "name": "",
          "type": "uint256"
        }
      ],
      "payable": false,
      "stateMutability": "view",
      "type": "function"
    },
    {
      "constant": true,
      "inputs": [],
      "name": "getRecordIDs",
      "outputs": [
        {
          "internalType": "uint256[]",
          "name": "",
          "type": "uint256[]"
        }
      ],
      "payable": false,
      "stateMutability": "view",
      "type": "function"
    },
    {
      "constant": true,
      "inputs": [
        {
          "internalType": "uint256",
          "name": "i",
          "type": "uint256"
        }
      ],
      "name": "checkRecords",
      "outputs": [
        {
          "internalType": "uint256",
          "name": "",
          "type": "uint256"
        },
        {
          "internalType": "string",
          "name": "",
          "type": "string"
        },
        {
          "internalType": "string",
          "name": "",
          "type": "string"
        },
        {
          "internalType": "uint256",
          "name": "",
          "type": "uint256"
        },
        {
          "internalType": "uint256",
          "name": "",
          "type": "uint256"
        }
      ],
      "payable": false,
      "stateMutability": "view",
      "type": "function"
    }
  ],
  "bytecode": "0x608060405234801561001057600080fd5b506001600081905550600180819055506120228061002f6000396000f3fe60806040526004361061007b5760003560e01c806384b47b0f1161004e57806384b47b0f14610134578063881ab2dd14610150578063d0e30db01461016c578063e639f991146101765761007b565b80632c46b205146100805780632e1a7d4d146100ac57806347828306146100c8578063663dd36c146100f3575b600080fd5b34801561008c57600080fd5b50610095610192565b6040516100a3929190611d58565b60405180910390f35b6100c660048036036100c19190810190611a86565b61034e565b005b3480156100d457600080fd5b506100dd6105e6565b6040516100ea9190611d36565b60405180910390f35b3480156100ff57600080fd5b5061011a60048036036101159190810190611a86565b61067e565b60405161012b959493929190611e08565b60405180910390f35b61014e600480360361014991908101906119de565b61082c565b005b61016a600480360361016591908101906119a2565b610b03565b005b610174610eda565b005b610190600480360361018b9190810190611a32565b6110d9565b005b60606000600260003373ffffffffffffffffffffffffffffffffffffffff1673ffffffffffffffffffffffffffffffffffffffff16815260200190815260200160002060030160009054906101000a900460ff16610225576040517f08c379a000000000000000000000000000000000000000000000000000000000815260040161021c90611de8565b60405180910390fd5b600260003373ffffffffffffffffffffffffffffffffffffffff1673ffffffffffffffffffffffffffffffffffffffff168152602001908152602001600020600001600260003373ffffffffffffffffffffffffffffffffffffffff1673ffffffffffffffffffffffffffffffffffffffff16815260200190815260200160002060020154818054600181600116156101000203166002900480601f01602080910402602001604051908101604052809291908181526020018280546001816001161561010002031660029004801561033f5780601f106103145761010080835404028352916020019161033f565b820191906000526020600020905b81548152906001019060200180831161032257829003601f168201915b50505050509150915091509091565b600260003373ffffffffffffffffffffffffffffffffffffffff1673ffffffffffffffffffffffffffffffffffffffff16815260200190815260200160002060030160009054906101000a900460ff166103dd576040517f08c379a00000000000000000000000000000000000000000000000000000000081526004016103d490611de8565b60405180910390fd5b8080600260003373ffffffffffffffffffffffffffffffffffffffff1673ffffffffffffffffffffffffffffffffffffffff16815260200190815260200160002060020154101561042d57600080fd5b3373ffffffffffffffffffffffffffffffffffffffff166108fc839081150290604051600060405180830381858888f19350505050158015610473573d6000803e3d6000fd5b5081600260003373ffffffffffffffffffffffffffffffffffffffff1673ffffffffffffffffffffffffffffffffffffffff168152602001908152602001600020600201600082825403925050819055506105e2336000600260003373ffffffffffffffffffffffffffffffffffffffff1673ffffffffffffffffffffffffffffffffffffffff1681526020019081526020016000206000018054600181600116156101000203166002900480601f0160208091040260200160405190810160405280929190818152602001828054600181600116156101000203166002900480156105a05780601f10610575576101008083540402835291602001916105a0565b820191906000526020600020905b81548152906001019060200180831161058357829003601f168201915b50505050506040518060400160405280600f81526020017f65787465726e616c2077616c6c657400000000000000000000000000000000008152508642611490565b5050565b6060600260003373ffffffffffffffffffffffffffffffffffffffff1673ffffffffffffffffffffffffffffffffffffffff16815260200190815260200160002060040180548060200260200160405190810160405280929190818152602001828054801561067457602002820191906000526020600020905b815481526020019060010190808311610660575b5050505050905090565b6000606080600080856004600088815260200190815260200160002060020160046000898152602001908152602001600020600301600460008a815260200190815260200160002060040154600460008b815260200190815260200160002060050154838054600181600116156101000203166002900480601f0160208091040260200160405190810160405280929190818152602001828054600181600116156101000203166002900480156107765780601f1061074b57610100808354040283529160200191610776565b820191906000526020600020905b81548152906001019060200180831161075957829003601f168201915b50505050509350828054600181600116156101000203166002900480601f0160208091040260200160405190810160405280929190818152602001828054600181600116156101000203166002900480156108125780601f106107e757610100808354040283529160200191610812565b820191906000526020600020905b8154815290600101906020018083116107f557829003601f168201915b505050505092509450945094509450945091939590929450565b60001515600260008373ffffffffffffffffffffffffffffffffffffffff1673ffffffffffffffffffffffffffffffffffffffff16815260200190815260200160002060030160009054906101000a900460ff161515146108c2576040517f08c379a00000000000000000000000000000000000000000000000000000000081526004016108b990611da8565b60405180910390fd5b600073ffffffffffffffffffffffffffffffffffffffff166003836040516108ea9190611d1f565b908152602001604051809103902060009054906101000a900473ffffffffffffffffffffffffffffffffffffffff1673ffffffffffffffffffffffffffffffffffffffff161461096f576040517f08c379a000000000000000000000000000000000000000000000000000000000815260040161096690611dc8565b60405180910390fd5b81600260008373ffffffffffffffffffffffffffffffffffffffff1673ffffffffffffffffffffffffffffffffffffffff16815260200190815260200160002060000190805190602001906109c59291906117b7565b5080600260008373ffffffffffffffffffffffffffffffffffffffff1673ffffffffffffffffffffffffffffffffffffffff16815260200190815260200160002060010160006101000a81548173ffffffffffffffffffffffffffffffffffffffff021916908373ffffffffffffffffffffffffffffffffffffffff1602179055506001600260008373ffffffffffffffffffffffffffffffffffffffff1673ffffffffffffffffffffffffffffffffffffffff16815260200190815260200160002060030160006101000a81548160ff02191690831515021790555080600383604051610ab39190611d1f565b908152602001604051809103902060006101000a81548173ffffffffffffffffffffffffffffffffffffffff021916908373ffffffffffffffffffffffffffffffffffffffff1602179055505050565b600260003373ffffffffffffffffffffffffffffffffffffffff1673ffffffffffffffffffffffffffffffffffffffff16815260200190815260200160002060030160009054906101000a900460ff16610b92576040517f08c379a0000000000000000000000000000000000000000000000000000000008152600401610b8990611de8565b60405180910390fd5b81600260008273ffffffffffffffffffffffffffffffffffffffff1673ffffffffffffffffffffffffffffffffffffffff16815260200190815260200160002060030160009054906101000a900460ff16610c22576040517f08c379a0000000000000000000000000000000000000000000000000000000008152600401610c1990611d88565b60405180910390fd5b8180600260003373ffffffffffffffffffffffffffffffffffffffff1673ffffffffffffffffffffffffffffffffffffffff168152602001908152602001600020600201541015610c7257600080fd5b82600260008673ffffffffffffffffffffffffffffffffffffffff1673ffffffffffffffffffffffffffffffffffffffff1681526020019081526020016000206002016000828254019250508190555082600260003373ffffffffffffffffffffffffffffffffffffffff1673ffffffffffffffffffffffffffffffffffffffff16815260200190815260200160002060020160008282540392505081905550610ed43385600260003373ffffffffffffffffffffffffffffffffffffffff1673ffffffffffffffffffffffffffffffffffffffff1681526020019081526020016000206000018054600181600116156101000203166002900480601f016020809104026020016040519081016040528092919081815260200182805460018160011615610100020316600290048015610ded5780601f10610dc257610100808354040283529160200191610ded565b820191906000526020600020905b815481529060010190602001808311610dd057829003601f168201915b5050505050600260008973ffffffffffffffffffffffffffffffffffffffff1673ffffffffffffffffffffffffffffffffffffffff1681526020019081526020016000206000018054600181600116156101000203166002900480601f016020809104026020016040519081016040528092919081815260200182805460018160011615610100020316600290048015610ec85780601f10610e9d57610100808354040283529160200191610ec8565b820191906000526020600020905b815481529060010190602001808311610eab57829003601f168201915b50505050508742611490565b50505050565b600260003373ffffffffffffffffffffffffffffffffffffffff1673ffffffffffffffffffffffffffffffffffffffff16815260200190815260200160002060030160009054906101000a900460ff16610f69576040517f08c379a0000000000000000000000000000000000000000000000000000000008152600401610f6090611de8565b60405180910390fd5b34600260003373ffffffffffffffffffffffffffffffffffffffff1673ffffffffffffffffffffffffffffffffffffffff168152602001908152602001600020600201600082825401925050819055506110d73360006040518060400160405280600f81526020017f65787465726e616c2077616c6c65740000000000000000000000000000000000815250600260003373ffffffffffffffffffffffffffffffffffffffff1673ffffffffffffffffffffffffffffffffffffffff1681526020019081526020016000206000018054600181600116156101000203166002900480601f0160208091040260200160405190810160405280929190818152602001828054600181600116156101000203166002900480156110cb5780601f106110a0576101008083540402835291602001916110cb565b820191906000526020600020905b8154815290600101906020018083116110ae57829003601f168201915b50505050503442611490565b565b600260003373ffffffffffffffffffffffffffffffffffffffff1673ffffffffffffffffffffffffffffffffffffffff16815260200190815260200160002060030160009054906101000a900460ff16611168576040517f08c379a000000000000000000000000000000000000000000000000000000000815260040161115f90611de8565b60405180910390fd5b6003826040516111789190611d1f565b908152602001604051809103902060009054906101000a900473ffffffffffffffffffffffffffffffffffffffff16600260008273ffffffffffffffffffffffffffffffffffffffff1673ffffffffffffffffffffffffffffffffffffffff16815260200190815260200160002060030160009054906101000a900460ff16611236576040517f08c379a000000000000000000000000000000000000000000000000000000000815260040161122d90611d88565b60405180910390fd5b8180600260003373ffffffffffffffffffffffffffffffffffffffff1673ffffffffffffffffffffffffffffffffffffffff16815260200190815260200160002060020154101561128657600080fd5b826002600060038760405161129b9190611d1f565b908152602001604051809103902060009054906101000a900473ffffffffffffffffffffffffffffffffffffffff1673ffffffffffffffffffffffffffffffffffffffff1673ffffffffffffffffffffffffffffffffffffffff1681526020019081526020016000206002016000828254019250508190555082600260003373ffffffffffffffffffffffffffffffffffffffff1673ffffffffffffffffffffffffffffffffffffffff1681526020019081526020016000206002016000828254039250508190555061148a336003866040516113789190611d1f565b908152602001604051809103902060009054906101000a900473ffffffffffffffffffffffffffffffffffffffff16600260003373ffffffffffffffffffffffffffffffffffffffff1673ffffffffffffffffffffffffffffffffffffffff1681526020019081526020016000206000018054600181600116156101000203166002900480601f01602080910402602001604051908101604052809291908181526020018280546001816001161561010002031660029004801561147d5780601f106114525761010080835404028352916020019161147d565b820191906000526020600020905b81548152906001019060200180831161146057829003601f168201915b5050505050878742611490565b50505050565b6040518060c001604052808773ffffffffffffffffffffffffffffffffffffffff1681526020018673ffffffffffffffffffffffffffffffffffffffff1681526020018581526020018481526020018381526020018281525060046000600154815260200190815260200160002060008201518160000160006101000a81548173ffffffffffffffffffffffffffffffffffffffff021916908373ffffffffffffffffffffffffffffffffffffffff16021790555060208201518160010160006101000a81548173ffffffffffffffffffffffffffffffffffffffff021916908373ffffffffffffffffffffffffffffffffffffffff16021790555060408201518160020190805190602001906115a8929190611837565b5060608201518160030190805190602001906115c5929190611837565b506080820151816004015560a08201518160050155905050600260008773ffffffffffffffffffffffffffffffffffffffff1673ffffffffffffffffffffffffffffffffffffffff1681526020019081526020016000206004016001549080600181540180825580915050906001820390600052602060002001600090919290919091505550600260008673ffffffffffffffffffffffffffffffffffffffff1673ffffffffffffffffffffffffffffffffffffffff1681526020019081526020016000206004016001549080600181540180825580915050906001820390600052602060002001600090919290919091505550600180600082825401925050819055506000805490505b60015481116117ae57426201518060046000848152602001908152602001600020600501540110156117a15760046000828152602001908152602001600020600080820160006101000a81549073ffffffffffffffffffffffffffffffffffffffff02191690556001820160006101000a81549073ffffffffffffffffffffffffffffffffffffffff021916905560028201600061176e91906118b7565b60038201600061177e91906118b7565b600482016000905560058201600090555050600160008082825401925050819055505b80806001019150506116d0565b50505050505050565b828054600181600116156101000203166002900490600052602060002090601f016020900481019282601f106117f857805160ff1916838001178555611826565b82800160010185558215611826579182015b8281111561182557825182559160200191906001019061180a565b5b50905061183391906118ff565b5090565b828054600181600116156101000203166002900490600052602060002090601f016020900481019282601f1061187857805160ff19168380011785556118a6565b828001600101855582156118a6579182015b828111156118a557825182559160200191906001019061188a565b5b5090506118b391906118ff565b5090565b50805460018160011615610100020316600290046000825580601f106118dd57506118fc565b601f0160209004906000526020600020908101906118fb91906118ff565b5b50565b61192191905b8082111561191d576000816000905550600101611905565b5090565b90565b60008135905061193381611fb1565b92915050565b600082601f83011261194a57600080fd5b813561195d61195882611e96565b611e69565b9150808252602083016020830185838301111561197957600080fd5b611984838284611f5e565b50505092915050565b60008135905061199c81611fc8565b92915050565b600080604083850312156119b557600080fd5b60006119c385828601611924565b92505060206119d48582860161198d565b9150509250929050565b600080604083850312156119f157600080fd5b600083013567ffffffffffffffff811115611a0b57600080fd5b611a1785828601611939565b9250506020611a2885828601611924565b9150509250929050565b60008060408385031215611a4557600080fd5b600083013567ffffffffffffffff811115611a5f57600080fd5b611a6b85828601611939565b9250506020611a7c8582860161198d565b9150509250929050565b600060208284031215611a9857600080fd5b6000611aa68482850161198d565b91505092915050565b6000611abb8383611d01565b60208301905092915050565b6000611ad282611ed2565b611adc8185611ef5565b9350611ae783611ec2565b8060005b83811015611b18578151611aff8882611aaf565b9750611b0a83611ee8565b925050600181019050611aeb565b5085935050505092915050565b6000611b3082611edd565b611b3a8185611f06565b9350611b4a818560208601611f6d565b611b5381611fa0565b840191505092915050565b6000611b6982611edd565b611b738185611f17565b9350611b83818560208601611f6d565b80840191505092915050565b6000611b9c602c83611f06565b91507f4661696c65642120546865207265636569766572206163636f756e7420646f6560008301527f6e732774206578697374732100000000000000000000000000000000000000006020830152604082019050919050565b6000611c02603083611f06565b91507f4661696c656421205468697320616464726573732068617320616c726561647960008301527f206265656e207369676e656420757021000000000000000000000000000000006020830152604082019050919050565b6000611c68603183611f06565b91507f4661696c65642c205468697320757365726e616d652068617320616c7265616460008301527f79206265656e207369676e6564207570210000000000000000000000000000006020830152604082019050919050565b6000611cce601f83611f06565b91507f4661696c65642120596f752068617665206e6f74207369676e656420757021006000830152602082019050919050565b611d0a81611f54565b82525050565b611d1981611f54565b82525050565b6000611d2b8284611b5e565b915081905092915050565b60006020820190508181036000830152611d508184611ac7565b905092915050565b60006040820190508181036000830152611d728185611b25565b9050611d816020830184611d10565b9392505050565b60006020820190508181036000830152611da181611b8f565b9050919050565b60006020820190508181036000830152611dc181611bf5565b9050919050565b60006020820190508181036000830152611de181611c5b565b9050919050565b60006020820190508181036000830152611e0181611cc1565b9050919050565b600060a082019050611e1d6000830188611d10565b8181036020830152611e2f8187611b25565b90508181036040830152611e438186611b25565b9050611e526060830185611d10565b611e5f6080830184611d10565b9695505050505050565b6000604051905081810181811067ffffffffffffffff82111715611e8c57600080fd5b8060405250919050565b600067ffffffffffffffff821115611ead57600080fd5b601f19601f8301169050602081019050919050565b6000819050602082019050919050565b600081519050919050565b600081519050919050565b6000602082019050919050565b600082825260208201905092915050565b600082825260208201905092915050565b600081905092915050565b6000611f2d82611f34565b9050919050565b600073ffffffffffffffffffffffffffffffffffffffff82169050919050565b6000819050919050565b82818337600083830152505050565b60005b83811015611f8b578082015181840152602081019050611f70565b83811115611f9a576000848401525b50505050565b6000601f19601f8301169050919050565b611fba81611f22565b8114611fc557600080fd5b50565b611fd181611f54565b8114611fdc57600080fd5b5056fea365627a7a723158209d4fc33ec128102f05f33d1e460b6d17be2983454eee96bffcadbd14158923fa6c6578706572696d656e74616cf564736f6c63430005100040",
  "source": "pragma solidity >=0.4.22 <0.7.0;\npragma experimental ABIEncoderV2;\n\ncontract AccountsManager {\n    \n    // A User\n    struct User {\n        string username;\n        address payable addr;\n        uint balance;\n        bool valid; // valid or existed user\n        uint[] myRecords; // his/her own transfer records\n        uint[] myGames; // games involving him/her\n    }\n    \n    struct Record {\n        address afrom;\n        address ato;\n        string ufrom;\n        string uto;\n        uint amount;\n        uint time;\n    }\n\n    uint firstRecordID; // the first transfer record ID within one day\n    uint currentRecordID; // current transfer record ID\n\n    mapping (address => User) internal accounts; // account: an address to an user\n    mapping (string => address payable) internal usernames; // username to address\n\n    mapping (uint => Record) records; //transfer record\n\n\n    /*** constructor ***/\n    constructor() public{\n        firstRecordID = 1;\n        currentRecordID = 1;\n    }\n\n    /*** modifiers ***/\n    modifier validUser{\n        require(accounts[msg.sender].valid, \"Failed! You have not signed up!\");\n        _;\n    }\n\n    modifier validReceiver(address to){\n        require(accounts[to].valid, \"Failed! The receiver account doens't exists!\");\n        _;\n    }\n\n    modifier enoughBalance(uint amount){\n        require(accounts[msg.sender].balance >= amount);\n        _;\n    }\n\n    /*** functions ***/\n\n    function create(string memory _username, address payable _addr) public payable{\n        /* create an account using address\n         * args:\n         *  _username: account username, unique\n         *  _addr: your etherum address\n         * requirements:\n         *  _username and _addr not already in.\n         */\n        require(accounts[_addr].valid == false, \"Failed! This address has already been signed up!\");\n        require(usernames[_username] == address(0), \"Failed, This username has already been signed up!\");\n\n        accounts[_addr].username = _username;\n        accounts[_addr].addr = _addr;\n        accounts[_addr].valid = true;\n\n        usernames[_username] = _addr;\n    }\n\n    function deposit() public payable validUser{\n        /* deposit some money into this contract.\n         * args:\n         *  msg.value: amount to deposit\n         * requirements:\n         *  current user valid\n         */\n        accounts[msg.sender].balance += msg.value;\n\n        // log\n        log(msg.sender, address(0), \"external wallet\", accounts[msg.sender].username, msg.value, now);\n    }\n\n    function withdraw(uint amount) public payable validUser enoughBalance(amount){\n        /* withdraw some money from this contract.\n         * args:\n         *  amount: amount to withdraw\n         * requirements:\n         *  current user valid\n         *  enough balance\n         */\n        msg.sender.transfer(amount);\n        accounts[msg.sender].balance -= amount;\n\n        // log\n        log(msg.sender, address(0), accounts[msg.sender].username, \"external wallet\", amount, now);\n    }\n\n    function transferByAddr(address payable to, uint amount) public payable validUser validReceiver(to) enoughBalance(amount){\n        /* transfer using address\n         * args:\n         *  to: address to transfer\n         *  amount amount to transfer\n         * requirements:\n         *  valid sender\n         *  valid receiver\n         *  enough balance.\n         */\n        accounts[to].balance += amount;\n        accounts[msg.sender].balance -= amount;\n\n        // log\n        log(msg.sender, to, accounts[msg.sender].username, accounts[to].username, amount, now);\n    }\n\n    function transferByName(string memory to, uint amount) public payable validUser validReceiver(usernames[to]) enoughBalance(amount){\n        /* transfer using ID\n         * args:\n         *  to: ID to transfer\n         *  amount amount to transfer\n         * requirements:\n         *  valid sender\n         *  valid receiver\n         *  enough balance.\n         */\n        accounts[usernames[to]].balance += amount;\n        accounts[msg.sender].balance -= amount;\n\n        // log\n        log(msg.sender, usernames[to], accounts[msg.sender].username, to, amount, now);\n    }\n\n    /** view **/\n\n    function query() public view validUser returns(string memory, uint){\n        /* query username and balance for current account\n         * returns:\n         *  username: string;\n         *  balance: uint;\n         * requirements:\n         *  current user valid\n         */\n        return (accounts[msg.sender].username, accounts[msg.sender].balance);\n    }\n\n    function getRecordIDs() public view returns(uint[] memory) {\n        return accounts[msg.sender].myRecords;\n    }\n\n    function checkRecords(uint i) public view returns(uint, string memory, string memory, uint, uint){\n        return (i, records[i].ufrom, records[i].uto, records[i].amount, records[i].time);\n    }\n\n    /** private **/\n\n    function log(address payable _afrom, address payable _ato, string memory _ufrom, string memory _uto, uint _amount, uint _time) internal {\n        records[currentRecordID] = Record({\n            afrom: _afrom,\n            ato: _ato,\n            ufrom: _ufrom,\n            uto: _uto,\n            amount: _amount,\n            time: _time\n        });\n        accounts[_afrom].myRecords.push(currentRecordID);\n        accounts[_ato].myRecords.push(currentRecordID);\n        currentRecordID += 1;\n\n        for (uint i = firstRecordID; i <= currentRecordID; i++){\n            if(records[i].time + 24 hours < now){\n                delete records[i];\n                firstRecordID += 1;\n            }\n        }\n    }\n\n}\n",
  "sourcePath": "/home/taliyah/coinflipping/contracts/Accounts.sol",
  "compiler": {
    "name": "solc",
    "version": "0.5.16+commit.9c3226ce.Emscripten.clang"
  },
  "schemaVersion": "3.1.0",
  "updatedAt": "2020-04-25T16:46:07.905Z",
  "devdoc": {
    "methods": {}
  },
  "userdoc": {
    "methods": {
      "constructor": "* constructor **",
      "create(string,address)": {
        "notice": "* functions **"
      },
      "query()": {
        "notice": "view *"
      }
    }
  }
}