{
  "contractName": "CoinFlipping",
  "abi": [
    {
      "inputs": [],
      "payable": false,
      "stateMutability": "nonpayable",
      "type": "constructor"
    },
    {
      "constant": true,
      "inputs": [
        {
          "internalType": "uint256",
          "name": "i",
          "type": "uint256"
        }
      ],
      "name": "checkRecords",
      "outputs": [
        {
          "internalType": "uint256",
          "name": "",
          "type": "uint256"
        },
        {
          "internalType": "string",
          "name": "",
          "type": "string"
        },
        {
          "internalType": "string",
          "name": "",
          "type": "string"
        },
        {
          "internalType": "uint256",
          "name": "",
          "type": "uint256"
        },
        {
          "internalType": "uint256",
          "name": "",
          "type": "uint256"
        }
      ],
      "payable": false,
      "stateMutability": "view",
      "type": "function"
    },
    {
      "constant": false,
      "inputs": [
        {
          "internalType": "string",
          "name": "_username",
          "type": "string"
        },
        {
          "internalType": "address payable",
          "name": "_addr",
          "type": "address"
        }
      ],
      "name": "create",
      "outputs": [],
      "payable": true,
      "stateMutability": "payable",
      "type": "function"
    },
    {
      "constant": false,
      "inputs": [],
      "name": "deposit",
      "outputs": [],
      "payable": true,
      "stateMutability": "payable",
      "type": "function"
    },
    {
      "constant": true,
      "inputs": [],
      "name": "getRecordIDs",
      "outputs": [
        {
          "internalType": "uint256[]",
          "name": "",
          "type": "uint256[]"
        }
      ],
      "payable": false,
      "stateMutability": "view",
      "type": "function"
    },
    {
      "constant": true,
      "inputs": [
        {
          "internalType": "address",
          "name": "",
          "type": "address"
        }
      ],
      "name": "mapPlayers",
      "outputs": [
        {
          "internalType": "address payable",
          "name": "addr",
          "type": "address"
        },
        {
          "internalType": "uint256",
          "name": "number",
          "type": "uint256"
        },
        {
          "internalType": "bytes32",
          "name": "hashNumber",
          "type": "bytes32"
        },
        {
          "internalType": "bool",
          "name": "valid",
          "type": "bool"
        }
      ],
      "payable": false,
      "stateMutability": "view",
      "type": "function"
    },
    {
      "constant": true,
      "inputs": [],
      "name": "query",
      "outputs": [
        {
          "internalType": "string",
          "name": "",
          "type": "string"
        },
        {
          "internalType": "uint256",
          "name": "",
          "type": "uint256"
        }
      ],
      "payable": false,
      "stateMutability": "view",
      "type": "function"
    },
    {
      "constant": false,
      "inputs": [
        {
          "internalType": "address payable",
          "name": "to",
          "type": "address"
        },
        {
          "internalType": "uint256",
          "name": "amount",
          "type": "uint256"
        }
      ],
      "name": "transferByAddr",
      "outputs": [],
      "payable": true,
      "stateMutability": "payable",
      "type": "function"
    },
    {
      "constant": false,
      "inputs": [
        {
          "internalType": "string",
          "name": "to",
          "type": "string"
        },
        {
          "internalType": "uint256",
          "name": "amount",
          "type": "uint256"
        }
      ],
      "name": "transferByName",
      "outputs": [],
      "payable": true,
      "stateMutability": "payable",
      "type": "function"
    },
    {
      "constant": false,
      "inputs": [
        {
          "internalType": "uint256",
          "name": "amount",
          "type": "uint256"
        }
      ],
      "name": "withdraw",
      "outputs": [],
      "payable": true,
      "stateMutability": "payable",
      "type": "function"
    },
    {
      "constant": true,
      "inputs": [],
      "name": "getPlayers",
      "outputs": [
        {
          "internalType": "address payable",
          "name": "",
          "type": "address"
        },
        {
          "internalType": "address payable",
          "name": "",
          "type": "address"
        },
        {
          "internalType": "string",
          "name": "",
          "type": "string"
        },
        {
          "internalType": "string",
          "name": "",
          "type": "string"
        }
      ],
      "payable": false,
      "stateMutability": "view",
      "type": "function"
    },
    {
      "constant": true,
      "inputs": [],
      "name": "queryByBanker",
      "outputs": [
        {
          "internalType": "string",
          "name": "",
          "type": "string"
        },
        {
          "internalType": "uint256",
          "name": "",
          "type": "uint256"
        }
      ],
      "payable": false,
      "stateMutability": "view",
      "type": "function"
    },
    {
      "constant": false,
      "inputs": [
        {
          "internalType": "uint256",
          "name": "amount",
          "type": "uint256"
        }
      ],
      "name": "withdrawByBanker",
      "outputs": [],
      "payable": true,
      "stateMutability": "payable",
      "type": "function"
    },
    {
      "constant": false,
      "inputs": [],
      "name": "joinGame",
      "outputs": [],
      "payable": false,
      "stateMutability": "nonpayable",
      "type": "function"
    },
    {
      "constant": false,
      "inputs": [
        {
          "internalType": "bytes32",
          "name": "hashNumber",
          "type": "bytes32"
        }
      ],
      "name": "sendHash",
      "outputs": [],
      "payable": false,
      "stateMutability": "nonpayable",
      "type": "function"
    },
    {
      "constant": false,
      "inputs": [
        {
          "internalType": "uint256",
          "name": "number",
          "type": "uint256"
        }
      ],
      "name": "sendNumber",
      "outputs": [],
      "payable": false,
      "stateMutability": "nonpayable",
      "type": "function"
    },
    {
      "constant": false,
      "inputs": [],
      "name": "startGame",
      "outputs": [],
      "payable": false,
      "stateMutability": "nonpayable",
      "type": "function"
    },
    {
      "constant": false,
      "inputs": [],
      "name": "checkWinner",
      "outputs": [],
      "payable": false,
      "stateMutability": "nonpayable",
      "type": "function"
    },
    {
      "constant": false,
      "inputs": [],
      "name": "clear",
      "outputs": [],
      "payable": false,
      "stateMutability": "nonpayable",
      "type": "function"
    },
    {
      "constant": true,
      "inputs": [],
      "name": "playerGetWinner",
      "outputs": [
        {
          "internalType": "bool",
          "name": "",
          "type": "bool"
        }
      ],
      "payable": false,
      "stateMutability": "view",
      "type": "function"
    },
    {
      "constant": true,
      "inputs": [],
      "name": "getWinner",
      "outputs": [
        {
          "internalType": "string",
          "name": "",
          "type": "string"
        }
      ],
      "payable": false,
      "stateMutability": "view",
      "type": "function"
    },
    {
      "constant": true,
      "inputs": [],
      "name": "getGameIDs",
      "outputs": [
        {
          "internalType": "uint256[]",
          "name": "",
          "type": "uint256[]"
        }
      ],
      "payable": false,
      "stateMutability": "view",
      "type": "function"
    },
    {
      "constant": true,
      "inputs": [
        {
          "internalType": "uint256",
          "name": "i",
          "type": "uint256"
        }
      ],
      "name": "checkHistory",
      "outputs": [
        {
          "internalType": "uint256",
          "name": "",
          "type": "uint256"
        },
        {
          "internalType": "string",
          "name": "",
          "type": "string"
        },
        {
          "internalType": "string",
          "name": "",
          "type": "string"
        },
        {
          "internalType": "uint256",
          "name": "",
          "type": "uint256"
        },
        {
          "internalType": "uint256",
          "name": "",
          "type": "uint256"
        },
        {
          "internalType": "string",
          "name": "",
          "type": "string"
        }
      ],
      "payable": false,
      "stateMutability": "view",
      "type": "function"
    },
    {
      "constant": true,
      "inputs": [],
      "name": "whoAmI",
      "outputs": [
        {
          "internalType": "uint256",
          "name": "",
          "type": "uint256"
        }
      ],
      "payable": false,
      "stateMutability": "view",
      "type": "function"
    }
  ],
  "bytecode": "0x60806040523480156200001157600080fd5b50600160008190555060018081905550600160068190555062000039620000e860201b60201c565b73e29dec2ffcf4d0a61ed9983ed5369e0eeb4a4708601160000160006101000a81548173ffffffffffffffffffffffffffffffffffffffff021916908373ffffffffffffffffffffffffffffffffffffffff1602179055506040518060400160405280600681526020017f42414e4b4552000000000000000000000000000000000000000000000000000081525060116001019080519060200190620000e192919062000210565b5062000346565b6040518061012001604052806000815260200160008152602001670de0b6b3a76400008152602001603c8152602001600081526020016000815260200160008152602001600073ffffffffffffffffffffffffffffffffffffffff168152602001604051806020016040528060008152508152506007600082015181600001556020820151816001015560408201518160020155606082015181600301556080820151816004015560a0820151816005015560c0820151816006015560e08201518160070160006101000a81548173ffffffffffffffffffffffffffffffffffffffff021916908373ffffffffffffffffffffffffffffffffffffffff1602179055506101008201518160080190805190602001906200020a92919062000297565b50905050565b828054600181600116156101000203166002900490600052602060002090601f016020900481019282601f106200025357805160ff191683800117855562000284565b8280016001018555821562000284579182015b828111156200028357825182559160200191906001019062000266565b5b5090506200029391906200031e565b5090565b828054600181600116156101000203166002900490600052602060002090601f016020900481019282601f10620002da57805160ff19168380011785556200030b565b828001600101855582156200030b579182015b828111156200030a578251825591602001919060010190620002ed565b5b5090506200031a91906200031e565b5090565b6200034391905b808211156200033f57600081600090555060010162000325565b5090565b90565b6151d080620003566000396000f3fe6080604052600436106101405760003560e01c80638b5b9ccc116100b6578063d553622c1161006f578063d553622c146103ce578063d65ab5f2146103f9578063da91254c14610410578063e639f9911461043b578063ee6dd9fa14610457578063eea3f1261461048057610140565b80638b5b9ccc146103215780638e7ea5b21461034f5780639c5872e31461037a578063ad38867e14610396578063d0e30db0146103ad578063d4f77b1c146103b757610140565b80634ec4b6c6116101085780634ec4b6c61461022557806352efea6e14610251578063663dd36c146102685780636b500f55146102a957806384b47b0f146102e9578063881ab2dd1461030557610140565b80632115be1b1461014557806324f363b0146101875780632c46b205146101b25780632e1a7d4d146101de57806347828306146101fa575b600080fd5b34801561015157600080fd5b5061016c600480360361016791908101906145a3565b6104a9565b60405161017e96959493929190614f41565b60405180910390f35b34801561019357600080fd5b5061019c61070d565b6040516101a99190614c78565b60405180910390f35b3480156101be57600080fd5b506101c76107c0565b6040516101d5929190614cb5565b60405180910390f35b6101f860048036036101f391908101906145a3565b61097c565b005b34801561020657600080fd5b5061020f610c14565b60405161021c9190614c56565b60405180910390f35b34801561023157600080fd5b5061023a610cac565b604051610248929190614cb5565b60405180910390f35b34801561025d57600080fd5b50610266610df2565b005b34801561027457600080fd5b5061028f600480360361028a91908101906145a3565b61128e565b6040516102a0959493929190614ee0565b60405180910390f35b3480156102b557600080fd5b506102d060048036036102cb919081019061446d565b61143c565b6040516102e09493929190614c11565b60405180910390f35b61030360048036036102fe91908101906144fb565b611499565b005b61031f600480360361031a9190810190614496565b611770565b005b34801561032d57600080fd5b50610336611b47565b6040516103469493929190614bbe565b60405180910390f35b34801561035b57600080fd5b50610364611dd5565b6040516103719190614c93565b60405180910390f35b610394600480360361038f91908101906145a3565b612012565b005b3480156103a257600080fd5b506103ab61216f565b005b6103b5612868565b005b3480156103c357600080fd5b506103cc612a67565b005b3480156103da57600080fd5b506103e3612ce4565b6040516103f09190614c56565b60405180910390f35b34801561040557600080fd5b5061040e612e31565b005b34801561041c57600080fd5b50610425613044565b6040516104329190614ec5565b60405180910390f35b6104556004803603610450919081019061454f565b61310e565b005b34801561046357600080fd5b5061047e600480360361047991908101906144d2565b6134c5565b005b34801561048c57600080fd5b506104a760048036036104a291908101906145a3565b613675565b005b600060608060008060608660106000898152602001908152602001600020600301601060008a8152602001908152602001600020600401601060008b815260200190815260200160002060050154601060008c815260200190815260200160002060060154601060008d8152602001908152602001600020600801848054600181600116156101000203166002900480601f0160208091040260200160405190810160405280929190818152602001828054600181600116156101000203166002900480156105b95780601f1061058e576101008083540402835291602001916105b9565b820191906000526020600020905b81548152906001019060200180831161059c57829003601f168201915b50505050509450838054600181600116156101000203166002900480601f0160208091040260200160405190810160405280929190818152602001828054600181600116156101000203166002900480156106555780601f1061062a57610100808354040283529160200191610655565b820191906000526020600020905b81548152906001019060200180831161063857829003601f168201915b50505050509350808054600181600116156101000203166002900480601f0160208091040260200160405190810160405280929190818152602001828054600181600116156101000203166002900480156106f15780601f106106c6576101008083540402835291602001916106f1565b820191906000526020600020905b8154815290600101906020018083116106d457829003601f168201915b5050505050905095509550955095509550955091939550919395565b6000600260076000015414610757576040517f08c379a000000000000000000000000000000000000000000000000000000000815260040161074e90614d85565b60405180910390fd5b3373ffffffffffffffffffffffffffffffffffffffff166007800160009054906101000a900473ffffffffffffffffffffffffffffffffffffffff1673ffffffffffffffffffffffffffffffffffffffff1614156107b857600190506107bd565b600090505b90565b60606000600260003373ffffffffffffffffffffffffffffffffffffffff1673ffffffffffffffffffffffffffffffffffffffff16815260200190815260200160002060030160009054906101000a900460ff16610853576040517f08c379a000000000000000000000000000000000000000000000000000000000815260040161084a90614e65565b60405180910390fd5b600260003373ffffffffffffffffffffffffffffffffffffffff1673ffffffffffffffffffffffffffffffffffffffff168152602001908152602001600020600001600260003373ffffffffffffffffffffffffffffffffffffffff1673ffffffffffffffffffffffffffffffffffffffff16815260200190815260200160002060020154818054600181600116156101000203166002900480601f01602080910402602001604051908101604052809291908181526020018280546001816001161561010002031660029004801561096d5780601f106109425761010080835404028352916020019161096d565b820191906000526020600020905b81548152906001019060200180831161095057829003601f168201915b50505050509150915091509091565b600260003373ffffffffffffffffffffffffffffffffffffffff1673ffffffffffffffffffffffffffffffffffffffff16815260200190815260200160002060030160009054906101000a900460ff16610a0b576040517f08c379a0000000000000000000000000000000000000000000000000000000008152600401610a0290614e65565b60405180910390fd5b8080600260003373ffffffffffffffffffffffffffffffffffffffff1673ffffffffffffffffffffffffffffffffffffffff168152602001908152602001600020600201541015610a5b57600080fd5b3373ffffffffffffffffffffffffffffffffffffffff166108fc839081150290604051600060405180830381858888f19350505050158015610aa1573d6000803e3d6000fd5b5081600260003373ffffffffffffffffffffffffffffffffffffffff1673ffffffffffffffffffffffffffffffffffffffff16815260200190815260200160002060020160008282540392505081905550610c10336000600260003373ffffffffffffffffffffffffffffffffffffffff1673ffffffffffffffffffffffffffffffffffffffff1681526020019081526020016000206000018054600181600116156101000203166002900480601f016020809104026020016040519081016040528092919081815260200182805460018160011615610100020316600290048015610bce5780601f10610ba357610100808354040283529160200191610bce565b820191906000526020600020905b815481529060010190602001808311610bb157829003601f168201915b50505050506040518060400160405280600f81526020017f65787465726e616c2077616c6c657400000000000000000000000000000000008152508642613825565b5050565b6060600260003373ffffffffffffffffffffffffffffffffffffffff1673ffffffffffffffffffffffffffffffffffffffff168152602001908152602001600020600401805480602002602001604051908101604052809291908181526020018280548015610ca257602002820191906000526020600020905b815481526020019060010190808311610c8e575b5050505050905090565b60606000601160000160009054906101000a900473ffffffffffffffffffffffffffffffffffffffff1673ffffffffffffffffffffffffffffffffffffffff163373ffffffffffffffffffffffffffffffffffffffff1614610d43576040517f08c379a0000000000000000000000000000000000000000000000000000000008152600401610d3a90614d65565b60405180910390fd5b6011600101601160020154818054600181600116156101000203166002900480601f016020809104026020016040519081016040528092919081815260200182805460018160011615610100020316600290048015610de35780601f10610db857610100808354040283529160200191610de3565b820191906000526020600020905b815481529060010190602001808311610dc657829003601f168201915b50505050509150915091509091565b600260076000015414610e3a576040517f08c379a0000000000000000000000000000000000000000000000000000000008152600401610e3190614d85565b60405180910390fd5b601160000160009054906101000a900473ffffffffffffffffffffffffffffffffffffffff1673ffffffffffffffffffffffffffffffffffffffff163373ffffffffffffffffffffffffffffffffffffffff1614610ecd576040517f08c379a0000000000000000000000000000000000000000000000000000000008152600401610ec490614d65565b60405180910390fd5b61127c6006546015600060028110610ee157fe5b0160009054906101000a900473ffffffffffffffffffffffffffffffffffffffff166015600160028110610f1157fe5b0160009054906101000a900473ffffffffffffffffffffffffffffffffffffffff16600260006015600060028110610f4557fe5b0160009054906101000a900473ffffffffffffffffffffffffffffffffffffffff1673ffffffffffffffffffffffffffffffffffffffff1673ffffffffffffffffffffffffffffffffffffffff1681526020019081526020016000206000018054600181600116156101000203166002900480601f0160208091040260200160405190810160405280929190818152602001828054600181600116156101000203166002900480156110385780601f1061100d57610100808354040283529160200191611038565b820191906000526020600020905b81548152906001019060200180831161101b57829003601f168201915b505050505060026000601560016002811061104f57fe5b0160009054906101000a900473ffffffffffffffffffffffffffffffffffffffff1673ffffffffffffffffffffffffffffffffffffffff1673ffffffffffffffffffffffffffffffffffffffff1681526020019081526020016000206000018054600181600116156101000203166002900480601f0160208091040260200160405190810160405280929190818152602001828054600181600116156101000203166002900480156111425780601f1061111757610100808354040283529160200191611142565b820191906000526020600020905b81548152906001019060200180831161112557829003601f168201915b50505050506007600501546007600601546007800160009054906101000a900473ffffffffffffffffffffffffffffffffffffffff16600260006007800160009054906101000a900473ffffffffffffffffffffffffffffffffffffffff1673ffffffffffffffffffffffffffffffffffffffff1673ffffffffffffffffffffffffffffffffffffffff1681526020019081526020016000206000018054600181600116156101000203166002900480601f0160208091040260200160405190810160405280929190818152602001828054600181600116156101000203166002900480156112725780601f1061124757610100808354040283529160200191611272565b820191906000526020600020905b81548152906001019060200180831161125557829003601f168201915b5050505050613b4c565b611284613f81565b61128c61407c565b565b6000606080600080856004600088815260200190815260200160002060020160046000898152602001908152602001600020600301600460008a815260200190815260200160002060040154600460008b815260200190815260200160002060050154838054600181600116156101000203166002900480601f0160208091040260200160405190810160405280929190818152602001828054600181600116156101000203166002900480156113865780601f1061135b57610100808354040283529160200191611386565b820191906000526020600020905b81548152906001019060200180831161136957829003601f168201915b50505050509350828054600181600116156101000203166002900480601f0160208091040260200160405190810160405280929190818152602001828054600181600116156101000203166002900480156114225780601f106113f757610100808354040283529160200191611422565b820191906000526020600020905b81548152906001019060200180831161140557829003601f168201915b505050505092509450945094509450945091939590929450565b60176020528060005260406000206000915090508060000160009054906101000a900473ffffffffffffffffffffffffffffffffffffffff16908060010154908060020154908060030160009054906101000a900460ff16905084565b60001515600260008373ffffffffffffffffffffffffffffffffffffffff1673ffffffffffffffffffffffffffffffffffffffff16815260200190815260200160002060030160009054906101000a900460ff1615151461152f576040517f08c379a000000000000000000000000000000000000000000000000000000000815260040161152690614e25565b60405180910390fd5b600073ffffffffffffffffffffffffffffffffffffffff166003836040516115579190614b8c565b908152602001604051809103902060009054906101000a900473ffffffffffffffffffffffffffffffffffffffff1673ffffffffffffffffffffffffffffffffffffffff16146115dc576040517f08c379a00000000000000000000000000000000000000000000000000000000081526004016115d390614e45565b60405180910390fd5b81600260008373ffffffffffffffffffffffffffffffffffffffff1673ffffffffffffffffffffffffffffffffffffffff16815260200190815260200160002060000190805190602001906116329291906141a2565b5080600260008373ffffffffffffffffffffffffffffffffffffffff1673ffffffffffffffffffffffffffffffffffffffff16815260200190815260200160002060010160006101000a81548173ffffffffffffffffffffffffffffffffffffffff021916908373ffffffffffffffffffffffffffffffffffffffff1602179055506001600260008373ffffffffffffffffffffffffffffffffffffffff1673ffffffffffffffffffffffffffffffffffffffff16815260200190815260200160002060030160006101000a81548160ff021916908315150217905550806003836040516117209190614b8c565b908152602001604051809103902060006101000a81548173ffffffffffffffffffffffffffffffffffffffff021916908373ffffffffffffffffffffffffffffffffffffffff1602179055505050565b600260003373ffffffffffffffffffffffffffffffffffffffff1673ffffffffffffffffffffffffffffffffffffffff16815260200190815260200160002060030160009054906101000a900460ff166117ff576040517f08c379a00000000000000000000000000000000000000000000000000000000081526004016117f690614e65565b60405180910390fd5b81600260008273ffffffffffffffffffffffffffffffffffffffff1673ffffffffffffffffffffffffffffffffffffffff16815260200190815260200160002060030160009054906101000a900460ff1661188f576040517f08c379a000000000000000000000000000000000000000000000000000000000815260040161188690614d25565b60405180910390fd5b8180600260003373ffffffffffffffffffffffffffffffffffffffff1673ffffffffffffffffffffffffffffffffffffffff1681526020019081526020016000206002015410156118df57600080fd5b82600260008673ffffffffffffffffffffffffffffffffffffffff1673ffffffffffffffffffffffffffffffffffffffff1681526020019081526020016000206002016000828254019250508190555082600260003373ffffffffffffffffffffffffffffffffffffffff1673ffffffffffffffffffffffffffffffffffffffff16815260200190815260200160002060020160008282540392505081905550611b413385600260003373ffffffffffffffffffffffffffffffffffffffff1673ffffffffffffffffffffffffffffffffffffffff1681526020019081526020016000206000018054600181600116156101000203166002900480601f016020809104026020016040519081016040528092919081815260200182805460018160011615610100020316600290048015611a5a5780601f10611a2f57610100808354040283529160200191611a5a565b820191906000526020600020905b815481529060010190602001808311611a3d57829003601f168201915b5050505050600260008973ffffffffffffffffffffffffffffffffffffffff1673ffffffffffffffffffffffffffffffffffffffff1681526020019081526020016000206000018054600181600116156101000203166002900480601f016020809104026020016040519081016040528092919081815260200182805460018160011615610100020316600290048015611b355780601f10611b0a57610100808354040283529160200191611b35565b820191906000526020600020905b815481529060010190602001808311611b1857829003601f168201915b50505050508742613825565b50505050565b6000806060806015600060028110611b5b57fe5b0160009054906101000a900473ffffffffffffffffffffffffffffffffffffffff166015600160028110611b8b57fe5b0160009054906101000a900473ffffffffffffffffffffffffffffffffffffffff16600260006015600060028110611bbf57fe5b0160009054906101000a900473ffffffffffffffffffffffffffffffffffffffff1673ffffffffffffffffffffffffffffffffffffffff1673ffffffffffffffffffffffffffffffffffffffff168152602001908152602001600020600001600260006015600160028110611c3057fe5b0160009054906101000a900473ffffffffffffffffffffffffffffffffffffffff1673ffffffffffffffffffffffffffffffffffffffff1673ffffffffffffffffffffffffffffffffffffffff168152602001908152602001600020600001818054600181600116156101000203166002900480601f016020809104026020016040519081016040528092919081815260200182805460018160011615610100020316600290048015611d245780601f10611cf957610100808354040283529160200191611d24565b820191906000526020600020905b815481529060010190602001808311611d0757829003601f168201915b50505050509150808054600181600116156101000203166002900480601f016020809104026020016040519081016040528092919081815260200182805460018160011615610100020316600290048015611dc05780601f10611d9557610100808354040283529160200191611dc0565b820191906000526020600020905b815481529060010190602001808311611da357829003601f168201915b50505050509050935093509350935090919293565b6060600260076000015414611e1f576040517f08c379a0000000000000000000000000000000000000000000000000000000008152600401611e1690614d85565b60405180910390fd5b601160000160009054906101000a900473ffffffffffffffffffffffffffffffffffffffff1673ffffffffffffffffffffffffffffffffffffffff166007800160009054906101000a900473ffffffffffffffffffffffffffffffffffffffff1673ffffffffffffffffffffffffffffffffffffffff161415611ed9576040518060400160405280601781526020017f416c6c206368656174656421204e6f2057696e6e657221000000000000000000815250905061200f565b600073ffffffffffffffffffffffffffffffffffffffff166007800160009054906101000a900473ffffffffffffffffffffffffffffffffffffffff1673ffffffffffffffffffffffffffffffffffffffff1614611fd65760076008018054600181600116156101000203166002900480601f016020809104026020016040519081016040528092919081815260200182805460018160011615610100020316600290048015611fca5780601f10611f9f57610100808354040283529160200191611fca565b820191906000526020600020905b815481529060010190602001808311611fad57829003601f168201915b5050505050905061200f565b6040518060400160405280601081526020017f4e6f7420636865636b656420796574210000000000000000000000000000000081525090505b90565b601160000160009054906101000a900473ffffffffffffffffffffffffffffffffffffffff1673ffffffffffffffffffffffffffffffffffffffff163373ffffffffffffffffffffffffffffffffffffffff16146120a5576040517f08c379a000000000000000000000000000000000000000000000000000000000815260040161209c90614d65565b60405180910390fd5b8060116002015410156120ed576040517f08c379a00000000000000000000000000000000000000000000000000000000081526004016120e490614e05565b60405180910390fd5b601160000160009054906101000a900473ffffffffffffffffffffffffffffffffffffffff1673ffffffffffffffffffffffffffffffffffffffff166108fc829081150290604051600060405180830381858888f19350505050158015612158573d6000803e3d6000fd5b508060116002016000828254039250508190555050565b60076006015442116121b6576040517f08c379a00000000000000000000000000000000000000000000000000000000081526004016121ad90614d05565b60405180910390fd5b6002600760010154146121fe576040517f08c379a00000000000000000000000000000000000000000000000000000000081526004016121f590614da5565b60405180910390fd5b601160000160009054906101000a900473ffffffffffffffffffffffffffffffffffffffff1673ffffffffffffffffffffffffffffffffffffffff163373ffffffffffffffffffffffffffffffffffffffff1614612291576040517f08c379a000000000000000000000000000000000000000000000000000000000815260040161228890614d65565b60405180910390fd5b600260076000015414156122a457612866565b600260076000018190555060008090505b6007600101548110156124725760176000601583600281106122d357fe5b0160009054906101000a900473ffffffffffffffffffffffffffffffffffffffff1673ffffffffffffffffffffffffffffffffffffffff1673ffffffffffffffffffffffffffffffffffffffff168152602001908152602001600020600101546040516020016123439190614ba3565b60405160208183030381529060405280519060200120601760006015846002811061236a57fe5b0160009054906101000a900473ffffffffffffffffffffffffffffffffffffffff1673ffffffffffffffffffffffffffffffffffffffff1673ffffffffffffffffffffffffffffffffffffffff168152602001908152602001600020600201541415612465576018601582600281106123df57fe5b0160009054906101000a900473ffffffffffffffffffffffffffffffffffffffff1690806001815401808255809150509060018203906000526020600020016000909192909190916101000a81548173ffffffffffffffffffffffffffffffffffffffff021916908373ffffffffffffffffffffffffffffffffffffffff160217905550505b80806001019150506122b5565b50600060188054905011156125b657600080905060008090505b6018805490508110156125245760176000601883815481106124aa57fe5b9060005260206000200160009054906101000a900473ffffffffffffffffffffffffffffffffffffffff1673ffffffffffffffffffffffffffffffffffffffff1673ffffffffffffffffffffffffffffffffffffffff1681526020019081526020016000206001015482019150808060010191505061248c565b50601880549050818161253357fe5b0690506018818154811061254357fe5b9060005260206000200160009054906101000a900473ffffffffffffffffffffffffffffffffffffffff166007800160006101000a81548173ffffffffffffffffffffffffffffffffffffffff021916908373ffffffffffffffffffffffffffffffffffffffff1602179055505061261f565b601160000160009054906101000a900473ffffffffffffffffffffffffffffffffffffffff166007800160006101000a81548173ffffffffffffffffffffffffffffffffffffffff021916908373ffffffffffffffffffffffffffffffffffffffff1602179055505b601160000160009054906101000a900473ffffffffffffffffffffffffffffffffffffffff1673ffffffffffffffffffffffffffffffffffffffff163373ffffffffffffffffffffffffffffffffffffffff1614801561268457506000600760040154115b156127da57601160000160009054906101000a900473ffffffffffffffffffffffffffffffffffffffff1673ffffffffffffffffffffffffffffffffffffffff166007800160009054906101000a900473ffffffffffffffffffffffffffffffffffffffff1673ffffffffffffffffffffffffffffffffffffffff16146127b5576064605f600760040154028161271757fe5b04600260006007800160009054906101000a900473ffffffffffffffffffffffffffffffffffffffff1673ffffffffffffffffffffffffffffffffffffffff1673ffffffffffffffffffffffffffffffffffffffff1681526020019081526020016000206002016000828254019250508190555060646005600760040154028161279d57fe5b046011600201600082825401925050819055506127ce565b6007600401546011600201600082825401925050819055505b60006007600401819055505b600260006007800160009054906101000a900473ffffffffffffffffffffffffffffffffffffffff1673ffffffffffffffffffffffffffffffffffffffff1673ffffffffffffffffffffffffffffffffffffffff16815260200190815260200160002060000160076008019080546001816001161561010002031660029004612864929190614222565b505b565b600260003373ffffffffffffffffffffffffffffffffffffffff1673ffffffffffffffffffffffffffffffffffffffff16815260200190815260200160002060030160009054906101000a900460ff166128f7576040517f08c379a00000000000000000000000000000000000000000000000000000000081526004016128ee90614e65565b60405180910390fd5b34600260003373ffffffffffffffffffffffffffffffffffffffff1673ffffffffffffffffffffffffffffffffffffffff16815260200190815260200160002060020160008282540192505081905550612a653360006040518060400160405280600f81526020017f65787465726e616c2077616c6c65740000000000000000000000000000000000815250600260003373ffffffffffffffffffffffffffffffffffffffff1673ffffffffffffffffffffffffffffffffffffffff1681526020019081526020016000206000018054600181600116156101000203166002900480601f016020809104026020016040519081016040528092919081815260200182805460018160011615610100020316600290048015612a595780601f10612a2e57610100808354040283529160200191612a59565b820191906000526020600020905b815481529060010190602001808311612a3c57829003601f168201915b50505050503442613825565b565b600060076000015414612aaf576040517f08c379a0000000000000000000000000000000000000000000000000000000008152600401612aa690614ea5565b60405180910390fd5b600260076001015410612af7576040517f08c379a0000000000000000000000000000000000000000000000000000000008152600401612aee90614ce5565b60405180910390fd5b600760020154600260003373ffffffffffffffffffffffffffffffffffffffff1673ffffffffffffffffffffffffffffffffffffffff168152602001908152602001600020600201541015612b81576040517f08c379a0000000000000000000000000000000000000000000000000000000008152600401612b7890614dc5565b60405180910390fd5b33601560076001015460028110612b9457fe5b0160006101000a81548173ffffffffffffffffffffffffffffffffffffffff021916908373ffffffffffffffffffffffffffffffffffffffff16021790555060405180608001604052803373ffffffffffffffffffffffffffffffffffffffff168152602001600081526020016000801b815260200160011515815250601760003373ffffffffffffffffffffffffffffffffffffffff1673ffffffffffffffffffffffffffffffffffffffff16815260200190815260200160002060008201518160000160006101000a81548173ffffffffffffffffffffffffffffffffffffffff021916908373ffffffffffffffffffffffffffffffffffffffff160217905550602082015181600101556040820151816002015560608201518160030160006101000a81548160ff0219169083151502179055509050506001600760010160008282540192505081905550565b6060601160000160009054906101000a900473ffffffffffffffffffffffffffffffffffffffff1673ffffffffffffffffffffffffffffffffffffffff163373ffffffffffffffffffffffffffffffffffffffff161415612d9a576011600301805480602002602001604051908101604052809291908181526020018280548015612d8e57602002820191906000526020600020905b815481526020019060010190808311612d7a575b50505050509050612e2e565b600260003373ffffffffffffffffffffffffffffffffffffffff1673ffffffffffffffffffffffffffffffffffffffff168152602001908152602001600020600501805480602002602001604051908101604052809291908181526020018280548015612e2657602002820191906000526020600020905b815481526020019060010190808311612e12575b505050505090505b90565b600060076000015414612e79576040517f08c379a0000000000000000000000000000000000000000000000000000000008152600401612e7090614ea5565b60405180910390fd5b600260076001015414612ec1576040517f08c379a0000000000000000000000000000000000000000000000000000000008152600401612eb890614da5565b60405180910390fd5b601160000160009054906101000a900473ffffffffffffffffffffffffffffffffffffffff1673ffffffffffffffffffffffffffffffffffffffff163373ffffffffffffffffffffffffffffffffffffffff1614612f54576040517f08c379a0000000000000000000000000000000000000000000000000000000008152600401612f4b90614d65565b60405180910390fd5b6001600760000181905550426007600501819055506007600301546007600501540160076006018190555060008090505b600760010154811015613022576007600201546002600060158460028110612fa957fe5b0160009054906101000a900473ffffffffffffffffffffffffffffffffffffffff1673ffffffffffffffffffffffffffffffffffffffff1673ffffffffffffffffffffffffffffffffffffffff168152602001908152602001600020600201600082825403925050819055508080600101915050612f85565b5060076001015460076002015402600760040160008282540192505081905550565b60003373ffffffffffffffffffffffffffffffffffffffff16601160000160009054906101000a900473ffffffffffffffffffffffffffffffffffffffff1673ffffffffffffffffffffffffffffffffffffffff1614156130a8576002905061310b565b600260003373ffffffffffffffffffffffffffffffffffffffff1673ffffffffffffffffffffffffffffffffffffffff16815260200190815260200160002060030160009054906101000a900460ff1615613106576001905061310b565b600090505b90565b600260003373ffffffffffffffffffffffffffffffffffffffff1673ffffffffffffffffffffffffffffffffffffffff16815260200190815260200160002060030160009054906101000a900460ff1661319d576040517f08c379a000000000000000000000000000000000000000000000000000000000815260040161319490614e65565b60405180910390fd5b6003826040516131ad9190614b8c565b908152602001604051809103902060009054906101000a900473ffffffffffffffffffffffffffffffffffffffff16600260008273ffffffffffffffffffffffffffffffffffffffff1673ffffffffffffffffffffffffffffffffffffffff16815260200190815260200160002060030160009054906101000a900460ff1661326b576040517f08c379a000000000000000000000000000000000000000000000000000000000815260040161326290614d25565b60405180910390fd5b8180600260003373ffffffffffffffffffffffffffffffffffffffff1673ffffffffffffffffffffffffffffffffffffffff1681526020019081526020016000206002015410156132bb57600080fd5b82600260006003876040516132d09190614b8c565b908152602001604051809103902060009054906101000a900473ffffffffffffffffffffffffffffffffffffffff1673ffffffffffffffffffffffffffffffffffffffff1673ffffffffffffffffffffffffffffffffffffffff1681526020019081526020016000206002016000828254019250508190555082600260003373ffffffffffffffffffffffffffffffffffffffff1673ffffffffffffffffffffffffffffffffffffffff168152602001908152602001600020600201600082825403925050819055506134bf336003866040516133ad9190614b8c565b908152602001604051809103902060009054906101000a900473ffffffffffffffffffffffffffffffffffffffff16600260003373ffffffffffffffffffffffffffffffffffffffff1673ffffffffffffffffffffffffffffffffffffffff1681526020019081526020016000206000018054600181600116156101000203166002900480601f0160208091040260200160405190810160405280929190818152602001828054600181600116156101000203166002900480156134b25780601f10613487576101008083540402835291602001916134b2565b820191906000526020600020905b81548152906001019060200180831161349557829003601f168201915b5050505050878742613825565b50505050565b60016007600001541461350d576040517f08c379a000000000000000000000000000000000000000000000000000000000815260040161350490614d45565b60405180910390fd5b6007600601544210613554576040517f08c379a000000000000000000000000000000000000000000000000000000000815260040161354b90614de5565b60405180910390fd5b60026007600101541461359c576040517f08c379a000000000000000000000000000000000000000000000000000000000815260040161359390614da5565b60405180910390fd5b601760003373ffffffffffffffffffffffffffffffffffffffff1673ffffffffffffffffffffffffffffffffffffffff16815260200190815260200160002060030160009054906101000a900460ff1661362b576040517f08c379a000000000000000000000000000000000000000000000000000000000815260040161362290614e85565b60405180910390fd5b80601760003373ffffffffffffffffffffffffffffffffffffffff1673ffffffffffffffffffffffffffffffffffffffff1681526020019081526020016000206002018190555050565b6001600760000154146136bd576040517f08c379a00000000000000000000000000000000000000000000000000000000081526004016136b490614d45565b60405180910390fd5b6007600601544211613704576040517f08c379a00000000000000000000000000000000000000000000000000000000081526004016136fb90614d05565b60405180910390fd5b60026007600101541461374c576040517f08c379a000000000000000000000000000000000000000000000000000000000815260040161374390614da5565b60405180910390fd5b601760003373ffffffffffffffffffffffffffffffffffffffff1673ffffffffffffffffffffffffffffffffffffffff16815260200190815260200160002060030160009054906101000a900460ff166137db576040517f08c379a00000000000000000000000000000000000000000000000000000000081526004016137d290614e85565b60405180910390fd5b80601760003373ffffffffffffffffffffffffffffffffffffffff1673ffffffffffffffffffffffffffffffffffffffff1681526020019081526020016000206001018190555050565b6040518060c001604052808773ffffffffffffffffffffffffffffffffffffffff1681526020018673ffffffffffffffffffffffffffffffffffffffff1681526020018581526020018481526020018381526020018281525060046000600154815260200190815260200160002060008201518160000160006101000a81548173ffffffffffffffffffffffffffffffffffffffff021916908373ffffffffffffffffffffffffffffffffffffffff16021790555060208201518160010160006101000a81548173ffffffffffffffffffffffffffffffffffffffff021916908373ffffffffffffffffffffffffffffffffffffffff160217905550604082015181600201908051906020019061393d9291906142a9565b50606082015181600301908051906020019061395a9291906142a9565b506080820151816004015560a08201518160050155905050600260008773ffffffffffffffffffffffffffffffffffffffff1673ffffffffffffffffffffffffffffffffffffffff1681526020019081526020016000206004016001549080600181540180825580915050906001820390600052602060002001600090919290919091505550600260008673ffffffffffffffffffffffffffffffffffffffff1673ffffffffffffffffffffffffffffffffffffffff1681526020019081526020016000206004016001549080600181540180825580915050906001820390600052602060002001600090919290919091505550600180600082825401925050819055506000805490505b6001548111613b435742620151806004600084815260200190815260200160002060050154011015613b365760046000828152602001908152602001600020600080820160006101000a81549073ffffffffffffffffffffffffffffffffffffffff02191690556001820160006101000a81549073ffffffffffffffffffffffffffffffffffffffff0219169055600282016000613b039190614329565b600382016000613b139190614329565b600482016000905560058201600090555050600160008082825401925050819055505b8080600101915050613a65565b50505050505050565b6040518061012001604052808a81526020018973ffffffffffffffffffffffffffffffffffffffff1681526020018873ffffffffffffffffffffffffffffffffffffffff1681526020018781526020018681526020018581526020018481526020018373ffffffffffffffffffffffffffffffffffffffff168152602001828152506010600060065481526020019081526020016000206000820151816000015560208201518160010160006101000a81548173ffffffffffffffffffffffffffffffffffffffff021916908373ffffffffffffffffffffffffffffffffffffffff16021790555060408201518160020160006101000a81548173ffffffffffffffffffffffffffffffffffffffff021916908373ffffffffffffffffffffffffffffffffffffffff1602179055506060820151816003019080519060200190613c979291906142a9565b506080820151816004019080519060200190613cb49291906142a9565b5060a0820151816005015560c0820151816006015560e08201518160070160006101000a81548173ffffffffffffffffffffffffffffffffffffffff021916908373ffffffffffffffffffffffffffffffffffffffff160217905550610100820151816008019080519060200190613d2d9291906142a9565b50905050600260008973ffffffffffffffffffffffffffffffffffffffff1673ffffffffffffffffffffffffffffffffffffffff1681526020019081526020016000206005016006549080600181540180825580915050906001820390600052602060002001600090919290919091505550600260008873ffffffffffffffffffffffffffffffffffffffff1673ffffffffffffffffffffffffffffffffffffffff1681526020019081526020016000206005016006549080600181540180825580915050906001820390600052602060002001600090919290919091505550601160030160065490806001815401808255809150509060018203906000526020600020016000909192909190915055506001600660008282540192505081905550600060055490505b6006548111613f755742620151806010600084815260200190815260200160002060050154011015613f6857601060008281526020019081526020016000206000808201600090556001820160006101000a81549073ffffffffffffffffffffffffffffffffffffffff02191690556002820160006101000a81549073ffffffffffffffffffffffffffffffffffffffff0219169055600382016000613efd9190614329565b600482016000613f0d9190614329565b600582016000905560068201600090556007820160006101000a81549073ffffffffffffffffffffffffffffffffffffffff0219169055600882016000613f549190614329565b505060016005600082825401925050819055505b8080600101915050613e57565b50505050505050505050565b6000600190505b60076001015481101561405d576017600060158360028110613fa657fe5b0160009054906101000a900473ffffffffffffffffffffffffffffffffffffffff1673ffffffffffffffffffffffffffffffffffffffff1673ffffffffffffffffffffffffffffffffffffffff168152602001908152602001600020600080820160006101000a81549073ffffffffffffffffffffffffffffffffffffffff0219169055600182016000905560028201600090556003820160006101000a81549060ff021916905550508080600101915050613f88565b506015600061406c9190614371565b6018600061407a919061437f565b565b6040518061012001604052806000815260200160008152602001670de0b6b3a76400008152602001603c8152602001600081526020016000815260200160008152602001600073ffffffffffffffffffffffffffffffffffffffff168152602001604051806020016040528060008152508152506007600082015181600001556020820151816001015560408201518160020155606082015181600301556080820151816004015560a0820151816005015560c0820151816006015560e08201518160070160006101000a81548173ffffffffffffffffffffffffffffffffffffffff021916908373ffffffffffffffffffffffffffffffffffffffff16021790555061010082015181600801908051906020019061419c9291906142a9565b50905050565b828054600181600116156101000203166002900490600052602060002090601f016020900481019282601f106141e357805160ff1916838001178555614211565b82800160010185558215614211579182015b828111156142105782518255916020019190600101906141f5565b5b50905061421e91906143a0565b5090565b828054600181600116156101000203166002900490600052602060002090601f016020900481019282601f1061425b5780548555614298565b8280016001018555821561429857600052602060002091601f016020900482015b8281111561429757825482559160010191906001019061427c565b5b5090506142a591906143a0565b5090565b828054600181600116156101000203166002900490600052602060002090601f016020900481019282601f106142ea57805160ff1916838001178555614318565b82800160010185558215614318579182015b828111156143175782518255916020019190600101906142fc565b5b50905061432591906143a0565b5090565b50805460018160011615610100020316600290046000825580601f1061434f575061436e565b601f01602090049060005260206000209081019061436d91906143a0565b5b50565b506000815560010160009055565b508054600082559060005260206000209081019061439d91906143a0565b50565b6143c291905b808211156143be5760008160009055506001016143a6565b5090565b90565b6000813590506143d481615131565b92915050565b6000813590506143e981615148565b92915050565b6000813590506143fe8161515f565b92915050565b600082601f83011261441557600080fd5b813561442861442382614fe4565b614fb7565b9150808252602083016020830185838301111561444457600080fd5b61444f8382846150d4565b50505092915050565b60008135905061446781615176565b92915050565b60006020828403121561447f57600080fd5b600061448d848285016143c5565b91505092915050565b600080604083850312156144a957600080fd5b60006144b7858286016143da565b92505060206144c885828601614458565b9150509250929050565b6000602082840312156144e457600080fd5b60006144f2848285016143ef565b91505092915050565b6000806040838503121561450e57600080fd5b600083013567ffffffffffffffff81111561452857600080fd5b61453485828601614404565b9250506020614545858286016143da565b9150509250929050565b6000806040838503121561456257600080fd5b600083013567ffffffffffffffff81111561457c57600080fd5b61458885828601614404565b925050602061459985828601614458565b9150509250929050565b6000602082840312156145b557600080fd5b60006145c384828501614458565b91505092915050565b60006145d88383614b57565b60208301905092915050565b6145ed81615082565b82525050565b60006145fe82615020565b6146088185615043565b935061461383615010565b8060005b8381101561464457815161462b88826145cc565b975061463683615036565b925050600181019050614617565b5085935050505092915050565b61465a81615094565b82525050565b614669816150a0565b82525050565b600061467a8261502b565b6146848185615054565b93506146948185602086016150e3565b61469d81615120565b840191505092915050565b60006146b38261502b565b6146bd8185615065565b93506146cd8185602086016150e3565b80840191505092915050565b60006146e6601f83615054565b91507f4661696c65642120416c726561647920656e6f75676820706c617965727321006000830152602082019050919050565b6000614726601483615054565b91507f4661696c656421204e6f742064756520796574210000000000000000000000006000830152602082019050919050565b6000614766602c83615054565b91507f4661696c65642120546865207265636569766572206163636f756e7420646f6560008301527f6e732774206578697374732100000000000000000000000000000000000000006020830152604082019050919050565b60006147cc601c83615054565b91507f4661696c6564212047616d65206973206e6f74206f6e676f696e6721000000006000830152602082019050919050565b600061480c602583615054565b91507f4661696c656421204f6e6c792062616e6b657220616c6c6f77656420746f206460008301527f6f206974210000000000000000000000000000000000000000000000000000006020830152604082019050919050565b6000614872601b83615054565b91507f4661696c6564212047616d65206e6f7420656e646564207965742100000000006000830152602082019050919050565b60006148b2601a83615054565b91507f4661696c656421204e6f20656e6f75676820706c6179657273210000000000006000830152602082019050919050565b60006148f2602083615054565b91507f4661696c65642120596f752068617665206e6f20656e6f7567682065746865726000830152602082019050919050565b6000614932601383615054565b91507f4661696c6564212054696d6520697320757021000000000000000000000000006000830152602082019050919050565b6000614972602483615054565b91507f4661696c65642120596f752068617665206e6f7420656e6f7567682062616c6160008301527f6e636521000000000000000000000000000000000000000000000000000000006020830152604082019050919050565b60006149d8603083615054565b91507f4661696c656421205468697320616464726573732068617320616c726561647960008301527f206265656e207369676e656420757021000000000000000000000000000000006020830152604082019050919050565b6000614a3e603183615054565b91507f4661696c65642c205468697320757365726e616d652068617320616c7265616460008301527f79206265656e207369676e6564207570210000000000000000000000000000006020830152604082019050919050565b6000614aa4601f83615054565b91507f4661696c65642120596f752068617665206e6f74207369676e656420757021006000830152602082019050919050565b6000614ae4602083615054565b91507f4661696c65642c20596f7520617265206e6f7420696e207468652067616d65216000830152602082019050919050565b6000614b24601d83615054565b91507f4661696c6564212047616d65206e6f74207374617274656420796574210000006000830152602082019050919050565b614b60816150ca565b82525050565b614b6f816150ca565b82525050565b614b86614b81826150ca565b615116565b82525050565b6000614b9882846146a8565b915081905092915050565b6000614baf8284614b75565b60208201915081905092915050565b6000608082019050614bd360008301876145e4565b614be060208301866145e4565b8181036040830152614bf2818561466f565b90508181036060830152614c06818461466f565b905095945050505050565b6000608082019050614c2660008301876145e4565b614c336020830186614b66565b614c406040830185614660565b614c4d6060830184614651565b95945050505050565b60006020820190508181036000830152614c7081846145f3565b905092915050565b6000602082019050614c8d6000830184614651565b92915050565b60006020820190508181036000830152614cad818461466f565b905092915050565b60006040820190508181036000830152614ccf818561466f565b9050614cde6020830184614b66565b9392505050565b60006020820190508181036000830152614cfe816146d9565b9050919050565b60006020820190508181036000830152614d1e81614719565b9050919050565b60006020820190508181036000830152614d3e81614759565b9050919050565b60006020820190508181036000830152614d5e816147bf565b9050919050565b60006020820190508181036000830152614d7e816147ff565b9050919050565b60006020820190508181036000830152614d9e81614865565b9050919050565b60006020820190508181036000830152614dbe816148a5565b9050919050565b60006020820190508181036000830152614dde816148e5565b9050919050565b60006020820190508181036000830152614dfe81614925565b9050919050565b60006020820190508181036000830152614e1e81614965565b9050919050565b60006020820190508181036000830152614e3e816149cb565b9050919050565b60006020820190508181036000830152614e5e81614a31565b9050919050565b60006020820190508181036000830152614e7e81614a97565b9050919050565b60006020820190508181036000830152614e9e81614ad7565b9050919050565b60006020820190508181036000830152614ebe81614b17565b9050919050565b6000602082019050614eda6000830184614b66565b92915050565b600060a082019050614ef56000830188614b66565b8181036020830152614f07818761466f565b90508181036040830152614f1b818661466f565b9050614f2a6060830185614b66565b614f376080830184614b66565b9695505050505050565b600060c082019050614f566000830189614b66565b8181036020830152614f68818861466f565b90508181036040830152614f7c818761466f565b9050614f8b6060830186614b66565b614f986080830185614b66565b81810360a0830152614faa818461466f565b9050979650505050505050565b6000604051905081810181811067ffffffffffffffff82111715614fda57600080fd5b8060405250919050565b600067ffffffffffffffff821115614ffb57600080fd5b601f19601f8301169050602081019050919050565b6000819050602082019050919050565b600081519050919050565b600081519050919050565b6000602082019050919050565b600082825260208201905092915050565b600082825260208201905092915050565b600081905092915050565b600061507b826150aa565b9050919050565b600061508d826150aa565b9050919050565b60008115159050919050565b6000819050919050565b600073ffffffffffffffffffffffffffffffffffffffff82169050919050565b6000819050919050565b82818337600083830152505050565b60005b838110156151015780820151818401526020810190506150e6565b83811115615110576000848401525b50505050565b6000819050919050565b6000601f19601f8301169050919050565b61513a81615070565b811461514557600080fd5b50565b61515181615082565b811461515c57600080fd5b50565b615168816150a0565b811461517357600080fd5b50565b61517f816150ca565b811461518a57600080fd5b5056fea365627a7a723158206fc96bac59c4c8e966a44bd017edd1dec5da5b871cd78aef6850dd2e470c40eb6c6578706572696d656e74616cf564736f6c63430005100040",
  "source": "pragma solidity >=0.4.22 <0.7.0;\npragma experimental ABIEncoderV2;\nimport \"./Accounts.sol\";\n\ncontract CoinFlipping is AccountsManager{\n    /*** structures ***/\n    struct Player{\n        address payable addr;\n        uint number; // the number to reveal\n        bytes32 hashNumber; // the hash of the number\n        bool valid;\n    }\n    \n    struct Game{\n        // current game state\n        uint ongoing; // 0 for not start yet, 1 for ongoing, 2 for already ended\n        uint currentPlayers; // no. of current players\n        uint bet; // bet value, 1 eth by default\n        uint due; // time limit\n        uint gameBalance;\n        uint start_time;\n        uint end_time;\n        address payable winnerAddr;\n        string winnerName;\n    }\n    \n    struct GameHistory{\n        // game states to store in history\n        uint gameID;\n        address payable player1;\n        address payable player2;\n        string playerName1;\n        string playerName2;\n        uint start_time;\n        uint end_time;\n        address payable winnerAddr;\n        string winnerName;\n    }\n    \n    struct Banker{\n        // banker's state\n        address payable bankerAddr;\n        string bankerName;\n        uint bankerBalance;\n        uint[] gameIDs;\n    }\n\n    /*** attributes ***/\n    uint firstGameID;  // the first game record ID within one day\n    uint currentGameID;\n    Game currentGame; // current game's state\n    mapping (uint => GameHistory) gameHistory; // store game history\n    Banker banker; // the banker\n\n    address payable [2] players;\n    mapping (address => Player) public mapPlayers;\n    address payable [] honestPlayers;\n\n\n    /*** constructor ***/\n    constructor() public{\n        // initialize game, banker\n        currentGameID = 1;\n        clearGame();\n\n        banker.bankerAddr = 0xe29dEc2ffCf4d0A61ED9983ED5369E0EeB4A4708; // the last address offered by Ganache\n        banker.bankerName = \"BANKER\";\n    }\n\n\n    /*** modifiers ***/\n    modifier twoPlayers{\n        require(currentGame.currentPlayers == 2, \"Failed! No enough players!\");\n        _;\n    }\n\n    modifier notTwoPlayers{\n        require(currentGame.currentPlayers < 2, \"Failed! Already enough players!\");\n        _;\n    }\n\n    modifier ongoingGame{\n        require(currentGame.ongoing == 1, \"Failed! Game is not ongoing!\");\n        _;\n    }\n\n    modifier notOngoingGame{\n        require(currentGame.ongoing != 1, \"Failed! Game is ongoing!\");\n        _;\n    }\n\n    modifier notStartedGame{\n        require(currentGame.ongoing == 0, \"Failed! Game not started yet!\");\n        _;\n    }\n\n    modifier endedGame{\n        require(currentGame.ongoing == 2, \"Failed! Game not ended yet!\");\n        _;\n    }\n\n    modifier bePlayer{\n        require(mapPlayers[msg.sender].valid, \"Failed, You are not in the game!\");\n        _;\n    }\n\n    modifier beBanker{\n        require(msg.sender == banker.bankerAddr, \"Failed! Only banker allowed to do it!\");\n        _;\n    }\n\n    modifier beforeDue{\n        require(now < currentGame.end_time, \"Failed! Time is up!\");\n        _;\n    }\n\n    modifier overDue{\n        require(now > currentGame.end_time, \"Failed! Not due yet!\");\n        _;\n    }\n\n\n    /*** functions ***/\n\n    /** public **/\n\n    function getPlayers() public view returns(address payable, address payable, string memory, string memory){\n        return(players[0], players[1], accounts[players[0]].username, accounts[players[1]].username);\n    }\n\n    function queryByBanker() public view beBanker returns(string memory, uint){\n        return(banker.bankerName, banker.bankerBalance);\n    }\n\n    function withdrawByBanker(uint amount) public payable beBanker{\n        require(banker.bankerBalance >= amount, \"Failed! You have not enough balance!\");\n        banker.bankerAddr.transfer(amount);\n        banker.bankerBalance -= amount;\n    }\n\n    function joinGame() public notStartedGame notTwoPlayers{\n        require(accounts[msg.sender].balance >= currentGame.bet, \"Failed! You have no enough ether\");\n        players[currentGame.currentPlayers] = msg.sender;\n        mapPlayers[msg.sender] = Player({\n           addr: msg.sender,\n           number: 0,\n           hashNumber: 0,\n           valid: true\n        });\n        currentGame.currentPlayers += 1;\n    }\n\n    function sendHash(bytes32 hashNumber) public ongoingGame beforeDue twoPlayers bePlayer{\n        mapPlayers[msg.sender].hashNumber = hashNumber;\n    }\n\n    function sendNumber(uint number) public ongoingGame overDue twoPlayers bePlayer{\n        mapPlayers[msg.sender].number = number;\n    }\n\n    function startGame() public notStartedGame twoPlayers beBanker{\n        currentGame.ongoing = 1;\n        currentGame.start_time = now;\n        currentGame.end_time = currentGame.start_time + currentGame.due;\n\n        // transfer ether from players to banker\n        for (uint i = 0; i < currentGame.currentPlayers; i++){\n            accounts[players[i]].balance -= currentGame.bet;\n        }\n        currentGame.gameBalance += currentGame.bet * currentGame.currentPlayers;\n    }\n\n\n    function checkWinner() public overDue twoPlayers beBanker{\n\n        if (currentGame.ongoing == 2){\n            return;\n        }\n        currentGame.ongoing = 2; // game ends.\n\n        // check cheaters\n        for (uint i = 0; i < currentGame.currentPlayers; i++){\n            if (mapPlayers[players[i]].hashNumber == keccak256(abi.encodePacked(mapPlayers[players[i]].number))){\n                honestPlayers.push(players[i]);\n            }\n        }\n\n        // check winner excluding cheaters\n        if (honestPlayers.length > 0){\n            uint winner = 0;\n            for (uint i = 0; i < honestPlayers.length; i++){\n                winner += mapPlayers[honestPlayers[i]].number;\n            }\n            winner = winner % honestPlayers.length;\n            currentGame.winnerAddr = honestPlayers[winner];\n        }\n        else{\n            currentGame.winnerAddr = banker.bankerAddr;\n        }\n\n        // banker transfers if not\n        if (msg.sender == banker.bankerAddr && currentGame.gameBalance > 0){\n            // do the transfer\n            if (currentGame.winnerAddr != banker.bankerAddr){\n                accounts[currentGame.winnerAddr].balance += currentGame.gameBalance * 95 / 100;\n                banker.bankerBalance += currentGame.gameBalance * 5 / 100;\n            }\n            else{\n                banker.bankerBalance += currentGame.gameBalance;\n            }\n            currentGame.gameBalance = 0;\n        }\n        currentGame.winnerName = accounts[currentGame.winnerAddr].username;\n    }\n\n    function clear() public endedGame beBanker{\n        // record the game to history and clear\n        logGame(currentGameID, players[0], players[1], accounts[players[0]].username, accounts[players[1]].username, currentGame.start_time, currentGame.end_time, currentGame.winnerAddr, accounts[currentGame.winnerAddr].username);\n\n        clearPlayers();\n        clearGame();\n    }\n\n    /** view **/\n\n    function playerGetWinner() public view endedGame returns(bool){\n        if (currentGame.winnerAddr == msg.sender){\n            return true;\n        }\n        return false;\n    }\n\n    function getWinner() public view endedGame returns (string memory){\n        // already checked, return result\n        if (currentGame.winnerAddr == banker.bankerAddr){\n            return \"All cheated! No Winner!\";\n        }\n        if (currentGame.winnerAddr != address(0)){\n            return currentGame.winnerName;\n        }\n        return \"Not checked yet!\";\n    }\n\n    function getGameIDs() public view returns(uint[] memory){\n        if(msg.sender == banker.bankerAddr){\n            return banker.gameIDs;\n        }\n        return accounts[msg.sender].myGames;\n    }\n\n    function checkHistory(uint i) public view returns(uint, string memory, string memory, uint, uint, string memory){\n        return (i, gameHistory[i].playerName1, gameHistory[i].playerName2, gameHistory[i].start_time, gameHistory[i].end_time, gameHistory[i].winnerName);\n    }\n\n    function whoAmI() public view returns(uint){\n        // return 0 for unregistered, 1 for player, 2 for banker\n        if (banker.bankerAddr == msg.sender){\n            return 2;\n        }\n        if (accounts[msg.sender].valid){\n            return 1;\n        }\n        return 0;\n    }\n\n    /** private **/\n\n    function clearGame() private {\n        // clear game's state\n        currentGame = Game({\n          ongoing: 0,\n          currentPlayers: 0,\n          bet: 1 ether,\n          due: 1 minutes,\n          gameBalance: 0,\n          start_time: 0,\n          end_time: 0,\n          winnerAddr: address(0),\n          winnerName: \"\"\n        });\n    }\n\n    function clearPlayers() private {\n        // clear players' states\n        for (uint i = 1; i < currentGame.currentPlayers; i++){\n            delete mapPlayers[players[i]];\n        }\n        delete players;\n        delete honestPlayers;\n    }\n\n    function logGame(uint _gameID, address payable _player1, address payable _player2, string memory _playerName1, string memory _playerName2, uint _start_time, uint _end_time, address payable _winnerAddr, string memory _winnerName) private {\n\n        gameHistory[currentGameID] = GameHistory({\n            gameID: _gameID,\n            player1: _player1,\n            player2: _player2,\n            playerName1: _playerName1,\n            playerName2: _playerName2,\n            start_time: _start_time,\n            end_time: _end_time,\n            winnerAddr: _winnerAddr,\n            winnerName: _winnerName\n        });\n\n        accounts[_player1].myGames.push(currentGameID);\n        accounts[_player2].myGames.push(currentGameID);\n        banker.gameIDs.push(currentGameID);\n        currentGameID += 1;\n\n        for (uint i = firstGameID; i <= currentGameID; i++){\n            if(gameHistory[i].start_time + 24 hours < now){\n                delete gameHistory[i];\n                firstGameID += 1;\n            }\n        }\n\n    }\n    \n}\n",
  "sourcePath": "/home/taliyah/coinflipping/contracts/CoinFlipping.sol",
  "compiler": {
    "name": "solc",
    "version": "0.5.16+commit.9c3226ce.Emscripten.clang"
  },
  "schemaVersion": "3.1.0",
  "updatedAt": "2020-04-25T16:48:40.154Z",
  "networkType": "ethereum",
  "devdoc": {
    "methods": {}
  },
  "userdoc": {
    "methods": {
      "constructor": "* constructor **",
      "create(string,address)": {
        "notice": "* functions **"
      },
      "getPlayers()": {
        "notice": "public *"
      },
      "playerGetWinner()": {
        "notice": "view *"
      },
      "query()": {
        "notice": "view *"
      }
    }
  }
}