{
  "contractName": "CoinFlipping",
  "abi": [
    {
      "inputs": [],
      "payable": false,
      "stateMutability": "nonpayable",
      "type": "constructor"
    },
    {
      "anonymous": false,
      "inputs": [
        {
          "components": [
            {
              "internalType": "address",
              "name": "afrom",
              "type": "address"
            },
            {
              "internalType": "address",
              "name": "ato",
              "type": "address"
            },
            {
              "internalType": "string",
              "name": "ufrom",
              "type": "string"
            },
            {
              "internalType": "string",
              "name": "uto",
              "type": "string"
            },
            {
              "internalType": "uint256",
              "name": "amount",
              "type": "uint256"
            },
            {
              "internalType": "uint256",
              "name": "time",
              "type": "uint256"
            }
          ],
          "indexed": false,
          "internalType": "struct AccountsManager.Record[]",
          "name": "records",
          "type": "tuple[]"
        }
      ],
      "name": "Logger",
      "type": "event"
    },
    {
      "anonymous": false,
      "inputs": [
        {
          "components": [
            {
              "internalType": "uint256",
              "name": "gameID",
              "type": "uint256"
            },
            {
              "internalType": "address payable[2]",
              "name": "players",
              "type": "address[2]"
            },
            {
              "internalType": "string[2]",
              "name": "playerNames",
              "type": "string[2]"
            },
            {
              "internalType": "uint256",
              "name": "start_time",
              "type": "uint256"
            },
            {
              "internalType": "uint256",
              "name": "end_time",
              "type": "uint256"
            },
            {
              "internalType": "address payable",
              "name": "winnerAddr",
              "type": "address"
            },
            {
              "internalType": "string",
              "name": "winnerName",
              "type": "string"
            }
          ],
          "indexed": false,
          "internalType": "struct CoinFlipping.GameHistory[]",
          "name": "gameHistory",
          "type": "tuple[]"
        }
      ],
      "name": "Logger2",
      "type": "event"
    },
    {
      "constant": false,
      "inputs": [],
      "name": "checkRecords",
      "outputs": [],
      "payable": false,
      "stateMutability": "nonpayable",
      "type": "function"
    },
    {
      "constant": false,
      "inputs": [
        {
          "internalType": "string",
          "name": "_username",
          "type": "string"
        },
        {
          "internalType": "address payable",
          "name": "_addr",
          "type": "address"
        }
      ],
      "name": "create",
      "outputs": [],
      "payable": true,
      "stateMutability": "payable",
      "type": "function"
    },
    {
      "constant": false,
      "inputs": [],
      "name": "deposit",
      "outputs": [],
      "payable": true,
      "stateMutability": "payable",
      "type": "function"
    },
    {
      "constant": true,
      "inputs": [
        {
          "internalType": "address",
          "name": "",
          "type": "address"
        }
      ],
      "name": "mapPlayers",
      "outputs": [
        {
          "internalType": "address payable",
          "name": "addr",
          "type": "address"
        },
        {
          "internalType": "uint256",
          "name": "number",
          "type": "uint256"
        },
        {
          "internalType": "bytes32",
          "name": "hashNumber",
          "type": "bytes32"
        },
        {
          "internalType": "bool",
          "name": "valid",
          "type": "bool"
        }
      ],
      "payable": false,
      "stateMutability": "view",
      "type": "function"
    },
    {
      "constant": true,
      "inputs": [],
      "name": "query",
      "outputs": [
        {
          "internalType": "string",
          "name": "",
          "type": "string"
        },
        {
          "internalType": "uint256",
          "name": "",
          "type": "uint256"
        }
      ],
      "payable": false,
      "stateMutability": "view",
      "type": "function"
    },
    {
      "constant": false,
      "inputs": [
        {
          "internalType": "address payable",
          "name": "to",
          "type": "address"
        },
        {
          "internalType": "uint256",
          "name": "amount",
          "type": "uint256"
        }
      ],
      "name": "transferByAddr",
      "outputs": [],
      "payable": true,
      "stateMutability": "payable",
      "type": "function"
    },
    {
      "constant": false,
      "inputs": [
        {
          "internalType": "string",
          "name": "to",
          "type": "string"
        },
        {
          "internalType": "uint256",
          "name": "amount",
          "type": "uint256"
        }
      ],
      "name": "transferByName",
      "outputs": [],
      "payable": true,
      "stateMutability": "payable",
      "type": "function"
    },
    {
      "constant": false,
      "inputs": [
        {
          "internalType": "uint256",
          "name": "amount",
          "type": "uint256"
        }
      ],
      "name": "withdraw",
      "outputs": [],
      "payable": true,
      "stateMutability": "payable",
      "type": "function"
    },
    {
      "constant": false,
      "inputs": [
        {
          "internalType": "uint256",
          "name": "amount",
          "type": "uint256"
        }
      ],
      "name": "withdrawByBanker",
      "outputs": [],
      "payable": true,
      "stateMutability": "payable",
      "type": "function"
    },
    {
      "constant": false,
      "inputs": [],
      "name": "joinGame",
      "outputs": [],
      "payable": false,
      "stateMutability": "nonpayable",
      "type": "function"
    },
    {
      "constant": false,
      "inputs": [
        {
          "internalType": "bytes32",
          "name": "hashNumber",
          "type": "bytes32"
        }
      ],
      "name": "sendHash",
      "outputs": [],
      "payable": false,
      "stateMutability": "nonpayable",
      "type": "function"
    },
    {
      "constant": false,
      "inputs": [
        {
          "internalType": "uint256",
          "name": "number",
          "type": "uint256"
        }
      ],
      "name": "sendNumber",
      "outputs": [],
      "payable": false,
      "stateMutability": "nonpayable",
      "type": "function"
    },
    {
      "constant": false,
      "inputs": [],
      "name": "startGame",
      "outputs": [],
      "payable": false,
      "stateMutability": "nonpayable",
      "type": "function"
    },
    {
      "constant": false,
      "inputs": [],
      "name": "checkWinner",
      "outputs": [
        {
          "internalType": "string",
          "name": "winnerName",
          "type": "string"
        }
      ],
      "payable": false,
      "stateMutability": "nonpayable",
      "type": "function"
    },
    {
      "constant": false,
      "inputs": [],
      "name": "clear",
      "outputs": [],
      "payable": false,
      "stateMutability": "nonpayable",
      "type": "function"
    },
    {
      "constant": false,
      "inputs": [],
      "name": "checkHistory",
      "outputs": [],
      "payable": false,
      "stateMutability": "nonpayable",
      "type": "function"
    },
    {
      "constant": true,
      "inputs": [],
      "name": "whoAmI",
      "outputs": [
        {
          "internalType": "uint256",
          "name": "",
          "type": "uint256"
        }
      ],
      "payable": false,
      "stateMutability": "view",
      "type": "function"
    }
  ],
  "bytecode": "0x60806040523480156200001157600080fd5b5060006003819055506200002a6200012060201b60201c565b604051806060016040528073e29dec2ffcf4d0a61ed9983ed5369e0eeb4a470873ffffffffffffffffffffffffffffffffffffffff1681526020016040518060400160405280600681526020017f42414e4b4552000000000000000000000000000000000000000000000000000081525081526020016000815250600e60008201518160000160006101000a81548173ffffffffffffffffffffffffffffffffffffffff021916908373ffffffffffffffffffffffffffffffffffffffff16021790555060208201518160010190805190602001906200010c92919062000294565b5060408201518160020155905050620003b8565b600160046000015414156200016c576040517f08c379a0000000000000000000000000000000000000000000000000000000008152600401620001639062000385565b60405180910390fd5b6040518061012001604052806000815260200160008152602001670de0b6b3a76400008152602001603c8152602001600081526020016000815260200160008152602001600073ffffffffffffffffffffffffffffffffffffffff168152602001604051806020016040528060008152508152506004600082015181600001556020820151816001015560408201518160020155606082015181600301556080820151816004015560a0820151816005015560c0820151816006015560e08201518160070160006101000a81548173ffffffffffffffffffffffffffffffffffffffff021916908373ffffffffffffffffffffffffffffffffffffffff1602179055506101008201518160080190805190602001906200028e92919062000294565b50905050565b828054600181600116156101000203166002900490600052602060002090601f016020900481019282601f10620002d757805160ff191683800117855562000308565b8280016001018555821562000308579182015b8281111562000307578251825591602001919060010190620002ea565b5b5090506200031791906200031b565b5090565b6200034091905b808211156200033c57600081600090555060010162000322565b5090565b90565b600062000352601883620003a7565b91507f4661696c6564212047616d65206973206f6e676f696e672100000000000000006000830152602082019050919050565b60006020820190508181036000830152620003a08162000343565b9050919050565b600082825260208201905092915050565b61495480620003c86000396000f3fe6080604052600436106100fe5760003560e01c8063ad38867e11610095578063da91254c11610064578063da91254c14610270578063df4d71791461029b578063e639f991146102b2578063ee6dd9fa146102ce578063eea3f126146102f7576100fe565b8063ad38867e1461020d578063d0e30db014610238578063d4f77b1c14610242578063d65ab5f214610259576100fe565b806379ab8f1f116100d157806379ab8f1f146101a257806384b47b0f146101b9578063881ab2dd146101d55780639c5872e3146101f1576100fe565b80632c46b205146101035780632e1a7d4d1461012f57806352efea6e1461014b5780636b500f5514610162575b600080fd5b34801561010f57600080fd5b50610118610320565b60405161012692919061431f565b60405180910390f35b6101496004803603610144919081019061375b565b6104d9565b005b34801561015757600080fd5b50610160610650565b005b34801561016e57600080fd5b50610189600480360361018491908101906135fc565b610c3f565b6040516101999493929190614274565b60405180910390f35b3480156101ae57600080fd5b506101b7610c9c565b005b6101d360048036036101ce91908101906136b3565b610d64565b005b6101ef60048036036101ea9190810190613625565b611011565b005b61020b6004803603610206919081019061375b565b611538565b005b34801561021957600080fd5b50610222611695565b60405161022f91906142fd565b60405180910390f35b610240611fc1565b005b34801561024e57600080fd5b506102576120a0565b005b34801561026557600080fd5b5061026e61231c565b005b34801561027c57600080fd5b5061028561252d565b604051610292919061458f565b60405180910390f35b3480156102a757600080fd5b506102b06125f6565b005b6102cc60048036036102c79190810190613707565b6126be565b005b3480156102da57600080fd5b506102f560048036036102f09190810190613661565b612bc6565b005b34801561030357600080fd5b5061031e6004803603610319919081019061375b565b612dfd565b005b606060008060003373ffffffffffffffffffffffffffffffffffffffff1673ffffffffffffffffffffffffffffffffffffffff16815260200190815260200160002060030160009054906101000a900460ff166103b2576040517f08c379a00000000000000000000000000000000000000000000000000000000081526004016103a99061450f565b60405180910390fd5b6000803373ffffffffffffffffffffffffffffffffffffffff1673ffffffffffffffffffffffffffffffffffffffff1681526020019081526020016000206000016000803373ffffffffffffffffffffffffffffffffffffffff1673ffffffffffffffffffffffffffffffffffffffff16815260200190815260200160002060020154818054600181600116156101000203166002900480601f0160208091040260200160405190810160405280929190818152602001828054600181600116156101000203166002900480156104ca5780601f1061049f576101008083540402835291602001916104ca565b820191906000526020600020905b8154815290600101906020018083116104ad57829003601f168201915b50505050509150915091509091565b6000803373ffffffffffffffffffffffffffffffffffffffff1673ffffffffffffffffffffffffffffffffffffffff16815260200190815260200160002060030160009054906101000a900460ff16610567576040517f08c379a000000000000000000000000000000000000000000000000000000000815260040161055e9061450f565b60405180910390fd5b80806000803373ffffffffffffffffffffffffffffffffffffffff1673ffffffffffffffffffffffffffffffffffffffff1681526020019081526020016000206002015410156105b657600080fd5b3373ffffffffffffffffffffffffffffffffffffffff166108fc839081150290604051600060405180830381858888f193505050501580156105fc573d6000803e3d6000fd5b50816000803373ffffffffffffffffffffffffffffffffffffffff1673ffffffffffffffffffffffffffffffffffffffff168152602001908152602001600020600201600082825403925050819055505050565b600260046000015414610698576040517f08c379a000000000000000000000000000000000000000000000000000000000815260040161068f9061446f565b60405180910390fd5b600e60000160009054906101000a900473ffffffffffffffffffffffffffffffffffffffff1673ffffffffffffffffffffffffffffffffffffffff163373ffffffffffffffffffffffffffffffffffffffff161461072b576040517f08c379a00000000000000000000000000000000000000000000000000000000081526004016107229061440f565b60405180910390fd5b600d6040518060e00160405280600354815260200160116002806020026040519081016040528092919082600280156107af576020028201915b8160009054906101000a900473ffffffffffffffffffffffffffffffffffffffff1673ffffffffffffffffffffffffffffffffffffffff1681526020019060010190808311610765575b50505050508152602001604051806040016040528060008060116000600281106107d557fe5b0160009054906101000a900473ffffffffffffffffffffffffffffffffffffffff1673ffffffffffffffffffffffffffffffffffffffff1673ffffffffffffffffffffffffffffffffffffffff1681526020019081526020016000206000018054600181600116156101000203166002900480601f0160208091040260200160405190810160405280929190818152602001828054600181600116156101000203166002900480156108c85780601f1061089d576101008083540402835291602001916108c8565b820191906000526020600020905b8154815290600101906020018083116108ab57829003601f168201915b5050505050815260200160008060116001600281106108e357fe5b0160009054906101000a900473ffffffffffffffffffffffffffffffffffffffff1673ffffffffffffffffffffffffffffffffffffffff1673ffffffffffffffffffffffffffffffffffffffff1681526020019081526020016000206000018054600181600116156101000203166002900480601f0160208091040260200160405190810160405280929190818152602001828054600181600116156101000203166002900480156109d65780601f106109ab576101008083540402835291602001916109d6565b820191906000526020600020905b8154815290600101906020018083116109b957829003601f168201915b5050505050815250815260200160046005015481526020016004600601548152602001600460070160009054906101000a900473ffffffffffffffffffffffffffffffffffffffff1673ffffffffffffffffffffffffffffffffffffffff168152602001600080600460070160009054906101000a900473ffffffffffffffffffffffffffffffffffffffff1673ffffffffffffffffffffffffffffffffffffffff1673ffffffffffffffffffffffffffffffffffffffff1681526020019081526020016000206000018054600181600116156101000203166002900480601f016020809104026020016040519081016040528092919081815260200182805460018160011615610100020316600290048015610b345780601f10610b0957610100808354040283529160200191610b34565b820191906000526020600020905b815481529060010190602001808311610b1757829003601f168201915b50505050508152509080600181540180825580915050906001820390600052602060002090600902016000909192909190915060008201518160000155602082015181600101906002610b889291906132e4565b50604082015181600301906002610ba0929190613361565b50606082015181600501556080820151816006015560a08201518160070160006101000a81548173ffffffffffffffffffffffffffffffffffffffff021916908373ffffffffffffffffffffffffffffffffffffffff16021790555060c0820151816008019080519060200190610c189291906133b4565b50505050610c24613032565b610c2c613175565b6001600360008282540192505081905550565b60136020528060005260406000206000915090508060000160009054906101000a900473ffffffffffffffffffffffffffffffffffffffff16908060010154908060020154908060030160009054906101000a900460ff16905084565b6000803373ffffffffffffffffffffffffffffffffffffffff1673ffffffffffffffffffffffffffffffffffffffff16815260200190815260200160002060030160009054906101000a900460ff16610d2a576040517f08c379a0000000000000000000000000000000000000000000000000000000008152600401610d219061450f565b60405180910390fd5b7fc107cae600022e75ba1a3580f3ea75ea6ea6e707ae7f6143fdae73aac417ff29600d604051610d5a91906142b9565b60405180910390a1565b600015156000808373ffffffffffffffffffffffffffffffffffffffff1673ffffffffffffffffffffffffffffffffffffffff16815260200190815260200160002060030160009054906101000a900460ff16151514610df9576040517f08c379a0000000000000000000000000000000000000000000000000000000008152600401610df0906144cf565b60405180910390fd5b600073ffffffffffffffffffffffffffffffffffffffff16600183604051610e219190614242565b908152602001604051809103902060009054906101000a900473ffffffffffffffffffffffffffffffffffffffff1673ffffffffffffffffffffffffffffffffffffffff1614610ea6576040517f08c379a0000000000000000000000000000000000000000000000000000000008152600401610e9d906144ef565b60405180910390fd5b60405180608001604052808381526020018273ffffffffffffffffffffffffffffffffffffffff16815260200160008152602001600115158152506000808373ffffffffffffffffffffffffffffffffffffffff1673ffffffffffffffffffffffffffffffffffffffff1681526020019081526020016000206000820151816000019080519060200190610f3b9291906133b4565b5060208201518160010160006101000a81548173ffffffffffffffffffffffffffffffffffffffff021916908373ffffffffffffffffffffffffffffffffffffffff1602179055506040820151816002015560608201518160030160006101000a81548160ff02191690831515021790555090505080600183604051610fc19190614242565b908152602001604051809103902060006101000a81548173ffffffffffffffffffffffffffffffffffffffff021916908373ffffffffffffffffffffffffffffffffffffffff1602179055505050565b6000803373ffffffffffffffffffffffffffffffffffffffff1673ffffffffffffffffffffffffffffffffffffffff16815260200190815260200160002060030160009054906101000a900460ff1661109f576040517f08c379a00000000000000000000000000000000000000000000000000000000081526004016110969061450f565b60405180910390fd5b816000808273ffffffffffffffffffffffffffffffffffffffff1673ffffffffffffffffffffffffffffffffffffffff16815260200190815260200160002060030160009054906101000a900460ff1661112e576040517f08c379a0000000000000000000000000000000000000000000000000000000008152600401611125906143af565b60405180910390fd5b81806000803373ffffffffffffffffffffffffffffffffffffffff1673ffffffffffffffffffffffffffffffffffffffff16815260200190815260200160002060020154101561117d57600080fd5b826000808673ffffffffffffffffffffffffffffffffffffffff1673ffffffffffffffffffffffffffffffffffffffff16815260200190815260200160002060020160008282540192505081905550826000803373ffffffffffffffffffffffffffffffffffffffff1673ffffffffffffffffffffffffffffffffffffffff1681526020019081526020016000206002016000828254039250508190555060026040518060c001604052803373ffffffffffffffffffffffffffffffffffffffff1681526020018673ffffffffffffffffffffffffffffffffffffffff1681526020016000803373ffffffffffffffffffffffffffffffffffffffff1673ffffffffffffffffffffffffffffffffffffffff1681526020019081526020016000206000018054600181600116156101000203166002900480601f0160208091040260200160405190810160405280929190818152602001828054600181600116156101000203166002900480156113355780601f1061130a57610100808354040283529160200191611335565b820191906000526020600020905b81548152906001019060200180831161131857829003601f168201915b505050505081526020016000808873ffffffffffffffffffffffffffffffffffffffff1673ffffffffffffffffffffffffffffffffffffffff1681526020019081526020016000206000018054600181600116156101000203166002900480601f0160208091040260200160405190810160405280929190818152602001828054600181600116156101000203166002900480156114145780601f106113e957610100808354040283529160200191611414565b820191906000526020600020905b8154815290600101906020018083116113f757829003601f168201915b50505050508152602001858152602001428152509080600181540180825580915050906001820390600052602060002090600602016000909192909190915060008201518160000160006101000a81548173ffffffffffffffffffffffffffffffffffffffff021916908373ffffffffffffffffffffffffffffffffffffffff16021790555060208201518160010160006101000a81548173ffffffffffffffffffffffffffffffffffffffff021916908373ffffffffffffffffffffffffffffffffffffffff16021790555060408201518160020190805190602001906114fd9291906133b4565b50606082015181600301908051906020019061151a9291906133b4565b506080820151816004015560a0820151816005015550505050505050565b600e60000160009054906101000a900473ffffffffffffffffffffffffffffffffffffffff1673ffffffffffffffffffffffffffffffffffffffff163373ffffffffffffffffffffffffffffffffffffffff16146115cb576040517f08c379a00000000000000000000000000000000000000000000000000000000081526004016115c29061456f565b60405180910390fd5b80600e600201541015611613576040517f08c379a000000000000000000000000000000000000000000000000000000000815260040161160a906144af565b60405180910390fd5b600e60000160009054906101000a900473ffffffffffffffffffffffffffffffffffffffff1673ffffffffffffffffffffffffffffffffffffffff166108fc829081150290604051600060405180830381858888f1935050505015801561167e573d6000803e3d6000fd5b5080600e6002016000828254039250508190555050565b606060046006015442116116de576040517f08c379a00000000000000000000000000000000000000000000000000000000081526004016116d59061436f565b60405180910390fd5b600260046001015414611726576040517f08c379a000000000000000000000000000000000000000000000000000000000815260040161171d9061442f565b60405180910390fd5b6002600460000181905550600e60000160009054906101000a900473ffffffffffffffffffffffffffffffffffffffff1673ffffffffffffffffffffffffffffffffffffffff16600460070160009054906101000a900473ffffffffffffffffffffffffffffffffffffffff1673ffffffffffffffffffffffffffffffffffffffff1614156117ec576040518060400160405280601781526020017f416c6c206368656174656421204e6f2057696e6e6572210000000000000000008152509050611fbe565b600073ffffffffffffffffffffffffffffffffffffffff16600460070160009054906101000a900473ffffffffffffffffffffffffffffffffffffffff1673ffffffffffffffffffffffffffffffffffffffff161461194b57600080600460070160009054906101000a900473ffffffffffffffffffffffffffffffffffffffff1673ffffffffffffffffffffffffffffffffffffffff1673ffffffffffffffffffffffffffffffffffffffff1681526020019081526020016000206000018054600181600116156101000203166002900480601f01602080910402602001604051908101604052809291908181526020018280546001816001161561010002031660029004801561193f5780601f106119145761010080835404028352916020019161193f565b820191906000526020600020905b81548152906001019060200180831161192257829003601f168201915b50505050509050611fbe565b60008090505b600460010154811015611b56576002601360006011846002811061197157fe5b0160009054906101000a900473ffffffffffffffffffffffffffffffffffffffff1673ffffffffffffffffffffffffffffffffffffffff1673ffffffffffffffffffffffffffffffffffffffff168152602001908152602001600020600101546040516020016119e19190614259565b6040516020818303038152906040526040516119fd919061422b565b602060405180830381855afa158015611a1a573d6000803e3d6000fd5b5050506040513d601f19601f82011682018060405250611a3d919081019061368a565b6013600060118460028110611a4e57fe5b0160009054906101000a900473ffffffffffffffffffffffffffffffffffffffff1673ffffffffffffffffffffffffffffffffffffffff1673ffffffffffffffffffffffffffffffffffffffff168152602001908152602001600020600201541415611b4957601460118260028110611ac357fe5b0160009054906101000a900473ffffffffffffffffffffffffffffffffffffffff1690806001815401808255809150509060018203906000526020600020016000909192909190916101000a81548173ffffffffffffffffffffffffffffffffffffffff021916908373ffffffffffffffffffffffffffffffffffffffff160217905550505b8080600101915050611951565b5060006014805490501115611c9b57600080905060008090505b601480549050811015611c08576013600060148381548110611b8e57fe5b9060005260206000200160009054906101000a900473ffffffffffffffffffffffffffffffffffffffff1673ffffffffffffffffffffffffffffffffffffffff1673ffffffffffffffffffffffffffffffffffffffff16815260200190815260200160002060010154820191508080600101915050611b70565b506014805490508181611c1757fe5b06905060148181548110611c2757fe5b9060005260206000200160009054906101000a900473ffffffffffffffffffffffffffffffffffffffff16600460070160006101000a81548173ffffffffffffffffffffffffffffffffffffffff021916908373ffffffffffffffffffffffffffffffffffffffff16021790555050611d05565b600e60000160009054906101000a900473ffffffffffffffffffffffffffffffffffffffff16600460070160006101000a81548173ffffffffffffffffffffffffffffffffffffffff021916908373ffffffffffffffffffffffffffffffffffffffff1602179055505b600e60000160009054906101000a900473ffffffffffffffffffffffffffffffffffffffff1673ffffffffffffffffffffffffffffffffffffffff163373ffffffffffffffffffffffffffffffffffffffff16148015611d69575060006004800154115b15611ebc57600e60000160009054906101000a900473ffffffffffffffffffffffffffffffffffffffff1673ffffffffffffffffffffffffffffffffffffffff16600460070160009054906101000a900473ffffffffffffffffffffffffffffffffffffffff1673ffffffffffffffffffffffffffffffffffffffff1614611e99576064605f60048001540281611dfc57fe5b04600080600460070160009054906101000a900473ffffffffffffffffffffffffffffffffffffffff1673ffffffffffffffffffffffffffffffffffffffff1673ffffffffffffffffffffffffffffffffffffffff168152602001908152602001600020600201600082825401925050819055506064600560048001540281611e8157fe5b04600e60020160008282540192505081905550611eb1565b6004800154600e600201600082825401925050819055505b600060048001819055505b600080600460070160009054906101000a900473ffffffffffffffffffffffffffffffffffffffff1673ffffffffffffffffffffffffffffffffffffffff1673ffffffffffffffffffffffffffffffffffffffff1681526020019081526020016000206000018054600181600116156101000203166002900480601f016020809104026020016040519081016040528092919081815260200182805460018160011615610100020316600290048015611fb65780601f10611f8b57610100808354040283529160200191611fb6565b820191906000526020600020905b815481529060010190602001808311611f9957829003601f168201915b505050505090505b90565b6000803373ffffffffffffffffffffffffffffffffffffffff1673ffffffffffffffffffffffffffffffffffffffff16815260200190815260200160002060030160009054906101000a900460ff1661204f576040517f08c379a00000000000000000000000000000000000000000000000000000000081526004016120469061450f565b60405180910390fd5b346000803373ffffffffffffffffffffffffffffffffffffffff1673ffffffffffffffffffffffffffffffffffffffff16815260200190815260200160002060020160008282540192505081905550565b6000600460000154146120e8576040517f08c379a00000000000000000000000000000000000000000000000000000000081526004016120df9061454f565b60405180910390fd5b600260046001015410612130576040517f08c379a00000000000000000000000000000000000000000000000000000000081526004016121279061434f565b60405180910390fd5b6004600201546000803373ffffffffffffffffffffffffffffffffffffffff1673ffffffffffffffffffffffffffffffffffffffff1681526020019081526020016000206002015410156121b9576040517f08c379a00000000000000000000000000000000000000000000000000000000081526004016121b09061444f565b60405180910390fd5b336011600460010154600281106121cc57fe5b0160006101000a81548173ffffffffffffffffffffffffffffffffffffffff021916908373ffffffffffffffffffffffffffffffffffffffff16021790555060405180608001604052803373ffffffffffffffffffffffffffffffffffffffff168152602001600081526020016000801b815260200160011515815250601360003373ffffffffffffffffffffffffffffffffffffffff1673ffffffffffffffffffffffffffffffffffffffff16815260200190815260200160002060008201518160000160006101000a81548173ffffffffffffffffffffffffffffffffffffffff021916908373ffffffffffffffffffffffffffffffffffffffff160217905550602082015181600101556040820151816002015560608201518160030160006101000a81548160ff0219169083151502179055509050506001600460010160008282540192505081905550565b600060046000015414612364576040517f08c379a000000000000000000000000000000000000000000000000000000000815260040161235b9061454f565b60405180910390fd5b6002600460010154146123ac576040517f08c379a00000000000000000000000000000000000000000000000000000000081526004016123a39061442f565b60405180910390fd5b600e60000160009054906101000a900473ffffffffffffffffffffffffffffffffffffffff1673ffffffffffffffffffffffffffffffffffffffff163373ffffffffffffffffffffffffffffffffffffffff161461243f576040517f08c379a00000000000000000000000000000000000000000000000000000000081526004016124369061440f565b60405180910390fd5b6001600460000181905550426004600501819055506004600301546004600501540160046006018190555060008090505b60046001015481101561250c576004600201546000806011846002811061249357fe5b0160009054906101000a900473ffffffffffffffffffffffffffffffffffffffff1673ffffffffffffffffffffffffffffffffffffffff1673ffffffffffffffffffffffffffffffffffffffff168152602001908152602001600020600201600082825403925050819055508080600101915050612470565b50600460010154600460020154026004800160008282540192505081905550565b60003373ffffffffffffffffffffffffffffffffffffffff16600e60000160009054906101000a900473ffffffffffffffffffffffffffffffffffffffff1673ffffffffffffffffffffffffffffffffffffffff16141561259157600290506125f3565b6000803373ffffffffffffffffffffffffffffffffffffffff1673ffffffffffffffffffffffffffffffffffffffff16815260200190815260200160002060030160009054906101000a900460ff16156125ee57600190506125f3565b600090505b90565b6000803373ffffffffffffffffffffffffffffffffffffffff1673ffffffffffffffffffffffffffffffffffffffff16815260200190815260200160002060030160009054906101000a900460ff16612684576040517f08c379a000000000000000000000000000000000000000000000000000000000815260040161267b9061450f565b60405180910390fd5b7f0a521764b934851609b3b1aca670be12c5bc0d9cddd831ac5f3d47336114884c60026040516126b491906142db565b60405180910390a1565b6000803373ffffffffffffffffffffffffffffffffffffffff1673ffffffffffffffffffffffffffffffffffffffff16815260200190815260200160002060030160009054906101000a900460ff1661274c576040517f08c379a00000000000000000000000000000000000000000000000000000000081526004016127439061450f565b60405180910390fd5b60018260405161275c9190614242565b908152602001604051809103902060009054906101000a900473ffffffffffffffffffffffffffffffffffffffff166000808273ffffffffffffffffffffffffffffffffffffffff1673ffffffffffffffffffffffffffffffffffffffff16815260200190815260200160002060030160009054906101000a900460ff16612819576040517f08c379a0000000000000000000000000000000000000000000000000000000008152600401612810906143af565b60405180910390fd5b81806000803373ffffffffffffffffffffffffffffffffffffffff1673ffffffffffffffffffffffffffffffffffffffff16815260200190815260200160002060020154101561286857600080fd5b8260008060018760405161287c9190614242565b908152602001604051809103902060009054906101000a900473ffffffffffffffffffffffffffffffffffffffff1673ffffffffffffffffffffffffffffffffffffffff1673ffffffffffffffffffffffffffffffffffffffff16815260200190815260200160002060020160008282540192505081905550826000803373ffffffffffffffffffffffffffffffffffffffff1673ffffffffffffffffffffffffffffffffffffffff1681526020019081526020016000206002016000828254039250508190555060026040518060c001604052803373ffffffffffffffffffffffffffffffffffffffff16815260200160018760405161297d9190614242565b908152602001604051809103902060009054906101000a900473ffffffffffffffffffffffffffffffffffffffff1673ffffffffffffffffffffffffffffffffffffffff1681526020016000803373ffffffffffffffffffffffffffffffffffffffff1673ffffffffffffffffffffffffffffffffffffffff1681526020019081526020016000206000018054600181600116156101000203166002900480601f016020809104026020016040519081016040528092919081815260200182805460018160011615610100020316600290048015612a9c5780601f10612a7157610100808354040283529160200191612a9c565b820191906000526020600020905b815481529060010190602001808311612a7f57829003601f168201915b50505050508152602001868152602001858152602001428152509080600181540180825580915050906001820390600052602060002090600602016000909192909190915060008201518160000160006101000a81548173ffffffffffffffffffffffffffffffffffffffff021916908373ffffffffffffffffffffffffffffffffffffffff16021790555060208201518160010160006101000a81548173ffffffffffffffffffffffffffffffffffffffff021916908373ffffffffffffffffffffffffffffffffffffffff1602179055506040820151816002019080519060200190612b8b9291906133b4565b506060820151816003019080519060200190612ba89291906133b4565b506080820151816004015560a0820151816005015550505050505050565b600160046000015414612c0e576040517f08c379a0000000000000000000000000000000000000000000000000000000008152600401612c05906143ef565b60405180910390fd5b6004600601544210612c55576040517f08c379a0000000000000000000000000000000000000000000000000000000008152600401612c4c9061448f565b60405180910390fd5b600260046001015414612c9d576040517f08c379a0000000000000000000000000000000000000000000000000000000008152600401612c949061442f565b60405180910390fd5b601360003373ffffffffffffffffffffffffffffffffffffffff1673ffffffffffffffffffffffffffffffffffffffff16815260200190815260200160002060030160009054906101000a900460ff16612d2c576040517f08c379a0000000000000000000000000000000000000000000000000000000008152600401612d239061452f565b60405180910390fd5b6000801b601360003373ffffffffffffffffffffffffffffffffffffffff1673ffffffffffffffffffffffffffffffffffffffff1681526020019081526020016000206002015414612db3576040517f08c379a0000000000000000000000000000000000000000000000000000000008152600401612daa906143cf565b60405180910390fd5b80601360003373ffffffffffffffffffffffffffffffffffffffff1673ffffffffffffffffffffffffffffffffffffffff1681526020019081526020016000206002018190555050565b600160046000015414612e45576040517f08c379a0000000000000000000000000000000000000000000000000000000008152600401612e3c906143ef565b60405180910390fd5b6004600601544211612e8c576040517f08c379a0000000000000000000000000000000000000000000000000000000008152600401612e839061436f565b60405180910390fd5b600260046001015414612ed4576040517f08c379a0000000000000000000000000000000000000000000000000000000008152600401612ecb9061442f565b60405180910390fd5b601360003373ffffffffffffffffffffffffffffffffffffffff1673ffffffffffffffffffffffffffffffffffffffff16815260200190815260200160002060030160009054906101000a900460ff16612f63576040517f08c379a0000000000000000000000000000000000000000000000000000000008152600401612f5a9061452f565b60405180910390fd5b6000601360003373ffffffffffffffffffffffffffffffffffffffff1673ffffffffffffffffffffffffffffffffffffffff1681526020019081526020016000206001015414612fe8576040517f08c379a0000000000000000000000000000000000000000000000000000000008152600401612fdf906143cf565b60405180910390fd5b80601360003373ffffffffffffffffffffffffffffffffffffffff1673ffffffffffffffffffffffffffffffffffffffff1681526020019081526020016000206001018190555050565b60026004600001541461307a576040517f08c379a00000000000000000000000000000000000000000000000000000000081526004016130719061446f565b60405180910390fd5b6000600190505b60046001015481101561315657601360006011836002811061309f57fe5b0160009054906101000a900473ffffffffffffffffffffffffffffffffffffffff1673ffffffffffffffffffffffffffffffffffffffff1673ffffffffffffffffffffffffffffffffffffffff168152602001908152602001600020600080820160006101000a81549073ffffffffffffffffffffffffffffffffffffffff0219169055600182016000905560028201600090556003820160006101000a81549060ff021916905550508080600101915050613081565b50601160006131659190613434565b601460006131739190613442565b565b600160046000015414156131be576040517f08c379a00000000000000000000000000000000000000000000000000000000081526004016131b59061438f565b60405180910390fd5b6040518061012001604052806000815260200160008152602001670de0b6b3a76400008152602001603c8152602001600081526020016000815260200160008152602001600073ffffffffffffffffffffffffffffffffffffffff168152602001604051806020016040528060008152508152506004600082015181600001556020820151816001015560408201518160020155606082015181600301556080820151816004015560a0820151816005015560c0820151816006015560e08201518160070160006101000a81548173ffffffffffffffffffffffffffffffffffffffff021916908373ffffffffffffffffffffffffffffffffffffffff1602179055506101008201518160080190805190602001906132de9291906133b4565b50905050565b8260028101928215613350579160200282015b8281111561334f5782518260006101000a81548173ffffffffffffffffffffffffffffffffffffffff021916908373ffffffffffffffffffffffffffffffffffffffff160217905550916020019190600101906132f7565b5b50905061335d9190613463565b5090565b82600281019282156133a3579160200282015b828111156133a25782518290805190602001906133929291906133b4565b5091602001919060010190613374565b5b5090506133b091906134a6565b5090565b828054600181600116156101000203166002900490600052602060002090601f016020900481019282601f106133f557805160ff1916838001178555613423565b82800160010185558215613423579182015b82811115613422578251825591602001919060010190613407565b5b50905061343091906134d2565b5090565b506000815560010160009055565b508054600082559060005260206000209081019061346091906134d2565b50565b6134a391905b8082111561349f57600081816101000a81549073ffffffffffffffffffffffffffffffffffffffff021916905550600101613469565b5090565b90565b6134cf91905b808211156134cb57600081816134c291906134f7565b506001016134ac565b5090565b90565b6134f491905b808211156134f05760008160009055506001016134d8565b5090565b90565b50805460018160011615610100020316600290046000825580601f1061351d575061353c565b601f01602090049060005260206000209081019061353b91906134d2565b5b50565b60008135905061354e816148b5565b92915050565b600081359050613563816148cc565b92915050565b600081359050613578816148e3565b92915050565b60008151905061358d816148e3565b92915050565b600082601f8301126135a457600080fd5b81356135b76135b2826145d7565b6145aa565b915080825260208301602083018583830111156135d357600080fd5b6135de8382846147ea565b50505092915050565b6000813590506135f6816148fa565b92915050565b60006020828403121561360e57600080fd5b600061361c8482850161353f565b91505092915050565b6000806040838503121561363857600080fd5b600061364685828601613554565b9250506020613657858286016135e7565b9150509250929050565b60006020828403121561367357600080fd5b600061368184828501613569565b91505092915050565b60006020828403121561369c57600080fd5b60006136aa8482850161357e565b91505092915050565b600080604083850312156136c657600080fd5b600083013567ffffffffffffffff8111156136e057600080fd5b6136ec85828601613593565b92505060206136fd85828601613554565b9150509250929050565b6000806040838503121561371a57600080fd5b600083013567ffffffffffffffff81111561373457600080fd5b61374085828601613593565b9250506020613751858286016135e7565b9150509250929050565b60006020828403121561376d57600080fd5b600061377b848285016135e7565b91505092915050565b600061379083836137d8565b60208301905092915050565b60006137a88383613a78565b905092915050565b60006137bc838361406b565b905092915050565b60006137d0838361413a565b905092915050565b6137e181614798565b82525050565b6137f081614798565b82525050565b6137ff81614786565b82525050565b61380e81614656565b61381881846146cc565b925061382382614603565b8060005b8381101561385b5761383882614884565b6138428782613784565b965061384d83614698565b925050600181019050613827565b505050505050565b600061386e82614661565b61387881856146d7565b93508360208202850161388a8561460d565b8060005b858110156138c5578484038952816138a6858261379c565b94506138b1836146a5565b925060208a0199505060018101905061388e565b50829750879550505050505092915050565b60006138e28261466c565b6138ec81856146e2565b9350836020820285016138fe85614617565b8060005b858110156139395784840389528161391a85826137b0565b9450613925836146b2565b925060208a01995050600181019050613902565b50829750879550505050505092915050565b600061395682614677565b61396081856146f3565b9350836020820285016139728561462c565b8060005b858110156139ad5784840389528161398e85826137c4565b9450613999836146bf565b925060208a01995050600181019050613976565b50829750879550505050505092915050565b6139c8816147aa565b82525050565b6139d7816147b6565b82525050565b60006139e882614682565b6139f28185614704565b9350613a028185602086016147f9565b80840191505092915050565b6000613a198261468d565b613a238185614720565b9350613a338185602086016147f9565b613a3c81614897565b840191505092915050565b6000613a528261468d565b613a5c8185614731565b9350613a6c8185602086016147f9565b80840191505092915050565b600081546001811660008114613a955760018114613abb57613aff565b607f6002830416613aa6818761470f565b955060ff198316865260208601935050613aff565b60028204613ac9818761470f565b9550613ad485614641565b60005b82811015613af657815481890152600182019150602081019050613ad7565b80880195505050505b505092915050565b6000613b14601f83614720565b91507f4661696c65642120416c726561647920656e6f75676820706c617965727321006000830152602082019050919050565b6000613b54601483614720565b91507f4661696c656421204e6f742064756520796574210000000000000000000000006000830152602082019050919050565b6000613b94601883614720565b91507f4661696c6564212047616d65206973206f6e676f696e672100000000000000006000830152602082019050919050565b6000613bd4602c83614720565b91507f4661696c65642120546865207265636569766572206163636f756e7420646f6560008301527f6e732774206578697374732100000000000000000000000000000000000000006020830152604082019050919050565b6000613c3a602183614720565b91507f4661696c65642120596f75206861766520616c72656164792073656e7420697460008301527f21000000000000000000000000000000000000000000000000000000000000006020830152604082019050919050565b6000613ca0601c83614720565b91507f4661696c6564212047616d65206973206e6f74206f6e676f696e6721000000006000830152602082019050919050565b6000613ce0602583614720565b91507f4661696c656421204f6e6c792062616e6b657220616c6c6f77656420746f206460008301527f6f206974210000000000000000000000000000000000000000000000000000006020830152604082019050919050565b6000613d46601a83614720565b91507f4661696c656421204e6f20656e6f75676820706c6179657273210000000000006000830152602082019050919050565b6000613d86602083614720565b91507f4661696c65642120596f752068617665206e6f20656e6f7567682065746865726000830152602082019050919050565b6000613dc6601b83614720565b91507f4661696c6564212047616d6520616c726561647920656e6465642100000000006000830152602082019050919050565b6000613e06601383614720565b91507f4661696c6564212054696d6520697320757021000000000000000000000000006000830152602082019050919050565b6000613e46602483614720565b91507f4661696c65642120596f752068617665206e6f7420656e6f7567682062616c6160008301527f6e636521000000000000000000000000000000000000000000000000000000006020830152604082019050919050565b6000613eac603083614720565b91507f4661696c656421205468697320616464726573732068617320616c726561647960008301527f206265656e207369676e656420757021000000000000000000000000000000006020830152604082019050919050565b6000613f12603183614720565b91507f4661696c65642c205468697320757365726e616d652068617320616c7265616460008301527f79206265656e207369676e6564207570210000000000000000000000000000006020830152604082019050919050565b6000613f78601f83614720565b91507f4661696c65642120596f752068617665206e6f74207369676e656420757021006000830152602082019050919050565b6000613fb8602083614720565b91507f4661696c65642c20596f7520617265206e6f7420696e207468652067616d65216000830152602082019050919050565b6000613ff8601d83614720565b91507f4661696c6564212047616d65206e6f74207374617274656420796574210000006000830152602082019050919050565b6000614038601b83614720565b91507f4661696c65642120596f7520617265206e6f742062616e6b65722100000000006000830152602082019050919050565b60006101008301600080840154905061408381614860565b61409060008701826141f6565b50600184016140a26020870182613805565b506003840185830360608701526140b98382613863565b925050600584015490506140cc81614860565b6140d960808701826141f6565b50600684015490506140ea81614860565b6140f760a08701826141f6565b506007840154905061410881614846565b61411560c08701826137d8565b506008840185830360e087015261412c8382613a78565b925050819250505092915050565b600060c0830160008084015490506141518161482c565b61415e60008701826137f6565b506001840154905061416f8161482c565b61417c60208701826137f6565b506002840185830360408701526141938382613a78565b9250506003840185830360608701526141ac8382613a78565b925050600484015490506141bf81614860565b6141cc60808701826141f6565b50600584015490506141dd81614860565b6141ea60a08701826141f6565b50819250505092915050565b6141ff816147e0565b82525050565b61420e816147e0565b82525050565b614225614220826147e0565b61487a565b82525050565b600061423782846139dd565b915081905092915050565b600061424e8284613a47565b915081905092915050565b60006142658284614214565b60208201915081905092915050565b600060808201905061428960008301876137e7565b6142966020830186614205565b6142a360408301856139ce565b6142b060608301846139bf565b95945050505050565b600060208201905081810360008301526142d381846138d7565b905092915050565b600060208201905081810360008301526142f5818461394b565b905092915050565b600060208201905081810360008301526143178184613a0e565b905092915050565b600060408201905081810360008301526143398185613a0e565b90506143486020830184614205565b9392505050565b6000602082019050818103600083015261436881613b07565b9050919050565b6000602082019050818103600083015261438881613b47565b9050919050565b600060208201905081810360008301526143a881613b87565b9050919050565b600060208201905081810360008301526143c881613bc7565b9050919050565b600060208201905081810360008301526143e881613c2d565b9050919050565b6000602082019050818103600083015261440881613c93565b9050919050565b6000602082019050818103600083015261442881613cd3565b9050919050565b6000602082019050818103600083015261444881613d39565b9050919050565b6000602082019050818103600083015261446881613d79565b9050919050565b6000602082019050818103600083015261448881613db9565b9050919050565b600060208201905081810360008301526144a881613df9565b9050919050565b600060208201905081810360008301526144c881613e39565b9050919050565b600060208201905081810360008301526144e881613e9f565b9050919050565b6000602082019050818103600083015261450881613f05565b9050919050565b6000602082019050818103600083015261452881613f6b565b9050919050565b6000602082019050818103600083015261454881613fab565b9050919050565b6000602082019050818103600083015261456881613feb565b9050919050565b600060208201905081810360008301526145888161402b565b9050919050565b60006020820190506145a46000830184614205565b92915050565b6000604051905081810181811067ffffffffffffffff821117156145cd57600080fd5b8060405250919050565b600067ffffffffffffffff8211156145ee57600080fd5b601f19601f8301169050602081019050919050565b6000819050919050565b6000819050919050565b60008190508160005260206000209050919050565b60008190508160005260206000209050919050565b60008190508160005260206000209050919050565b600060029050919050565b600060029050919050565b600081549050919050565b600081549050919050565b600081519050919050565b600081519050919050565b6000600182019050919050565b6000600182019050919050565b6000600982019050919050565b6000600682019050919050565b600081905092915050565b600081905092915050565b600082825260208201905092915050565b600082825260208201905092915050565b600081905092915050565b600082825260208201905092915050565b600082825260208201905092915050565b600081905092915050565b600073ffffffffffffffffffffffffffffffffffffffff82169050919050565b600073ffffffffffffffffffffffffffffffffffffffff82169050919050565b6000819050919050565b6000614791826147c0565b9050919050565b60006147a3826147c0565b9050919050565b60008115159050919050565b6000819050919050565b600073ffffffffffffffffffffffffffffffffffffffff82169050919050565b6000819050919050565b82818337600083830152505050565b60005b838110156148175780820151818401526020810190506147fc565b83811115614826576000848401525b50505050565b600061483f61483a836148a8565b61473c565b9050919050565b6000614859614854836148a8565b61475c565b9050919050565b600061487361486e836148a8565b61477c565b9050919050565b6000819050919050565b60006148908254614846565b9050919050565b6000601f19601f8301169050919050565b60008160001c9050919050565b6148be81614786565b81146148c957600080fd5b50565b6148d581614798565b81146148e057600080fd5b50565b6148ec816147b6565b81146148f757600080fd5b50565b614903816147e0565b811461490e57600080fd5b5056fea365627a7a72315820351646517258886481bd5f80c8c1f28f1396ed544b28f2285947c41ff6e312006c6578706572696d656e74616cf564736f6c63430005100040",
  "source": "pragma solidity >=0.4.22 <0.7.0;\r\npragma experimental ABIEncoderV2;\r\nimport \"./Accounts.sol\";\r\n\r\ncontract CoinFlipping is AccountsManager{\r\n    /*** structures ***/\r\n    struct Player{\r\n        address payable addr;\r\n        uint number; // the number to reveal\r\n        bytes32 hashNumber; // the hash of the number\r\n        bool valid;\r\n    }\r\n    \r\n    struct Game{\r\n        // current game state\r\n        uint ongoing; // 0 for not start yet, 1 for ongoing, 2 for already ended\r\n        uint currentPlayers; // no. of current players\r\n        uint bet; // bet value, 1 eth by defa   ult\r\n        uint due; // time limit\r\n        uint gameBalance;\r\n        uint start_time;\r\n        uint end_time;\r\n        address payable winnerAddr;\r\n        string winnerName;\r\n    }\r\n    \r\n    struct GameHistory{\r\n        // game states to store in history\r\n        uint gameID;\r\n        address payable [2] players;\r\n        string [2] playerNames;\r\n        uint start_time;\r\n        uint end_time;\r\n        address payable winnerAddr;\r\n        string winnerName;\r\n    }\r\n    \r\n    struct Banker{\r\n        // banker's state\r\n        address payable bankerAddr;\r\n        string bankerName;\r\n        uint bankerBalance;\r\n    }\r\n    \r\n    /*** attributes ***/\r\n    uint currentGameID;\r\n    Game currentGame; // current game's state\r\n    GameHistory [] gameHistory; // store game history\r\n    Banker banker; // the banker\r\n    \r\n    address payable [2] players;\r\n    mapping (address => Player) public mapPlayers;\r\n    address payable [] honestPlayers;\r\n    \r\n    \r\n    /*** event ***/\r\n    event Logger2(GameHistory [] gameHistory);\r\n    \r\n    /*** constructor ***/\r\n    constructor() public{\r\n        // initialize game, banker\r\n        currentGameID = 0;\r\n        clearGame();\r\n\r\n        banker = Banker({\r\n            bankerAddr: 0xe29dEc2ffCf4d0A61ED9983ED5369E0EeB4A4708, // todo\r\n            bankerName: \"BANKER\",\r\n            bankerBalance: 0\r\n        });\r\n    }\r\n    \r\n    \r\n    /*** modifiers ***/\r\n    modifier twoPlayers{\r\n        require(currentGame.currentPlayers == 2, \"Failed! No enough players!\");\r\n        _;\r\n    }\r\n    \r\n    modifier notTwoPlayers{\r\n        require(currentGame.currentPlayers < 2, \"Failed! Already enough players!\");\r\n        _;\r\n    }\r\n    \r\n    modifier ongoingGame{\r\n        require(currentGame.ongoing == 1, \"Failed! Game is not ongoing!\");\r\n        _;\r\n    }\r\n    \r\n    modifier notOngoingGame{\r\n        require(currentGame.ongoing != 1, \"Failed! Game is ongoing!\");\r\n        _;\r\n    }\r\n    \r\n    modifier notStartedGame{\r\n        require(currentGame.ongoing == 0, \"Failed! Game not started yet!\");\r\n        _;\r\n    }\r\n    \r\n    modifier endedGame{\r\n        require(currentGame.ongoing == 2, \"Failed! Game already ended!\");\r\n        _;\r\n    }\r\n    \r\n    modifier bePlayer{\r\n        require(mapPlayers[msg.sender].valid, \"Failed, You are not in the game!\");\r\n        _;\r\n    }\r\n    \r\n    modifier beBanker{\r\n        require(msg.sender == banker.bankerAddr, \"Failed! Only banker allowed to do it!\");\r\n        _;\r\n    }\r\n    \r\n    modifier beforeDue{\r\n        require(now < currentGame.end_time, \"Failed! Time is up!\");\r\n        _;\r\n    }\r\n    \r\n    modifier overDue{\r\n        require(now > currentGame.end_time, \"Failed! Not due yet!\");\r\n        _;\r\n    }\r\n    \r\n    \r\n    /*** functions ***/\r\n    \r\n    /** public **/\r\n    \r\n    function withdrawByBanker(uint amount) public payable{\r\n        require(msg.sender == banker.bankerAddr, \"Failed! You are not banker!\");\r\n        require(banker.bankerBalance >= amount, \"Failed! You have not enough balance!\");\r\n        banker.bankerAddr.transfer(amount);\r\n        banker.bankerBalance -= amount;\r\n    }\r\n    \r\n    function joinGame() public notStartedGame notTwoPlayers{\r\n        require(accounts[msg.sender].balance >= currentGame.bet, \"Failed! You have no enough ether\"); \r\n        players[currentGame.currentPlayers] = msg.sender;\r\n        mapPlayers[msg.sender] = Player({\r\n           addr: msg.sender,\r\n           number: 0,\r\n           hashNumber: 0,\r\n           valid: true\r\n        });\r\n        currentGame.currentPlayers += 1;\r\n    }\r\n    \r\n    function sendHash(bytes32 hashNumber) public ongoingGame beforeDue twoPlayers bePlayer{\r\n        require(mapPlayers[msg.sender].hashNumber == 0, \"Failed! You have already sent it!\");\r\n        mapPlayers[msg.sender].hashNumber = hashNumber;\r\n    }\r\n    \r\n    function sendNumber(uint number) public ongoingGame overDue twoPlayers bePlayer{\r\n        require(mapPlayers[msg.sender].number == 0, \"Failed! You have already sent it!\");\r\n        mapPlayers[msg.sender].number = number;\r\n    }\r\n    \r\n    function startGame() public notStartedGame twoPlayers beBanker{\r\n        currentGame.ongoing = 1;\r\n        currentGame.start_time = now;\r\n        currentGame.end_time = currentGame.start_time + currentGame.due;\r\n        \r\n        // transfer ether from players to banker\r\n        for (uint i = 0; i < currentGame.currentPlayers; i++){\r\n            accounts[players[i]].balance -= currentGame.bet;\r\n        }\r\n        currentGame.gameBalance += currentGame.bet * currentGame.currentPlayers;\r\n    }\r\n    \r\n    function checkWinner() public overDue twoPlayers returns (string memory winnerName){\r\n        currentGame.ongoing = 2; // game ends.\r\n        \r\n        // already checked, return result\r\n        if (currentGame.winnerAddr == banker.bankerAddr){\r\n            return \"All cheated! No Winner!\";\r\n        }\r\n        if (currentGame.winnerAddr != address(0)){\r\n            return accounts[currentGame.winnerAddr].username;\r\n        }\r\n        \r\n        // check cheaters\r\n        for (uint i = 0; i < currentGame.currentPlayers; i++){\r\n            if (mapPlayers[players[i]].hashNumber == sha256(abi.encodePacked(mapPlayers[players[i]].number))){\r\n                honestPlayers.push(players[i]);\r\n            }\r\n        }\r\n        \r\n        // check winner excluding cheaters\r\n        if (honestPlayers.length > 0){\r\n            uint winner = 0;\r\n            for (uint i = 0; i < honestPlayers.length; i++){\r\n                winner += mapPlayers[honestPlayers[i]].number;\r\n            }\r\n            winner = winner % honestPlayers.length;\r\n            currentGame.winnerAddr = honestPlayers[winner];\r\n        }\r\n        else{\r\n            currentGame.winnerAddr = banker.bankerAddr;\r\n        }\r\n        \r\n        // banker transfers if not\r\n        if (msg.sender == banker.bankerAddr && currentGame.gameBalance > 0){\r\n            // do the transfer\r\n            if (currentGame.winnerAddr != banker.bankerAddr){\r\n                accounts[currentGame.winnerAddr].balance += currentGame.gameBalance * 95 / 100;\r\n                banker.bankerBalance += currentGame.gameBalance * 5 / 100;\r\n            }\r\n            else{\r\n                banker.bankerBalance += currentGame.gameBalance;\r\n            }\r\n            currentGame.gameBalance = 0;\r\n        }\r\n        return accounts[currentGame.winnerAddr].username;\r\n    }\r\n    \r\n     function clear() public endedGame beBanker{\r\n        // record the game to history and clear \r\n        gameHistory.push(GameHistory({\r\n            gameID: currentGameID,\r\n            players: players,\r\n            playerNames: [accounts[players[0]].username, accounts[players[1]].username],\r\n            start_time: currentGame.start_time,\r\n            end_time: currentGame.end_time,\r\n            winnerAddr: currentGame.winnerAddr,\r\n            winnerName: accounts[currentGame.winnerAddr].username\r\n        }));\r\n        \r\n        \r\n        clearPlayers();\r\n        clearGame();\r\n        currentGameID += 1;\r\n    }\r\n    \r\n    function checkHistory() public validUser {\r\n        // check the game history\r\n        emit Logger2(gameHistory);\r\n    }\r\n    \r\n    function whoAmI() public view returns(uint){\r\n        // return 0 for unregistered, 1 for player, 2 for banker\r\n        if (banker.bankerAddr == msg.sender){\r\n            return 2;\r\n        }\r\n        if (accounts[msg.sender].valid){\r\n            return 1;\r\n        }\r\n        return 0;\r\n    }\r\n\r\n    /** private **/\r\n    \r\n    function clearGame() private notOngoingGame {\r\n        // clear game's state\r\n        currentGame = Game({\r\n          ongoing: 0,\r\n          currentPlayers: 0,\r\n          bet: 1 ether,\r\n          due: 1 minutes,\r\n          gameBalance: 0,\r\n          start_time: 0,\r\n          end_time: 0,\r\n          winnerAddr: address(0),\r\n          winnerName: \"\"\r\n        });\r\n    }\r\n    \r\n    function clearPlayers() private endedGame {\r\n        // clear players' states\r\n        for (uint i = 1; i < currentGame.currentPlayers; i++){\r\n            delete mapPlayers[players[i]];\r\n        }\r\n        delete players;\r\n        delete honestPlayers;\r\n    }\r\n    \r\n}\r\n",
  "sourcePath": "/home/taliyah/coinflipping/contracts/CoinFlipping.sol",
  "compiler": {
    "name": "solc",
    "version": "0.5.16+commit.9c3226ce.Emscripten.clang"
  },
  "schemaVersion": "3.1.0",
  "updatedAt": "2020-04-24T05:40:43.267Z",
  "networkType": "ethereum",
  "devdoc": {
    "methods": {}
  },
  "userdoc": {
    "methods": {
      "constructor": "* constructor **",
      "create(string,address)": {
        "notice": "* functions **"
      },
      "withdrawByBanker(uint256)": {
        "notice": "public *"
      }
    }
  }
}