{
  "contractName": "CoinFlipping",
  "abi": [
    {
      "inputs": [],
      "payable": false,
      "stateMutability": "nonpayable",
      "type": "constructor"
    },
    {
      "constant": true,
      "inputs": [],
      "name": "checkRecords",
      "outputs": [
        {
          "components": [
            {
              "internalType": "address",
              "name": "afrom",
              "type": "address"
            },
            {
              "internalType": "address",
              "name": "ato",
              "type": "address"
            },
            {
              "internalType": "string",
              "name": "ufrom",
              "type": "string"
            },
            {
              "internalType": "string",
              "name": "uto",
              "type": "string"
            },
            {
              "internalType": "uint256",
              "name": "amount",
              "type": "uint256"
            },
            {
              "internalType": "uint256",
              "name": "time",
              "type": "uint256"
            }
          ],
          "internalType": "struct AccountsManager.Record[]",
          "name": "",
          "type": "tuple[]"
        }
      ],
      "payable": false,
      "stateMutability": "view",
      "type": "function"
    },
    {
      "constant": false,
      "inputs": [
        {
          "internalType": "string",
          "name": "_username",
          "type": "string"
        },
        {
          "internalType": "address payable",
          "name": "_addr",
          "type": "address"
        }
      ],
      "name": "create",
      "outputs": [],
      "payable": true,
      "stateMutability": "payable",
      "type": "function"
    },
    {
      "constant": false,
      "inputs": [],
      "name": "deposit",
      "outputs": [],
      "payable": true,
      "stateMutability": "payable",
      "type": "function"
    },
    {
      "constant": true,
      "inputs": [
        {
          "internalType": "address",
          "name": "",
          "type": "address"
        }
      ],
      "name": "mapPlayers",
      "outputs": [
        {
          "internalType": "address payable",
          "name": "addr",
          "type": "address"
        },
        {
          "internalType": "uint256",
          "name": "number",
          "type": "uint256"
        },
        {
          "internalType": "bytes32",
          "name": "hashNumber",
          "type": "bytes32"
        },
        {
          "internalType": "bool",
          "name": "valid",
          "type": "bool"
        }
      ],
      "payable": false,
      "stateMutability": "view",
      "type": "function"
    },
    {
      "constant": true,
      "inputs": [],
      "name": "query",
      "outputs": [
        {
          "internalType": "string",
          "name": "",
          "type": "string"
        },
        {
          "internalType": "uint256",
          "name": "",
          "type": "uint256"
        }
      ],
      "payable": false,
      "stateMutability": "view",
      "type": "function"
    },
    {
      "constant": false,
      "inputs": [
        {
          "internalType": "address payable",
          "name": "to",
          "type": "address"
        },
        {
          "internalType": "uint256",
          "name": "amount",
          "type": "uint256"
        }
      ],
      "name": "transferByAddr",
      "outputs": [],
      "payable": true,
      "stateMutability": "payable",
      "type": "function"
    },
    {
      "constant": false,
      "inputs": [
        {
          "internalType": "string",
          "name": "to",
          "type": "string"
        },
        {
          "internalType": "uint256",
          "name": "amount",
          "type": "uint256"
        }
      ],
      "name": "transferByName",
      "outputs": [],
      "payable": true,
      "stateMutability": "payable",
      "type": "function"
    },
    {
      "constant": false,
      "inputs": [
        {
          "internalType": "uint256",
          "name": "amount",
          "type": "uint256"
        }
      ],
      "name": "withdraw",
      "outputs": [],
      "payable": true,
      "stateMutability": "payable",
      "type": "function"
    },
    {
      "constant": true,
      "inputs": [],
      "name": "getPlayers",
      "outputs": [
        {
          "internalType": "address payable",
          "name": "",
          "type": "address"
        },
        {
          "internalType": "address payable",
          "name": "",
          "type": "address"
        },
        {
          "internalType": "string",
          "name": "",
          "type": "string"
        },
        {
          "internalType": "string",
          "name": "",
          "type": "string"
        }
      ],
      "payable": false,
      "stateMutability": "view",
      "type": "function"
    },
    {
      "constant": true,
      "inputs": [],
      "name": "queryByBanker",
      "outputs": [
        {
          "internalType": "string",
          "name": "",
          "type": "string"
        },
        {
          "internalType": "uint256",
          "name": "",
          "type": "uint256"
        }
      ],
      "payable": false,
      "stateMutability": "view",
      "type": "function"
    },
    {
      "constant": false,
      "inputs": [
        {
          "internalType": "uint256",
          "name": "amount",
          "type": "uint256"
        }
      ],
      "name": "withdrawByBanker",
      "outputs": [],
      "payable": true,
      "stateMutability": "payable",
      "type": "function"
    },
    {
      "constant": false,
      "inputs": [],
      "name": "joinGame",
      "outputs": [],
      "payable": false,
      "stateMutability": "nonpayable",
      "type": "function"
    },
    {
      "constant": false,
      "inputs": [
        {
          "internalType": "bytes32",
          "name": "hashNumber",
          "type": "bytes32"
        }
      ],
      "name": "sendHash",
      "outputs": [],
      "payable": false,
      "stateMutability": "nonpayable",
      "type": "function"
    },
    {
      "constant": false,
      "inputs": [
        {
          "internalType": "uint256",
          "name": "number",
          "type": "uint256"
        }
      ],
      "name": "sendNumber",
      "outputs": [],
      "payable": false,
      "stateMutability": "nonpayable",
      "type": "function"
    },
    {
      "constant": false,
      "inputs": [],
      "name": "startGame",
      "outputs": [],
      "payable": false,
      "stateMutability": "nonpayable",
      "type": "function"
    },
    {
      "constant": false,
      "inputs": [],
      "name": "checkWinner",
      "outputs": [],
      "payable": false,
      "stateMutability": "nonpayable",
      "type": "function"
    },
    {
      "constant": false,
      "inputs": [],
      "name": "clear",
      "outputs": [],
      "payable": false,
      "stateMutability": "nonpayable",
      "type": "function"
    },
    {
      "constant": true,
      "inputs": [],
      "name": "playerGetWinner",
      "outputs": [
        {
          "internalType": "bool",
          "name": "",
          "type": "bool"
        }
      ],
      "payable": false,
      "stateMutability": "view",
      "type": "function"
    },
    {
      "constant": true,
      "inputs": [],
      "name": "getWinner",
      "outputs": [
        {
          "internalType": "string",
          "name": "",
          "type": "string"
        }
      ],
      "payable": false,
      "stateMutability": "view",
      "type": "function"
    },
    {
      "constant": true,
      "inputs": [],
      "name": "bankerCheckHistory",
      "outputs": [
        {
          "components": [
            {
              "internalType": "uint256",
              "name": "gameID",
              "type": "uint256"
            },
            {
              "internalType": "address payable",
              "name": "player1",
              "type": "address"
            },
            {
              "internalType": "address payable",
              "name": "player2",
              "type": "address"
            },
            {
              "internalType": "string",
              "name": "playerName1",
              "type": "string"
            },
            {
              "internalType": "string",
              "name": "playerName2",
              "type": "string"
            },
            {
              "internalType": "uint256",
              "name": "start_time",
              "type": "uint256"
            },
            {
              "internalType": "uint256",
              "name": "end_time",
              "type": "uint256"
            },
            {
              "internalType": "address payable",
              "name": "winnerAddr",
              "type": "address"
            },
            {
              "internalType": "string",
              "name": "winnerName",
              "type": "string"
            }
          ],
          "internalType": "struct CoinFlipping.GameHistory[]",
          "name": "",
          "type": "tuple[]"
        }
      ],
      "payable": false,
      "stateMutability": "view",
      "type": "function"
    },
    {
      "constant": true,
      "inputs": [],
      "name": "playerCheckHistory",
      "outputs": [
        {
          "components": [
            {
              "internalType": "uint256",
              "name": "gameID",
              "type": "uint256"
            },
            {
              "internalType": "address payable",
              "name": "player1",
              "type": "address"
            },
            {
              "internalType": "address payable",
              "name": "player2",
              "type": "address"
            },
            {
              "internalType": "string",
              "name": "playerName1",
              "type": "string"
            },
            {
              "internalType": "string",
              "name": "playerName2",
              "type": "string"
            },
            {
              "internalType": "uint256",
              "name": "start_time",
              "type": "uint256"
            },
            {
              "internalType": "uint256",
              "name": "end_time",
              "type": "uint256"
            },
            {
              "internalType": "address payable",
              "name": "winnerAddr",
              "type": "address"
            },
            {
              "internalType": "string",
              "name": "winnerName",
              "type": "string"
            }
          ],
          "internalType": "struct CoinFlipping.GameHistory",
          "name": "",
          "type": "tuple"
        }
      ],
      "payable": false,
      "stateMutability": "view",
      "type": "function"
    },
    {
      "constant": true,
      "inputs": [],
      "name": "whoAmI",
      "outputs": [
        {
          "internalType": "uint256",
          "name": "",
          "type": "uint256"
        }
      ],
      "payable": false,
      "stateMutability": "view",
      "type": "function"
    }
  ],
  "bytecode": "0x60806040523480156200001157600080fd5b5060016003819055506200002a6200012060201b60201c565b604051806060016040528073e29dec2ffcf4d0a61ed9983ed5369e0eeb4a470873ffffffffffffffffffffffffffffffffffffffff1681526020016040518060400160405280600681526020017f42414e4b4552000000000000000000000000000000000000000000000000000081525081526020016000815250600e60008201518160000160006101000a81548173ffffffffffffffffffffffffffffffffffffffff021916908373ffffffffffffffffffffffffffffffffffffffff16021790555060208201518160010190805190602001906200010c92919062000294565b5060408201518160020155905050620003b8565b600160046000015414156200016c576040517f08c379a0000000000000000000000000000000000000000000000000000000008152600401620001639062000385565b60405180910390fd5b6040518061012001604052806000815260200160008152602001670de0b6b3a76400008152602001603c8152602001600081526020016000815260200160008152602001600073ffffffffffffffffffffffffffffffffffffffff168152602001604051806020016040528060008152508152506004600082015181600001556020820151816001015560408201518160020155606082015181600301556080820151816004015560a0820151816005015560c0820151816006015560e08201518160070160006101000a81548173ffffffffffffffffffffffffffffffffffffffff021916908373ffffffffffffffffffffffffffffffffffffffff1602179055506101008201518160080190805190602001906200028e92919062000294565b50905050565b828054600181600116156101000203166002900490600052602060002090601f016020900481019282601f10620002d757805160ff191683800117855562000308565b8280016001018555821562000308579182015b8281111562000307578251825591602001919060010190620002ea565b5b5090506200031791906200031b565b5090565b6200034091905b808211156200033c57600081600090555060010162000322565b5090565b90565b600062000352601883620003a7565b91507f4661696c6564212047616d65206973206f6e676f696e672100000000000000006000830152602082019050919050565b60006020820190508181036000830152620003a08162000343565b9050919050565b600082825260208201905092915050565b61567780620003c86000396000f3fe6080604052600436106101355760003560e01c80638e7ea5b2116100ab578063d65ab5f21161006f578063d65ab5f21461036b578063da91254c14610382578063df4d7179146103ad578063e639f991146103d8578063ee6dd9fa146103f4578063eea3f1261461041d57610135565b80638e7ea5b2146102ec5780639c5872e314610317578063ad38867e14610333578063d0e30db01461034a578063d4f77b1c1461035457610135565b806352efea6e116100fd57806352efea6e146102045780636b500f551461021b57806384b47b0f1461025b578063856b517414610277578063881ab2dd146102a25780638b5b9ccc146102be57610135565b806324f363b01461013a5780632c46b205146101655780632e1a7d4d1461019157806345e8058b146101ad5780634ec4b6c6146101d8575b600080fd5b34801561014657600080fd5b5061014f610446565b60405161015c919061515f565b60405180910390f35b34801561017157600080fd5b5061017a6104fa565b60405161018892919061519c565b60405180910390f35b6101ab60048036036101a691908101906146ff565b6106b3565b005b3480156101b957600080fd5b506101c261082a565b6040516101cf919061511b565b60405180910390f35b3480156101e457600080fd5b506101ed610c23565b6040516101fb92919061519c565b60405180910390f35b34801561021057600080fd5b50610219610d69565b005b34801561022757600080fd5b50610242600480360361023d91908101906145c9565b611401565b60405161025294939291906150d6565b60405180910390f35b61027560048036036102709190810190614657565b61145e565b005b34801561028357600080fd5b5061028c61170b565b60405161029991906153cc565b60405180910390f35b6102bc60048036036102b791908101906145f2565b611cae565b005b3480156102ca57600080fd5b506102d36121d5565b6040516102e39493929190615083565b60405180910390f35b3480156102f857600080fd5b50610301612461565b60405161030e919061517a565b60405180910390f35b610331600480360361032c91908101906146ff565b6126a0565b005b34801561033f57600080fd5b506103486127fd565b005b610352612ef4565b005b34801561036057600080fd5b50610369612fd7565b005b34801561037757600080fd5b50610380613253565b005b34801561038e57600080fd5b50610397613464565b6040516103a491906153ee565b60405180910390f35b3480156103b957600080fd5b506103c261352d565b6040516103cf919061513d565b60405180910390f35b6103f260048036036103ed91908101906146ab565b61381e565b005b34801561040057600080fd5b5061041b6004803603610416919081019061462e565b613d26565b005b34801561042957600080fd5b50610444600480360361043f91908101906146ff565b613ed6565b005b6000600260046000015414610490576040517f08c379a00000000000000000000000000000000000000000000000000000000081526004016104879061528c565b60405180910390fd5b3373ffffffffffffffffffffffffffffffffffffffff16600460070160009054906101000a900473ffffffffffffffffffffffffffffffffffffffff1673ffffffffffffffffffffffffffffffffffffffff1614156104f257600190506104f7565b600090505b90565b606060008060003373ffffffffffffffffffffffffffffffffffffffff1673ffffffffffffffffffffffffffffffffffffffff16815260200190815260200160002060030160009054906101000a900460ff1661058c576040517f08c379a00000000000000000000000000000000000000000000000000000000081526004016105839061536c565b60405180910390fd5b6000803373ffffffffffffffffffffffffffffffffffffffff1673ffffffffffffffffffffffffffffffffffffffff1681526020019081526020016000206000016000803373ffffffffffffffffffffffffffffffffffffffff1673ffffffffffffffffffffffffffffffffffffffff16815260200190815260200160002060020154818054600181600116156101000203166002900480601f0160208091040260200160405190810160405280929190818152602001828054600181600116156101000203166002900480156106a45780601f10610679576101008083540402835291602001916106a4565b820191906000526020600020905b81548152906001019060200180831161068757829003601f168201915b50505050509150915091509091565b6000803373ffffffffffffffffffffffffffffffffffffffff1673ffffffffffffffffffffffffffffffffffffffff16815260200190815260200160002060030160009054906101000a900460ff16610741576040517f08c379a00000000000000000000000000000000000000000000000000000000081526004016107389061536c565b60405180910390fd5b80806000803373ffffffffffffffffffffffffffffffffffffffff1673ffffffffffffffffffffffffffffffffffffffff16815260200190815260200160002060020154101561079057600080fd5b3373ffffffffffffffffffffffffffffffffffffffff166108fc839081150290604051600060405180830381858888f193505050501580156107d6573d6000803e3d6000fd5b50816000803373ffffffffffffffffffffffffffffffffffffffff1673ffffffffffffffffffffffffffffffffffffffff168152602001908152602001600020600201600082825403925050819055505050565b6060600e60000160009054906101000a900473ffffffffffffffffffffffffffffffffffffffff1673ffffffffffffffffffffffffffffffffffffffff163373ffffffffffffffffffffffffffffffffffffffff16146108bf576040517f08c379a00000000000000000000000000000000000000000000000000000000081526004016108b69061526c565b60405180910390fd5b600d805480602002602001604051908101604052809291908181526020016000905b82821015610c1a578382906000526020600020906009020160405180610120016040529081600082015481526020016001820160009054906101000a900473ffffffffffffffffffffffffffffffffffffffff1673ffffffffffffffffffffffffffffffffffffffff1673ffffffffffffffffffffffffffffffffffffffff1681526020016002820160009054906101000a900473ffffffffffffffffffffffffffffffffffffffff1673ffffffffffffffffffffffffffffffffffffffff1673ffffffffffffffffffffffffffffffffffffffff168152602001600382018054600181600116156101000203166002900480601f016020809104026020016040519081016040528092919081815260200182805460018160011615610100020316600290048015610a545780601f10610a2957610100808354040283529160200191610a54565b820191906000526020600020905b815481529060010190602001808311610a3757829003601f168201915b50505050508152602001600482018054600181600116156101000203166002900480601f016020809104026020016040519081016040528092919081815260200182805460018160011615610100020316600290048015610af65780601f10610acb57610100808354040283529160200191610af6565b820191906000526020600020905b815481529060010190602001808311610ad957829003601f168201915b5050505050815260200160058201548152602001600682015481526020016007820160009054906101000a900473ffffffffffffffffffffffffffffffffffffffff1673ffffffffffffffffffffffffffffffffffffffff1673ffffffffffffffffffffffffffffffffffffffff168152602001600882018054600181600116156101000203166002900480601f016020809104026020016040519081016040528092919081815260200182805460018160011615610100020316600290048015610c025780601f10610bd757610100808354040283529160200191610c02565b820191906000526020600020905b815481529060010190602001808311610be557829003601f168201915b505050505081525050815260200190600101906108e1565b50505050905090565b60606000600e60000160009054906101000a900473ffffffffffffffffffffffffffffffffffffffff1673ffffffffffffffffffffffffffffffffffffffff163373ffffffffffffffffffffffffffffffffffffffff1614610cba576040517f08c379a0000000000000000000000000000000000000000000000000000000008152600401610cb19061526c565b60405180910390fd5b600e600101600e60020154818054600181600116156101000203166002900480601f016020809104026020016040519081016040528092919081815260200182805460018160011615610100020316600290048015610d5a5780601f10610d2f57610100808354040283529160200191610d5a565b820191906000526020600020905b815481529060010190602001808311610d3d57829003601f168201915b50505050509150915091509091565b600260046000015414610db1576040517f08c379a0000000000000000000000000000000000000000000000000000000008152600401610da89061528c565b60405180910390fd5b600e60000160009054906101000a900473ffffffffffffffffffffffffffffffffffffffff1673ffffffffffffffffffffffffffffffffffffffff163373ffffffffffffffffffffffffffffffffffffffff1614610e44576040517f08c379a0000000000000000000000000000000000000000000000000000000008152600401610e3b9061526c565b60405180910390fd5b600d60405180610120016040528060035481526020016011600060028110610e6857fe5b0160009054906101000a900473ffffffffffffffffffffffffffffffffffffffff1673ffffffffffffffffffffffffffffffffffffffff1681526020016011600160028110610eb357fe5b0160009054906101000a900473ffffffffffffffffffffffffffffffffffffffff1673ffffffffffffffffffffffffffffffffffffffff1681526020016000806011600060028110610f0157fe5b0160009054906101000a900473ffffffffffffffffffffffffffffffffffffffff1673ffffffffffffffffffffffffffffffffffffffff1673ffffffffffffffffffffffffffffffffffffffff1681526020019081526020016000206000018054600181600116156101000203166002900480601f016020809104026020016040519081016040528092919081815260200182805460018160011615610100020316600290048015610ff45780601f10610fc957610100808354040283529160200191610ff4565b820191906000526020600020905b815481529060010190602001808311610fd757829003601f168201915b50505050508152602001600080601160016002811061100f57fe5b0160009054906101000a900473ffffffffffffffffffffffffffffffffffffffff1673ffffffffffffffffffffffffffffffffffffffff1673ffffffffffffffffffffffffffffffffffffffff1681526020019081526020016000206000018054600181600116156101000203166002900480601f0160208091040260200160405190810160405280929190818152602001828054600181600116156101000203166002900480156111025780601f106110d757610100808354040283529160200191611102565b820191906000526020600020905b8154815290600101906020018083116110e557829003601f168201915b5050505050815260200160046005015481526020016004600601548152602001600460070160009054906101000a900473ffffffffffffffffffffffffffffffffffffffff1673ffffffffffffffffffffffffffffffffffffffff168152602001600080600460070160009054906101000a900473ffffffffffffffffffffffffffffffffffffffff1673ffffffffffffffffffffffffffffffffffffffff1673ffffffffffffffffffffffffffffffffffffffff1681526020019081526020016000206000018054600181600116156101000203166002900480601f01602080910402602001604051908101604052809291908181526020018280546001816001161561010002031660029004801561125d5780601f106112325761010080835404028352916020019161125d565b820191906000526020600020905b81548152906001019060200180831161124057829003601f168201915b5050505050815250908060018154018082558091505090600182039060005260206000209060090201600090919290919091506000820151816000015560208201518160010160006101000a81548173ffffffffffffffffffffffffffffffffffffffff021916908373ffffffffffffffffffffffffffffffffffffffff16021790555060408201518160020160006101000a81548173ffffffffffffffffffffffffffffffffffffffff021916908373ffffffffffffffffffffffffffffffffffffffff1602179055506060820151816003019080519060200190611344929190614338565b506080820151816004019080519060200190611361929190614338565b5060a0820151816005015560c0820151816006015560e08201518160070160006101000a81548173ffffffffffffffffffffffffffffffffffffffff021916908373ffffffffffffffffffffffffffffffffffffffff1602179055506101008201518160080190805190602001906113da929190614338565b505050506113e6614086565b6113ee6141c9565b6001600360008282540192505081905550565b60136020528060005260406000206000915090508060000160009054906101000a900473ffffffffffffffffffffffffffffffffffffffff16908060010154908060020154908060030160009054906101000a900460ff16905084565b600015156000808373ffffffffffffffffffffffffffffffffffffffff1673ffffffffffffffffffffffffffffffffffffffff16815260200190815260200160002060030160009054906101000a900460ff161515146114f3576040517f08c379a00000000000000000000000000000000000000000000000000000000081526004016114ea9061532c565b60405180910390fd5b600073ffffffffffffffffffffffffffffffffffffffff1660018360405161151b9190615051565b908152602001604051809103902060009054906101000a900473ffffffffffffffffffffffffffffffffffffffff1673ffffffffffffffffffffffffffffffffffffffff16146115a0576040517f08c379a00000000000000000000000000000000000000000000000000000000081526004016115979061534c565b60405180910390fd5b60405180608001604052808381526020018273ffffffffffffffffffffffffffffffffffffffff16815260200160008152602001600115158152506000808373ffffffffffffffffffffffffffffffffffffffff1673ffffffffffffffffffffffffffffffffffffffff1681526020019081526020016000206000820151816000019080519060200190611635929190614338565b5060208201518160010160006101000a81548173ffffffffffffffffffffffffffffffffffffffff021916908373ffffffffffffffffffffffffffffffffffffffff1602179055506040820151816002015560608201518160030160006101000a81548160ff021916908315150217905550905050806001836040516116bb9190615051565b908152602001604051809103902060006101000a81548173ffffffffffffffffffffffffffffffffffffffff021916908373ffffffffffffffffffffffffffffffffffffffff1602179055505050565b6117136143b8565b6000803373ffffffffffffffffffffffffffffffffffffffff1673ffffffffffffffffffffffffffffffffffffffff16815260200190815260200160002060030160009054906101000a900460ff166117a1576040517f08c379a00000000000000000000000000000000000000000000000000000000081526004016117989061536c565b60405180910390fd5b6000600d80549050905060008090505b81811015611bf1573373ffffffffffffffffffffffffffffffffffffffff16600d600183850303815481106117e257fe5b906000526020600020906009020160010160009054906101000a900473ffffffffffffffffffffffffffffffffffffffff1673ffffffffffffffffffffffffffffffffffffffff1614806118a457503373ffffffffffffffffffffffffffffffffffffffff16600d6001838503038154811061185a57fe5b906000526020600020906009020160020160009054906101000a900473ffffffffffffffffffffffffffffffffffffffff1673ffffffffffffffffffffffffffffffffffffffff16145b15611be457600d600182840303815481106118bb57fe5b906000526020600020906009020160405180610120016040529081600082015481526020016001820160009054906101000a900473ffffffffffffffffffffffffffffffffffffffff1673ffffffffffffffffffffffffffffffffffffffff1673ffffffffffffffffffffffffffffffffffffffff1681526020016002820160009054906101000a900473ffffffffffffffffffffffffffffffffffffffff1673ffffffffffffffffffffffffffffffffffffffff1673ffffffffffffffffffffffffffffffffffffffff168152602001600382018054600181600116156101000203166002900480601f016020809104026020016040519081016040528092919081815260200182805460018160011615610100020316600290048015611a245780601f106119f957610100808354040283529160200191611a24565b820191906000526020600020905b815481529060010190602001808311611a0757829003601f168201915b50505050508152602001600482018054600181600116156101000203166002900480601f016020809104026020016040519081016040528092919081815260200182805460018160011615610100020316600290048015611ac65780601f10611a9b57610100808354040283529160200191611ac6565b820191906000526020600020905b815481529060010190602001808311611aa957829003601f168201915b5050505050815260200160058201548152602001600682015481526020016007820160009054906101000a900473ffffffffffffffffffffffffffffffffffffffff1673ffffffffffffffffffffffffffffffffffffffff1673ffffffffffffffffffffffffffffffffffffffff168152602001600882018054600181600116156101000203166002900480601f016020809104026020016040519081016040528092919081815260200182805460018160011615610100020316600290048015611bd25780601f10611ba757610100808354040283529160200191611bd2565b820191906000526020600020905b815481529060010190602001808311611bb557829003601f168201915b50505050508152505092505050611cab565b80806001019150506117b1565b5060405180610120016040528060008152602001600073ffffffffffffffffffffffffffffffffffffffff168152602001600073ffffffffffffffffffffffffffffffffffffffff1681526020016040518060200160405280600081525081526020016040518060200160405280600081525081526020016000815260200160008152602001600073ffffffffffffffffffffffffffffffffffffffff168152602001604051806020016040528060008152508152509150505b90565b6000803373ffffffffffffffffffffffffffffffffffffffff1673ffffffffffffffffffffffffffffffffffffffff16815260200190815260200160002060030160009054906101000a900460ff16611d3c576040517f08c379a0000000000000000000000000000000000000000000000000000000008152600401611d339061536c565b60405180910390fd5b816000808273ffffffffffffffffffffffffffffffffffffffff1673ffffffffffffffffffffffffffffffffffffffff16815260200190815260200160002060030160009054906101000a900460ff16611dcb576040517f08c379a0000000000000000000000000000000000000000000000000000000008152600401611dc29061522c565b60405180910390fd5b81806000803373ffffffffffffffffffffffffffffffffffffffff1673ffffffffffffffffffffffffffffffffffffffff168152602001908152602001600020600201541015611e1a57600080fd5b826000808673ffffffffffffffffffffffffffffffffffffffff1673ffffffffffffffffffffffffffffffffffffffff16815260200190815260200160002060020160008282540192505081905550826000803373ffffffffffffffffffffffffffffffffffffffff1673ffffffffffffffffffffffffffffffffffffffff1681526020019081526020016000206002016000828254039250508190555060026040518060c001604052803373ffffffffffffffffffffffffffffffffffffffff1681526020018673ffffffffffffffffffffffffffffffffffffffff1681526020016000803373ffffffffffffffffffffffffffffffffffffffff1673ffffffffffffffffffffffffffffffffffffffff1681526020019081526020016000206000018054600181600116156101000203166002900480601f016020809104026020016040519081016040528092919081815260200182805460018160011615610100020316600290048015611fd25780601f10611fa757610100808354040283529160200191611fd2565b820191906000526020600020905b815481529060010190602001808311611fb557829003601f168201915b505050505081526020016000808873ffffffffffffffffffffffffffffffffffffffff1673ffffffffffffffffffffffffffffffffffffffff1681526020019081526020016000206000018054600181600116156101000203166002900480601f0160208091040260200160405190810160405280929190818152602001828054600181600116156101000203166002900480156120b15780601f10612086576101008083540402835291602001916120b1565b820191906000526020600020905b81548152906001019060200180831161209457829003601f168201915b50505050508152602001858152602001428152509080600181540180825580915050906001820390600052602060002090600602016000909192909190915060008201518160000160006101000a81548173ffffffffffffffffffffffffffffffffffffffff021916908373ffffffffffffffffffffffffffffffffffffffff16021790555060208201518160010160006101000a81548173ffffffffffffffffffffffffffffffffffffffff021916908373ffffffffffffffffffffffffffffffffffffffff160217905550604082015181600201908051906020019061219a929190614338565b5060608201518160030190805190602001906121b7929190614338565b506080820151816004015560a0820151816005015550505050505050565b60008060608060116000600281106121e957fe5b0160009054906101000a900473ffffffffffffffffffffffffffffffffffffffff16601160016002811061221957fe5b0160009054906101000a900473ffffffffffffffffffffffffffffffffffffffff16600080601160006002811061224c57fe5b0160009054906101000a900473ffffffffffffffffffffffffffffffffffffffff1673ffffffffffffffffffffffffffffffffffffffff1673ffffffffffffffffffffffffffffffffffffffff16815260200190815260200160002060000160008060116001600281106122bc57fe5b0160009054906101000a900473ffffffffffffffffffffffffffffffffffffffff1673ffffffffffffffffffffffffffffffffffffffff1673ffffffffffffffffffffffffffffffffffffffff168152602001908152602001600020600001818054600181600116156101000203166002900480601f0160208091040260200160405190810160405280929190818152602001828054600181600116156101000203166002900480156123b05780601f10612385576101008083540402835291602001916123b0565b820191906000526020600020905b81548152906001019060200180831161239357829003601f168201915b50505050509150808054600181600116156101000203166002900480601f01602080910402602001604051908101604052809291908181526020018280546001816001161561010002031660029004801561244c5780601f106124215761010080835404028352916020019161244c565b820191906000526020600020905b81548152906001019060200180831161242f57829003601f168201915b50505050509050935093509350935090919293565b60606002600460000154146124ab576040517f08c379a00000000000000000000000000000000000000000000000000000000081526004016124a29061528c565b60405180910390fd5b600e60000160009054906101000a900473ffffffffffffffffffffffffffffffffffffffff1673ffffffffffffffffffffffffffffffffffffffff16600460070160009054906101000a900473ffffffffffffffffffffffffffffffffffffffff1673ffffffffffffffffffffffffffffffffffffffff161415612566576040518060400160405280601781526020017f416c6c206368656174656421204e6f2057696e6e657221000000000000000000815250905061269d565b600073ffffffffffffffffffffffffffffffffffffffff16600460070160009054906101000a900473ffffffffffffffffffffffffffffffffffffffff1673ffffffffffffffffffffffffffffffffffffffff16146126645760046008018054600181600116156101000203166002900480601f0160208091040260200160405190810160405280929190818152602001828054600181600116156101000203166002900480156126585780601f1061262d57610100808354040283529160200191612658565b820191906000526020600020905b81548152906001019060200180831161263b57829003601f168201915b5050505050905061269d565b6040518060400160405280601081526020017f4e6f7420636865636b656420796574210000000000000000000000000000000081525090505b90565b600e60000160009054906101000a900473ffffffffffffffffffffffffffffffffffffffff1673ffffffffffffffffffffffffffffffffffffffff163373ffffffffffffffffffffffffffffffffffffffff1614612733576040517f08c379a000000000000000000000000000000000000000000000000000000000815260040161272a9061526c565b60405180910390fd5b80600e60020154101561277b576040517f08c379a00000000000000000000000000000000000000000000000000000000081526004016127729061530c565b60405180910390fd5b600e60000160009054906101000a900473ffffffffffffffffffffffffffffffffffffffff1673ffffffffffffffffffffffffffffffffffffffff166108fc829081150290604051600060405180830381858888f193505050501580156127e6573d6000803e3d6000fd5b5080600e6002016000828254039250508190555050565b6004600601544211612844576040517f08c379a000000000000000000000000000000000000000000000000000000000815260040161283b906151ec565b60405180910390fd5b60026004600101541461288c576040517f08c379a0000000000000000000000000000000000000000000000000000000008152600401612883906152ac565b60405180910390fd5b600e60000160009054906101000a900473ffffffffffffffffffffffffffffffffffffffff1673ffffffffffffffffffffffffffffffffffffffff163373ffffffffffffffffffffffffffffffffffffffff161461291f576040517f08c379a00000000000000000000000000000000000000000000000000000000081526004016129169061526c565b60405180910390fd5b6002600460000154141561293257612ef2565b600260046000018190555060008090505b600460010154811015612b0057601360006011836002811061296157fe5b0160009054906101000a900473ffffffffffffffffffffffffffffffffffffffff1673ffffffffffffffffffffffffffffffffffffffff1673ffffffffffffffffffffffffffffffffffffffff168152602001908152602001600020600101546040516020016129d19190615068565b6040516020818303038152906040528051906020012060136000601184600281106129f857fe5b0160009054906101000a900473ffffffffffffffffffffffffffffffffffffffff1673ffffffffffffffffffffffffffffffffffffffff1673ffffffffffffffffffffffffffffffffffffffff168152602001908152602001600020600201541415612af357601460118260028110612a6d57fe5b0160009054906101000a900473ffffffffffffffffffffffffffffffffffffffff1690806001815401808255809150509060018203906000526020600020016000909192909190916101000a81548173ffffffffffffffffffffffffffffffffffffffff021916908373ffffffffffffffffffffffffffffffffffffffff160217905550505b8080600101915050612943565b5060006014805490501115612c4557600080905060008090505b601480549050811015612bb2576013600060148381548110612b3857fe5b9060005260206000200160009054906101000a900473ffffffffffffffffffffffffffffffffffffffff1673ffffffffffffffffffffffffffffffffffffffff1673ffffffffffffffffffffffffffffffffffffffff16815260200190815260200160002060010154820191508080600101915050612b1a565b506014805490508181612bc157fe5b06905060148181548110612bd157fe5b9060005260206000200160009054906101000a900473ffffffffffffffffffffffffffffffffffffffff16600460070160006101000a81548173ffffffffffffffffffffffffffffffffffffffff021916908373ffffffffffffffffffffffffffffffffffffffff16021790555050612caf565b600e60000160009054906101000a900473ffffffffffffffffffffffffffffffffffffffff16600460070160006101000a81548173ffffffffffffffffffffffffffffffffffffffff021916908373ffffffffffffffffffffffffffffffffffffffff1602179055505b600e60000160009054906101000a900473ffffffffffffffffffffffffffffffffffffffff1673ffffffffffffffffffffffffffffffffffffffff163373ffffffffffffffffffffffffffffffffffffffff16148015612d13575060006004800154115b15612e6657600e60000160009054906101000a900473ffffffffffffffffffffffffffffffffffffffff1673ffffffffffffffffffffffffffffffffffffffff16600460070160009054906101000a900473ffffffffffffffffffffffffffffffffffffffff1673ffffffffffffffffffffffffffffffffffffffff1614612e43576064605f60048001540281612da657fe5b04600080600460070160009054906101000a900473ffffffffffffffffffffffffffffffffffffffff1673ffffffffffffffffffffffffffffffffffffffff1673ffffffffffffffffffffffffffffffffffffffff168152602001908152602001600020600201600082825401925050819055506064600560048001540281612e2b57fe5b04600e60020160008282540192505081905550612e5b565b6004800154600e600201600082825401925050819055505b600060048001819055505b600080600460070160009054906101000a900473ffffffffffffffffffffffffffffffffffffffff1673ffffffffffffffffffffffffffffffffffffffff1673ffffffffffffffffffffffffffffffffffffffff16815260200190815260200160002060000160046008019080546001816001161561010002031660029004612ef0929190614446565b505b565b6000803373ffffffffffffffffffffffffffffffffffffffff1673ffffffffffffffffffffffffffffffffffffffff16815260200190815260200160002060030160009054906101000a900460ff16612f82576040517f08c379a0000000000000000000000000000000000000000000000000000000008152600401612f799061536c565b60405180910390fd5b6000346000803373ffffffffffffffffffffffffffffffffffffffff1673ffffffffffffffffffffffffffffffffffffffff168152602001908152602001600020600201600082825401925050819055905050565b60006004600001541461301f576040517f08c379a0000000000000000000000000000000000000000000000000000000008152600401613016906153ac565b60405180910390fd5b600260046001015410613067576040517f08c379a000000000000000000000000000000000000000000000000000000000815260040161305e906151cc565b60405180910390fd5b6004600201546000803373ffffffffffffffffffffffffffffffffffffffff1673ffffffffffffffffffffffffffffffffffffffff1681526020019081526020016000206002015410156130f0576040517f08c379a00000000000000000000000000000000000000000000000000000000081526004016130e7906152cc565b60405180910390fd5b3360116004600101546002811061310357fe5b0160006101000a81548173ffffffffffffffffffffffffffffffffffffffff021916908373ffffffffffffffffffffffffffffffffffffffff16021790555060405180608001604052803373ffffffffffffffffffffffffffffffffffffffff168152602001600081526020016000801b815260200160011515815250601360003373ffffffffffffffffffffffffffffffffffffffff1673ffffffffffffffffffffffffffffffffffffffff16815260200190815260200160002060008201518160000160006101000a81548173ffffffffffffffffffffffffffffffffffffffff021916908373ffffffffffffffffffffffffffffffffffffffff160217905550602082015181600101556040820151816002015560608201518160030160006101000a81548160ff0219169083151502179055509050506001600460010160008282540192505081905550565b60006004600001541461329b576040517f08c379a0000000000000000000000000000000000000000000000000000000008152600401613292906153ac565b60405180910390fd5b6002600460010154146132e3576040517f08c379a00000000000000000000000000000000000000000000000000000000081526004016132da906152ac565b60405180910390fd5b600e60000160009054906101000a900473ffffffffffffffffffffffffffffffffffffffff1673ffffffffffffffffffffffffffffffffffffffff163373ffffffffffffffffffffffffffffffffffffffff1614613376576040517f08c379a000000000000000000000000000000000000000000000000000000000815260040161336d9061526c565b60405180910390fd5b6001600460000181905550426004600501819055506004600301546004600501540160046006018190555060008090505b60046001015481101561344357600460020154600080601184600281106133ca57fe5b0160009054906101000a900473ffffffffffffffffffffffffffffffffffffffff1673ffffffffffffffffffffffffffffffffffffffff1673ffffffffffffffffffffffffffffffffffffffff1681526020019081526020016000206002016000828254039250508190555080806001019150506133a7565b50600460010154600460020154026004800160008282540192505081905550565b60003373ffffffffffffffffffffffffffffffffffffffff16600e60000160009054906101000a900473ffffffffffffffffffffffffffffffffffffffff1673ffffffffffffffffffffffffffffffffffffffff1614156134c8576002905061352a565b6000803373ffffffffffffffffffffffffffffffffffffffff1673ffffffffffffffffffffffffffffffffffffffff16815260200190815260200160002060030160009054906101000a900460ff1615613525576001905061352a565b600090505b90565b60606000803373ffffffffffffffffffffffffffffffffffffffff1673ffffffffffffffffffffffffffffffffffffffff16815260200190815260200160002060030160009054906101000a900460ff166135bd576040517f08c379a00000000000000000000000000000000000000000000000000000000081526004016135b49061536c565b60405180910390fd5b6002805480602002602001604051908101604052809291908181526020016000905b8282101561381557838290600052602060002090600602016040518060c00160405290816000820160009054906101000a900473ffffffffffffffffffffffffffffffffffffffff1673ffffffffffffffffffffffffffffffffffffffff1673ffffffffffffffffffffffffffffffffffffffff1681526020016001820160009054906101000a900473ffffffffffffffffffffffffffffffffffffffff1673ffffffffffffffffffffffffffffffffffffffff1673ffffffffffffffffffffffffffffffffffffffff168152602001600282018054600181600116156101000203166002900480601f0160208091040260200160405190810160405280929190818152602001828054600181600116156101000203166002900480156137475780601f1061371c57610100808354040283529160200191613747565b820191906000526020600020905b81548152906001019060200180831161372a57829003601f168201915b50505050508152602001600382018054600181600116156101000203166002900480601f0160208091040260200160405190810160405280929190818152602001828054600181600116156101000203166002900480156137e95780601f106137be576101008083540402835291602001916137e9565b820191906000526020600020905b8154815290600101906020018083116137cc57829003601f168201915b5050505050815260200160048201548152602001600582015481525050815260200190600101906135df565b50505050905090565b6000803373ffffffffffffffffffffffffffffffffffffffff1673ffffffffffffffffffffffffffffffffffffffff16815260200190815260200160002060030160009054906101000a900460ff166138ac576040517f08c379a00000000000000000000000000000000000000000000000000000000081526004016138a39061536c565b60405180910390fd5b6001826040516138bc9190615051565b908152602001604051809103902060009054906101000a900473ffffffffffffffffffffffffffffffffffffffff166000808273ffffffffffffffffffffffffffffffffffffffff1673ffffffffffffffffffffffffffffffffffffffff16815260200190815260200160002060030160009054906101000a900460ff16613979576040517f08c379a00000000000000000000000000000000000000000000000000000000081526004016139709061522c565b60405180910390fd5b81806000803373ffffffffffffffffffffffffffffffffffffffff1673ffffffffffffffffffffffffffffffffffffffff1681526020019081526020016000206002015410156139c857600080fd5b826000806001876040516139dc9190615051565b908152602001604051809103902060009054906101000a900473ffffffffffffffffffffffffffffffffffffffff1673ffffffffffffffffffffffffffffffffffffffff1673ffffffffffffffffffffffffffffffffffffffff16815260200190815260200160002060020160008282540192505081905550826000803373ffffffffffffffffffffffffffffffffffffffff1673ffffffffffffffffffffffffffffffffffffffff1681526020019081526020016000206002016000828254039250508190555060026040518060c001604052803373ffffffffffffffffffffffffffffffffffffffff168152602001600187604051613add9190615051565b908152602001604051809103902060009054906101000a900473ffffffffffffffffffffffffffffffffffffffff1673ffffffffffffffffffffffffffffffffffffffff1681526020016000803373ffffffffffffffffffffffffffffffffffffffff1673ffffffffffffffffffffffffffffffffffffffff1681526020019081526020016000206000018054600181600116156101000203166002900480601f016020809104026020016040519081016040528092919081815260200182805460018160011615610100020316600290048015613bfc5780601f10613bd157610100808354040283529160200191613bfc565b820191906000526020600020905b815481529060010190602001808311613bdf57829003601f168201915b50505050508152602001868152602001858152602001428152509080600181540180825580915050906001820390600052602060002090600602016000909192909190915060008201518160000160006101000a81548173ffffffffffffffffffffffffffffffffffffffff021916908373ffffffffffffffffffffffffffffffffffffffff16021790555060208201518160010160006101000a81548173ffffffffffffffffffffffffffffffffffffffff021916908373ffffffffffffffffffffffffffffffffffffffff1602179055506040820151816002019080519060200190613ceb929190614338565b506060820151816003019080519060200190613d08929190614338565b506080820151816004015560a0820151816005015550505050505050565b600160046000015414613d6e576040517f08c379a0000000000000000000000000000000000000000000000000000000008152600401613d659061524c565b60405180910390fd5b6004600601544210613db5576040517f08c379a0000000000000000000000000000000000000000000000000000000008152600401613dac906152ec565b60405180910390fd5b600260046001015414613dfd576040517f08c379a0000000000000000000000000000000000000000000000000000000008152600401613df4906152ac565b60405180910390fd5b601360003373ffffffffffffffffffffffffffffffffffffffff1673ffffffffffffffffffffffffffffffffffffffff16815260200190815260200160002060030160009054906101000a900460ff16613e8c576040517f08c379a0000000000000000000000000000000000000000000000000000000008152600401613e839061538c565b60405180910390fd5b80601360003373ffffffffffffffffffffffffffffffffffffffff1673ffffffffffffffffffffffffffffffffffffffff1681526020019081526020016000206002018190555050565b600160046000015414613f1e576040517f08c379a0000000000000000000000000000000000000000000000000000000008152600401613f159061524c565b60405180910390fd5b6004600601544211613f65576040517f08c379a0000000000000000000000000000000000000000000000000000000008152600401613f5c906151ec565b60405180910390fd5b600260046001015414613fad576040517f08c379a0000000000000000000000000000000000000000000000000000000008152600401613fa4906152ac565b60405180910390fd5b601360003373ffffffffffffffffffffffffffffffffffffffff1673ffffffffffffffffffffffffffffffffffffffff16815260200190815260200160002060030160009054906101000a900460ff1661403c576040517f08c379a00000000000000000000000000000000000000000000000000000000081526004016140339061538c565b60405180910390fd5b80601360003373ffffffffffffffffffffffffffffffffffffffff1673ffffffffffffffffffffffffffffffffffffffff1681526020019081526020016000206001018190555050565b6002600460000154146140ce576040517f08c379a00000000000000000000000000000000000000000000000000000000081526004016140c59061528c565b60405180910390fd5b6000600190505b6004600101548110156141aa5760136000601183600281106140f357fe5b0160009054906101000a900473ffffffffffffffffffffffffffffffffffffffff1673ffffffffffffffffffffffffffffffffffffffff1673ffffffffffffffffffffffffffffffffffffffff168152602001908152602001600020600080820160006101000a81549073ffffffffffffffffffffffffffffffffffffffff0219169055600182016000905560028201600090556003820160006101000a81549060ff0219169055505080806001019150506140d5565b50601160006141b991906144cd565b601460006141c791906144db565b565b60016004600001541415614212576040517f08c379a00000000000000000000000000000000000000000000000000000000081526004016142099061520c565b60405180910390fd5b6040518061012001604052806000815260200160008152602001670de0b6b3a76400008152602001603c8152602001600081526020016000815260200160008152602001600073ffffffffffffffffffffffffffffffffffffffff168152602001604051806020016040528060008152508152506004600082015181600001556020820151816001015560408201518160020155606082015181600301556080820151816004015560a0820151816005015560c0820151816006015560e08201518160070160006101000a81548173ffffffffffffffffffffffffffffffffffffffff021916908373ffffffffffffffffffffffffffffffffffffffff160217905550610100820151816008019080519060200190614332929190614338565b50905050565b828054600181600116156101000203166002900490600052602060002090601f016020900481019282601f1061437957805160ff19168380011785556143a7565b828001600101855582156143a7579182015b828111156143a657825182559160200191906001019061438b565b5b5090506143b491906144fc565b5090565b60405180610120016040528060008152602001600073ffffffffffffffffffffffffffffffffffffffff168152602001600073ffffffffffffffffffffffffffffffffffffffff16815260200160608152602001606081526020016000815260200160008152602001600073ffffffffffffffffffffffffffffffffffffffff168152602001606081525090565b828054600181600116156101000203166002900490600052602060002090601f016020900481019282601f1061447f57805485556144bc565b828001600101855582156144bc57600052602060002091601f016020900482015b828111156144bb5782548255916001019190600101906144a0565b5b5090506144c991906144fc565b5090565b506000815560010160009055565b50805460008255906000526020600020908101906144f991906144fc565b50565b61451e91905b8082111561451a576000816000905550600101614502565b5090565b90565b600081359050614530816155d8565b92915050565b600081359050614545816155ef565b92915050565b60008135905061455a81615606565b92915050565b600082601f83011261457157600080fd5b813561458461457f82615436565b615409565b915080825260208301602083018583830111156145a057600080fd5b6145ab83828461557b565b50505092915050565b6000813590506145c38161561d565b92915050565b6000602082840312156145db57600080fd5b60006145e984828501614521565b91505092915050565b6000806040838503121561460557600080fd5b600061461385828601614536565b9250506020614624858286016145b4565b9150509250929050565b60006020828403121561464057600080fd5b600061464e8482850161454b565b91505092915050565b6000806040838503121561466a57600080fd5b600083013567ffffffffffffffff81111561468457600080fd5b61469085828601614560565b92505060206146a185828601614536565b9150509250929050565b600080604083850312156146be57600080fd5b600083013567ffffffffffffffff8111156146d857600080fd5b6146e485828601614560565b92505060206146f5858286016145b4565b9150509250929050565b60006020828403121561471157600080fd5b600061471f848285016145b4565b91505092915050565b60006147348383614eb9565b905092915050565b60006147488383614f8c565b905092915050565b61475981615529565b82525050565b61476881615529565b82525050565b61477781615517565b82525050565b600061478882615482565b61479281856154c8565b9350836020820285016147a485615462565b8060005b858110156147e057848403895281516147c18582614728565b94506147cc836154ae565b925060208a019950506001810190506147a8565b50829750879550505050505092915050565b60006147fd8261548d565b61480781856154d9565b93508360208202850161481985615472565b8060005b858110156148555784840389528151614836858261473c565b9450614841836154bb565b925060208a0199505060018101905061481d565b50829750879550505050505092915050565b6148708161553b565b82525050565b61487f81615547565b82525050565b6000614890826154a3565b61489a81856154fb565b93506148aa81856020860161558a565b6148b3816155c7565b840191505092915050565b60006148c9826154a3565b6148d3818561550c565b93506148e381856020860161558a565b80840191505092915050565b60006148fa82615498565b61490481856154ea565b935061491481856020860161558a565b61491d816155c7565b840191505092915050565b6000614935601f836154fb565b91507f4661696c65642120416c726561647920656e6f75676820706c617965727321006000830152602082019050919050565b60006149756014836154fb565b91507f4661696c656421204e6f742064756520796574210000000000000000000000006000830152602082019050919050565b60006149b56018836154fb565b91507f4661696c6564212047616d65206973206f6e676f696e672100000000000000006000830152602082019050919050565b60006149f5602c836154fb565b91507f4661696c65642120546865207265636569766572206163636f756e7420646f6560008301527f6e732774206578697374732100000000000000000000000000000000000000006020830152604082019050919050565b6000614a5b601c836154fb565b91507f4661696c6564212047616d65206973206e6f74206f6e676f696e6721000000006000830152602082019050919050565b6000614a9b6025836154fb565b91507f4661696c656421204f6e6c792062616e6b657220616c6c6f77656420746f206460008301527f6f206974210000000000000000000000000000000000000000000000000000006020830152604082019050919050565b6000614b01601b836154fb565b91507f4661696c6564212047616d65206e6f7420656e646564207965742100000000006000830152602082019050919050565b6000614b41601a836154fb565b91507f4661696c656421204e6f20656e6f75676820706c6179657273210000000000006000830152602082019050919050565b6000614b816020836154fb565b91507f4661696c65642120596f752068617665206e6f20656e6f7567682065746865726000830152602082019050919050565b6000614bc16013836154fb565b91507f4661696c6564212054696d6520697320757021000000000000000000000000006000830152602082019050919050565b6000614c016024836154fb565b91507f4661696c65642120596f752068617665206e6f7420656e6f7567682062616c6160008301527f6e636521000000000000000000000000000000000000000000000000000000006020830152604082019050919050565b6000614c676030836154fb565b91507f4661696c656421205468697320616464726573732068617320616c726561647960008301527f206265656e207369676e656420757021000000000000000000000000000000006020830152604082019050919050565b6000614ccd6031836154fb565b91507f4661696c65642c205468697320757365726e616d652068617320616c7265616460008301527f79206265656e207369676e6564207570210000000000000000000000000000006020830152604082019050919050565b6000614d33601f836154fb565b91507f4661696c65642120596f752068617665206e6f74207369676e656420757021006000830152602082019050919050565b6000614d736020836154fb565b91507f4661696c65642c20596f7520617265206e6f7420696e207468652067616d65216000830152602082019050919050565b6000614db3601d836154fb565b91507f4661696c6564212047616d65206e6f74207374617274656420796574210000006000830152602082019050919050565b600061012083016000830151614dff600086018261501c565b506020830151614e126020860182614750565b506040830151614e256040860182614750565b5060608301518482036060860152614e3d82826148ef565b91505060808301518482036080860152614e5782826148ef565b91505060a0830151614e6c60a086018261501c565b5060c0830151614e7f60c086018261501c565b5060e0830151614e9260e0860182614750565b50610100830151848203610100860152614eac82826148ef565b9150508091505092915050565b600061012083016000830151614ed2600086018261501c565b506020830151614ee56020860182614750565b506040830151614ef86040860182614750565b5060608301518482036060860152614f1082826148ef565b91505060808301518482036080860152614f2a82826148ef565b91505060a0830151614f3f60a086018261501c565b5060c0830151614f5260c086018261501c565b5060e0830151614f6560e0860182614750565b50610100830151848203610100860152614f7f82826148ef565b9150508091505092915050565b600060c083016000830151614fa4600086018261476e565b506020830151614fb7602086018261476e565b5060408301518482036040860152614fcf82826148ef565b91505060608301518482036060860152614fe982826148ef565b9150506080830151614ffe608086018261501c565b5060a083015161501160a086018261501c565b508091505092915050565b61502581615571565b82525050565b61503481615571565b82525050565b61504b61504682615571565b6155bd565b82525050565b600061505d82846148be565b915081905092915050565b6000615074828461503a565b60208201915081905092915050565b6000608082019050615098600083018761475f565b6150a5602083018661475f565b81810360408301526150b78185614885565b905081810360608301526150cb8184614885565b905095945050505050565b60006080820190506150eb600083018761475f565b6150f8602083018661502b565b6151056040830185614876565b6151126060830184614867565b95945050505050565b60006020820190508181036000830152615135818461477d565b905092915050565b6000602082019050818103600083015261515781846147f2565b905092915050565b60006020820190506151746000830184614867565b92915050565b600060208201905081810360008301526151948184614885565b905092915050565b600060408201905081810360008301526151b68185614885565b90506151c5602083018461502b565b9392505050565b600060208201905081810360008301526151e581614928565b9050919050565b6000602082019050818103600083015261520581614968565b9050919050565b60006020820190508181036000830152615225816149a8565b9050919050565b60006020820190508181036000830152615245816149e8565b9050919050565b6000602082019050818103600083015261526581614a4e565b9050919050565b6000602082019050818103600083015261528581614a8e565b9050919050565b600060208201905081810360008301526152a581614af4565b9050919050565b600060208201905081810360008301526152c581614b34565b9050919050565b600060208201905081810360008301526152e581614b74565b9050919050565b6000602082019050818103600083015261530581614bb4565b9050919050565b6000602082019050818103600083015261532581614bf4565b9050919050565b6000602082019050818103600083015261534581614c5a565b9050919050565b6000602082019050818103600083015261536581614cc0565b9050919050565b6000602082019050818103600083015261538581614d26565b9050919050565b600060208201905081810360008301526153a581614d66565b9050919050565b600060208201905081810360008301526153c581614da6565b9050919050565b600060208201905081810360008301526153e68184614de6565b905092915050565b6000602082019050615403600083018461502b565b92915050565b6000604051905081810181811067ffffffffffffffff8211171561542c57600080fd5b8060405250919050565b600067ffffffffffffffff82111561544d57600080fd5b601f19601f8301169050602081019050919050565b6000819050602082019050919050565b6000819050602082019050919050565b600081519050919050565b600081519050919050565b600081519050919050565b600081519050919050565b6000602082019050919050565b6000602082019050919050565b600082825260208201905092915050565b600082825260208201905092915050565b600082825260208201905092915050565b600082825260208201905092915050565b600081905092915050565b600061552282615551565b9050919050565b600061553482615551565b9050919050565b60008115159050919050565b6000819050919050565b600073ffffffffffffffffffffffffffffffffffffffff82169050919050565b6000819050919050565b82818337600083830152505050565b60005b838110156155a857808201518184015260208101905061558d565b838111156155b7576000848401525b50505050565b6000819050919050565b6000601f19601f8301169050919050565b6155e181615517565b81146155ec57600080fd5b50565b6155f881615529565b811461560357600080fd5b50565b61560f81615547565b811461561a57600080fd5b50565b61562681615571565b811461563157600080fd5b5056fea365627a7a72315820919600856348226e687f512b03a6bbb3ee9c2cf8ff05b795cd18867cf768ec3e6c6578706572696d656e74616cf564736f6c63430005100040",
  "source": "pragma solidity >=0.4.22 <0.7.0;\npragma experimental ABIEncoderV2;\nimport \"./Accounts.sol\";\n\ncontract CoinFlipping is AccountsManager{\n    /*** structures ***/\n    struct Player{\n        address payable addr;\n        uint number; // the number to reveal\n        bytes32 hashNumber; // the hash of the number\n        bool valid;\n    }\n    \n    struct Game{\n        // current game state\n        uint ongoing; // 0 for not start yet, 1 for ongoing, 2 for already ended\n        uint currentPlayers; // no. of current players\n        uint bet; // bet value, 1 eth by default\n        uint due; // time limit\n        uint gameBalance;\n        uint start_time;\n        uint end_time;\n        address payable winnerAddr;\n        string winnerName;\n    }\n    \n    struct GameHistory{\n        // game states to store in history\n        uint gameID;\n        address payable player1;\n        address payable player2;\n        string playerName1;\n        string playerName2;\n        uint start_time;\n        uint end_time;\n        address payable winnerAddr;\n        string winnerName;\n    }\n    \n    struct Banker{\n        // banker's state\n        address payable bankerAddr;\n        string bankerName;\n        uint bankerBalance;\n    }\n    \n    /*** attributes ***/\n    uint currentGameID;\n    Game currentGame; // current game's state\n    GameHistory [] gameHistory; // store game history\n    Banker banker; // the banker\n    \n    address payable [2] players;\n    mapping (address => Player) public mapPlayers;\n    address payable [] honestPlayers;\n    \n    \n    /*** constructor ***/\n    constructor() public{\n        // initialize game, banker\n        currentGameID = 1;\n        clearGame();\n\n        banker = Banker({\n            bankerAddr: 0xe29dEc2ffCf4d0A61ED9983ED5369E0EeB4A4708, // the last address offered by Ganache\n            bankerName: \"BANKER\",\n            bankerBalance: 0\n        });\n    }\n    \n    \n    /*** modifiers ***/\n    modifier twoPlayers{\n        require(currentGame.currentPlayers == 2, \"Failed! No enough players!\");\n        _;\n    }\n    \n    modifier notTwoPlayers{\n        require(currentGame.currentPlayers < 2, \"Failed! Already enough players!\");\n        _;\n    }\n    \n    modifier ongoingGame{\n        require(currentGame.ongoing == 1, \"Failed! Game is not ongoing!\");\n        _;\n    }\n    \n    modifier notOngoingGame{\n        require(currentGame.ongoing != 1, \"Failed! Game is ongoing!\");\n        _;\n    }\n    \n    modifier notStartedGame{\n        require(currentGame.ongoing == 0, \"Failed! Game not started yet!\");\n        _;\n    }\n    \n    modifier endedGame{\n        require(currentGame.ongoing == 2, \"Failed! Game not ended yet!\");\n        _;\n    }\n    \n    modifier bePlayer{\n        require(mapPlayers[msg.sender].valid, \"Failed, You are not in the game!\");\n        _;\n    }\n    \n    modifier beBanker{\n        require(msg.sender == banker.bankerAddr, \"Failed! Only banker allowed to do it!\");\n        _;\n    }\n    \n    modifier beforeDue{\n        require(now < currentGame.end_time, \"Failed! Time is up!\");\n        _;\n    }\n    \n    modifier overDue{\n        require(now > currentGame.end_time, \"Failed! Not due yet!\");\n        _;\n    }\n    \n    \n    /*** functions ***/\n    \n    /** public **/\n    \n    function getPlayers() public view returns(address payable, address payable, string memory, string memory){\n        return(players[0], players[1], accounts[players[0]].username, accounts[players[1]].username);\n    }\n    \n    function queryByBanker() public view beBanker returns(string memory, uint){\n        return(banker.bankerName, banker.bankerBalance);\n    }\n    \n    function withdrawByBanker(uint amount) public payable beBanker{\n        require(banker.bankerBalance >= amount, \"Failed! You have not enough balance!\");\n        banker.bankerAddr.transfer(amount);\n        banker.bankerBalance -= amount;\n    }\n    \n    function joinGame() public notStartedGame notTwoPlayers{\n        require(accounts[msg.sender].balance >= currentGame.bet, \"Failed! You have no enough ether\"); \n        players[currentGame.currentPlayers] = msg.sender;\n        mapPlayers[msg.sender] = Player({\n           addr: msg.sender,\n           number: 0,\n           hashNumber: 0,\n           valid: true\n        });\n        currentGame.currentPlayers += 1;\n    }\n    \n    function sendHash(bytes32 hashNumber) public ongoingGame beforeDue twoPlayers bePlayer{\n        mapPlayers[msg.sender].hashNumber = hashNumber;\n    }\n    \n    function sendNumber(uint number) public ongoingGame overDue twoPlayers bePlayer{\n        mapPlayers[msg.sender].number = number;\n    }\n    \n    function startGame() public notStartedGame twoPlayers beBanker{\n        currentGame.ongoing = 1;\n        currentGame.start_time = now;\n        currentGame.end_time = currentGame.start_time + currentGame.due;\n        \n        // transfer ether from players to banker\n        for (uint i = 0; i < currentGame.currentPlayers; i++){\n            accounts[players[i]].balance -= currentGame.bet;\n        }\n        currentGame.gameBalance += currentGame.bet * currentGame.currentPlayers;\n    }\n    \n    \n    function checkWinner() public overDue twoPlayers beBanker{\n        \n        if (currentGame.ongoing == 2){\n            return;\n        }\n        currentGame.ongoing = 2; // game ends.\n        \n        // check cheaters\n        for (uint i = 0; i < currentGame.currentPlayers; i++){\n            if (mapPlayers[players[i]].hashNumber == keccak256(abi.encodePacked(mapPlayers[players[i]].number))){\n                honestPlayers.push(players[i]);\n            }\n        }\n        \n        // check winner excluding cheaters\n        if (honestPlayers.length > 0){\n            uint winner = 0;\n            for (uint i = 0; i < honestPlayers.length; i++){\n                winner += mapPlayers[honestPlayers[i]].number;\n            }\n            winner = winner % honestPlayers.length;\n            currentGame.winnerAddr = honestPlayers[winner];\n        }\n        else{\n            currentGame.winnerAddr = banker.bankerAddr;\n        }\n        \n        // banker transfers if not\n        if (msg.sender == banker.bankerAddr && currentGame.gameBalance > 0){\n            // do the transfer\n            if (currentGame.winnerAddr != banker.bankerAddr){\n                accounts[currentGame.winnerAddr].balance += currentGame.gameBalance * 95 / 100;\n                banker.bankerBalance += currentGame.gameBalance * 5 / 100;\n            }\n            else{\n                banker.bankerBalance += currentGame.gameBalance;\n            }\n            currentGame.gameBalance = 0;\n        }\n        currentGame.winnerName = accounts[currentGame.winnerAddr].username;\n    }\n    \n    function clear() public endedGame beBanker{\n        // record the game to history and clear \n        gameHistory.push(GameHistory({\n            gameID: currentGameID,\n            player1: players[0],\n            player2: players[1],\n            playerName1: accounts[players[0]].username,\n            playerName2: accounts[players[1]].username,\n            start_time: currentGame.start_time,\n            end_time: currentGame.end_time,\n            winnerAddr: currentGame.winnerAddr,\n            winnerName: accounts[currentGame.winnerAddr].username\n        }));\n        \n        \n        clearPlayers();\n        clearGame();\n        currentGameID += 1;\n    }\n\n    /** view **/\n\n    function playerGetWinner() public view endedGame returns(bool){\n        if (currentGame.winnerAddr == msg.sender){\n            return true;\n        }\n        return false;\n    }\n\n    function getWinner() public view endedGame returns (string memory){\n        // already checked, return result\n        if (currentGame.winnerAddr == banker.bankerAddr){\n            return \"All cheated! No Winner!\";\n        }\n        if (currentGame.winnerAddr != address(0)){\n            return currentGame.winnerName;\n        }\n        return \"Not checked yet!\";\n    }\n    \n    function bankerCheckHistory() public view beBanker returns(GameHistory[] memory){\n        return gameHistory;\n    }\n    \n    function playerCheckHistory() public view validUser returns(GameHistory memory){\n        uint len = gameHistory.length;\n        for (uint i = 0; i < len; i++){\n            if(gameHistory[len-i-1].player1 == msg.sender || gameHistory[len-i-1].player2 == msg.sender){\n                return (gameHistory[len-i-1]);\n            }\n        }\n        return GameHistory({\n            gameID: 0,\n            player1: address(0),\n            player2: address(0),\n            playerName1: \"\",\n            playerName2: \"\",\n            start_time: 0,\n            end_time:0,\n            winnerAddr: address(0),\n            winnerName: \"\"\n        });\n    }\n    \n    function whoAmI() public view returns(uint){\n        // return 0 for unregistered, 1 for player, 2 for banker\n        if (banker.bankerAddr == msg.sender){\n            return 2;\n        }\n        if (accounts[msg.sender].valid){\n            return 1;\n        }\n        return 0;\n    }\n    \n    /** private **/\n    \n    function clearGame() private notOngoingGame {\n        // clear game's state\n        currentGame = Game({\n          ongoing: 0,\n          currentPlayers: 0,\n          bet: 1 ether,\n          due: 1 minutes,\n          gameBalance: 0,\n          start_time: 0,\n          end_time: 0,\n          winnerAddr: address(0),\n          winnerName: \"\"\n        });\n    }\n    \n    function clearPlayers() private endedGame {\n        // clear players' states\n        for (uint i = 1; i < currentGame.currentPlayers; i++){\n            delete mapPlayers[players[i]];\n        }\n        delete players;\n        delete honestPlayers;\n    }\n    \n}\n",
  "sourcePath": "/home/taliyah/coinflipping/contracts/CoinFlipping.sol",
  "compiler": {
    "name": "solc",
    "version": "0.5.16+commit.9c3226ce.Emscripten.clang"
  },
  "schemaVersion": "3.1.0",
  "updatedAt": "2020-04-25T09:20:18.600Z",
  "networkType": "ethereum",
  "devdoc": {
    "methods": {}
  },
  "userdoc": {
    "methods": {
      "constructor": "* constructor **",
      "create(string,address)": {
        "notice": "* functions **"
      },
      "getPlayers()": {
        "notice": "public *"
      },
      "playerGetWinner()": {
        "notice": "view *"
      },
      "query()": {
        "notice": "view *"
      }
    }
  }
}