{
  "contractName": "CoinFlipping",
  "abi": [
    {
      "inputs": [],
      "payable": false,
      "stateMutability": "nonpayable",
      "type": "constructor"
    },
    {
      "constant": true,
      "inputs": [
        {
          "internalType": "uint256",
          "name": "i",
          "type": "uint256"
        }
      ],
      "name": "checkRecords",
      "outputs": [
        {
          "internalType": "uint256",
          "name": "",
          "type": "uint256"
        },
        {
          "internalType": "string",
          "name": "",
          "type": "string"
        },
        {
          "internalType": "string",
          "name": "",
          "type": "string"
        },
        {
          "internalType": "uint256",
          "name": "",
          "type": "uint256"
        },
        {
          "internalType": "uint256",
          "name": "",
          "type": "uint256"
        }
      ],
      "payable": false,
      "stateMutability": "view",
      "type": "function"
    },
    {
      "constant": false,
      "inputs": [
        {
          "internalType": "string",
          "name": "_username",
          "type": "string"
        },
        {
          "internalType": "address payable",
          "name": "_addr",
          "type": "address"
        }
      ],
      "name": "create",
      "outputs": [],
      "payable": true,
      "stateMutability": "payable",
      "type": "function"
    },
    {
      "constant": false,
      "inputs": [],
      "name": "deposit",
      "outputs": [],
      "payable": true,
      "stateMutability": "payable",
      "type": "function"
    },
    {
      "constant": true,
      "inputs": [],
      "name": "getRecordIDs",
      "outputs": [
        {
          "internalType": "uint256[]",
          "name": "",
          "type": "uint256[]"
        }
      ],
      "payable": false,
      "stateMutability": "view",
      "type": "function"
    },
    {
      "constant": true,
      "inputs": [
        {
          "internalType": "address",
          "name": "",
          "type": "address"
        }
      ],
      "name": "mapPlayers",
      "outputs": [
        {
          "internalType": "address payable",
          "name": "addr",
          "type": "address"
        },
        {
          "internalType": "uint256",
          "name": "number",
          "type": "uint256"
        },
        {
          "internalType": "uint256",
          "name": "salt",
          "type": "uint256"
        },
        {
          "internalType": "bytes32",
          "name": "hashNumber",
          "type": "bytes32"
        },
        {
          "internalType": "bool",
          "name": "valid",
          "type": "bool"
        }
      ],
      "payable": false,
      "stateMutability": "view",
      "type": "function"
    },
    {
      "constant": true,
      "inputs": [],
      "name": "query",
      "outputs": [
        {
          "internalType": "string",
          "name": "",
          "type": "string"
        },
        {
          "internalType": "uint256",
          "name": "",
          "type": "uint256"
        }
      ],
      "payable": false,
      "stateMutability": "view",
      "type": "function"
    },
    {
      "constant": false,
      "inputs": [
        {
          "internalType": "address payable",
          "name": "to",
          "type": "address"
        },
        {
          "internalType": "uint256",
          "name": "amount",
          "type": "uint256"
        }
      ],
      "name": "transferByAddr",
      "outputs": [],
      "payable": true,
      "stateMutability": "payable",
      "type": "function"
    },
    {
      "constant": false,
      "inputs": [
        {
          "internalType": "string",
          "name": "to",
          "type": "string"
        },
        {
          "internalType": "uint256",
          "name": "amount",
          "type": "uint256"
        }
      ],
      "name": "transferByName",
      "outputs": [],
      "payable": true,
      "stateMutability": "payable",
      "type": "function"
    },
    {
      "constant": false,
      "inputs": [
        {
          "internalType": "uint256",
          "name": "amount",
          "type": "uint256"
        }
      ],
      "name": "withdraw",
      "outputs": [],
      "payable": true,
      "stateMutability": "payable",
      "type": "function"
    },
    {
      "constant": false,
      "inputs": [
        {
          "internalType": "uint256",
          "name": "amount",
          "type": "uint256"
        }
      ],
      "name": "withdrawByBanker",
      "outputs": [],
      "payable": true,
      "stateMutability": "payable",
      "type": "function"
    },
    {
      "constant": false,
      "inputs": [],
      "name": "joinGame",
      "outputs": [],
      "payable": false,
      "stateMutability": "nonpayable",
      "type": "function"
    },
    {
      "constant": false,
      "inputs": [
        {
          "internalType": "bytes32",
          "name": "_hashNumber",
          "type": "bytes32"
        }
      ],
      "name": "sendHash",
      "outputs": [],
      "payable": false,
      "stateMutability": "nonpayable",
      "type": "function"
    },
    {
      "constant": false,
      "inputs": [
        {
          "internalType": "uint256",
          "name": "_number",
          "type": "uint256"
        },
        {
          "internalType": "uint256",
          "name": "_salt",
          "type": "uint256"
        }
      ],
      "name": "sendNumber",
      "outputs": [],
      "payable": false,
      "stateMutability": "nonpayable",
      "type": "function"
    },
    {
      "constant": false,
      "inputs": [],
      "name": "startGame",
      "outputs": [],
      "payable": false,
      "stateMutability": "nonpayable",
      "type": "function"
    },
    {
      "constant": false,
      "inputs": [],
      "name": "checkWinner",
      "outputs": [],
      "payable": false,
      "stateMutability": "nonpayable",
      "type": "function"
    },
    {
      "constant": false,
      "inputs": [],
      "name": "clear",
      "outputs": [],
      "payable": false,
      "stateMutability": "nonpayable",
      "type": "function"
    },
    {
      "constant": true,
      "inputs": [],
      "name": "getOngoing",
      "outputs": [
        {
          "internalType": "bool",
          "name": "",
          "type": "bool"
        }
      ],
      "payable": false,
      "stateMutability": "view",
      "type": "function"
    },
    {
      "constant": true,
      "inputs": [],
      "name": "getPlayers",
      "outputs": [
        {
          "internalType": "address payable",
          "name": "",
          "type": "address"
        },
        {
          "internalType": "address payable",
          "name": "",
          "type": "address"
        },
        {
          "internalType": "string",
          "name": "",
          "type": "string"
        },
        {
          "internalType": "string",
          "name": "",
          "type": "string"
        }
      ],
      "payable": false,
      "stateMutability": "view",
      "type": "function"
    },
    {
      "constant": true,
      "inputs": [],
      "name": "queryByBanker",
      "outputs": [
        {
          "internalType": "string",
          "name": "",
          "type": "string"
        },
        {
          "internalType": "uint256",
          "name": "",
          "type": "uint256"
        }
      ],
      "payable": false,
      "stateMutability": "view",
      "type": "function"
    },
    {
      "constant": true,
      "inputs": [],
      "name": "playerGetWinner",
      "outputs": [
        {
          "internalType": "bool",
          "name": "",
          "type": "bool"
        }
      ],
      "payable": false,
      "stateMutability": "view",
      "type": "function"
    },
    {
      "constant": true,
      "inputs": [],
      "name": "getWinner",
      "outputs": [
        {
          "internalType": "string",
          "name": "",
          "type": "string"
        }
      ],
      "payable": false,
      "stateMutability": "view",
      "type": "function"
    },
    {
      "constant": true,
      "inputs": [],
      "name": "getGameIDs",
      "outputs": [
        {
          "internalType": "uint256[]",
          "name": "",
          "type": "uint256[]"
        }
      ],
      "payable": false,
      "stateMutability": "view",
      "type": "function"
    },
    {
      "constant": true,
      "inputs": [
        {
          "internalType": "uint256",
          "name": "i",
          "type": "uint256"
        }
      ],
      "name": "checkHistory",
      "outputs": [
        {
          "internalType": "uint256",
          "name": "",
          "type": "uint256"
        },
        {
          "internalType": "string",
          "name": "",
          "type": "string"
        },
        {
          "internalType": "string",
          "name": "",
          "type": "string"
        },
        {
          "internalType": "uint256",
          "name": "",
          "type": "uint256"
        },
        {
          "internalType": "uint256",
          "name": "",
          "type": "uint256"
        },
        {
          "internalType": "uint256",
          "name": "",
          "type": "uint256"
        },
        {
          "internalType": "string",
          "name": "",
          "type": "string"
        }
      ],
      "payable": false,
      "stateMutability": "view",
      "type": "function"
    },
    {
      "constant": true,
      "inputs": [],
      "name": "whoAmI",
      "outputs": [
        {
          "internalType": "uint256",
          "name": "",
          "type": "uint256"
        }
      ],
      "payable": false,
      "stateMutability": "view",
      "type": "function"
    }
  ],
  "bytecode": "0x60806040523480156200001157600080fd5b50600160008190555060018081905550600160068190555062000039620000e860201b60201c565b73e29dec2ffcf4d0a61ed9983ed5369e0eeb4a4708601160000160006101000a81548173ffffffffffffffffffffffffffffffffffffffff021916908373ffffffffffffffffffffffffffffffffffffffff1602179055506040518060400160405280600681526020017f42414e4b4552000000000000000000000000000000000000000000000000000081525060116001019080519060200190620000e192919062000210565b5062000346565b6040518061012001604052806000815260200160008152602001670de0b6b3a76400008152602001603c8152602001600081526020016000815260200160008152602001600073ffffffffffffffffffffffffffffffffffffffff168152602001604051806020016040528060008152508152506007600082015181600001556020820151816001015560408201518160020155606082015181600301556080820151816004015560a0820151816005015560c0820151816006015560e08201518160070160006101000a81548173ffffffffffffffffffffffffffffffffffffffff021916908373ffffffffffffffffffffffffffffffffffffffff1602179055506101008201518160080190805190602001906200020a92919062000297565b50905050565b828054600181600116156101000203166002900490600052602060002090601f016020900481019282601f106200025357805160ff191683800117855562000284565b8280016001018555821562000284579182015b828111156200028357825182559160200191906001019062000266565b5b5090506200029391906200031e565b5090565b828054600181600116156101000203166002900490600052602060002090601f016020900481019282601f10620002da57805160ff19168380011785556200030b565b828001600101855582156200030b579182015b828111156200030a578251825591602001919060010190620002ed565b5b5090506200031a91906200031e565b5090565b6200034391905b808211156200033f57600081600090555060010162000325565b5090565b90565b61562280620003566000396000f3fe60806040526004361061014b5760003560e01c80638e7ea5b2116100b6578063d553622c1161006f578063d553622c14610406578063d65ab5f214610431578063da91254c14610448578063e060517614610473578063e639f9911461049c578063ee6dd9fa146104b85761014b565b80638e7ea5b21461035c5780639c5872e314610387578063ad38867e146103a3578063b322519d146103ba578063d0e30db0146103e5578063d4f77b1c146103ef5761014b565b806352efea6e1161010857806352efea6e1461025d578063663dd36c146102745780636b500f55146102b557806384b47b0f146102f6578063881ab2dd146103125780638b5b9ccc1461032e5761014b565b80632115be1b1461015057806324f363b0146101935780632c46b205146101be5780632e1a7d4d146101ea57806347828306146102065780634ec4b6c614610231575b600080fd5b34801561015c57600080fd5b5061017760048036036101729190810190614917565b6104e1565b60405161018a9796959493929190615385565b60405180910390f35b34801561019f57600080fd5b506101a8610762565b6040516101b5919061509c565b60405180910390f35b3480156101ca57600080fd5b506101d3610815565b6040516101e19291906150d9565b60405180910390f35b61020460048036036101ff9190810190614917565b6109d1565b005b34801561021257600080fd5b5061021b610c69565b604051610228919061507a565b60405180910390f35b34801561023d57600080fd5b50610246610d01565b6040516102549291906150d9565b60405180910390f35b34801561026957600080fd5b50610272610e47565b005b34801561028057600080fd5b5061029b60048036036102969190810190614917565b6113c7565b6040516102ac959493929190615324565b60405180910390f35b3480156102c157600080fd5b506102dc60048036036102d791908101906147e1565b611575565b6040516102ed959493929190615027565b60405180910390f35b610310600480360361030b919081019061486f565b6115d8565b005b61032c6004803603610327919081019061480a565b6118af565b005b34801561033a57600080fd5b50610343611c86565b6040516103539493929190614fd4565b60405180910390f35b34801561036857600080fd5b50610371611fa7565b60405161037e91906150b7565b60405180910390f35b6103a1600480360361039c9190810190614917565b6121e4565b005b3480156103af57600080fd5b506103b8612341565b005b3480156103c657600080fd5b506103cf612aac565b6040516103dc919061509c565b60405180910390f35b6103ed612abc565b005b3480156103fb57600080fd5b50610404612cbb565b005b34801561041257600080fd5b5061041b612fd9565b604051610428919061507a565b60405180910390f35b34801561043d57600080fd5b50610446613126565b005b34801561045457600080fd5b5061045d613339565b60405161046a9190615309565b60405180910390f35b34801561047f57600080fd5b5061049a60048036036104959190810190614940565b613403565b005b6104b660048036036104b191908101906148c3565b6135fb565b005b3480156104c457600080fd5b506104df60048036036104da9190810190614846565b6139b2565b005b60006060806000806000606087601060008a8152602001908152602001600020600301601060008b8152602001908152602001600020600401601060008c815260200190815260200160002060050154601060008d815260200190815260200160002060060154601060008e815260200190815260200160002060070154601060008f8152602001908152602001600020600a01858054600181600116156101000203166002900480601f01602080910402602001604051908101604052809291908181526020018280546001816001161561010002031660029004801561060a5780601f106105df5761010080835404028352916020019161060a565b820191906000526020600020905b8154815290600101906020018083116105ed57829003601f168201915b50505050509550848054600181600116156101000203166002900480601f0160208091040260200160405190810160405280929190818152602001828054600181600116156101000203166002900480156106a65780601f1061067b576101008083540402835291602001916106a6565b820191906000526020600020905b81548152906001019060200180831161068957829003601f168201915b50505050509450808054600181600116156101000203166002900480601f0160208091040260200160405190810160405280929190818152602001828054600181600116156101000203166002900480156107425780601f1061071757610100808354040283529160200191610742565b820191906000526020600020905b81548152906001019060200180831161072557829003601f168201915b505050505090509650965096509650965096509650919395979092949650565b60006002600760000154146107ac576040517f08c379a00000000000000000000000000000000000000000000000000000000081526004016107a3906151a9565b60405180910390fd5b3373ffffffffffffffffffffffffffffffffffffffff166007800160009054906101000a900473ffffffffffffffffffffffffffffffffffffffff1673ffffffffffffffffffffffffffffffffffffffff16141561080d5760019050610812565b600090505b90565b60606000600260003373ffffffffffffffffffffffffffffffffffffffff1673ffffffffffffffffffffffffffffffffffffffff16815260200190815260200160002060030160009054906101000a900460ff166108a8576040517f08c379a000000000000000000000000000000000000000000000000000000000815260040161089f906152a9565b60405180910390fd5b600260003373ffffffffffffffffffffffffffffffffffffffff1673ffffffffffffffffffffffffffffffffffffffff168152602001908152602001600020600001600260003373ffffffffffffffffffffffffffffffffffffffff1673ffffffffffffffffffffffffffffffffffffffff16815260200190815260200160002060020154818054600181600116156101000203166002900480601f0160208091040260200160405190810160405280929190818152602001828054600181600116156101000203166002900480156109c25780601f10610997576101008083540402835291602001916109c2565b820191906000526020600020905b8154815290600101906020018083116109a557829003601f168201915b50505050509150915091509091565b600260003373ffffffffffffffffffffffffffffffffffffffff1673ffffffffffffffffffffffffffffffffffffffff16815260200190815260200160002060030160009054906101000a900460ff16610a60576040517f08c379a0000000000000000000000000000000000000000000000000000000008152600401610a57906152a9565b60405180910390fd5b8080600260003373ffffffffffffffffffffffffffffffffffffffff1673ffffffffffffffffffffffffffffffffffffffff168152602001908152602001600020600201541015610ab057600080fd5b3373ffffffffffffffffffffffffffffffffffffffff166108fc839081150290604051600060405180830381858888f19350505050158015610af6573d6000803e3d6000fd5b5081600260003373ffffffffffffffffffffffffffffffffffffffff1673ffffffffffffffffffffffffffffffffffffffff16815260200190815260200160002060020160008282540392505081905550610c65336000600260003373ffffffffffffffffffffffffffffffffffffffff1673ffffffffffffffffffffffffffffffffffffffff1681526020019081526020016000206000018054600181600116156101000203166002900480601f016020809104026020016040519081016040528092919081815260200182805460018160011615610100020316600290048015610c235780601f10610bf857610100808354040283529160200191610c23565b820191906000526020600020905b815481529060010190602001808311610c0657829003601f168201915b50505050506040518060400160405280600f81526020017f65787465726e616c2077616c6c657400000000000000000000000000000000008152508642613b62565b5050565b6060600260003373ffffffffffffffffffffffffffffffffffffffff1673ffffffffffffffffffffffffffffffffffffffff168152602001908152602001600020600401805480602002602001604051908101604052809291908181526020018280548015610cf757602002820191906000526020600020905b815481526020019060010190808311610ce3575b5050505050905090565b60606000601160000160009054906101000a900473ffffffffffffffffffffffffffffffffffffffff1673ffffffffffffffffffffffffffffffffffffffff163373ffffffffffffffffffffffffffffffffffffffff1614610d98576040517f08c379a0000000000000000000000000000000000000000000000000000000008152600401610d8f90615189565b60405180910390fd5b6011600101601160020154818054600181600116156101000203166002900480601f016020809104026020016040519081016040528092919081815260200182805460018160011615610100020316600290048015610e385780601f10610e0d57610100808354040283529160200191610e38565b820191906000526020600020905b815481529060010190602001808311610e1b57829003601f168201915b50505050509150915091509091565b600260076000015414610e8f576040517f08c379a0000000000000000000000000000000000000000000000000000000008152600401610e86906151a9565b60405180910390fd5b601160000160009054906101000a900473ffffffffffffffffffffffffffffffffffffffff1673ffffffffffffffffffffffffffffffffffffffff163373ffffffffffffffffffffffffffffffffffffffff1614610f22576040517f08c379a0000000000000000000000000000000000000000000000000000000008152600401610f1990615189565b60405180910390fd5b6113b56006546015600060028110610f3657fe5b0160009054906101000a900473ffffffffffffffffffffffffffffffffffffffff166015600160028110610f6657fe5b0160009054906101000a900473ffffffffffffffffffffffffffffffffffffffff16600260006015600060028110610f9a57fe5b0160009054906101000a900473ffffffffffffffffffffffffffffffffffffffff1673ffffffffffffffffffffffffffffffffffffffff1673ffffffffffffffffffffffffffffffffffffffff1681526020019081526020016000206000018054600181600116156101000203166002900480601f01602080910402602001604051908101604052809291908181526020018280546001816001161561010002031660029004801561108d5780601f106110625761010080835404028352916020019161108d565b820191906000526020600020905b81548152906001019060200180831161107057829003601f168201915b50505050506002600060156001600281106110a457fe5b0160009054906101000a900473ffffffffffffffffffffffffffffffffffffffff1673ffffffffffffffffffffffffffffffffffffffff1673ffffffffffffffffffffffffffffffffffffffff1681526020019081526020016000206000018054600181600116156101000203166002900480601f0160208091040260200160405190810160405280929190818152602001828054600181600116156101000203166002900480156111975780601f1061116c57610100808354040283529160200191611197565b820191906000526020600020905b81548152906001019060200180831161117a57829003601f168201915b50505050506017600060156000600281106111ae57fe5b0160009054906101000a900473ffffffffffffffffffffffffffffffffffffffff1673ffffffffffffffffffffffffffffffffffffffff1673ffffffffffffffffffffffffffffffffffffffff1681526020019081526020016000206001015460176000601560016002811061122057fe5b0160009054906101000a900473ffffffffffffffffffffffffffffffffffffffff1673ffffffffffffffffffffffffffffffffffffffff1673ffffffffffffffffffffffffffffffffffffffff168152602001908152602001600020600101546007600501546007600601546007800160009054906101000a900473ffffffffffffffffffffffffffffffffffffffff16600260006007800160009054906101000a900473ffffffffffffffffffffffffffffffffffffffff1673ffffffffffffffffffffffffffffffffffffffff1673ffffffffffffffffffffffffffffffffffffffff1681526020019081526020016000206000018054600181600116156101000203166002900480601f0160208091040260200160405190810160405280929190818152602001828054600181600116156101000203166002900480156113ab5780601f10611380576101008083540402835291602001916113ab565b820191906000526020600020905b81548152906001019060200180831161138e57829003601f168201915b5050505050613e89565b6113bd6142f2565b6113c56143f0565b565b6000606080600080856004600088815260200190815260200160002060020160046000898152602001908152602001600020600301600460008a815260200190815260200160002060040154600460008b815260200190815260200160002060050154838054600181600116156101000203166002900480601f0160208091040260200160405190810160405280929190818152602001828054600181600116156101000203166002900480156114bf5780601f10611494576101008083540402835291602001916114bf565b820191906000526020600020905b8154815290600101906020018083116114a257829003601f168201915b50505050509350828054600181600116156101000203166002900480601f01602080910402602001604051908101604052809291908181526020018280546001816001161561010002031660029004801561155b5780601f106115305761010080835404028352916020019161155b565b820191906000526020600020905b81548152906001019060200180831161153e57829003601f168201915b505050505092509450945094509450945091939590929450565b60176020528060005260406000206000915090508060000160009054906101000a900473ffffffffffffffffffffffffffffffffffffffff16908060010154908060020154908060030154908060040160009054906101000a900460ff16905085565b60001515600260008373ffffffffffffffffffffffffffffffffffffffff1673ffffffffffffffffffffffffffffffffffffffff16815260200190815260200160002060030160009054906101000a900460ff1615151461166e576040517f08c379a000000000000000000000000000000000000000000000000000000000815260040161166590615269565b60405180910390fd5b600073ffffffffffffffffffffffffffffffffffffffff166003836040516116969190614fa2565b908152602001604051809103902060009054906101000a900473ffffffffffffffffffffffffffffffffffffffff1673ffffffffffffffffffffffffffffffffffffffff161461171b576040517f08c379a000000000000000000000000000000000000000000000000000000000815260040161171290615289565b60405180910390fd5b81600260008373ffffffffffffffffffffffffffffffffffffffff1673ffffffffffffffffffffffffffffffffffffffff1681526020019081526020016000206000019080519060200190611771929190614516565b5080600260008373ffffffffffffffffffffffffffffffffffffffff1673ffffffffffffffffffffffffffffffffffffffff16815260200190815260200160002060010160006101000a81548173ffffffffffffffffffffffffffffffffffffffff021916908373ffffffffffffffffffffffffffffffffffffffff1602179055506001600260008373ffffffffffffffffffffffffffffffffffffffff1673ffffffffffffffffffffffffffffffffffffffff16815260200190815260200160002060030160006101000a81548160ff0219169083151502179055508060038360405161185f9190614fa2565b908152602001604051809103902060006101000a81548173ffffffffffffffffffffffffffffffffffffffff021916908373ffffffffffffffffffffffffffffffffffffffff1602179055505050565b600260003373ffffffffffffffffffffffffffffffffffffffff1673ffffffffffffffffffffffffffffffffffffffff16815260200190815260200160002060030160009054906101000a900460ff1661193e576040517f08c379a0000000000000000000000000000000000000000000000000000000008152600401611935906152a9565b60405180910390fd5b81600260008273ffffffffffffffffffffffffffffffffffffffff1673ffffffffffffffffffffffffffffffffffffffff16815260200190815260200160002060030160009054906101000a900460ff166119ce576040517f08c379a00000000000000000000000000000000000000000000000000000000081526004016119c590615149565b60405180910390fd5b8180600260003373ffffffffffffffffffffffffffffffffffffffff1673ffffffffffffffffffffffffffffffffffffffff168152602001908152602001600020600201541015611a1e57600080fd5b82600260008673ffffffffffffffffffffffffffffffffffffffff1673ffffffffffffffffffffffffffffffffffffffff1681526020019081526020016000206002016000828254019250508190555082600260003373ffffffffffffffffffffffffffffffffffffffff1673ffffffffffffffffffffffffffffffffffffffff16815260200190815260200160002060020160008282540392505081905550611c803385600260003373ffffffffffffffffffffffffffffffffffffffff1673ffffffffffffffffffffffffffffffffffffffff1681526020019081526020016000206000018054600181600116156101000203166002900480601f016020809104026020016040519081016040528092919081815260200182805460018160011615610100020316600290048015611b995780601f10611b6e57610100808354040283529160200191611b99565b820191906000526020600020905b815481529060010190602001808311611b7c57829003601f168201915b5050505050600260008973ffffffffffffffffffffffffffffffffffffffff1673ffffffffffffffffffffffffffffffffffffffff1681526020019081526020016000206000018054600181600116156101000203166002900480601f016020809104026020016040519081016040528092919081815260200182805460018160011615610100020316600290048015611c745780601f10611c4957610100808354040283529160200191611c74565b820191906000526020600020905b815481529060010190602001808311611c5757829003601f168201915b50505050508742613b62565b50505050565b600080606080601160000160009054906101000a900473ffffffffffffffffffffffffffffffffffffffff1673ffffffffffffffffffffffffffffffffffffffff163373ffffffffffffffffffffffffffffffffffffffff1614611d1f576040517f08c379a0000000000000000000000000000000000000000000000000000000008152600401611d1690615189565b60405180910390fd5b6015600060028110611d2d57fe5b0160009054906101000a900473ffffffffffffffffffffffffffffffffffffffff166015600160028110611d5d57fe5b0160009054906101000a900473ffffffffffffffffffffffffffffffffffffffff16600260006015600060028110611d9157fe5b0160009054906101000a900473ffffffffffffffffffffffffffffffffffffffff1673ffffffffffffffffffffffffffffffffffffffff1673ffffffffffffffffffffffffffffffffffffffff168152602001908152602001600020600001600260006015600160028110611e0257fe5b0160009054906101000a900473ffffffffffffffffffffffffffffffffffffffff1673ffffffffffffffffffffffffffffffffffffffff1673ffffffffffffffffffffffffffffffffffffffff168152602001908152602001600020600001818054600181600116156101000203166002900480601f016020809104026020016040519081016040528092919081815260200182805460018160011615610100020316600290048015611ef65780601f10611ecb57610100808354040283529160200191611ef6565b820191906000526020600020905b815481529060010190602001808311611ed957829003601f168201915b50505050509150808054600181600116156101000203166002900480601f016020809104026020016040519081016040528092919081815260200182805460018160011615610100020316600290048015611f925780601f10611f6757610100808354040283529160200191611f92565b820191906000526020600020905b815481529060010190602001808311611f7557829003601f168201915b50505050509050935093509350935090919293565b6060600260076000015414611ff1576040517f08c379a0000000000000000000000000000000000000000000000000000000008152600401611fe8906151a9565b60405180910390fd5b601160000160009054906101000a900473ffffffffffffffffffffffffffffffffffffffff1673ffffffffffffffffffffffffffffffffffffffff166007800160009054906101000a900473ffffffffffffffffffffffffffffffffffffffff1673ffffffffffffffffffffffffffffffffffffffff1614156120ab576040518060400160405280601781526020017f416c6c206368656174656421204e6f2057696e6e65722100000000000000000081525090506121e1565b600073ffffffffffffffffffffffffffffffffffffffff166007800160009054906101000a900473ffffffffffffffffffffffffffffffffffffffff1673ffffffffffffffffffffffffffffffffffffffff16146121a85760076008018054600181600116156101000203166002900480601f01602080910402602001604051908101604052809291908181526020018280546001816001161561010002031660029004801561219c5780601f106121715761010080835404028352916020019161219c565b820191906000526020600020905b81548152906001019060200180831161217f57829003601f168201915b505050505090506121e1565b6040518060400160405280601081526020017f4e6f7420636865636b656420796574210000000000000000000000000000000081525090505b90565b601160000160009054906101000a900473ffffffffffffffffffffffffffffffffffffffff1673ffffffffffffffffffffffffffffffffffffffff163373ffffffffffffffffffffffffffffffffffffffff1614612277576040517f08c379a000000000000000000000000000000000000000000000000000000000815260040161226e90615189565b60405180910390fd5b8060116002015410156122bf576040517f08c379a00000000000000000000000000000000000000000000000000000000081526004016122b690615249565b60405180910390fd5b601160000160009054906101000a900473ffffffffffffffffffffffffffffffffffffffff1673ffffffffffffffffffffffffffffffffffffffff166108fc829081150290604051600060405180830381858888f1935050505015801561232a573d6000803e3d6000fd5b508060116002016000828254039250508190555050565b6007600601544211612388576040517f08c379a000000000000000000000000000000000000000000000000000000000815260040161237f90615129565b60405180910390fd5b6002600760010154146123d0576040517f08c379a00000000000000000000000000000000000000000000000000000000081526004016123c7906151c9565b60405180910390fd5b601160000160009054906101000a900473ffffffffffffffffffffffffffffffffffffffff1673ffffffffffffffffffffffffffffffffffffffff163373ffffffffffffffffffffffffffffffffffffffff1614612463576040517f08c379a000000000000000000000000000000000000000000000000000000000815260040161245a90615189565b60405180910390fd5b6002600760000154141561247657612aaa565b600260076000018190555060008090505b6007600101548110156126b65760176000601583600281106124a557fe5b0160009054906101000a900473ffffffffffffffffffffffffffffffffffffffff1673ffffffffffffffffffffffffffffffffffffffff1673ffffffffffffffffffffffffffffffffffffffff16815260200190815260200160002060020154601760006015846002811061251657fe5b0160009054906101000a900473ffffffffffffffffffffffffffffffffffffffff1673ffffffffffffffffffffffffffffffffffffffff1673ffffffffffffffffffffffffffffffffffffffff16815260200190815260200160002060010154016040516020016125879190614fb9565b6040516020818303038152906040528051906020012060176000601584600281106125ae57fe5b0160009054906101000a900473ffffffffffffffffffffffffffffffffffffffff1673ffffffffffffffffffffffffffffffffffffffff1673ffffffffffffffffffffffffffffffffffffffff1681526020019081526020016000206003015414156126a95760186015826002811061262357fe5b0160009054906101000a900473ffffffffffffffffffffffffffffffffffffffff1690806001815401808255809150509060018203906000526020600020016000909192909190916101000a81548173ffffffffffffffffffffffffffffffffffffffff021916908373ffffffffffffffffffffffffffffffffffffffff160217905550505b8080600101915050612487565b50600060188054905011156127fa57600080905060008090505b6018805490508110156127685760176000601883815481106126ee57fe5b9060005260206000200160009054906101000a900473ffffffffffffffffffffffffffffffffffffffff1673ffffffffffffffffffffffffffffffffffffffff1673ffffffffffffffffffffffffffffffffffffffff168152602001908152602001600020600101548201915080806001019150506126d0565b50601880549050818161277757fe5b0690506018818154811061278757fe5b9060005260206000200160009054906101000a900473ffffffffffffffffffffffffffffffffffffffff166007800160006101000a81548173ffffffffffffffffffffffffffffffffffffffff021916908373ffffffffffffffffffffffffffffffffffffffff16021790555050612863565b601160000160009054906101000a900473ffffffffffffffffffffffffffffffffffffffff166007800160006101000a81548173ffffffffffffffffffffffffffffffffffffffff021916908373ffffffffffffffffffffffffffffffffffffffff1602179055505b601160000160009054906101000a900473ffffffffffffffffffffffffffffffffffffffff1673ffffffffffffffffffffffffffffffffffffffff163373ffffffffffffffffffffffffffffffffffffffff161480156128c857506000600760040154115b15612a1e57601160000160009054906101000a900473ffffffffffffffffffffffffffffffffffffffff1673ffffffffffffffffffffffffffffffffffffffff166007800160009054906101000a900473ffffffffffffffffffffffffffffffffffffffff1673ffffffffffffffffffffffffffffffffffffffff16146129f9576064605f600760040154028161295b57fe5b04600260006007800160009054906101000a900473ffffffffffffffffffffffffffffffffffffffff1673ffffffffffffffffffffffffffffffffffffffff1673ffffffffffffffffffffffffffffffffffffffff168152602001908152602001600020600201600082825401925050819055506064600560076004015402816129e157fe5b04601160020160008282540192505081905550612a12565b6007600401546011600201600082825401925050819055505b60006007600401819055505b600260006007800160009054906101000a900473ffffffffffffffffffffffffffffffffffffffff1673ffffffffffffffffffffffffffffffffffffffff1673ffffffffffffffffffffffffffffffffffffffff16815260200190815260200160002060000160076008019080546001816001161561010002031660029004612aa8929190614596565b505b565b6000600160076000015414905090565b600260003373ffffffffffffffffffffffffffffffffffffffff1673ffffffffffffffffffffffffffffffffffffffff16815260200190815260200160002060030160009054906101000a900460ff16612b4b576040517f08c379a0000000000000000000000000000000000000000000000000000000008152600401612b42906152a9565b60405180910390fd5b34600260003373ffffffffffffffffffffffffffffffffffffffff1673ffffffffffffffffffffffffffffffffffffffff16815260200190815260200160002060020160008282540192505081905550612cb93360006040518060400160405280600f81526020017f65787465726e616c2077616c6c65740000000000000000000000000000000000815250600260003373ffffffffffffffffffffffffffffffffffffffff1673ffffffffffffffffffffffffffffffffffffffff1681526020019081526020016000206000018054600181600116156101000203166002900480601f016020809104026020016040519081016040528092919081815260200182805460018160011615610100020316600290048015612cad5780601f10612c8257610100808354040283529160200191612cad565b820191906000526020600020905b815481529060010190602001808311612c9057829003601f168201915b50505050503442613b62565b565b600060076000015414612d03576040517f08c379a0000000000000000000000000000000000000000000000000000000008152600401612cfa906152e9565b60405180910390fd5b600260076001015410612d4b576040517f08c379a0000000000000000000000000000000000000000000000000000000008152600401612d4290615109565b60405180910390fd5b600760020154600260003373ffffffffffffffffffffffffffffffffffffffff1673ffffffffffffffffffffffffffffffffffffffff168152602001908152602001600020600201541015612dd5576040517f08c379a0000000000000000000000000000000000000000000000000000000008152600401612dcc906151e9565b60405180910390fd5b601760003373ffffffffffffffffffffffffffffffffffffffff1673ffffffffffffffffffffffffffffffffffffffff16815260200190815260200160002060040160009054906101000a900460ff1615612e65576040517f08c379a0000000000000000000000000000000000000000000000000000000008152600401612e5c90615209565b60405180910390fd5b33601560076001015460028110612e7857fe5b0160006101000a81548173ffffffffffffffffffffffffffffffffffffffff021916908373ffffffffffffffffffffffffffffffffffffffff1602179055506040518060a001604052803373ffffffffffffffffffffffffffffffffffffffff16815260200160008152602001600081526020016000801b815260200160011515815250601760003373ffffffffffffffffffffffffffffffffffffffff1673ffffffffffffffffffffffffffffffffffffffff16815260200190815260200160002060008201518160000160006101000a81548173ffffffffffffffffffffffffffffffffffffffff021916908373ffffffffffffffffffffffffffffffffffffffff16021790555060208201518160010155604082015181600201556060820151816003015560808201518160040160006101000a81548160ff0219169083151502179055509050506001600760010160008282540192505081905550565b6060601160000160009054906101000a900473ffffffffffffffffffffffffffffffffffffffff1673ffffffffffffffffffffffffffffffffffffffff163373ffffffffffffffffffffffffffffffffffffffff16141561308f57601160030180548060200260200160405190810160405280929190818152602001828054801561308357602002820191906000526020600020905b81548152602001906001019080831161306f575b50505050509050613123565b600260003373ffffffffffffffffffffffffffffffffffffffff1673ffffffffffffffffffffffffffffffffffffffff16815260200190815260200160002060050180548060200260200160405190810160405280929190818152602001828054801561311b57602002820191906000526020600020905b815481526020019060010190808311613107575b505050505090505b90565b60006007600001541461316e576040517f08c379a0000000000000000000000000000000000000000000000000000000008152600401613165906152e9565b60405180910390fd5b6002600760010154146131b6576040517f08c379a00000000000000000000000000000000000000000000000000000000081526004016131ad906151c9565b60405180910390fd5b601160000160009054906101000a900473ffffffffffffffffffffffffffffffffffffffff1673ffffffffffffffffffffffffffffffffffffffff163373ffffffffffffffffffffffffffffffffffffffff1614613249576040517f08c379a000000000000000000000000000000000000000000000000000000000815260040161324090615189565b60405180910390fd5b6001600760000181905550426007600501819055506007600301546007600501540160076006018190555060008090505b60076001015481101561331757600760020154600260006015846002811061329e57fe5b0160009054906101000a900473ffffffffffffffffffffffffffffffffffffffff1673ffffffffffffffffffffffffffffffffffffffff1673ffffffffffffffffffffffffffffffffffffffff16815260200190815260200160002060020160008282540392505081905550808060010191505061327a565b5060076001015460076002015402600760040160008282540192505081905550565b60003373ffffffffffffffffffffffffffffffffffffffff16601160000160009054906101000a900473ffffffffffffffffffffffffffffffffffffffff1673ffffffffffffffffffffffffffffffffffffffff16141561339d5760029050613400565b600260003373ffffffffffffffffffffffffffffffffffffffff1673ffffffffffffffffffffffffffffffffffffffff16815260200190815260200160002060030160009054906101000a900460ff16156133fb5760019050613400565b600090505b90565b60016007600001541461344b576040517f08c379a000000000000000000000000000000000000000000000000000000000815260040161344290615169565b60405180910390fd5b6007600601544211613492576040517f08c379a000000000000000000000000000000000000000000000000000000000815260040161348990615129565b60405180910390fd5b6002600760010154146134da576040517f08c379a00000000000000000000000000000000000000000000000000000000081526004016134d1906151c9565b60405180910390fd5b601760003373ffffffffffffffffffffffffffffffffffffffff1673ffffffffffffffffffffffffffffffffffffffff16815260200190815260200160002060040160009054906101000a900460ff16613569576040517f08c379a0000000000000000000000000000000000000000000000000000000008152600401613560906152c9565b60405180910390fd5b81601760003373ffffffffffffffffffffffffffffffffffffffff1673ffffffffffffffffffffffffffffffffffffffff1681526020019081526020016000206001018190555080601760003373ffffffffffffffffffffffffffffffffffffffff1673ffffffffffffffffffffffffffffffffffffffff168152602001908152602001600020600201819055505050565b600260003373ffffffffffffffffffffffffffffffffffffffff1673ffffffffffffffffffffffffffffffffffffffff16815260200190815260200160002060030160009054906101000a900460ff1661368a576040517f08c379a0000000000000000000000000000000000000000000000000000000008152600401613681906152a9565b60405180910390fd5b60038260405161369a9190614fa2565b908152602001604051809103902060009054906101000a900473ffffffffffffffffffffffffffffffffffffffff16600260008273ffffffffffffffffffffffffffffffffffffffff1673ffffffffffffffffffffffffffffffffffffffff16815260200190815260200160002060030160009054906101000a900460ff16613758576040517f08c379a000000000000000000000000000000000000000000000000000000000815260040161374f90615149565b60405180910390fd5b8180600260003373ffffffffffffffffffffffffffffffffffffffff1673ffffffffffffffffffffffffffffffffffffffff1681526020019081526020016000206002015410156137a857600080fd5b82600260006003876040516137bd9190614fa2565b908152602001604051809103902060009054906101000a900473ffffffffffffffffffffffffffffffffffffffff1673ffffffffffffffffffffffffffffffffffffffff1673ffffffffffffffffffffffffffffffffffffffff1681526020019081526020016000206002016000828254019250508190555082600260003373ffffffffffffffffffffffffffffffffffffffff1673ffffffffffffffffffffffffffffffffffffffff168152602001908152602001600020600201600082825403925050819055506139ac3360038660405161389a9190614fa2565b908152602001604051809103902060009054906101000a900473ffffffffffffffffffffffffffffffffffffffff16600260003373ffffffffffffffffffffffffffffffffffffffff1673ffffffffffffffffffffffffffffffffffffffff1681526020019081526020016000206000018054600181600116156101000203166002900480601f01602080910402602001604051908101604052809291908181526020018280546001816001161561010002031660029004801561399f5780601f106139745761010080835404028352916020019161399f565b820191906000526020600020905b81548152906001019060200180831161398257829003601f168201915b5050505050878742613b62565b50505050565b6001600760000154146139fa576040517f08c379a00000000000000000000000000000000000000000000000000000000081526004016139f190615169565b60405180910390fd5b6007600601544210613a41576040517f08c379a0000000000000000000000000000000000000000000000000000000008152600401613a3890615229565b60405180910390fd5b600260076001015414613a89576040517f08c379a0000000000000000000000000000000000000000000000000000000008152600401613a80906151c9565b60405180910390fd5b601760003373ffffffffffffffffffffffffffffffffffffffff1673ffffffffffffffffffffffffffffffffffffffff16815260200190815260200160002060040160009054906101000a900460ff16613b18576040517f08c379a0000000000000000000000000000000000000000000000000000000008152600401613b0f906152c9565b60405180910390fd5b80601760003373ffffffffffffffffffffffffffffffffffffffff1673ffffffffffffffffffffffffffffffffffffffff1681526020019081526020016000206003018190555050565b6040518060c001604052808773ffffffffffffffffffffffffffffffffffffffff1681526020018673ffffffffffffffffffffffffffffffffffffffff1681526020018581526020018481526020018381526020018281525060046000600154815260200190815260200160002060008201518160000160006101000a81548173ffffffffffffffffffffffffffffffffffffffff021916908373ffffffffffffffffffffffffffffffffffffffff16021790555060208201518160010160006101000a81548173ffffffffffffffffffffffffffffffffffffffff021916908373ffffffffffffffffffffffffffffffffffffffff1602179055506040820151816002019080519060200190613c7a92919061461d565b506060820151816003019080519060200190613c9792919061461d565b506080820151816004015560a08201518160050155905050600260008773ffffffffffffffffffffffffffffffffffffffff1673ffffffffffffffffffffffffffffffffffffffff1681526020019081526020016000206004016001549080600181540180825580915050906001820390600052602060002001600090919290919091505550600260008673ffffffffffffffffffffffffffffffffffffffff1673ffffffffffffffffffffffffffffffffffffffff1681526020019081526020016000206004016001549080600181540180825580915050906001820390600052602060002001600090919290919091505550600180600082825401925050819055506000805490505b6001548111613e805742620151806004600084815260200190815260200160002060050154011015613e735760046000828152602001908152602001600020600080820160006101000a81549073ffffffffffffffffffffffffffffffffffffffff02191690556001820160006101000a81549073ffffffffffffffffffffffffffffffffffffffff0219169055600282016000613e40919061469d565b600382016000613e50919061469d565b600482016000905560058201600090555050600160008082825401925050819055505b8080600101915050613da2565b50505050505050565b6040518061016001604052808c81526020018b73ffffffffffffffffffffffffffffffffffffffff1681526020018a73ffffffffffffffffffffffffffffffffffffffff1681526020018981526020018881526020018781526020018681526020018581526020018481526020018373ffffffffffffffffffffffffffffffffffffffff168152602001828152506010600060065481526020019081526020016000206000820151816000015560208201518160010160006101000a81548173ffffffffffffffffffffffffffffffffffffffff021916908373ffffffffffffffffffffffffffffffffffffffff16021790555060408201518160020160006101000a81548173ffffffffffffffffffffffffffffffffffffffff021916908373ffffffffffffffffffffffffffffffffffffffff1602179055506060820151816003019080519060200190613fe092919061461d565b506080820151816004019080519060200190613ffd92919061461d565b5060a0820151816005015560c0820151816006015560e0820151816007015561010082015181600801556101208201518160090160006101000a81548173ffffffffffffffffffffffffffffffffffffffff021916908373ffffffffffffffffffffffffffffffffffffffff16021790555061014082015181600a01908051906020019061408c92919061461d565b50905050600260008b73ffffffffffffffffffffffffffffffffffffffff1673ffffffffffffffffffffffffffffffffffffffff1681526020019081526020016000206005016006549080600181540180825580915050906001820390600052602060002001600090919290919091505550600260008a73ffffffffffffffffffffffffffffffffffffffff1673ffffffffffffffffffffffffffffffffffffffff1681526020019081526020016000206005016006549080600181540180825580915050906001820390600052602060002001600090919290919091505550601160030160065490806001815401808255809150509060018203906000526020600020016000909192909190915055506001600660008282540192505081905550600060055490505b60065481116142e457426201518060106000848152602001908152602001600020600701540110156142d757601060008281526020019081526020016000206000808201600090556001820160006101000a81549073ffffffffffffffffffffffffffffffffffffffff02191690556002820160006101000a81549073ffffffffffffffffffffffffffffffffffffffff021916905560038201600061425c919061469d565b60048201600061426c919061469d565b60058201600090556006820160009055600782016000905560088201600090556009820160006101000a81549073ffffffffffffffffffffffffffffffffffffffff0219169055600a820160006142c3919061469d565b505060016005600082825401925050819055505b80806001019150506141b6565b505050505050505050505050565b60008090505b60028110156143d157601760006015836002811061431257fe5b0160009054906101000a900473ffffffffffffffffffffffffffffffffffffffff1673ffffffffffffffffffffffffffffffffffffffff1673ffffffffffffffffffffffffffffffffffffffff168152602001908152602001600020600080820160006101000a81549073ffffffffffffffffffffffffffffffffffffffff02191690556001820160009055600282016000905560038201600090556004820160006101000a81549060ff0219169055505080806001019150506142f8565b50601560006143e091906146e5565b601860006143ee91906146f3565b565b6040518061012001604052806000815260200160008152602001670de0b6b3a76400008152602001603c8152602001600081526020016000815260200160008152602001600073ffffffffffffffffffffffffffffffffffffffff168152602001604051806020016040528060008152508152506007600082015181600001556020820151816001015560408201518160020155606082015181600301556080820151816004015560a0820151816005015560c0820151816006015560e08201518160070160006101000a81548173ffffffffffffffffffffffffffffffffffffffff021916908373ffffffffffffffffffffffffffffffffffffffff16021790555061010082015181600801908051906020019061451092919061461d565b50905050565b828054600181600116156101000203166002900490600052602060002090601f016020900481019282601f1061455757805160ff1916838001178555614585565b82800160010185558215614585579182015b82811115614584578251825591602001919060010190614569565b5b5090506145929190614714565b5090565b828054600181600116156101000203166002900490600052602060002090601f016020900481019282601f106145cf578054855561460c565b8280016001018555821561460c57600052602060002091601f016020900482015b8281111561460b5782548255916001019190600101906145f0565b5b5090506146199190614714565b5090565b828054600181600116156101000203166002900490600052602060002090601f016020900481019282601f1061465e57805160ff191683800117855561468c565b8280016001018555821561468c579182015b8281111561468b578251825591602001919060010190614670565b5b5090506146999190614714565b5090565b50805460018160011615610100020316600290046000825580601f106146c357506146e2565b601f0160209004906000526020600020908101906146e19190614714565b5b50565b506000815560010160009055565b50805460008255906000526020600020908101906147119190614714565b50565b61473691905b8082111561473257600081600090555060010161471a565b5090565b90565b60008135905061474881615583565b92915050565b60008135905061475d8161559a565b92915050565b600081359050614772816155b1565b92915050565b600082601f83011261478957600080fd5b813561479c61479782615436565b615409565b915080825260208301602083018583830111156147b857600080fd5b6147c3838284615526565b50505092915050565b6000813590506147db816155c8565b92915050565b6000602082840312156147f357600080fd5b600061480184828501614739565b91505092915050565b6000806040838503121561481d57600080fd5b600061482b8582860161474e565b925050602061483c858286016147cc565b9150509250929050565b60006020828403121561485857600080fd5b600061486684828501614763565b91505092915050565b6000806040838503121561488257600080fd5b600083013567ffffffffffffffff81111561489c57600080fd5b6148a885828601614778565b92505060206148b98582860161474e565b9150509250929050565b600080604083850312156148d657600080fd5b600083013567ffffffffffffffff8111156148f057600080fd5b6148fc85828601614778565b925050602061490d858286016147cc565b9150509250929050565b60006020828403121561492957600080fd5b6000614937848285016147cc565b91505092915050565b6000806040838503121561495357600080fd5b6000614961858286016147cc565b9250506020614972858286016147cc565b9150509250929050565b60006149888383614f6d565b60208301905092915050565b61499d816154d4565b82525050565b60006149ae82615472565b6149b88185615495565b93506149c383615462565b8060005b838110156149f45781516149db888261497c565b97506149e683615488565b9250506001810190506149c7565b5085935050505092915050565b614a0a816154e6565b82525050565b614a19816154f2565b82525050565b6000614a2a8261547d565b614a3481856154a6565b9350614a44818560208601615535565b614a4d81615572565b840191505092915050565b6000614a638261547d565b614a6d81856154b7565b9350614a7d818560208601615535565b80840191505092915050565b6000614a96601f836154a6565b91507f4661696c65642120416c726561647920656e6f75676820706c617965727321006000830152602082019050919050565b6000614ad66014836154a6565b91507f4661696c656421204e6f742064756520796574210000000000000000000000006000830152602082019050919050565b6000614b16602c836154a6565b91507f4661696c65642120546865207265636569766572206163636f756e7420646f6560008301527f6e732774206578697374732100000000000000000000000000000000000000006020830152604082019050919050565b6000614b7c601c836154a6565b91507f4661696c6564212047616d65206973206e6f74206f6e676f696e6721000000006000830152602082019050919050565b6000614bbc6025836154a6565b91507f4661696c656421204f6e6c792062616e6b657220616c6c6f77656420746f206460008301527f6f206974210000000000000000000000000000000000000000000000000000006020830152604082019050919050565b6000614c22601b836154a6565b91507f4661696c6564212047616d65206e6f7420656e646564207965742100000000006000830152602082019050919050565b6000614c62601a836154a6565b91507f4661696c656421204e6f20656e6f75676820706c6179657273210000000000006000830152602082019050919050565b6000614ca26020836154a6565b91507f4661696c65642120596f752068617665206e6f20656e6f7567682065746865726000830152602082019050919050565b6000614ce26024836154a6565b91507f4661696c65642120596f7520616c7265616479206a6f696e656420746865206760008301527f616d6521000000000000000000000000000000000000000000000000000000006020830152604082019050919050565b6000614d486013836154a6565b91507f4661696c6564212054696d6520697320757021000000000000000000000000006000830152602082019050919050565b6000614d886024836154a6565b91507f4661696c65642120596f752068617665206e6f7420656e6f7567682062616c6160008301527f6e636521000000000000000000000000000000000000000000000000000000006020830152604082019050919050565b6000614dee6030836154a6565b91507f4661696c656421205468697320616464726573732068617320616c726561647960008301527f206265656e207369676e656420757021000000000000000000000000000000006020830152604082019050919050565b6000614e546031836154a6565b91507f4661696c65642c205468697320757365726e616d652068617320616c7265616460008301527f79206265656e207369676e6564207570210000000000000000000000000000006020830152604082019050919050565b6000614eba601f836154a6565b91507f4661696c65642120596f752068617665206e6f74207369676e656420757021006000830152602082019050919050565b6000614efa6020836154a6565b91507f4661696c65642c20596f7520617265206e6f7420696e207468652067616d65216000830152602082019050919050565b6000614f3a601d836154a6565b91507f4661696c6564212047616d65206e6f74207374617274656420796574210000006000830152602082019050919050565b614f768161551c565b82525050565b614f858161551c565b82525050565b614f9c614f978261551c565b615568565b82525050565b6000614fae8284614a58565b915081905092915050565b6000614fc58284614f8b565b60208201915081905092915050565b6000608082019050614fe96000830187614994565b614ff66020830186614994565b81810360408301526150088185614a1f565b9050818103606083015261501c8184614a1f565b905095945050505050565b600060a08201905061503c6000830188614994565b6150496020830187614f7c565b6150566040830186614f7c565b6150636060830185614a10565b6150706080830184614a01565b9695505050505050565b6000602082019050818103600083015261509481846149a3565b905092915050565b60006020820190506150b16000830184614a01565b92915050565b600060208201905081810360008301526150d18184614a1f565b905092915050565b600060408201905081810360008301526150f38185614a1f565b90506151026020830184614f7c565b9392505050565b6000602082019050818103600083015261512281614a89565b9050919050565b6000602082019050818103600083015261514281614ac9565b9050919050565b6000602082019050818103600083015261516281614b09565b9050919050565b6000602082019050818103600083015261518281614b6f565b9050919050565b600060208201905081810360008301526151a281614baf565b9050919050565b600060208201905081810360008301526151c281614c15565b9050919050565b600060208201905081810360008301526151e281614c55565b9050919050565b6000602082019050818103600083015261520281614c95565b9050919050565b6000602082019050818103600083015261522281614cd5565b9050919050565b6000602082019050818103600083015261524281614d3b565b9050919050565b6000602082019050818103600083015261526281614d7b565b9050919050565b6000602082019050818103600083015261528281614de1565b9050919050565b600060208201905081810360008301526152a281614e47565b9050919050565b600060208201905081810360008301526152c281614ead565b9050919050565b600060208201905081810360008301526152e281614eed565b9050919050565b6000602082019050818103600083015261530281614f2d565b9050919050565b600060208201905061531e6000830184614f7c565b92915050565b600060a0820190506153396000830188614f7c565b818103602083015261534b8187614a1f565b9050818103604083015261535f8186614a1f565b905061536e6060830185614f7c565b61537b6080830184614f7c565b9695505050505050565b600060e08201905061539a600083018a614f7c565b81810360208301526153ac8189614a1f565b905081810360408301526153c08188614a1f565b90506153cf6060830187614f7c565b6153dc6080830186614f7c565b6153e960a0830185614f7c565b81810360c08301526153fb8184614a1f565b905098975050505050505050565b6000604051905081810181811067ffffffffffffffff8211171561542c57600080fd5b8060405250919050565b600067ffffffffffffffff82111561544d57600080fd5b601f19601f8301169050602081019050919050565b6000819050602082019050919050565b600081519050919050565b600081519050919050565b6000602082019050919050565b600082825260208201905092915050565b600082825260208201905092915050565b600081905092915050565b60006154cd826154fc565b9050919050565b60006154df826154fc565b9050919050565b60008115159050919050565b6000819050919050565b600073ffffffffffffffffffffffffffffffffffffffff82169050919050565b6000819050919050565b82818337600083830152505050565b60005b83811015615553578082015181840152602081019050615538565b83811115615562576000848401525b50505050565b6000819050919050565b6000601f19601f8301169050919050565b61558c816154c2565b811461559757600080fd5b50565b6155a3816154d4565b81146155ae57600080fd5b50565b6155ba816154f2565b81146155c557600080fd5b50565b6155d18161551c565b81146155dc57600080fd5b5056fea365627a7a72315820fc5a482acd8c002b8de3d28921fa180b93339fdb6da38e6e654ddcbc7c6108d66c6578706572696d656e74616cf564736f6c63430005100040",
  "source": "pragma solidity >=0.4.22 <0.7.0;\npragma experimental ABIEncoderV2;\nimport \"./Accounts.sol\";\n\ncontract CoinFlipping is AccountsManager{\n    /*** structures ***/\n    struct Player{\n        address payable addr;\n        uint number; // the number to reveal\n        uint salt;\n        bytes32 hashNumber; // the hash of the number\n        bool valid;\n    }\n\n    struct Game{\n        // current game state\n        uint ongoing; // 0 for not start yet, 1 for ongoing, 2 for already ended\n        uint currentPlayers; // no. of current players\n        uint bet; // bet value, 1 eth by default\n        uint due; // time limit\n        uint gameBalance;\n        uint start_time;\n        uint end_time;\n        address payable winnerAddr;\n        string winnerName;\n    }\n\n    struct GameHistory{\n        // game states to store in history\n        uint gameID;\n        address payable player1;\n        address payable player2;\n        string playerName1;\n        string playerName2;\n        uint number1;\n        uint number2;\n        uint start_time;\n        uint end_time;\n        address payable winnerAddr;\n        string winnerName;\n    }\n\n    struct Banker{\n        // banker's state\n        address payable bankerAddr;\n        string bankerName;\n        uint bankerBalance;\n        uint[] gameIDs;\n    }\n\n    /*** attributes ***/\n    uint firstGameID;  // the first game record ID within one day\n    uint currentGameID;\n    Game currentGame; // current game's state\n    mapping (uint => GameHistory) gameHistory; // store game history\n    Banker banker; // the banker\n\n    address payable [2] players;\n    mapping (address => Player) public mapPlayers;\n    address payable [] honestPlayers;\n\n\n    /*** constructor ***/\n    constructor() public{\n        // initialize game, banker\n        currentGameID = 1;\n        clearGame();\n\n        banker.bankerAddr = 0xe29dEc2ffCf4d0A61ED9983ED5369E0EeB4A4708; // the last address offered by Ganache\n        banker.bankerName = \"BANKER\";\n    }\n\n\n    /*** modifiers ***/\n    modifier twoPlayers{\n        require(currentGame.currentPlayers == 2, \"Failed! No enough players!\");\n        _;\n    }\n\n    modifier notTwoPlayers{\n        require(currentGame.currentPlayers < 2, \"Failed! Already enough players!\");\n        _;\n    }\n\n    modifier ongoingGame{\n        require(currentGame.ongoing == 1, \"Failed! Game is not ongoing!\");\n        _;\n    }\n\n    modifier notOngoingGame{\n        require(currentGame.ongoing != 1, \"Failed! Game is ongoing!\");\n        _;\n    }\n\n    modifier notStartedGame{\n        require(currentGame.ongoing == 0, \"Failed! Game not started yet!\");\n        _;\n    }\n\n    modifier endedGame{\n        require(currentGame.ongoing == 2, \"Failed! Game not ended yet!\");\n        _;\n    }\n\n    modifier bePlayer{\n        require(mapPlayers[msg.sender].valid, \"Failed, You are not in the game!\");\n        _;\n    }\n\n    modifier beBanker{\n        require(msg.sender == banker.bankerAddr, \"Failed! Only banker allowed to do it!\");\n        _;\n    }\n\n    modifier beforeDue{\n        require(now < currentGame.end_time, \"Failed! Time is up!\");\n        _;\n    }\n\n    modifier overDue{\n        require(now > currentGame.end_time, \"Failed! Not due yet!\");\n        _;\n    }\n\n\n    /*** functions ***/\n\n    /** public **/\n\n    function withdrawByBanker(uint amount) public payable beBanker{\n        /* banker withdraw his balance\n         * args:\n         *  amount: uint, balance amount he wants to withdraw\n         */\n        require(banker.bankerBalance >= amount, \"Failed! You have not enough balance!\");\n        banker.bankerAddr.transfer(amount);\n        banker.bankerBalance -= amount;\n    }\n\n    function joinGame() public notStartedGame notTwoPlayers{\n        /* player join game, take out his 1 ether for be\n         *\n         */\n        require(accounts[msg.sender].balance >= currentGame.bet, \"Failed! You have no enough ether\");\n        require(!mapPlayers[msg.sender].valid, \"Failed! You already joined the game!\");\n        players[currentGame.currentPlayers] = msg.sender;\n        mapPlayers[msg.sender] = Player({\n           addr: msg.sender,\n           number: 0,\n           salt: 0,\n           hashNumber: 0,\n           valid: true\n        });\n        currentGame.currentPlayers += 1;\n    }\n\n    function sendHash(bytes32 _hashNumber) public ongoingGame beforeDue twoPlayers bePlayer{\n        /* player send his/her hash in the time limit\n         * args:\n         *  _hashNumber: bytes32, the hash to send\n         */\n        mapPlayers[msg.sender].hashNumber = _hashNumber;\n    }\n\n    function sendNumber(uint _number, uint _salt) public ongoingGame overDue twoPlayers bePlayer{\n        /* player send his/her number and salt\n         * args:\n         *  _number: uint, the number to send\n         *  _salt: uint, the salt to send\n         */\n        mapPlayers[msg.sender].number = _number;\n        mapPlayers[msg.sender].salt = _salt;\n    }\n\n    function startGame() public notStartedGame twoPlayers beBanker{\n        /* banker start the game if enough players\n         *\n         */\n        currentGame.ongoing = 1;\n        currentGame.start_time = now;\n        currentGame.end_time = currentGame.start_time + currentGame.due;\n\n        // transfer ether from players to banker\n        for (uint i = 0; i < currentGame.currentPlayers; i++){\n            accounts[players[i]].balance -= currentGame.bet;\n        }\n        currentGame.gameBalance += currentGame.bet * currentGame.currentPlayers;\n    }\n\n\n    function checkWinner() public overDue twoPlayers beBanker{\n        /* banker check the hashes of both players, decide the winner and do the transfer\n         *\n         */\n\n        if (currentGame.ongoing == 2){\n            return;\n        }\n        currentGame.ongoing = 2; // game ends.\n\n        // check cheaters\n        for (uint i = 0; i < currentGame.currentPlayers; i++){\n            if (mapPlayers[players[i]].hashNumber == keccak256(abi.encodePacked(mapPlayers[players[i]].number + mapPlayers[players[i]].salt))){\n                honestPlayers.push(players[i]);\n            }\n        }\n\n        // check winner excluding cheaters\n        if (honestPlayers.length > 0){\n            uint winner = 0;\n            for (uint i = 0; i < honestPlayers.length; i++){\n                winner += mapPlayers[honestPlayers[i]].number;\n            }\n            winner = winner % honestPlayers.length;\n            currentGame.winnerAddr = honestPlayers[winner];\n        }\n        else{\n            currentGame.winnerAddr = banker.bankerAddr;\n        }\n\n        // banker transfers if not\n        if (msg.sender == banker.bankerAddr && currentGame.gameBalance > 0){\n            // do the transfer\n            if (currentGame.winnerAddr != banker.bankerAddr){\n                accounts[currentGame.winnerAddr].balance += currentGame.gameBalance * 95 / 100;\n                banker.bankerBalance += currentGame.gameBalance * 5 / 100;\n            }\n            else{\n                banker.bankerBalance += currentGame.gameBalance;\n            }\n            currentGame.gameBalance = 0;\n        }\n        currentGame.winnerName = accounts[currentGame.winnerAddr].username;\n    }\n\n    function clear() public endedGame beBanker{\n        /* banker record the game to history and clear current game\n         *\n         */\n        logGame(currentGameID, players[0], players[1], accounts[players[0]].username, accounts[players[1]].username, mapPlayers[players[0]].number, mapPlayers[players[1]].number, currentGame.start_time, currentGame.end_time, currentGame.winnerAddr, accounts[currentGame.winnerAddr].username);\n\n        clearPlayers();\n        clearGame();\n    }\n\n    /** view **/\n\n    function getOngoing() public view returns(bool){\n        /* get the game state: ongoing or not\n         * return:\n         *  ongoing: bool\n         */\n        return(currentGame.ongoing == 1);\n    }\n\n    function getPlayers() public view beBanker returns(address payable, address payable, string memory, string memory){\n        /* banker get the current in-game players\n         * return:\n         *  player1: address\n         *  player2: address\n         *  playerName1: uint\n         *  playerName2: uint\n         */\n        return(players[0], players[1], accounts[players[0]].username, accounts[players[1]].username);\n    }\n\n    function queryByBanker() public view beBanker returns(string memory, uint){\n        /* banker query for his balance\n         * return:\n         *  bankerName: string\n         *  balance: uint\n         */\n        return(banker.bankerName, banker.bankerBalance);\n    }\n\n    function playerGetWinner() public view endedGame returns(bool){\n        /* for player to check if he/she won\n         * return:\n         *  win: bool\n         */\n        if (currentGame.winnerAddr == msg.sender){\n            return true;\n        }\n        return false;\n    }\n\n    function getWinner() public view endedGame returns (string memory){\n        /* for banker to check the winner\n         * return:\n         *  winnerName: string\n         */\n        // already checked, return result\n        if (currentGame.winnerAddr == banker.bankerAddr){\n            return \"All cheated! No Winner!\";\n        }\n        if (currentGame.winnerAddr != address(0)){\n            return currentGame.winnerName;\n        }\n        return \"Not checked yet!\";\n    }\n\n    function getGameIDs() public view returns(uint[] memory){\n        /* to get the whole game IDs involving him/her\n         * return:\n         *  gameIDs: uint[]\n         */\n        if(msg.sender == banker.bankerAddr){\n            return banker.gameIDs;\n        }\n        return accounts[msg.sender].myGames;\n    }\n\n    function checkHistory(uint i) public view returns(uint, string memory, string memory, uint, uint, uint, string memory){\n        /* get the details of certain game by ID\n         * return:\n         *  gameID: uint\n         *  playerName1: string\n         *  playerName2: string\n         *  number1: uint\n         *  number2: uint\n         *  start_time: uint\n         *  end_time: uint\n         *  winnerName: string\n         */\n        return (i, gameHistory[i].playerName1, gameHistory[i].playerName2, gameHistory[i].number1, gameHistory[i].number2, gameHistory[i].start_time, gameHistory[i].winnerName);\n    }\n\n    function whoAmI() public view returns(uint){\n        /* get the role of the requester\n         * return\n         *  userState: bool\n         */\n        // return 0 for unregistered, 1 for registered, 2 for banker\n        if (banker.bankerAddr == msg.sender){\n            return 2;\n        }\n        if (accounts[msg.sender].valid){\n            return 1;\n        }\n        return 0;\n    }\n\n    /** private **/\n\n    function clearGame() private {\n        /* for banker to reset the game\n         *\n         */\n        // clear game's state\n        currentGame = Game({\n          ongoing: 0,\n          currentPlayers: 0,\n          bet: 1 ether,\n          due: 1 minutes,\n          gameBalance: 0,\n          start_time: 0,\n          end_time: 0,\n          winnerAddr: address(0),\n          winnerName: \"\"\n        });\n    }\n\n    function clearPlayers() private {\n        /* for banker to clear the players after game ended\n         *\n         */\n        // clear players' states\n        for (uint i = 0; i < 2; i++){\n            delete mapPlayers[players[i]];\n        }\n        delete players;\n        delete honestPlayers;\n    }\n\n    function logGame(uint _gameID, address payable _player1, address payable _player2, string memory _playerName1, string memory _playerName2, uint _number1, uint _number2, uint _start_time, uint _end_time, address payable _winnerAddr, string memory _winnerName) private {\n        /* log current game record and delete outdated records\n         * args:\n         *  _gameID: uint, current game ID\n         *  _player1: address, player1's address\n         *  _player2: address, player2's address\n         *  _playerName1: string, player1's username\n         *  _playerName2: string, player2's username\n         *  _number1: uint, player1's bet number\n         *  _number2: uint, player2's bet number\n         *  _start_time: uint, start time\n         *  _end_time: uint, end time\n         *  _winnerAddr: winner's address\n         *  _winnerName: winner's username\n         */\n        gameHistory[currentGameID] = GameHistory({\n            gameID: _gameID,\n            player1: _player1,\n            player2: _player2,\n            playerName1: _playerName1,\n            playerName2: _playerName2,\n            number1: _number1,\n            number2: _number2,\n            start_time: _start_time,\n            end_time: _end_time,\n            winnerAddr: _winnerAddr,\n            winnerName: _winnerName\n        });\n\n        accounts[_player1].myGames.push(currentGameID);\n        accounts[_player2].myGames.push(currentGameID);\n        banker.gameIDs.push(currentGameID);\n        currentGameID += 1;\n\n        for (uint i = firstGameID; i <= currentGameID; i++){\n            if(gameHistory[i].start_time + 24 hours < now){\n                delete gameHistory[i];\n                firstGameID += 1;\n            }\n        }\n\n    }\n    \n}\n",
  "sourcePath": "/home/taliyah/coinflipping/contracts/CoinFlipping.sol",
  "compiler": {
    "name": "solc",
    "version": "0.5.16+commit.9c3226ce.Emscripten.clang"
  },
  "schemaVersion": "3.1.0",
  "updatedAt": "2020-04-27T08:49:14.715Z",
  "networkType": "ethereum",
  "devdoc": {
    "methods": {}
  },
  "userdoc": {
    "methods": {
      "constructor": "* constructor **",
      "create(string,address)": {
        "notice": "* functions **"
      },
      "getOngoing()": {
        "notice": "view *"
      },
      "query()": {
        "notice": "view *"
      },
      "withdrawByBanker(uint256)": {
        "notice": "public *"
      }
    }
  }
}