{
  "contractName": "CoinFlipping",
  "abi": [
    {
      "inputs": [],
      "payable": false,
      "stateMutability": "nonpayable",
      "type": "constructor"
    },
    {
      "constant": true,
      "inputs": [
        {
          "internalType": "uint256",
          "name": "i",
          "type": "uint256"
        }
      ],
      "name": "checkRecords",
      "outputs": [
        {
          "internalType": "uint256",
          "name": "",
          "type": "uint256"
        },
        {
          "internalType": "string",
          "name": "",
          "type": "string"
        },
        {
          "internalType": "string",
          "name": "",
          "type": "string"
        },
        {
          "internalType": "uint256",
          "name": "",
          "type": "uint256"
        },
        {
          "internalType": "uint256",
          "name": "",
          "type": "uint256"
        }
      ],
      "payable": false,
      "stateMutability": "view",
      "type": "function"
    },
    {
      "constant": false,
      "inputs": [
        {
          "internalType": "string",
          "name": "_username",
          "type": "string"
        },
        {
          "internalType": "address payable",
          "name": "_addr",
          "type": "address"
        }
      ],
      "name": "create",
      "outputs": [],
      "payable": true,
      "stateMutability": "payable",
      "type": "function"
    },
    {
      "constant": false,
      "inputs": [],
      "name": "deposit",
      "outputs": [],
      "payable": true,
      "stateMutability": "payable",
      "type": "function"
    },
    {
      "constant": true,
      "inputs": [],
      "name": "getRecordIDs",
      "outputs": [
        {
          "internalType": "uint256[]",
          "name": "",
          "type": "uint256[]"
        }
      ],
      "payable": false,
      "stateMutability": "view",
      "type": "function"
    },
    {
      "constant": true,
      "inputs": [
        {
          "internalType": "address",
          "name": "",
          "type": "address"
        }
      ],
      "name": "mapPlayers",
      "outputs": [
        {
          "internalType": "address payable",
          "name": "addr",
          "type": "address"
        },
        {
          "internalType": "uint256",
          "name": "number",
          "type": "uint256"
        },
        {
          "internalType": "uint256",
          "name": "salt",
          "type": "uint256"
        },
        {
          "internalType": "bytes32",
          "name": "hashNumber",
          "type": "bytes32"
        },
        {
          "internalType": "bool",
          "name": "valid",
          "type": "bool"
        }
      ],
      "payable": false,
      "stateMutability": "view",
      "type": "function"
    },
    {
      "constant": true,
      "inputs": [],
      "name": "query",
      "outputs": [
        {
          "internalType": "string",
          "name": "",
          "type": "string"
        },
        {
          "internalType": "uint256",
          "name": "",
          "type": "uint256"
        }
      ],
      "payable": false,
      "stateMutability": "view",
      "type": "function"
    },
    {
      "constant": false,
      "inputs": [
        {
          "internalType": "address payable",
          "name": "to",
          "type": "address"
        },
        {
          "internalType": "uint256",
          "name": "amount",
          "type": "uint256"
        }
      ],
      "name": "transferByAddr",
      "outputs": [],
      "payable": true,
      "stateMutability": "payable",
      "type": "function"
    },
    {
      "constant": false,
      "inputs": [
        {
          "internalType": "string",
          "name": "to",
          "type": "string"
        },
        {
          "internalType": "uint256",
          "name": "amount",
          "type": "uint256"
        }
      ],
      "name": "transferByName",
      "outputs": [],
      "payable": true,
      "stateMutability": "payable",
      "type": "function"
    },
    {
      "constant": false,
      "inputs": [
        {
          "internalType": "uint256",
          "name": "amount",
          "type": "uint256"
        }
      ],
      "name": "withdraw",
      "outputs": [],
      "payable": true,
      "stateMutability": "payable",
      "type": "function"
    },
    {
      "constant": false,
      "inputs": [
        {
          "internalType": "uint256",
          "name": "amount",
          "type": "uint256"
        }
      ],
      "name": "withdrawByBanker",
      "outputs": [],
      "payable": true,
      "stateMutability": "payable",
      "type": "function"
    },
    {
      "constant": false,
      "inputs": [],
      "name": "joinGame",
      "outputs": [],
      "payable": false,
      "stateMutability": "nonpayable",
      "type": "function"
    },
    {
      "constant": false,
      "inputs": [
        {
          "internalType": "bytes32",
          "name": "_hashNumber",
          "type": "bytes32"
        }
      ],
      "name": "sendHash",
      "outputs": [],
      "payable": false,
      "stateMutability": "nonpayable",
      "type": "function"
    },
    {
      "constant": false,
      "inputs": [
        {
          "internalType": "uint256",
          "name": "_number",
          "type": "uint256"
        },
        {
          "internalType": "uint256",
          "name": "_salt",
          "type": "uint256"
        }
      ],
      "name": "sendNumber",
      "outputs": [],
      "payable": false,
      "stateMutability": "nonpayable",
      "type": "function"
    },
    {
      "constant": false,
      "inputs": [],
      "name": "startGame",
      "outputs": [],
      "payable": false,
      "stateMutability": "nonpayable",
      "type": "function"
    },
    {
      "constant": false,
      "inputs": [],
      "name": "checkWinner",
      "outputs": [],
      "payable": false,
      "stateMutability": "nonpayable",
      "type": "function"
    },
    {
      "constant": false,
      "inputs": [],
      "name": "clear",
      "outputs": [],
      "payable": false,
      "stateMutability": "nonpayable",
      "type": "function"
    },
    {
      "constant": true,
      "inputs": [],
      "name": "getOngoing",
      "outputs": [
        {
          "internalType": "bool",
          "name": "",
          "type": "bool"
        }
      ],
      "payable": false,
      "stateMutability": "view",
      "type": "function"
    },
    {
      "constant": true,
      "inputs": [],
      "name": "getPlayers",
      "outputs": [
        {
          "internalType": "address payable",
          "name": "",
          "type": "address"
        },
        {
          "internalType": "address payable",
          "name": "",
          "type": "address"
        },
        {
          "internalType": "string",
          "name": "",
          "type": "string"
        },
        {
          "internalType": "string",
          "name": "",
          "type": "string"
        }
      ],
      "payable": false,
      "stateMutability": "view",
      "type": "function"
    },
    {
      "constant": true,
      "inputs": [],
      "name": "queryByBanker",
      "outputs": [
        {
          "internalType": "string",
          "name": "",
          "type": "string"
        },
        {
          "internalType": "uint256",
          "name": "",
          "type": "uint256"
        }
      ],
      "payable": false,
      "stateMutability": "view",
      "type": "function"
    },
    {
      "constant": true,
      "inputs": [],
      "name": "playerGetWinner",
      "outputs": [
        {
          "internalType": "bool",
          "name": "",
          "type": "bool"
        }
      ],
      "payable": false,
      "stateMutability": "view",
      "type": "function"
    },
    {
      "constant": true,
      "inputs": [],
      "name": "getWinner",
      "outputs": [
        {
          "internalType": "string",
          "name": "",
          "type": "string"
        }
      ],
      "payable": false,
      "stateMutability": "view",
      "type": "function"
    },
    {
      "constant": true,
      "inputs": [],
      "name": "getGameIDs",
      "outputs": [
        {
          "internalType": "uint256[]",
          "name": "",
          "type": "uint256[]"
        }
      ],
      "payable": false,
      "stateMutability": "view",
      "type": "function"
    },
    {
      "constant": true,
      "inputs": [
        {
          "internalType": "uint256",
          "name": "i",
          "type": "uint256"
        }
      ],
      "name": "checkHistory",
      "outputs": [
        {
          "internalType": "uint256",
          "name": "",
          "type": "uint256"
        },
        {
          "internalType": "string",
          "name": "",
          "type": "string"
        },
        {
          "internalType": "string",
          "name": "",
          "type": "string"
        },
        {
          "internalType": "uint256",
          "name": "",
          "type": "uint256"
        },
        {
          "internalType": "uint256",
          "name": "",
          "type": "uint256"
        },
        {
          "internalType": "uint256",
          "name": "",
          "type": "uint256"
        },
        {
          "internalType": "string",
          "name": "",
          "type": "string"
        }
      ],
      "payable": false,
      "stateMutability": "view",
      "type": "function"
    },
    {
      "constant": true,
      "inputs": [],
      "name": "whoAmI",
      "outputs": [
        {
          "internalType": "uint256",
          "name": "",
          "type": "uint256"
        }
      ],
      "payable": false,
      "stateMutability": "view",
      "type": "function"
    }
  ],
  "bytecode": "0x60806040523480156200001157600080fd5b50600160008190555060018081905550600160068190555062000039620000e860201b60201c565b73e29dec2ffcf4d0a61ed9983ed5369e0eeb4a4708601160000160006101000a81548173ffffffffffffffffffffffffffffffffffffffff021916908373ffffffffffffffffffffffffffffffffffffffff1602179055506040518060400160405280600681526020017f42414e4b4552000000000000000000000000000000000000000000000000000081525060116001019080519060200190620000e192919062000210565b5062000346565b6040518061012001604052806000815260200160008152602001670de0b6b3a76400008152602001603c8152602001600081526020016000815260200160008152602001600073ffffffffffffffffffffffffffffffffffffffff168152602001604051806020016040528060008152508152506007600082015181600001556020820151816001015560408201518160020155606082015181600301556080820151816004015560a0820151816005015560c0820151816006015560e08201518160070160006101000a81548173ffffffffffffffffffffffffffffffffffffffff021916908373ffffffffffffffffffffffffffffffffffffffff1602179055506101008201518160080190805190602001906200020a92919062000297565b50905050565b828054600181600116156101000203166002900490600052602060002090601f016020900481019282601f106200025357805160ff191683800117855562000284565b8280016001018555821562000284579182015b828111156200028357825182559160200191906001019062000266565b5b5090506200029391906200031e565b5090565b828054600181600116156101000203166002900490600052602060002090601f016020900481019282601f10620002da57805160ff19168380011785556200030b565b828001600101855582156200030b579182015b828111156200030a578251825591602001919060010190620002ed565b5b5090506200031a91906200031e565b5090565b6200034391905b808211156200033f57600081600090555060010162000325565b5090565b90565b61558f80620003566000396000f3fe60806040526004361061014b5760003560e01c80638e7ea5b2116100b6578063d553622c1161006f578063d553622c14610406578063d65ab5f214610431578063da91254c14610448578063e060517614610473578063e639f9911461049c578063ee6dd9fa146104b85761014b565b80638e7ea5b21461035c5780639c5872e314610387578063ad38867e146103a3578063b322519d146103ba578063d0e30db0146103e5578063d4f77b1c146103ef5761014b565b806352efea6e1161010857806352efea6e1461025d578063663dd36c146102745780636b500f55146102b557806384b47b0f146102f6578063881ab2dd146103125780638b5b9ccc1461032e5761014b565b80632115be1b1461015057806324f363b0146101935780632c46b205146101be5780632e1a7d4d146101ea57806347828306146102065780634ec4b6c614610231575b600080fd5b34801561015c57600080fd5b5061017760048036036101729190810190614884565b6104e1565b60405161018a97969594939291906152f2565b60405180910390f35b34801561019f57600080fd5b506101a8610762565b6040516101b59190615009565b60405180910390f35b3480156101ca57600080fd5b506101d3610815565b6040516101e1929190615046565b60405180910390f35b61020460048036036101ff9190810190614884565b6109d1565b005b34801561021257600080fd5b5061021b610c69565b6040516102289190614fe7565b60405180910390f35b34801561023d57600080fd5b50610246610d01565b604051610254929190615046565b60405180910390f35b34801561026957600080fd5b50610272610e47565b005b34801561028057600080fd5b5061029b60048036036102969190810190614884565b6113c7565b6040516102ac959493929190615291565b60405180910390f35b3480156102c157600080fd5b506102dc60048036036102d7919081019061474e565b611575565b6040516102ed959493929190614f94565b60405180910390f35b610310600480360361030b91908101906147dc565b6115d8565b005b61032c60048036036103279190810190614777565b6118af565b005b34801561033a57600080fd5b50610343611c86565b6040516103539493929190614f41565b60405180910390f35b34801561036857600080fd5b50610371611f14565b60405161037e9190615024565b60405180910390f35b6103a1600480360361039c9190810190614884565b612151565b005b3480156103af57600080fd5b506103b86122ae565b005b3480156103c657600080fd5b506103cf612a19565b6040516103dc9190615009565b60405180910390f35b6103ed612a29565b005b3480156103fb57600080fd5b50610404612c28565b005b34801561041257600080fd5b5061041b612f46565b6040516104289190614fe7565b60405180910390f35b34801561043d57600080fd5b50610446613093565b005b34801561045457600080fd5b5061045d6132a6565b60405161046a9190615276565b60405180910390f35b34801561047f57600080fd5b5061049a600480360361049591908101906148ad565b613370565b005b6104b660048036036104b19190810190614830565b613568565b005b3480156104c457600080fd5b506104df60048036036104da91908101906147b3565b61391f565b005b60006060806000806000606087601060008a8152602001908152602001600020600301601060008b8152602001908152602001600020600401601060008c815260200190815260200160002060050154601060008d815260200190815260200160002060060154601060008e815260200190815260200160002060070154601060008f8152602001908152602001600020600a01858054600181600116156101000203166002900480601f01602080910402602001604051908101604052809291908181526020018280546001816001161561010002031660029004801561060a5780601f106105df5761010080835404028352916020019161060a565b820191906000526020600020905b8154815290600101906020018083116105ed57829003601f168201915b50505050509550848054600181600116156101000203166002900480601f0160208091040260200160405190810160405280929190818152602001828054600181600116156101000203166002900480156106a65780601f1061067b576101008083540402835291602001916106a6565b820191906000526020600020905b81548152906001019060200180831161068957829003601f168201915b50505050509450808054600181600116156101000203166002900480601f0160208091040260200160405190810160405280929190818152602001828054600181600116156101000203166002900480156107425780601f1061071757610100808354040283529160200191610742565b820191906000526020600020905b81548152906001019060200180831161072557829003601f168201915b505050505090509650965096509650965096509650919395979092949650565b60006002600760000154146107ac576040517f08c379a00000000000000000000000000000000000000000000000000000000081526004016107a390615116565b60405180910390fd5b3373ffffffffffffffffffffffffffffffffffffffff166007800160009054906101000a900473ffffffffffffffffffffffffffffffffffffffff1673ffffffffffffffffffffffffffffffffffffffff16141561080d5760019050610812565b600090505b90565b60606000600260003373ffffffffffffffffffffffffffffffffffffffff1673ffffffffffffffffffffffffffffffffffffffff16815260200190815260200160002060030160009054906101000a900460ff166108a8576040517f08c379a000000000000000000000000000000000000000000000000000000000815260040161089f90615216565b60405180910390fd5b600260003373ffffffffffffffffffffffffffffffffffffffff1673ffffffffffffffffffffffffffffffffffffffff168152602001908152602001600020600001600260003373ffffffffffffffffffffffffffffffffffffffff1673ffffffffffffffffffffffffffffffffffffffff16815260200190815260200160002060020154818054600181600116156101000203166002900480601f0160208091040260200160405190810160405280929190818152602001828054600181600116156101000203166002900480156109c25780601f10610997576101008083540402835291602001916109c2565b820191906000526020600020905b8154815290600101906020018083116109a557829003601f168201915b50505050509150915091509091565b600260003373ffffffffffffffffffffffffffffffffffffffff1673ffffffffffffffffffffffffffffffffffffffff16815260200190815260200160002060030160009054906101000a900460ff16610a60576040517f08c379a0000000000000000000000000000000000000000000000000000000008152600401610a5790615216565b60405180910390fd5b8080600260003373ffffffffffffffffffffffffffffffffffffffff1673ffffffffffffffffffffffffffffffffffffffff168152602001908152602001600020600201541015610ab057600080fd5b3373ffffffffffffffffffffffffffffffffffffffff166108fc839081150290604051600060405180830381858888f19350505050158015610af6573d6000803e3d6000fd5b5081600260003373ffffffffffffffffffffffffffffffffffffffff1673ffffffffffffffffffffffffffffffffffffffff16815260200190815260200160002060020160008282540392505081905550610c65336000600260003373ffffffffffffffffffffffffffffffffffffffff1673ffffffffffffffffffffffffffffffffffffffff1681526020019081526020016000206000018054600181600116156101000203166002900480601f016020809104026020016040519081016040528092919081815260200182805460018160011615610100020316600290048015610c235780601f10610bf857610100808354040283529160200191610c23565b820191906000526020600020905b815481529060010190602001808311610c0657829003601f168201915b50505050506040518060400160405280600f81526020017f65787465726e616c2077616c6c657400000000000000000000000000000000008152508642613acf565b5050565b6060600260003373ffffffffffffffffffffffffffffffffffffffff1673ffffffffffffffffffffffffffffffffffffffff168152602001908152602001600020600401805480602002602001604051908101604052809291908181526020018280548015610cf757602002820191906000526020600020905b815481526020019060010190808311610ce3575b5050505050905090565b60606000601160000160009054906101000a900473ffffffffffffffffffffffffffffffffffffffff1673ffffffffffffffffffffffffffffffffffffffff163373ffffffffffffffffffffffffffffffffffffffff1614610d98576040517f08c379a0000000000000000000000000000000000000000000000000000000008152600401610d8f906150f6565b60405180910390fd5b6011600101601160020154818054600181600116156101000203166002900480601f016020809104026020016040519081016040528092919081815260200182805460018160011615610100020316600290048015610e385780601f10610e0d57610100808354040283529160200191610e38565b820191906000526020600020905b815481529060010190602001808311610e1b57829003601f168201915b50505050509150915091509091565b600260076000015414610e8f576040517f08c379a0000000000000000000000000000000000000000000000000000000008152600401610e8690615116565b60405180910390fd5b601160000160009054906101000a900473ffffffffffffffffffffffffffffffffffffffff1673ffffffffffffffffffffffffffffffffffffffff163373ffffffffffffffffffffffffffffffffffffffff1614610f22576040517f08c379a0000000000000000000000000000000000000000000000000000000008152600401610f19906150f6565b60405180910390fd5b6113b56006546015600060028110610f3657fe5b0160009054906101000a900473ffffffffffffffffffffffffffffffffffffffff166015600160028110610f6657fe5b0160009054906101000a900473ffffffffffffffffffffffffffffffffffffffff16600260006015600060028110610f9a57fe5b0160009054906101000a900473ffffffffffffffffffffffffffffffffffffffff1673ffffffffffffffffffffffffffffffffffffffff1673ffffffffffffffffffffffffffffffffffffffff1681526020019081526020016000206000018054600181600116156101000203166002900480601f01602080910402602001604051908101604052809291908181526020018280546001816001161561010002031660029004801561108d5780601f106110625761010080835404028352916020019161108d565b820191906000526020600020905b81548152906001019060200180831161107057829003601f168201915b50505050506002600060156001600281106110a457fe5b0160009054906101000a900473ffffffffffffffffffffffffffffffffffffffff1673ffffffffffffffffffffffffffffffffffffffff1673ffffffffffffffffffffffffffffffffffffffff1681526020019081526020016000206000018054600181600116156101000203166002900480601f0160208091040260200160405190810160405280929190818152602001828054600181600116156101000203166002900480156111975780601f1061116c57610100808354040283529160200191611197565b820191906000526020600020905b81548152906001019060200180831161117a57829003601f168201915b50505050506017600060156000600281106111ae57fe5b0160009054906101000a900473ffffffffffffffffffffffffffffffffffffffff1673ffffffffffffffffffffffffffffffffffffffff1673ffffffffffffffffffffffffffffffffffffffff1681526020019081526020016000206001015460176000601560016002811061122057fe5b0160009054906101000a900473ffffffffffffffffffffffffffffffffffffffff1673ffffffffffffffffffffffffffffffffffffffff1673ffffffffffffffffffffffffffffffffffffffff168152602001908152602001600020600101546007600501546007600601546007800160009054906101000a900473ffffffffffffffffffffffffffffffffffffffff16600260006007800160009054906101000a900473ffffffffffffffffffffffffffffffffffffffff1673ffffffffffffffffffffffffffffffffffffffff1673ffffffffffffffffffffffffffffffffffffffff1681526020019081526020016000206000018054600181600116156101000203166002900480601f0160208091040260200160405190810160405280929190818152602001828054600181600116156101000203166002900480156113ab5780601f10611380576101008083540402835291602001916113ab565b820191906000526020600020905b81548152906001019060200180831161138e57829003601f168201915b5050505050613df6565b6113bd61425f565b6113c561435d565b565b6000606080600080856004600088815260200190815260200160002060020160046000898152602001908152602001600020600301600460008a815260200190815260200160002060040154600460008b815260200190815260200160002060050154838054600181600116156101000203166002900480601f0160208091040260200160405190810160405280929190818152602001828054600181600116156101000203166002900480156114bf5780601f10611494576101008083540402835291602001916114bf565b820191906000526020600020905b8154815290600101906020018083116114a257829003601f168201915b50505050509350828054600181600116156101000203166002900480601f01602080910402602001604051908101604052809291908181526020018280546001816001161561010002031660029004801561155b5780601f106115305761010080835404028352916020019161155b565b820191906000526020600020905b81548152906001019060200180831161153e57829003601f168201915b505050505092509450945094509450945091939590929450565b60176020528060005260406000206000915090508060000160009054906101000a900473ffffffffffffffffffffffffffffffffffffffff16908060010154908060020154908060030154908060040160009054906101000a900460ff16905085565b60001515600260008373ffffffffffffffffffffffffffffffffffffffff1673ffffffffffffffffffffffffffffffffffffffff16815260200190815260200160002060030160009054906101000a900460ff1615151461166e576040517f08c379a0000000000000000000000000000000000000000000000000000000008152600401611665906151d6565b60405180910390fd5b600073ffffffffffffffffffffffffffffffffffffffff166003836040516116969190614f0f565b908152602001604051809103902060009054906101000a900473ffffffffffffffffffffffffffffffffffffffff1673ffffffffffffffffffffffffffffffffffffffff161461171b576040517f08c379a0000000000000000000000000000000000000000000000000000000008152600401611712906151f6565b60405180910390fd5b81600260008373ffffffffffffffffffffffffffffffffffffffff1673ffffffffffffffffffffffffffffffffffffffff1681526020019081526020016000206000019080519060200190611771929190614483565b5080600260008373ffffffffffffffffffffffffffffffffffffffff1673ffffffffffffffffffffffffffffffffffffffff16815260200190815260200160002060010160006101000a81548173ffffffffffffffffffffffffffffffffffffffff021916908373ffffffffffffffffffffffffffffffffffffffff1602179055506001600260008373ffffffffffffffffffffffffffffffffffffffff1673ffffffffffffffffffffffffffffffffffffffff16815260200190815260200160002060030160006101000a81548160ff0219169083151502179055508060038360405161185f9190614f0f565b908152602001604051809103902060006101000a81548173ffffffffffffffffffffffffffffffffffffffff021916908373ffffffffffffffffffffffffffffffffffffffff1602179055505050565b600260003373ffffffffffffffffffffffffffffffffffffffff1673ffffffffffffffffffffffffffffffffffffffff16815260200190815260200160002060030160009054906101000a900460ff1661193e576040517f08c379a000000000000000000000000000000000000000000000000000000000815260040161193590615216565b60405180910390fd5b81600260008273ffffffffffffffffffffffffffffffffffffffff1673ffffffffffffffffffffffffffffffffffffffff16815260200190815260200160002060030160009054906101000a900460ff166119ce576040517f08c379a00000000000000000000000000000000000000000000000000000000081526004016119c5906150b6565b60405180910390fd5b8180600260003373ffffffffffffffffffffffffffffffffffffffff1673ffffffffffffffffffffffffffffffffffffffff168152602001908152602001600020600201541015611a1e57600080fd5b82600260008673ffffffffffffffffffffffffffffffffffffffff1673ffffffffffffffffffffffffffffffffffffffff1681526020019081526020016000206002016000828254019250508190555082600260003373ffffffffffffffffffffffffffffffffffffffff1673ffffffffffffffffffffffffffffffffffffffff16815260200190815260200160002060020160008282540392505081905550611c803385600260003373ffffffffffffffffffffffffffffffffffffffff1673ffffffffffffffffffffffffffffffffffffffff1681526020019081526020016000206000018054600181600116156101000203166002900480601f016020809104026020016040519081016040528092919081815260200182805460018160011615610100020316600290048015611b995780601f10611b6e57610100808354040283529160200191611b99565b820191906000526020600020905b815481529060010190602001808311611b7c57829003601f168201915b5050505050600260008973ffffffffffffffffffffffffffffffffffffffff1673ffffffffffffffffffffffffffffffffffffffff1681526020019081526020016000206000018054600181600116156101000203166002900480601f016020809104026020016040519081016040528092919081815260200182805460018160011615610100020316600290048015611c745780601f10611c4957610100808354040283529160200191611c74565b820191906000526020600020905b815481529060010190602001808311611c5757829003601f168201915b50505050508742613acf565b50505050565b6000806060806015600060028110611c9a57fe5b0160009054906101000a900473ffffffffffffffffffffffffffffffffffffffff166015600160028110611cca57fe5b0160009054906101000a900473ffffffffffffffffffffffffffffffffffffffff16600260006015600060028110611cfe57fe5b0160009054906101000a900473ffffffffffffffffffffffffffffffffffffffff1673ffffffffffffffffffffffffffffffffffffffff1673ffffffffffffffffffffffffffffffffffffffff168152602001908152602001600020600001600260006015600160028110611d6f57fe5b0160009054906101000a900473ffffffffffffffffffffffffffffffffffffffff1673ffffffffffffffffffffffffffffffffffffffff1673ffffffffffffffffffffffffffffffffffffffff168152602001908152602001600020600001818054600181600116156101000203166002900480601f016020809104026020016040519081016040528092919081815260200182805460018160011615610100020316600290048015611e635780601f10611e3857610100808354040283529160200191611e63565b820191906000526020600020905b815481529060010190602001808311611e4657829003601f168201915b50505050509150808054600181600116156101000203166002900480601f016020809104026020016040519081016040528092919081815260200182805460018160011615610100020316600290048015611eff5780601f10611ed457610100808354040283529160200191611eff565b820191906000526020600020905b815481529060010190602001808311611ee257829003601f168201915b50505050509050935093509350935090919293565b6060600260076000015414611f5e576040517f08c379a0000000000000000000000000000000000000000000000000000000008152600401611f5590615116565b60405180910390fd5b601160000160009054906101000a900473ffffffffffffffffffffffffffffffffffffffff1673ffffffffffffffffffffffffffffffffffffffff166007800160009054906101000a900473ffffffffffffffffffffffffffffffffffffffff1673ffffffffffffffffffffffffffffffffffffffff161415612018576040518060400160405280601781526020017f416c6c206368656174656421204e6f2057696e6e657221000000000000000000815250905061214e565b600073ffffffffffffffffffffffffffffffffffffffff166007800160009054906101000a900473ffffffffffffffffffffffffffffffffffffffff1673ffffffffffffffffffffffffffffffffffffffff16146121155760076008018054600181600116156101000203166002900480601f0160208091040260200160405190810160405280929190818152602001828054600181600116156101000203166002900480156121095780601f106120de57610100808354040283529160200191612109565b820191906000526020600020905b8154815290600101906020018083116120ec57829003601f168201915b5050505050905061214e565b6040518060400160405280601081526020017f4e6f7420636865636b656420796574210000000000000000000000000000000081525090505b90565b601160000160009054906101000a900473ffffffffffffffffffffffffffffffffffffffff1673ffffffffffffffffffffffffffffffffffffffff163373ffffffffffffffffffffffffffffffffffffffff16146121e4576040517f08c379a00000000000000000000000000000000000000000000000000000000081526004016121db906150f6565b60405180910390fd5b80601160020154101561222c576040517f08c379a0000000000000000000000000000000000000000000000000000000008152600401612223906151b6565b60405180910390fd5b601160000160009054906101000a900473ffffffffffffffffffffffffffffffffffffffff1673ffffffffffffffffffffffffffffffffffffffff166108fc829081150290604051600060405180830381858888f19350505050158015612297573d6000803e3d6000fd5b508060116002016000828254039250508190555050565b60076006015442116122f5576040517f08c379a00000000000000000000000000000000000000000000000000000000081526004016122ec90615096565b60405180910390fd5b60026007600101541461233d576040517f08c379a000000000000000000000000000000000000000000000000000000000815260040161233490615136565b60405180910390fd5b601160000160009054906101000a900473ffffffffffffffffffffffffffffffffffffffff1673ffffffffffffffffffffffffffffffffffffffff163373ffffffffffffffffffffffffffffffffffffffff16146123d0576040517f08c379a00000000000000000000000000000000000000000000000000000000081526004016123c7906150f6565b60405180910390fd5b600260076000015414156123e357612a17565b600260076000018190555060008090505b60076001015481101561262357601760006015836002811061241257fe5b0160009054906101000a900473ffffffffffffffffffffffffffffffffffffffff1673ffffffffffffffffffffffffffffffffffffffff1673ffffffffffffffffffffffffffffffffffffffff16815260200190815260200160002060020154601760006015846002811061248357fe5b0160009054906101000a900473ffffffffffffffffffffffffffffffffffffffff1673ffffffffffffffffffffffffffffffffffffffff1673ffffffffffffffffffffffffffffffffffffffff16815260200190815260200160002060010154016040516020016124f49190614f26565b60405160208183030381529060405280519060200120601760006015846002811061251b57fe5b0160009054906101000a900473ffffffffffffffffffffffffffffffffffffffff1673ffffffffffffffffffffffffffffffffffffffff1673ffffffffffffffffffffffffffffffffffffffff1681526020019081526020016000206003015414156126165760186015826002811061259057fe5b0160009054906101000a900473ffffffffffffffffffffffffffffffffffffffff1690806001815401808255809150509060018203906000526020600020016000909192909190916101000a81548173ffffffffffffffffffffffffffffffffffffffff021916908373ffffffffffffffffffffffffffffffffffffffff160217905550505b80806001019150506123f4565b506000601880549050111561276757600080905060008090505b6018805490508110156126d557601760006018838154811061265b57fe5b9060005260206000200160009054906101000a900473ffffffffffffffffffffffffffffffffffffffff1673ffffffffffffffffffffffffffffffffffffffff1673ffffffffffffffffffffffffffffffffffffffff1681526020019081526020016000206001015482019150808060010191505061263d565b5060188054905081816126e457fe5b069050601881815481106126f457fe5b9060005260206000200160009054906101000a900473ffffffffffffffffffffffffffffffffffffffff166007800160006101000a81548173ffffffffffffffffffffffffffffffffffffffff021916908373ffffffffffffffffffffffffffffffffffffffff160217905550506127d0565b601160000160009054906101000a900473ffffffffffffffffffffffffffffffffffffffff166007800160006101000a81548173ffffffffffffffffffffffffffffffffffffffff021916908373ffffffffffffffffffffffffffffffffffffffff1602179055505b601160000160009054906101000a900473ffffffffffffffffffffffffffffffffffffffff1673ffffffffffffffffffffffffffffffffffffffff163373ffffffffffffffffffffffffffffffffffffffff1614801561283557506000600760040154115b1561298b57601160000160009054906101000a900473ffffffffffffffffffffffffffffffffffffffff1673ffffffffffffffffffffffffffffffffffffffff166007800160009054906101000a900473ffffffffffffffffffffffffffffffffffffffff1673ffffffffffffffffffffffffffffffffffffffff1614612966576064605f60076004015402816128c857fe5b04600260006007800160009054906101000a900473ffffffffffffffffffffffffffffffffffffffff1673ffffffffffffffffffffffffffffffffffffffff1673ffffffffffffffffffffffffffffffffffffffff1681526020019081526020016000206002016000828254019250508190555060646005600760040154028161294e57fe5b0460116002016000828254019250508190555061297f565b6007600401546011600201600082825401925050819055505b60006007600401819055505b600260006007800160009054906101000a900473ffffffffffffffffffffffffffffffffffffffff1673ffffffffffffffffffffffffffffffffffffffff1673ffffffffffffffffffffffffffffffffffffffff16815260200190815260200160002060000160076008019080546001816001161561010002031660029004612a15929190614503565b505b565b6000600160076000015414905090565b600260003373ffffffffffffffffffffffffffffffffffffffff1673ffffffffffffffffffffffffffffffffffffffff16815260200190815260200160002060030160009054906101000a900460ff16612ab8576040517f08c379a0000000000000000000000000000000000000000000000000000000008152600401612aaf90615216565b60405180910390fd5b34600260003373ffffffffffffffffffffffffffffffffffffffff1673ffffffffffffffffffffffffffffffffffffffff16815260200190815260200160002060020160008282540192505081905550612c263360006040518060400160405280600f81526020017f65787465726e616c2077616c6c65740000000000000000000000000000000000815250600260003373ffffffffffffffffffffffffffffffffffffffff1673ffffffffffffffffffffffffffffffffffffffff1681526020019081526020016000206000018054600181600116156101000203166002900480601f016020809104026020016040519081016040528092919081815260200182805460018160011615610100020316600290048015612c1a5780601f10612bef57610100808354040283529160200191612c1a565b820191906000526020600020905b815481529060010190602001808311612bfd57829003601f168201915b50505050503442613acf565b565b600060076000015414612c70576040517f08c379a0000000000000000000000000000000000000000000000000000000008152600401612c6790615256565b60405180910390fd5b600260076001015410612cb8576040517f08c379a0000000000000000000000000000000000000000000000000000000008152600401612caf90615076565b60405180910390fd5b600760020154600260003373ffffffffffffffffffffffffffffffffffffffff1673ffffffffffffffffffffffffffffffffffffffff168152602001908152602001600020600201541015612d42576040517f08c379a0000000000000000000000000000000000000000000000000000000008152600401612d3990615156565b60405180910390fd5b601760003373ffffffffffffffffffffffffffffffffffffffff1673ffffffffffffffffffffffffffffffffffffffff16815260200190815260200160002060040160009054906101000a900460ff1615612dd2576040517f08c379a0000000000000000000000000000000000000000000000000000000008152600401612dc990615176565b60405180910390fd5b33601560076001015460028110612de557fe5b0160006101000a81548173ffffffffffffffffffffffffffffffffffffffff021916908373ffffffffffffffffffffffffffffffffffffffff1602179055506040518060a001604052803373ffffffffffffffffffffffffffffffffffffffff16815260200160008152602001600081526020016000801b815260200160011515815250601760003373ffffffffffffffffffffffffffffffffffffffff1673ffffffffffffffffffffffffffffffffffffffff16815260200190815260200160002060008201518160000160006101000a81548173ffffffffffffffffffffffffffffffffffffffff021916908373ffffffffffffffffffffffffffffffffffffffff16021790555060208201518160010155604082015181600201556060820151816003015560808201518160040160006101000a81548160ff0219169083151502179055509050506001600760010160008282540192505081905550565b6060601160000160009054906101000a900473ffffffffffffffffffffffffffffffffffffffff1673ffffffffffffffffffffffffffffffffffffffff163373ffffffffffffffffffffffffffffffffffffffff161415612ffc576011600301805480602002602001604051908101604052809291908181526020018280548015612ff057602002820191906000526020600020905b815481526020019060010190808311612fdc575b50505050509050613090565b600260003373ffffffffffffffffffffffffffffffffffffffff1673ffffffffffffffffffffffffffffffffffffffff16815260200190815260200160002060050180548060200260200160405190810160405280929190818152602001828054801561308857602002820191906000526020600020905b815481526020019060010190808311613074575b505050505090505b90565b6000600760000154146130db576040517f08c379a00000000000000000000000000000000000000000000000000000000081526004016130d290615256565b60405180910390fd5b600260076001015414613123576040517f08c379a000000000000000000000000000000000000000000000000000000000815260040161311a90615136565b60405180910390fd5b601160000160009054906101000a900473ffffffffffffffffffffffffffffffffffffffff1673ffffffffffffffffffffffffffffffffffffffff163373ffffffffffffffffffffffffffffffffffffffff16146131b6576040517f08c379a00000000000000000000000000000000000000000000000000000000081526004016131ad906150f6565b60405180910390fd5b6001600760000181905550426007600501819055506007600301546007600501540160076006018190555060008090505b60076001015481101561328457600760020154600260006015846002811061320b57fe5b0160009054906101000a900473ffffffffffffffffffffffffffffffffffffffff1673ffffffffffffffffffffffffffffffffffffffff1673ffffffffffffffffffffffffffffffffffffffff1681526020019081526020016000206002016000828254039250508190555080806001019150506131e7565b5060076001015460076002015402600760040160008282540192505081905550565b60003373ffffffffffffffffffffffffffffffffffffffff16601160000160009054906101000a900473ffffffffffffffffffffffffffffffffffffffff1673ffffffffffffffffffffffffffffffffffffffff16141561330a576002905061336d565b600260003373ffffffffffffffffffffffffffffffffffffffff1673ffffffffffffffffffffffffffffffffffffffff16815260200190815260200160002060030160009054906101000a900460ff1615613368576001905061336d565b600090505b90565b6001600760000154146133b8576040517f08c379a00000000000000000000000000000000000000000000000000000000081526004016133af906150d6565b60405180910390fd5b60076006015442116133ff576040517f08c379a00000000000000000000000000000000000000000000000000000000081526004016133f690615096565b60405180910390fd5b600260076001015414613447576040517f08c379a000000000000000000000000000000000000000000000000000000000815260040161343e90615136565b60405180910390fd5b601760003373ffffffffffffffffffffffffffffffffffffffff1673ffffffffffffffffffffffffffffffffffffffff16815260200190815260200160002060040160009054906101000a900460ff166134d6576040517f08c379a00000000000000000000000000000000000000000000000000000000081526004016134cd90615236565b60405180910390fd5b81601760003373ffffffffffffffffffffffffffffffffffffffff1673ffffffffffffffffffffffffffffffffffffffff1681526020019081526020016000206001018190555080601760003373ffffffffffffffffffffffffffffffffffffffff1673ffffffffffffffffffffffffffffffffffffffff168152602001908152602001600020600201819055505050565b600260003373ffffffffffffffffffffffffffffffffffffffff1673ffffffffffffffffffffffffffffffffffffffff16815260200190815260200160002060030160009054906101000a900460ff166135f7576040517f08c379a00000000000000000000000000000000000000000000000000000000081526004016135ee90615216565b60405180910390fd5b6003826040516136079190614f0f565b908152602001604051809103902060009054906101000a900473ffffffffffffffffffffffffffffffffffffffff16600260008273ffffffffffffffffffffffffffffffffffffffff1673ffffffffffffffffffffffffffffffffffffffff16815260200190815260200160002060030160009054906101000a900460ff166136c5576040517f08c379a00000000000000000000000000000000000000000000000000000000081526004016136bc906150b6565b60405180910390fd5b8180600260003373ffffffffffffffffffffffffffffffffffffffff1673ffffffffffffffffffffffffffffffffffffffff16815260200190815260200160002060020154101561371557600080fd5b826002600060038760405161372a9190614f0f565b908152602001604051809103902060009054906101000a900473ffffffffffffffffffffffffffffffffffffffff1673ffffffffffffffffffffffffffffffffffffffff1673ffffffffffffffffffffffffffffffffffffffff1681526020019081526020016000206002016000828254019250508190555082600260003373ffffffffffffffffffffffffffffffffffffffff1673ffffffffffffffffffffffffffffffffffffffff16815260200190815260200160002060020160008282540392505081905550613919336003866040516138079190614f0f565b908152602001604051809103902060009054906101000a900473ffffffffffffffffffffffffffffffffffffffff16600260003373ffffffffffffffffffffffffffffffffffffffff1673ffffffffffffffffffffffffffffffffffffffff1681526020019081526020016000206000018054600181600116156101000203166002900480601f01602080910402602001604051908101604052809291908181526020018280546001816001161561010002031660029004801561390c5780601f106138e15761010080835404028352916020019161390c565b820191906000526020600020905b8154815290600101906020018083116138ef57829003601f168201915b5050505050878742613acf565b50505050565b600160076000015414613967576040517f08c379a000000000000000000000000000000000000000000000000000000000815260040161395e906150d6565b60405180910390fd5b60076006015442106139ae576040517f08c379a00000000000000000000000000000000000000000000000000000000081526004016139a590615196565b60405180910390fd5b6002600760010154146139f6576040517f08c379a00000000000000000000000000000000000000000000000000000000081526004016139ed90615136565b60405180910390fd5b601760003373ffffffffffffffffffffffffffffffffffffffff1673ffffffffffffffffffffffffffffffffffffffff16815260200190815260200160002060040160009054906101000a900460ff16613a85576040517f08c379a0000000000000000000000000000000000000000000000000000000008152600401613a7c90615236565b60405180910390fd5b80601760003373ffffffffffffffffffffffffffffffffffffffff1673ffffffffffffffffffffffffffffffffffffffff1681526020019081526020016000206003018190555050565b6040518060c001604052808773ffffffffffffffffffffffffffffffffffffffff1681526020018673ffffffffffffffffffffffffffffffffffffffff1681526020018581526020018481526020018381526020018281525060046000600154815260200190815260200160002060008201518160000160006101000a81548173ffffffffffffffffffffffffffffffffffffffff021916908373ffffffffffffffffffffffffffffffffffffffff16021790555060208201518160010160006101000a81548173ffffffffffffffffffffffffffffffffffffffff021916908373ffffffffffffffffffffffffffffffffffffffff1602179055506040820151816002019080519060200190613be792919061458a565b506060820151816003019080519060200190613c0492919061458a565b506080820151816004015560a08201518160050155905050600260008773ffffffffffffffffffffffffffffffffffffffff1673ffffffffffffffffffffffffffffffffffffffff1681526020019081526020016000206004016001549080600181540180825580915050906001820390600052602060002001600090919290919091505550600260008673ffffffffffffffffffffffffffffffffffffffff1673ffffffffffffffffffffffffffffffffffffffff1681526020019081526020016000206004016001549080600181540180825580915050906001820390600052602060002001600090919290919091505550600180600082825401925050819055506000805490505b6001548111613ded5742620151806004600084815260200190815260200160002060050154011015613de05760046000828152602001908152602001600020600080820160006101000a81549073ffffffffffffffffffffffffffffffffffffffff02191690556001820160006101000a81549073ffffffffffffffffffffffffffffffffffffffff0219169055600282016000613dad919061460a565b600382016000613dbd919061460a565b600482016000905560058201600090555050600160008082825401925050819055505b8080600101915050613d0f565b50505050505050565b6040518061016001604052808c81526020018b73ffffffffffffffffffffffffffffffffffffffff1681526020018a73ffffffffffffffffffffffffffffffffffffffff1681526020018981526020018881526020018781526020018681526020018581526020018481526020018373ffffffffffffffffffffffffffffffffffffffff168152602001828152506010600060065481526020019081526020016000206000820151816000015560208201518160010160006101000a81548173ffffffffffffffffffffffffffffffffffffffff021916908373ffffffffffffffffffffffffffffffffffffffff16021790555060408201518160020160006101000a81548173ffffffffffffffffffffffffffffffffffffffff021916908373ffffffffffffffffffffffffffffffffffffffff1602179055506060820151816003019080519060200190613f4d92919061458a565b506080820151816004019080519060200190613f6a92919061458a565b5060a0820151816005015560c0820151816006015560e0820151816007015561010082015181600801556101208201518160090160006101000a81548173ffffffffffffffffffffffffffffffffffffffff021916908373ffffffffffffffffffffffffffffffffffffffff16021790555061014082015181600a019080519060200190613ff992919061458a565b50905050600260008b73ffffffffffffffffffffffffffffffffffffffff1673ffffffffffffffffffffffffffffffffffffffff1681526020019081526020016000206005016006549080600181540180825580915050906001820390600052602060002001600090919290919091505550600260008a73ffffffffffffffffffffffffffffffffffffffff1673ffffffffffffffffffffffffffffffffffffffff1681526020019081526020016000206005016006549080600181540180825580915050906001820390600052602060002001600090919290919091505550601160030160065490806001815401808255809150509060018203906000526020600020016000909192909190915055506001600660008282540192505081905550600060055490505b6006548111614251574262015180601060008481526020019081526020016000206007015401101561424457601060008281526020019081526020016000206000808201600090556001820160006101000a81549073ffffffffffffffffffffffffffffffffffffffff02191690556002820160006101000a81549073ffffffffffffffffffffffffffffffffffffffff02191690556003820160006141c9919061460a565b6004820160006141d9919061460a565b60058201600090556006820160009055600782016000905560088201600090556009820160006101000a81549073ffffffffffffffffffffffffffffffffffffffff0219169055600a82016000614230919061460a565b505060016005600082825401925050819055505b8080600101915050614123565b505050505050505050505050565b60008090505b600281101561433e57601760006015836002811061427f57fe5b0160009054906101000a900473ffffffffffffffffffffffffffffffffffffffff1673ffffffffffffffffffffffffffffffffffffffff1673ffffffffffffffffffffffffffffffffffffffff168152602001908152602001600020600080820160006101000a81549073ffffffffffffffffffffffffffffffffffffffff02191690556001820160009055600282016000905560038201600090556004820160006101000a81549060ff021916905550508080600101915050614265565b506015600061434d9190614652565b6018600061435b9190614660565b565b6040518061012001604052806000815260200160008152602001670de0b6b3a76400008152602001603c8152602001600081526020016000815260200160008152602001600073ffffffffffffffffffffffffffffffffffffffff168152602001604051806020016040528060008152508152506007600082015181600001556020820151816001015560408201518160020155606082015181600301556080820151816004015560a0820151816005015560c0820151816006015560e08201518160070160006101000a81548173ffffffffffffffffffffffffffffffffffffffff021916908373ffffffffffffffffffffffffffffffffffffffff16021790555061010082015181600801908051906020019061447d92919061458a565b50905050565b828054600181600116156101000203166002900490600052602060002090601f016020900481019282601f106144c457805160ff19168380011785556144f2565b828001600101855582156144f2579182015b828111156144f15782518255916020019190600101906144d6565b5b5090506144ff9190614681565b5090565b828054600181600116156101000203166002900490600052602060002090601f016020900481019282601f1061453c5780548555614579565b8280016001018555821561457957600052602060002091601f016020900482015b8281111561457857825482559160010191906001019061455d565b5b5090506145869190614681565b5090565b828054600181600116156101000203166002900490600052602060002090601f016020900481019282601f106145cb57805160ff19168380011785556145f9565b828001600101855582156145f9579182015b828111156145f85782518255916020019190600101906145dd565b5b5090506146069190614681565b5090565b50805460018160011615610100020316600290046000825580601f10614630575061464f565b601f01602090049060005260206000209081019061464e9190614681565b5b50565b506000815560010160009055565b508054600082559060005260206000209081019061467e9190614681565b50565b6146a391905b8082111561469f576000816000905550600101614687565b5090565b90565b6000813590506146b5816154f0565b92915050565b6000813590506146ca81615507565b92915050565b6000813590506146df8161551e565b92915050565b600082601f8301126146f657600080fd5b8135614709614704826153a3565b615376565b9150808252602083016020830185838301111561472557600080fd5b614730838284615493565b50505092915050565b60008135905061474881615535565b92915050565b60006020828403121561476057600080fd5b600061476e848285016146a6565b91505092915050565b6000806040838503121561478a57600080fd5b6000614798858286016146bb565b92505060206147a985828601614739565b9150509250929050565b6000602082840312156147c557600080fd5b60006147d3848285016146d0565b91505092915050565b600080604083850312156147ef57600080fd5b600083013567ffffffffffffffff81111561480957600080fd5b614815858286016146e5565b9250506020614826858286016146bb565b9150509250929050565b6000806040838503121561484357600080fd5b600083013567ffffffffffffffff81111561485d57600080fd5b614869858286016146e5565b925050602061487a85828601614739565b9150509250929050565b60006020828403121561489657600080fd5b60006148a484828501614739565b91505092915050565b600080604083850312156148c057600080fd5b60006148ce85828601614739565b92505060206148df85828601614739565b9150509250929050565b60006148f58383614eda565b60208301905092915050565b61490a81615441565b82525050565b600061491b826153df565b6149258185615402565b9350614930836153cf565b8060005b8381101561496157815161494888826148e9565b9750614953836153f5565b925050600181019050614934565b5085935050505092915050565b61497781615453565b82525050565b6149868161545f565b82525050565b6000614997826153ea565b6149a18185615413565b93506149b18185602086016154a2565b6149ba816154df565b840191505092915050565b60006149d0826153ea565b6149da8185615424565b93506149ea8185602086016154a2565b80840191505092915050565b6000614a03601f83615413565b91507f4661696c65642120416c726561647920656e6f75676820706c617965727321006000830152602082019050919050565b6000614a43601483615413565b91507f4661696c656421204e6f742064756520796574210000000000000000000000006000830152602082019050919050565b6000614a83602c83615413565b91507f4661696c65642120546865207265636569766572206163636f756e7420646f6560008301527f6e732774206578697374732100000000000000000000000000000000000000006020830152604082019050919050565b6000614ae9601c83615413565b91507f4661696c6564212047616d65206973206e6f74206f6e676f696e6721000000006000830152602082019050919050565b6000614b29602583615413565b91507f4661696c656421204f6e6c792062616e6b657220616c6c6f77656420746f206460008301527f6f206974210000000000000000000000000000000000000000000000000000006020830152604082019050919050565b6000614b8f601b83615413565b91507f4661696c6564212047616d65206e6f7420656e646564207965742100000000006000830152602082019050919050565b6000614bcf601a83615413565b91507f4661696c656421204e6f20656e6f75676820706c6179657273210000000000006000830152602082019050919050565b6000614c0f602083615413565b91507f4661696c65642120596f752068617665206e6f20656e6f7567682065746865726000830152602082019050919050565b6000614c4f602483615413565b91507f4661696c65642120596f7520616c7265616479206a6f696e656420746865206760008301527f616d6521000000000000000000000000000000000000000000000000000000006020830152604082019050919050565b6000614cb5601383615413565b91507f4661696c6564212054696d6520697320757021000000000000000000000000006000830152602082019050919050565b6000614cf5602483615413565b91507f4661696c65642120596f752068617665206e6f7420656e6f7567682062616c6160008301527f6e636521000000000000000000000000000000000000000000000000000000006020830152604082019050919050565b6000614d5b603083615413565b91507f4661696c656421205468697320616464726573732068617320616c726561647960008301527f206265656e207369676e656420757021000000000000000000000000000000006020830152604082019050919050565b6000614dc1603183615413565b91507f4661696c65642c205468697320757365726e616d652068617320616c7265616460008301527f79206265656e207369676e6564207570210000000000000000000000000000006020830152604082019050919050565b6000614e27601f83615413565b91507f4661696c65642120596f752068617665206e6f74207369676e656420757021006000830152602082019050919050565b6000614e67602083615413565b91507f4661696c65642c20596f7520617265206e6f7420696e207468652067616d65216000830152602082019050919050565b6000614ea7601d83615413565b91507f4661696c6564212047616d65206e6f74207374617274656420796574210000006000830152602082019050919050565b614ee381615489565b82525050565b614ef281615489565b82525050565b614f09614f0482615489565b6154d5565b82525050565b6000614f1b82846149c5565b915081905092915050565b6000614f328284614ef8565b60208201915081905092915050565b6000608082019050614f566000830187614901565b614f636020830186614901565b8181036040830152614f75818561498c565b90508181036060830152614f89818461498c565b905095945050505050565b600060a082019050614fa96000830188614901565b614fb66020830187614ee9565b614fc36040830186614ee9565b614fd0606083018561497d565b614fdd608083018461496e565b9695505050505050565b600060208201905081810360008301526150018184614910565b905092915050565b600060208201905061501e600083018461496e565b92915050565b6000602082019050818103600083015261503e818461498c565b905092915050565b60006040820190508181036000830152615060818561498c565b905061506f6020830184614ee9565b9392505050565b6000602082019050818103600083015261508f816149f6565b9050919050565b600060208201905081810360008301526150af81614a36565b9050919050565b600060208201905081810360008301526150cf81614a76565b9050919050565b600060208201905081810360008301526150ef81614adc565b9050919050565b6000602082019050818103600083015261510f81614b1c565b9050919050565b6000602082019050818103600083015261512f81614b82565b9050919050565b6000602082019050818103600083015261514f81614bc2565b9050919050565b6000602082019050818103600083015261516f81614c02565b9050919050565b6000602082019050818103600083015261518f81614c42565b9050919050565b600060208201905081810360008301526151af81614ca8565b9050919050565b600060208201905081810360008301526151cf81614ce8565b9050919050565b600060208201905081810360008301526151ef81614d4e565b9050919050565b6000602082019050818103600083015261520f81614db4565b9050919050565b6000602082019050818103600083015261522f81614e1a565b9050919050565b6000602082019050818103600083015261524f81614e5a565b9050919050565b6000602082019050818103600083015261526f81614e9a565b9050919050565b600060208201905061528b6000830184614ee9565b92915050565b600060a0820190506152a66000830188614ee9565b81810360208301526152b8818761498c565b905081810360408301526152cc818661498c565b90506152db6060830185614ee9565b6152e86080830184614ee9565b9695505050505050565b600060e082019050615307600083018a614ee9565b8181036020830152615319818961498c565b9050818103604083015261532d818861498c565b905061533c6060830187614ee9565b6153496080830186614ee9565b61535660a0830185614ee9565b81810360c0830152615368818461498c565b905098975050505050505050565b6000604051905081810181811067ffffffffffffffff8211171561539957600080fd5b8060405250919050565b600067ffffffffffffffff8211156153ba57600080fd5b601f19601f8301169050602081019050919050565b6000819050602082019050919050565b600081519050919050565b600081519050919050565b6000602082019050919050565b600082825260208201905092915050565b600082825260208201905092915050565b600081905092915050565b600061543a82615469565b9050919050565b600061544c82615469565b9050919050565b60008115159050919050565b6000819050919050565b600073ffffffffffffffffffffffffffffffffffffffff82169050919050565b6000819050919050565b82818337600083830152505050565b60005b838110156154c05780820151818401526020810190506154a5565b838111156154cf576000848401525b50505050565b6000819050919050565b6000601f19601f8301169050919050565b6154f98161542f565b811461550457600080fd5b50565b61551081615441565b811461551b57600080fd5b50565b6155278161545f565b811461553257600080fd5b50565b61553e81615489565b811461554957600080fd5b5056fea365627a7a72315820a6b995bd90566b71910aef9020a95d9fe2d185b1eb1f3fc284b5d05c3c6753456c6578706572696d656e74616cf564736f6c63430005100040",
  "source": "pragma solidity >=0.4.22 <0.7.0;\npragma experimental ABIEncoderV2;\nimport \"./Accounts.sol\";\n\ncontract CoinFlipping is AccountsManager{\n    /*** structures ***/\n    struct Player{\n        address payable addr;\n        uint number; // the number to reveal\n        uint salt;\n        bytes32 hashNumber; // the hash of the number\n        bool valid;\n    }\n\n    struct Game{\n        // current game state\n        uint ongoing; // 0 for not start yet, 1 for ongoing, 2 for already ended\n        uint currentPlayers; // no. of current players\n        uint bet; // bet value, 1 eth by default\n        uint due; // time limit\n        uint gameBalance;\n        uint start_time;\n        uint end_time;\n        address payable winnerAddr;\n        string winnerName;\n    }\n\n    struct GameHistory{\n        // game states to store in history\n        uint gameID;\n        address payable player1;\n        address payable player2;\n        string playerName1;\n        string playerName2;\n        uint number1;\n        uint number2;\n        uint start_time;\n        uint end_time;\n        address payable winnerAddr;\n        string winnerName;\n    }\n\n    struct Banker{\n        // banker's state\n        address payable bankerAddr;\n        string bankerName;\n        uint bankerBalance;\n        uint[] gameIDs;\n    }\n\n    /*** attributes ***/\n    uint firstGameID;  // the first game record ID within one day\n    uint currentGameID;\n    Game currentGame; // current game's state\n    mapping (uint => GameHistory) gameHistory; // store game history\n    Banker banker; // the banker\n\n    address payable [2] players;\n    mapping (address => Player) public mapPlayers;\n    address payable [] honestPlayers;\n\n\n    /*** constructor ***/\n    constructor() public{\n        // initialize game, banker\n        currentGameID = 1;\n        clearGame();\n\n        banker.bankerAddr = 0xe29dEc2ffCf4d0A61ED9983ED5369E0EeB4A4708; // the last address offered by Ganache\n        banker.bankerName = \"BANKER\";\n    }\n\n\n    /*** modifiers ***/\n    modifier twoPlayers{\n        require(currentGame.currentPlayers == 2, \"Failed! No enough players!\");\n        _;\n    }\n\n    modifier notTwoPlayers{\n        require(currentGame.currentPlayers < 2, \"Failed! Already enough players!\");\n        _;\n    }\n\n    modifier ongoingGame{\n        require(currentGame.ongoing == 1, \"Failed! Game is not ongoing!\");\n        _;\n    }\n\n    modifier notOngoingGame{\n        require(currentGame.ongoing != 1, \"Failed! Game is ongoing!\");\n        _;\n    }\n\n    modifier notStartedGame{\n        require(currentGame.ongoing == 0, \"Failed! Game not started yet!\");\n        _;\n    }\n\n    modifier endedGame{\n        require(currentGame.ongoing == 2, \"Failed! Game not ended yet!\");\n        _;\n    }\n\n    modifier bePlayer{\n        require(mapPlayers[msg.sender].valid, \"Failed, You are not in the game!\");\n        _;\n    }\n\n    modifier beBanker{\n        require(msg.sender == banker.bankerAddr, \"Failed! Only banker allowed to do it!\");\n        _;\n    }\n\n    modifier beforeDue{\n        require(now < currentGame.end_time, \"Failed! Time is up!\");\n        _;\n    }\n\n    modifier overDue{\n        require(now > currentGame.end_time, \"Failed! Not due yet!\");\n        _;\n    }\n\n\n    /*** functions ***/\n\n    /** public **/\n\n    function withdrawByBanker(uint amount) public payable beBanker{\n        /* banker withdraw his balance\n         * args:\n         *  amount: uint, balance amount he wants to withdraw\n         */\n        require(banker.bankerBalance >= amount, \"Failed! You have not enough balance!\");\n        banker.bankerAddr.transfer(amount);\n        banker.bankerBalance -= amount;\n    }\n\n    function joinGame() public notStartedGame notTwoPlayers{\n        /* player join game, take out his 1 ether for be\n         *\n         */\n        require(accounts[msg.sender].balance >= currentGame.bet, \"Failed! You have no enough ether\");\n        require(!mapPlayers[msg.sender].valid, \"Failed! You already joined the game!\");\n        players[currentGame.currentPlayers] = msg.sender;\n        mapPlayers[msg.sender] = Player({\n           addr: msg.sender,\n           number: 0,\n           salt: 0,\n           hashNumber: 0,\n           valid: true\n        });\n        currentGame.currentPlayers += 1;\n    }\n\n    function sendHash(bytes32 _hashNumber) public ongoingGame beforeDue twoPlayers bePlayer{\n        /* player send his/her hash in the time limit\n         * args:\n         *  _hashNumber: bytes32, the hash to send\n         */\n        mapPlayers[msg.sender].hashNumber = _hashNumber;\n    }\n\n    function sendNumber(uint _number, uint _salt) public ongoingGame overDue twoPlayers bePlayer{\n        /* player send his/her number and salt\n         * args:\n         *  _number: uint, the number to send\n         *  _salt: uint, the salt to send\n         */\n        mapPlayers[msg.sender].number = _number;\n        mapPlayers[msg.sender].salt = _salt;\n    }\n\n    function startGame() public notStartedGame twoPlayers beBanker{\n        /* banker start the game if enough players\n         *\n         */\n        currentGame.ongoing = 1;\n        currentGame.start_time = now;\n        currentGame.end_time = currentGame.start_time + currentGame.due;\n\n        // transfer ether from players to banker\n        for (uint i = 0; i < currentGame.currentPlayers; i++){\n            accounts[players[i]].balance -= currentGame.bet;\n        }\n        currentGame.gameBalance += currentGame.bet * currentGame.currentPlayers;\n    }\n\n\n    function checkWinner() public overDue twoPlayers beBanker{\n        /* banker check the hashes of both players, decide the winner and do the transfer\n         *\n         */\n\n        if (currentGame.ongoing == 2){\n            return;\n        }\n        currentGame.ongoing = 2; // game ends.\n\n        // check cheaters\n        for (uint i = 0; i < currentGame.currentPlayers; i++){\n            if (mapPlayers[players[i]].hashNumber == keccak256(abi.encodePacked(mapPlayers[players[i]].number + mapPlayers[players[i]].salt))){\n                honestPlayers.push(players[i]);\n            }\n        }\n\n        // check winner excluding cheaters\n        if (honestPlayers.length > 0){\n            uint winner = 0;\n            for (uint i = 0; i < honestPlayers.length; i++){\n                winner += mapPlayers[honestPlayers[i]].number;\n            }\n            winner = winner % honestPlayers.length;\n            currentGame.winnerAddr = honestPlayers[winner];\n        }\n        else{\n            currentGame.winnerAddr = banker.bankerAddr;\n        }\n\n        // banker transfers if not\n        if (msg.sender == banker.bankerAddr && currentGame.gameBalance > 0){\n            // do the transfer\n            if (currentGame.winnerAddr != banker.bankerAddr){\n                accounts[currentGame.winnerAddr].balance += currentGame.gameBalance * 95 / 100;\n                banker.bankerBalance += currentGame.gameBalance * 5 / 100;\n            }\n            else{\n                banker.bankerBalance += currentGame.gameBalance;\n            }\n            currentGame.gameBalance = 0;\n        }\n        currentGame.winnerName = accounts[currentGame.winnerAddr].username;\n    }\n\n    function clear() public endedGame beBanker{\n        /* banker record the game to history and clear current game\n         *\n         */\n        logGame(currentGameID, players[0], players[1], accounts[players[0]].username, accounts[players[1]].username, mapPlayers[players[0]].number, mapPlayers[players[1]].number, currentGame.start_time, currentGame.end_time, currentGame.winnerAddr, accounts[currentGame.winnerAddr].username);\n\n        clearPlayers();\n        clearGame();\n    }\n\n    /** view **/\n\n    function getOngoing() public view returns(bool){\n        /* get the game state: ongoing or not\n         * return:\n         *  ongoing: bool\n         */\n        return(currentGame.ongoing == 1);\n    }\n\n    function getPlayers() public view returns(address payable, address payable, string memory, string memory){\n        /* banker get the current in-game players\n         * return:\n         *  player1: address\n         *  player2: address\n         *  playerName1: uint\n         *  playerName2: uint\n         */\n        return(players[0], players[1], accounts[players[0]].username, accounts[players[1]].username);\n    }\n\n    function queryByBanker() public view beBanker returns(string memory, uint){\n        /* banker query for his balance\n         * return:\n         *  bankerName: string\n         *  balance: uint\n         */\n        return(banker.bankerName, banker.bankerBalance);\n    }\n\n    function playerGetWinner() public view endedGame returns(bool){\n        /* for player to check if he/she won\n         * return:\n         *  win: bool\n         */\n        if (currentGame.winnerAddr == msg.sender){\n            return true;\n        }\n        return false;\n    }\n\n    function getWinner() public view endedGame returns (string memory){\n        /* for banker to check the winner\n         * return:\n         *  winnerName: string\n         */\n        // already checked, return result\n        if (currentGame.winnerAddr == banker.bankerAddr){\n            return \"All cheated! No Winner!\";\n        }\n        if (currentGame.winnerAddr != address(0)){\n            return currentGame.winnerName;\n        }\n        return \"Not checked yet!\";\n    }\n\n    function getGameIDs() public view returns(uint[] memory){\n        /* to get the whole game IDs involving him/her\n         * return:\n         *  gameIDs: uint[]\n         */\n        if(msg.sender == banker.bankerAddr){\n            return banker.gameIDs;\n        }\n        return accounts[msg.sender].myGames;\n    }\n\n    function checkHistory(uint i) public view returns(uint, string memory, string memory, uint, uint, uint, string memory){\n        /* get the details of certain game by ID\n         * return:\n         *  gameID: uint\n         *  playerName1: string\n         *  playerName2: string\n         *  number1: uint\n         *  number2: uint\n         *  start_time: uint\n         *  end_time: uint\n         *  winnerName: string\n         */\n        return (i, gameHistory[i].playerName1, gameHistory[i].playerName2, gameHistory[i].number1, gameHistory[i].number2, gameHistory[i].start_time, gameHistory[i].winnerName);\n    }\n\n    function whoAmI() public view returns(uint){\n        /* get the role of the requester\n         * return\n         *  userState: bool\n         */\n        // return 0 for unregistered, 1 for registered, 2 for banker\n        if (banker.bankerAddr == msg.sender){\n            return 2;\n        }\n        if (accounts[msg.sender].valid){\n            return 1;\n        }\n        return 0;\n    }\n\n    /** private **/\n\n    function clearGame() private {\n        /* for banker to reset the game\n         *\n         */\n        // clear game's state\n        currentGame = Game({\n          ongoing: 0,\n          currentPlayers: 0,\n          bet: 1 ether,\n          due: 1 minutes,\n          gameBalance: 0,\n          start_time: 0,\n          end_time: 0,\n          winnerAddr: address(0),\n          winnerName: \"\"\n        });\n    }\n\n    function clearPlayers() private {\n        /* for banker to clear the players after game ended\n         *\n         */\n        // clear players' states\n        for (uint i = 0; i < 2; i++){\n            delete mapPlayers[players[i]];\n        }\n        delete players;\n        delete honestPlayers;\n    }\n\n    function logGame(uint _gameID, address payable _player1, address payable _player2, string memory _playerName1, string memory _playerName2, uint _number1, uint _number2, uint _start_time, uint _end_time, address payable _winnerAddr, string memory _winnerName) private {\n        /* log current game record and delete outdated records\n         * args:\n         *  _gameID: uint, current game ID\n         *  _player1: address, player1's address\n         *  _player2: address, player2's address\n         *  _playerName1: string, player1's username\n         *  _playerName2: string, player2's username\n         *  _number1: uint, player1's bet number\n         *  _number2: uint, player2's bet number\n         *  _start_time: uint, start time\n         *  _end_time: uint, end time\n         *  _winnerAddr: winner's address\n         *  _winnerName: winner's username\n         */\n        gameHistory[currentGameID] = GameHistory({\n            gameID: _gameID,\n            player1: _player1,\n            player2: _player2,\n            playerName1: _playerName1,\n            playerName2: _playerName2,\n            number1: _number1,\n            number2: _number2,\n            start_time: _start_time,\n            end_time: _end_time,\n            winnerAddr: _winnerAddr,\n            winnerName: _winnerName\n        });\n\n        accounts[_player1].myGames.push(currentGameID);\n        accounts[_player2].myGames.push(currentGameID);\n        banker.gameIDs.push(currentGameID);\n        currentGameID += 1;\n\n        for (uint i = firstGameID; i <= currentGameID; i++){\n            if(gameHistory[i].start_time + 24 hours < now){\n                delete gameHistory[i];\n                firstGameID += 1;\n            }\n        }\n\n    }\n    \n}\n",
  "sourcePath": "/home/taliyah/coinflipping/contracts/CoinFlipping.sol",
  "compiler": {
    "name": "solc",
    "version": "0.5.16+commit.9c3226ce.Emscripten.clang"
  },
  "schemaVersion": "3.1.0",
  "updatedAt": "2020-04-26T16:46:08.332Z",
  "networkType": "ethereum",
  "devdoc": {
    "methods": {}
  },
  "userdoc": {
    "methods": {
      "constructor": "* constructor **",
      "create(string,address)": {
        "notice": "* functions **"
      },
      "getOngoing()": {
        "notice": "view *"
      },
      "query()": {
        "notice": "view *"
      },
      "withdrawByBanker(uint256)": {
        "notice": "public *"
      }
    }
  }
}