{
  "contractName": "CoinFlipping",
  "abi": [
    {
      "inputs": [],
      "payable": false,
      "stateMutability": "nonpayable",
      "type": "constructor"
    },
    {
      "constant": true,
      "inputs": [
        {
          "internalType": "uint256",
          "name": "i",
          "type": "uint256"
        }
      ],
      "name": "checkRecords",
      "outputs": [
        {
          "internalType": "uint256",
          "name": "",
          "type": "uint256"
        },
        {
          "internalType": "string",
          "name": "",
          "type": "string"
        },
        {
          "internalType": "string",
          "name": "",
          "type": "string"
        },
        {
          "internalType": "uint256",
          "name": "",
          "type": "uint256"
        },
        {
          "internalType": "uint256",
          "name": "",
          "type": "uint256"
        }
      ],
      "payable": false,
      "stateMutability": "view",
      "type": "function"
    },
    {
      "constant": false,
      "inputs": [
        {
          "internalType": "string",
          "name": "_username",
          "type": "string"
        },
        {
          "internalType": "address payable",
          "name": "_addr",
          "type": "address"
        }
      ],
      "name": "create",
      "outputs": [],
      "payable": true,
      "stateMutability": "payable",
      "type": "function"
    },
    {
      "constant": false,
      "inputs": [],
      "name": "deposit",
      "outputs": [],
      "payable": true,
      "stateMutability": "payable",
      "type": "function"
    },
    {
      "constant": true,
      "inputs": [],
      "name": "getRecordIDs",
      "outputs": [
        {
          "internalType": "uint256[]",
          "name": "",
          "type": "uint256[]"
        }
      ],
      "payable": false,
      "stateMutability": "view",
      "type": "function"
    },
    {
      "constant": true,
      "inputs": [
        {
          "internalType": "address",
          "name": "",
          "type": "address"
        }
      ],
      "name": "mapPlayers",
      "outputs": [
        {
          "internalType": "address payable",
          "name": "addr",
          "type": "address"
        },
        {
          "internalType": "uint256",
          "name": "number",
          "type": "uint256"
        },
        {
          "internalType": "bytes32",
          "name": "hashNumber",
          "type": "bytes32"
        },
        {
          "internalType": "bool",
          "name": "valid",
          "type": "bool"
        }
      ],
      "payable": false,
      "stateMutability": "view",
      "type": "function"
    },
    {
      "constant": true,
      "inputs": [],
      "name": "query",
      "outputs": [
        {
          "internalType": "string",
          "name": "",
          "type": "string"
        },
        {
          "internalType": "uint256",
          "name": "",
          "type": "uint256"
        }
      ],
      "payable": false,
      "stateMutability": "view",
      "type": "function"
    },
    {
      "constant": false,
      "inputs": [
        {
          "internalType": "address payable",
          "name": "to",
          "type": "address"
        },
        {
          "internalType": "uint256",
          "name": "amount",
          "type": "uint256"
        }
      ],
      "name": "transferByAddr",
      "outputs": [],
      "payable": true,
      "stateMutability": "payable",
      "type": "function"
    },
    {
      "constant": false,
      "inputs": [
        {
          "internalType": "string",
          "name": "to",
          "type": "string"
        },
        {
          "internalType": "uint256",
          "name": "amount",
          "type": "uint256"
        }
      ],
      "name": "transferByName",
      "outputs": [],
      "payable": true,
      "stateMutability": "payable",
      "type": "function"
    },
    {
      "constant": false,
      "inputs": [
        {
          "internalType": "uint256",
          "name": "amount",
          "type": "uint256"
        }
      ],
      "name": "withdraw",
      "outputs": [],
      "payable": true,
      "stateMutability": "payable",
      "type": "function"
    },
    {
      "constant": false,
      "inputs": [
        {
          "internalType": "uint256",
          "name": "amount",
          "type": "uint256"
        }
      ],
      "name": "withdrawByBanker",
      "outputs": [],
      "payable": true,
      "stateMutability": "payable",
      "type": "function"
    },
    {
      "constant": false,
      "inputs": [],
      "name": "joinGame",
      "outputs": [],
      "payable": false,
      "stateMutability": "nonpayable",
      "type": "function"
    },
    {
      "constant": false,
      "inputs": [
        {
          "internalType": "bytes32",
          "name": "hashNumber",
          "type": "bytes32"
        }
      ],
      "name": "sendHash",
      "outputs": [],
      "payable": false,
      "stateMutability": "nonpayable",
      "type": "function"
    },
    {
      "constant": false,
      "inputs": [
        {
          "internalType": "uint256",
          "name": "number",
          "type": "uint256"
        }
      ],
      "name": "sendNumber",
      "outputs": [],
      "payable": false,
      "stateMutability": "nonpayable",
      "type": "function"
    },
    {
      "constant": false,
      "inputs": [],
      "name": "startGame",
      "outputs": [],
      "payable": false,
      "stateMutability": "nonpayable",
      "type": "function"
    },
    {
      "constant": false,
      "inputs": [],
      "name": "checkWinner",
      "outputs": [],
      "payable": false,
      "stateMutability": "nonpayable",
      "type": "function"
    },
    {
      "constant": false,
      "inputs": [],
      "name": "clear",
      "outputs": [],
      "payable": false,
      "stateMutability": "nonpayable",
      "type": "function"
    },
    {
      "constant": true,
      "inputs": [],
      "name": "getOngoing",
      "outputs": [
        {
          "internalType": "bool",
          "name": "",
          "type": "bool"
        }
      ],
      "payable": false,
      "stateMutability": "view",
      "type": "function"
    },
    {
      "constant": true,
      "inputs": [],
      "name": "getPlayers",
      "outputs": [
        {
          "internalType": "address payable",
          "name": "",
          "type": "address"
        },
        {
          "internalType": "address payable",
          "name": "",
          "type": "address"
        },
        {
          "internalType": "string",
          "name": "",
          "type": "string"
        },
        {
          "internalType": "string",
          "name": "",
          "type": "string"
        }
      ],
      "payable": false,
      "stateMutability": "view",
      "type": "function"
    },
    {
      "constant": true,
      "inputs": [],
      "name": "queryByBanker",
      "outputs": [
        {
          "internalType": "string",
          "name": "",
          "type": "string"
        },
        {
          "internalType": "uint256",
          "name": "",
          "type": "uint256"
        }
      ],
      "payable": false,
      "stateMutability": "view",
      "type": "function"
    },
    {
      "constant": true,
      "inputs": [],
      "name": "playerGetWinner",
      "outputs": [
        {
          "internalType": "bool",
          "name": "",
          "type": "bool"
        }
      ],
      "payable": false,
      "stateMutability": "view",
      "type": "function"
    },
    {
      "constant": true,
      "inputs": [],
      "name": "getWinner",
      "outputs": [
        {
          "internalType": "string",
          "name": "",
          "type": "string"
        }
      ],
      "payable": false,
      "stateMutability": "view",
      "type": "function"
    },
    {
      "constant": true,
      "inputs": [],
      "name": "getGameIDs",
      "outputs": [
        {
          "internalType": "uint256[]",
          "name": "",
          "type": "uint256[]"
        }
      ],
      "payable": false,
      "stateMutability": "view",
      "type": "function"
    },
    {
      "constant": true,
      "inputs": [
        {
          "internalType": "uint256",
          "name": "i",
          "type": "uint256"
        }
      ],
      "name": "checkHistory",
      "outputs": [
        {
          "internalType": "uint256",
          "name": "",
          "type": "uint256"
        },
        {
          "internalType": "string",
          "name": "",
          "type": "string"
        },
        {
          "internalType": "string",
          "name": "",
          "type": "string"
        },
        {
          "internalType": "uint256",
          "name": "",
          "type": "uint256"
        },
        {
          "internalType": "uint256",
          "name": "",
          "type": "uint256"
        },
        {
          "internalType": "uint256",
          "name": "",
          "type": "uint256"
        },
        {
          "internalType": "string",
          "name": "",
          "type": "string"
        }
      ],
      "payable": false,
      "stateMutability": "view",
      "type": "function"
    },
    {
      "constant": true,
      "inputs": [],
      "name": "whoAmI",
      "outputs": [
        {
          "internalType": "uint256",
          "name": "",
          "type": "uint256"
        }
      ],
      "payable": false,
      "stateMutability": "view",
      "type": "function"
    }
  ],
  "bytecode": "0x60806040523480156200001157600080fd5b50600160008190555060018081905550600160068190555062000039620000e860201b60201c565b73e29dec2ffcf4d0a61ed9983ed5369e0eeb4a4708601160000160006101000a81548173ffffffffffffffffffffffffffffffffffffffff021916908373ffffffffffffffffffffffffffffffffffffffff1602179055506040518060400160405280600681526020017f42414e4b4552000000000000000000000000000000000000000000000000000081525060116001019080519060200190620000e192919062000210565b5062000346565b6040518061012001604052806000815260200160008152602001670de0b6b3a76400008152602001603c8152602001600081526020016000815260200160008152602001600073ffffffffffffffffffffffffffffffffffffffff168152602001604051806020016040528060008152508152506007600082015181600001556020820151816001015560408201518160020155606082015181600301556080820151816004015560a0820151816005015560c0820151816006015560e08201518160070160006101000a81548173ffffffffffffffffffffffffffffffffffffffff021916908373ffffffffffffffffffffffffffffffffffffffff1602179055506101008201518160080190805190602001906200020a92919062000297565b50905050565b828054600181600116156101000203166002900490600052602060002090601f016020900481019282601f106200025357805160ff191683800117855562000284565b8280016001018555821562000284579182015b828111156200028357825182559160200191906001019062000266565b5b5090506200029391906200031e565b5090565b828054600181600116156101000203166002900490600052602060002090601f016020900481019282601f10620002da57805160ff19168380011785556200030b565b828001600101855582156200030b579182015b828111156200030a578251825591602001919060010190620002ed565b5b5090506200031a91906200031e565b5090565b6200034391905b808211156200033f57600081600090555060010162000325565b5090565b90565b61546b80620003566000396000f3fe60806040526004361061014b5760003560e01c80638e7ea5b2116100b6578063d553622c1161006f578063d553622c14610405578063d65ab5f214610430578063da91254c14610447578063e639f99114610472578063ee6dd9fa1461048e578063eea3f126146104b75761014b565b80638e7ea5b21461035b5780639c5872e314610386578063ad38867e146103a2578063b322519d146103b9578063d0e30db0146103e4578063d4f77b1c146103ee5761014b565b806352efea6e1161010857806352efea6e1461025d578063663dd36c146102745780636b500f55146102b557806384b47b0f146102f5578063881ab2dd146103115780638b5b9ccc1461032d5761014b565b80632115be1b1461015057806324f363b0146101935780632c46b205146101be5780632e1a7d4d146101ea57806347828306146102065780634ec4b6c614610231575b600080fd5b34801561015c57600080fd5b50610177600480360361017291908101906147aa565b6104e0565b60405161018a97969594939291906151ce565b60405180910390f35b34801561019f57600080fd5b506101a8610761565b6040516101b59190614ee5565b60405180910390f35b3480156101ca57600080fd5b506101d3610814565b6040516101e1929190614f22565b60405180910390f35b61020460048036036101ff91908101906147aa565b6109d0565b005b34801561021257600080fd5b5061021b610c68565b6040516102289190614ec3565b60405180910390f35b34801561023d57600080fd5b50610246610d00565b604051610254929190614f22565b60405180910390f35b34801561026957600080fd5b50610272610e46565b005b34801561028057600080fd5b5061029b600480360361029691908101906147aa565b6113c6565b6040516102ac95949392919061516d565b60405180910390f35b3480156102c157600080fd5b506102dc60048036036102d79190810190614674565b611574565b6040516102ec9493929190614e7e565b60405180910390f35b61030f600480360361030a9190810190614702565b6115d1565b005b61032b6004803603610326919081019061469d565b6118a8565b005b34801561033957600080fd5b50610342611c7f565b6040516103529493929190614e2b565b60405180910390f35b34801561036757600080fd5b50610370611f0d565b60405161037d9190614f00565b60405180910390f35b6103a0600480360361039b91908101906147aa565b61214a565b005b3480156103ae57600080fd5b506103b76122a7565b005b3480156103c557600080fd5b506103ce6129a0565b6040516103db9190614ee5565b60405180910390f35b6103ec6129b0565b005b3480156103fa57600080fd5b50610403612baf565b005b34801561041157600080fd5b5061041a612ebc565b6040516104279190614ec3565b60405180910390f35b34801561043c57600080fd5b50610445613009565b005b34801561045357600080fd5b5061045c61321c565b6040516104699190615152565b60405180910390f35b61048c60048036036104879190810190614756565b6132e6565b005b34801561049a57600080fd5b506104b560048036036104b091908101906146d9565b61369d565b005b3480156104c357600080fd5b506104de60048036036104d991908101906147aa565b61384d565b005b60006060806000806000606087601060008a8152602001908152602001600020600301601060008b8152602001908152602001600020600401601060008c815260200190815260200160002060050154601060008d815260200190815260200160002060060154601060008e815260200190815260200160002060070154601060008f8152602001908152602001600020600a01858054600181600116156101000203166002900480601f0160208091040260200160405190810160405280929190818152602001828054600181600116156101000203166002900480156106095780601f106105de57610100808354040283529160200191610609565b820191906000526020600020905b8154815290600101906020018083116105ec57829003601f168201915b50505050509550848054600181600116156101000203166002900480601f0160208091040260200160405190810160405280929190818152602001828054600181600116156101000203166002900480156106a55780601f1061067a576101008083540402835291602001916106a5565b820191906000526020600020905b81548152906001019060200180831161068857829003601f168201915b50505050509450808054600181600116156101000203166002900480601f0160208091040260200160405190810160405280929190818152602001828054600181600116156101000203166002900480156107415780601f1061071657610100808354040283529160200191610741565b820191906000526020600020905b81548152906001019060200180831161072457829003601f168201915b505050505090509650965096509650965096509650919395979092949650565b60006002600760000154146107ab576040517f08c379a00000000000000000000000000000000000000000000000000000000081526004016107a290614ff2565b60405180910390fd5b3373ffffffffffffffffffffffffffffffffffffffff166007800160009054906101000a900473ffffffffffffffffffffffffffffffffffffffff1673ffffffffffffffffffffffffffffffffffffffff16141561080c5760019050610811565b600090505b90565b60606000600260003373ffffffffffffffffffffffffffffffffffffffff1673ffffffffffffffffffffffffffffffffffffffff16815260200190815260200160002060030160009054906101000a900460ff166108a7576040517f08c379a000000000000000000000000000000000000000000000000000000000815260040161089e906150f2565b60405180910390fd5b600260003373ffffffffffffffffffffffffffffffffffffffff1673ffffffffffffffffffffffffffffffffffffffff168152602001908152602001600020600001600260003373ffffffffffffffffffffffffffffffffffffffff1673ffffffffffffffffffffffffffffffffffffffff16815260200190815260200160002060020154818054600181600116156101000203166002900480601f0160208091040260200160405190810160405280929190818152602001828054600181600116156101000203166002900480156109c15780601f10610996576101008083540402835291602001916109c1565b820191906000526020600020905b8154815290600101906020018083116109a457829003601f168201915b50505050509150915091509091565b600260003373ffffffffffffffffffffffffffffffffffffffff1673ffffffffffffffffffffffffffffffffffffffff16815260200190815260200160002060030160009054906101000a900460ff16610a5f576040517f08c379a0000000000000000000000000000000000000000000000000000000008152600401610a56906150f2565b60405180910390fd5b8080600260003373ffffffffffffffffffffffffffffffffffffffff1673ffffffffffffffffffffffffffffffffffffffff168152602001908152602001600020600201541015610aaf57600080fd5b3373ffffffffffffffffffffffffffffffffffffffff166108fc839081150290604051600060405180830381858888f19350505050158015610af5573d6000803e3d6000fd5b5081600260003373ffffffffffffffffffffffffffffffffffffffff1673ffffffffffffffffffffffffffffffffffffffff16815260200190815260200160002060020160008282540392505081905550610c64336000600260003373ffffffffffffffffffffffffffffffffffffffff1673ffffffffffffffffffffffffffffffffffffffff1681526020019081526020016000206000018054600181600116156101000203166002900480601f016020809104026020016040519081016040528092919081815260200182805460018160011615610100020316600290048015610c225780601f10610bf757610100808354040283529160200191610c22565b820191906000526020600020905b815481529060010190602001808311610c0557829003601f168201915b50505050506040518060400160405280600f81526020017f65787465726e616c2077616c6c6574000000000000000000000000000000000081525086426139fd565b5050565b6060600260003373ffffffffffffffffffffffffffffffffffffffff1673ffffffffffffffffffffffffffffffffffffffff168152602001908152602001600020600401805480602002602001604051908101604052809291908181526020018280548015610cf657602002820191906000526020600020905b815481526020019060010190808311610ce2575b5050505050905090565b60606000601160000160009054906101000a900473ffffffffffffffffffffffffffffffffffffffff1673ffffffffffffffffffffffffffffffffffffffff163373ffffffffffffffffffffffffffffffffffffffff1614610d97576040517f08c379a0000000000000000000000000000000000000000000000000000000008152600401610d8e90614fd2565b60405180910390fd5b6011600101601160020154818054600181600116156101000203166002900480601f016020809104026020016040519081016040528092919081815260200182805460018160011615610100020316600290048015610e375780601f10610e0c57610100808354040283529160200191610e37565b820191906000526020600020905b815481529060010190602001808311610e1a57829003601f168201915b50505050509150915091509091565b600260076000015414610e8e576040517f08c379a0000000000000000000000000000000000000000000000000000000008152600401610e8590614ff2565b60405180910390fd5b601160000160009054906101000a900473ffffffffffffffffffffffffffffffffffffffff1673ffffffffffffffffffffffffffffffffffffffff163373ffffffffffffffffffffffffffffffffffffffff1614610f21576040517f08c379a0000000000000000000000000000000000000000000000000000000008152600401610f1890614fd2565b60405180910390fd5b6113b46006546015600060028110610f3557fe5b0160009054906101000a900473ffffffffffffffffffffffffffffffffffffffff166015600160028110610f6557fe5b0160009054906101000a900473ffffffffffffffffffffffffffffffffffffffff16600260006015600060028110610f9957fe5b0160009054906101000a900473ffffffffffffffffffffffffffffffffffffffff1673ffffffffffffffffffffffffffffffffffffffff1673ffffffffffffffffffffffffffffffffffffffff1681526020019081526020016000206000018054600181600116156101000203166002900480601f01602080910402602001604051908101604052809291908181526020018280546001816001161561010002031660029004801561108c5780601f106110615761010080835404028352916020019161108c565b820191906000526020600020905b81548152906001019060200180831161106f57829003601f168201915b50505050506002600060156001600281106110a357fe5b0160009054906101000a900473ffffffffffffffffffffffffffffffffffffffff1673ffffffffffffffffffffffffffffffffffffffff1673ffffffffffffffffffffffffffffffffffffffff1681526020019081526020016000206000018054600181600116156101000203166002900480601f0160208091040260200160405190810160405280929190818152602001828054600181600116156101000203166002900480156111965780601f1061116b57610100808354040283529160200191611196565b820191906000526020600020905b81548152906001019060200180831161117957829003601f168201915b50505050506017600060156000600281106111ad57fe5b0160009054906101000a900473ffffffffffffffffffffffffffffffffffffffff1673ffffffffffffffffffffffffffffffffffffffff1673ffffffffffffffffffffffffffffffffffffffff1681526020019081526020016000206001015460176000601560016002811061121f57fe5b0160009054906101000a900473ffffffffffffffffffffffffffffffffffffffff1673ffffffffffffffffffffffffffffffffffffffff1673ffffffffffffffffffffffffffffffffffffffff168152602001908152602001600020600101546007600501546007600601546007800160009054906101000a900473ffffffffffffffffffffffffffffffffffffffff16600260006007800160009054906101000a900473ffffffffffffffffffffffffffffffffffffffff1673ffffffffffffffffffffffffffffffffffffffff1673ffffffffffffffffffffffffffffffffffffffff1681526020019081526020016000206000018054600181600116156101000203166002900480601f0160208091040260200160405190810160405280929190818152602001828054600181600116156101000203166002900480156113aa5780601f1061137f576101008083540402835291602001916113aa565b820191906000526020600020905b81548152906001019060200180831161138d57829003601f168201915b5050505050613d24565b6113bc61418d565b6113c4614283565b565b6000606080600080856004600088815260200190815260200160002060020160046000898152602001908152602001600020600301600460008a815260200190815260200160002060040154600460008b815260200190815260200160002060050154838054600181600116156101000203166002900480601f0160208091040260200160405190810160405280929190818152602001828054600181600116156101000203166002900480156114be5780601f10611493576101008083540402835291602001916114be565b820191906000526020600020905b8154815290600101906020018083116114a157829003601f168201915b50505050509350828054600181600116156101000203166002900480601f01602080910402602001604051908101604052809291908181526020018280546001816001161561010002031660029004801561155a5780601f1061152f5761010080835404028352916020019161155a565b820191906000526020600020905b81548152906001019060200180831161153d57829003601f168201915b505050505092509450945094509450945091939590929450565b60176020528060005260406000206000915090508060000160009054906101000a900473ffffffffffffffffffffffffffffffffffffffff16908060010154908060020154908060030160009054906101000a900460ff16905084565b60001515600260008373ffffffffffffffffffffffffffffffffffffffff1673ffffffffffffffffffffffffffffffffffffffff16815260200190815260200160002060030160009054906101000a900460ff16151514611667576040517f08c379a000000000000000000000000000000000000000000000000000000000815260040161165e906150b2565b60405180910390fd5b600073ffffffffffffffffffffffffffffffffffffffff1660038360405161168f9190614df9565b908152602001604051809103902060009054906101000a900473ffffffffffffffffffffffffffffffffffffffff1673ffffffffffffffffffffffffffffffffffffffff1614611714576040517f08c379a000000000000000000000000000000000000000000000000000000000815260040161170b906150d2565b60405180910390fd5b81600260008373ffffffffffffffffffffffffffffffffffffffff1673ffffffffffffffffffffffffffffffffffffffff168152602001908152602001600020600001908051906020019061176a9291906143a9565b5080600260008373ffffffffffffffffffffffffffffffffffffffff1673ffffffffffffffffffffffffffffffffffffffff16815260200190815260200160002060010160006101000a81548173ffffffffffffffffffffffffffffffffffffffff021916908373ffffffffffffffffffffffffffffffffffffffff1602179055506001600260008373ffffffffffffffffffffffffffffffffffffffff1673ffffffffffffffffffffffffffffffffffffffff16815260200190815260200160002060030160006101000a81548160ff021916908315150217905550806003836040516118589190614df9565b908152602001604051809103902060006101000a81548173ffffffffffffffffffffffffffffffffffffffff021916908373ffffffffffffffffffffffffffffffffffffffff1602179055505050565b600260003373ffffffffffffffffffffffffffffffffffffffff1673ffffffffffffffffffffffffffffffffffffffff16815260200190815260200160002060030160009054906101000a900460ff16611937576040517f08c379a000000000000000000000000000000000000000000000000000000000815260040161192e906150f2565b60405180910390fd5b81600260008273ffffffffffffffffffffffffffffffffffffffff1673ffffffffffffffffffffffffffffffffffffffff16815260200190815260200160002060030160009054906101000a900460ff166119c7576040517f08c379a00000000000000000000000000000000000000000000000000000000081526004016119be90614f92565b60405180910390fd5b8180600260003373ffffffffffffffffffffffffffffffffffffffff1673ffffffffffffffffffffffffffffffffffffffff168152602001908152602001600020600201541015611a1757600080fd5b82600260008673ffffffffffffffffffffffffffffffffffffffff1673ffffffffffffffffffffffffffffffffffffffff1681526020019081526020016000206002016000828254019250508190555082600260003373ffffffffffffffffffffffffffffffffffffffff1673ffffffffffffffffffffffffffffffffffffffff16815260200190815260200160002060020160008282540392505081905550611c793385600260003373ffffffffffffffffffffffffffffffffffffffff1673ffffffffffffffffffffffffffffffffffffffff1681526020019081526020016000206000018054600181600116156101000203166002900480601f016020809104026020016040519081016040528092919081815260200182805460018160011615610100020316600290048015611b925780601f10611b6757610100808354040283529160200191611b92565b820191906000526020600020905b815481529060010190602001808311611b7557829003601f168201915b5050505050600260008973ffffffffffffffffffffffffffffffffffffffff1673ffffffffffffffffffffffffffffffffffffffff1681526020019081526020016000206000018054600181600116156101000203166002900480601f016020809104026020016040519081016040528092919081815260200182805460018160011615610100020316600290048015611c6d5780601f10611c4257610100808354040283529160200191611c6d565b820191906000526020600020905b815481529060010190602001808311611c5057829003601f168201915b505050505087426139fd565b50505050565b6000806060806015600060028110611c9357fe5b0160009054906101000a900473ffffffffffffffffffffffffffffffffffffffff166015600160028110611cc357fe5b0160009054906101000a900473ffffffffffffffffffffffffffffffffffffffff16600260006015600060028110611cf757fe5b0160009054906101000a900473ffffffffffffffffffffffffffffffffffffffff1673ffffffffffffffffffffffffffffffffffffffff1673ffffffffffffffffffffffffffffffffffffffff168152602001908152602001600020600001600260006015600160028110611d6857fe5b0160009054906101000a900473ffffffffffffffffffffffffffffffffffffffff1673ffffffffffffffffffffffffffffffffffffffff1673ffffffffffffffffffffffffffffffffffffffff168152602001908152602001600020600001818054600181600116156101000203166002900480601f016020809104026020016040519081016040528092919081815260200182805460018160011615610100020316600290048015611e5c5780601f10611e3157610100808354040283529160200191611e5c565b820191906000526020600020905b815481529060010190602001808311611e3f57829003601f168201915b50505050509150808054600181600116156101000203166002900480601f016020809104026020016040519081016040528092919081815260200182805460018160011615610100020316600290048015611ef85780601f10611ecd57610100808354040283529160200191611ef8565b820191906000526020600020905b815481529060010190602001808311611edb57829003601f168201915b50505050509050935093509350935090919293565b6060600260076000015414611f57576040517f08c379a0000000000000000000000000000000000000000000000000000000008152600401611f4e90614ff2565b60405180910390fd5b601160000160009054906101000a900473ffffffffffffffffffffffffffffffffffffffff1673ffffffffffffffffffffffffffffffffffffffff166007800160009054906101000a900473ffffffffffffffffffffffffffffffffffffffff1673ffffffffffffffffffffffffffffffffffffffff161415612011576040518060400160405280601781526020017f416c6c206368656174656421204e6f2057696e6e6572210000000000000000008152509050612147565b600073ffffffffffffffffffffffffffffffffffffffff166007800160009054906101000a900473ffffffffffffffffffffffffffffffffffffffff1673ffffffffffffffffffffffffffffffffffffffff161461210e5760076008018054600181600116156101000203166002900480601f0160208091040260200160405190810160405280929190818152602001828054600181600116156101000203166002900480156121025780601f106120d757610100808354040283529160200191612102565b820191906000526020600020905b8154815290600101906020018083116120e557829003601f168201915b50505050509050612147565b6040518060400160405280601081526020017f4e6f7420636865636b656420796574210000000000000000000000000000000081525090505b90565b601160000160009054906101000a900473ffffffffffffffffffffffffffffffffffffffff1673ffffffffffffffffffffffffffffffffffffffff163373ffffffffffffffffffffffffffffffffffffffff16146121dd576040517f08c379a00000000000000000000000000000000000000000000000000000000081526004016121d490614fd2565b60405180910390fd5b806011600201541015612225576040517f08c379a000000000000000000000000000000000000000000000000000000000815260040161221c90615092565b60405180910390fd5b601160000160009054906101000a900473ffffffffffffffffffffffffffffffffffffffff1673ffffffffffffffffffffffffffffffffffffffff166108fc829081150290604051600060405180830381858888f19350505050158015612290573d6000803e3d6000fd5b508060116002016000828254039250508190555050565b60076006015442116122ee576040517f08c379a00000000000000000000000000000000000000000000000000000000081526004016122e590614f72565b60405180910390fd5b600260076001015414612336576040517f08c379a000000000000000000000000000000000000000000000000000000000815260040161232d90615012565b60405180910390fd5b601160000160009054906101000a900473ffffffffffffffffffffffffffffffffffffffff1673ffffffffffffffffffffffffffffffffffffffff163373ffffffffffffffffffffffffffffffffffffffff16146123c9576040517f08c379a00000000000000000000000000000000000000000000000000000000081526004016123c090614fd2565b60405180910390fd5b600260076000015414156123dc5761299e565b600260076000018190555060008090505b6007600101548110156125aa57601760006015836002811061240b57fe5b0160009054906101000a900473ffffffffffffffffffffffffffffffffffffffff1673ffffffffffffffffffffffffffffffffffffffff1673ffffffffffffffffffffffffffffffffffffffff1681526020019081526020016000206001015460405160200161247b9190614e10565b6040516020818303038152906040528051906020012060176000601584600281106124a257fe5b0160009054906101000a900473ffffffffffffffffffffffffffffffffffffffff1673ffffffffffffffffffffffffffffffffffffffff1673ffffffffffffffffffffffffffffffffffffffff16815260200190815260200160002060020154141561259d5760186015826002811061251757fe5b0160009054906101000a900473ffffffffffffffffffffffffffffffffffffffff1690806001815401808255809150509060018203906000526020600020016000909192909190916101000a81548173ffffffffffffffffffffffffffffffffffffffff021916908373ffffffffffffffffffffffffffffffffffffffff160217905550505b80806001019150506123ed565b50600060188054905011156126ee57600080905060008090505b60188054905081101561265c5760176000601883815481106125e257fe5b9060005260206000200160009054906101000a900473ffffffffffffffffffffffffffffffffffffffff1673ffffffffffffffffffffffffffffffffffffffff1673ffffffffffffffffffffffffffffffffffffffff168152602001908152602001600020600101548201915080806001019150506125c4565b50601880549050818161266b57fe5b0690506018818154811061267b57fe5b9060005260206000200160009054906101000a900473ffffffffffffffffffffffffffffffffffffffff166007800160006101000a81548173ffffffffffffffffffffffffffffffffffffffff021916908373ffffffffffffffffffffffffffffffffffffffff16021790555050612757565b601160000160009054906101000a900473ffffffffffffffffffffffffffffffffffffffff166007800160006101000a81548173ffffffffffffffffffffffffffffffffffffffff021916908373ffffffffffffffffffffffffffffffffffffffff1602179055505b601160000160009054906101000a900473ffffffffffffffffffffffffffffffffffffffff1673ffffffffffffffffffffffffffffffffffffffff163373ffffffffffffffffffffffffffffffffffffffff161480156127bc57506000600760040154115b1561291257601160000160009054906101000a900473ffffffffffffffffffffffffffffffffffffffff1673ffffffffffffffffffffffffffffffffffffffff166007800160009054906101000a900473ffffffffffffffffffffffffffffffffffffffff1673ffffffffffffffffffffffffffffffffffffffff16146128ed576064605f600760040154028161284f57fe5b04600260006007800160009054906101000a900473ffffffffffffffffffffffffffffffffffffffff1673ffffffffffffffffffffffffffffffffffffffff1673ffffffffffffffffffffffffffffffffffffffff168152602001908152602001600020600201600082825401925050819055506064600560076004015402816128d557fe5b04601160020160008282540192505081905550612906565b6007600401546011600201600082825401925050819055505b60006007600401819055505b600260006007800160009054906101000a900473ffffffffffffffffffffffffffffffffffffffff1673ffffffffffffffffffffffffffffffffffffffff1673ffffffffffffffffffffffffffffffffffffffff1681526020019081526020016000206000016007600801908054600181600116156101000203166002900461299c929190614429565b505b565b6000600160076000015414905090565b600260003373ffffffffffffffffffffffffffffffffffffffff1673ffffffffffffffffffffffffffffffffffffffff16815260200190815260200160002060030160009054906101000a900460ff16612a3f576040517f08c379a0000000000000000000000000000000000000000000000000000000008152600401612a36906150f2565b60405180910390fd5b34600260003373ffffffffffffffffffffffffffffffffffffffff1673ffffffffffffffffffffffffffffffffffffffff16815260200190815260200160002060020160008282540192505081905550612bad3360006040518060400160405280600f81526020017f65787465726e616c2077616c6c65740000000000000000000000000000000000815250600260003373ffffffffffffffffffffffffffffffffffffffff1673ffffffffffffffffffffffffffffffffffffffff1681526020019081526020016000206000018054600181600116156101000203166002900480601f016020809104026020016040519081016040528092919081815260200182805460018160011615610100020316600290048015612ba15780601f10612b7657610100808354040283529160200191612ba1565b820191906000526020600020905b815481529060010190602001808311612b8457829003601f168201915b505050505034426139fd565b565b600060076000015414612bf7576040517f08c379a0000000000000000000000000000000000000000000000000000000008152600401612bee90615132565b60405180910390fd5b600260076001015410612c3f576040517f08c379a0000000000000000000000000000000000000000000000000000000008152600401612c3690614f52565b60405180910390fd5b600760020154600260003373ffffffffffffffffffffffffffffffffffffffff1673ffffffffffffffffffffffffffffffffffffffff168152602001908152602001600020600201541015612cc9576040517f08c379a0000000000000000000000000000000000000000000000000000000008152600401612cc090615032565b60405180910390fd5b601760003373ffffffffffffffffffffffffffffffffffffffff1673ffffffffffffffffffffffffffffffffffffffff16815260200190815260200160002060030160009054906101000a900460ff1615612d59576040517f08c379a0000000000000000000000000000000000000000000000000000000008152600401612d5090615052565b60405180910390fd5b33601560076001015460028110612d6c57fe5b0160006101000a81548173ffffffffffffffffffffffffffffffffffffffff021916908373ffffffffffffffffffffffffffffffffffffffff16021790555060405180608001604052803373ffffffffffffffffffffffffffffffffffffffff168152602001600081526020016000801b815260200160011515815250601760003373ffffffffffffffffffffffffffffffffffffffff1673ffffffffffffffffffffffffffffffffffffffff16815260200190815260200160002060008201518160000160006101000a81548173ffffffffffffffffffffffffffffffffffffffff021916908373ffffffffffffffffffffffffffffffffffffffff160217905550602082015181600101556040820151816002015560608201518160030160006101000a81548160ff0219169083151502179055509050506001600760010160008282540192505081905550565b6060601160000160009054906101000a900473ffffffffffffffffffffffffffffffffffffffff1673ffffffffffffffffffffffffffffffffffffffff163373ffffffffffffffffffffffffffffffffffffffff161415612f72576011600301805480602002602001604051908101604052809291908181526020018280548015612f6657602002820191906000526020600020905b815481526020019060010190808311612f52575b50505050509050613006565b600260003373ffffffffffffffffffffffffffffffffffffffff1673ffffffffffffffffffffffffffffffffffffffff168152602001908152602001600020600501805480602002602001604051908101604052809291908181526020018280548015612ffe57602002820191906000526020600020905b815481526020019060010190808311612fea575b505050505090505b90565b600060076000015414613051576040517f08c379a000000000000000000000000000000000000000000000000000000000815260040161304890615132565b60405180910390fd5b600260076001015414613099576040517f08c379a000000000000000000000000000000000000000000000000000000000815260040161309090615012565b60405180910390fd5b601160000160009054906101000a900473ffffffffffffffffffffffffffffffffffffffff1673ffffffffffffffffffffffffffffffffffffffff163373ffffffffffffffffffffffffffffffffffffffff161461312c576040517f08c379a000000000000000000000000000000000000000000000000000000000815260040161312390614fd2565b60405180910390fd5b6001600760000181905550426007600501819055506007600301546007600501540160076006018190555060008090505b6007600101548110156131fa57600760020154600260006015846002811061318157fe5b0160009054906101000a900473ffffffffffffffffffffffffffffffffffffffff1673ffffffffffffffffffffffffffffffffffffffff1673ffffffffffffffffffffffffffffffffffffffff16815260200190815260200160002060020160008282540392505081905550808060010191505061315d565b5060076001015460076002015402600760040160008282540192505081905550565b60003373ffffffffffffffffffffffffffffffffffffffff16601160000160009054906101000a900473ffffffffffffffffffffffffffffffffffffffff1673ffffffffffffffffffffffffffffffffffffffff16141561328057600290506132e3565b600260003373ffffffffffffffffffffffffffffffffffffffff1673ffffffffffffffffffffffffffffffffffffffff16815260200190815260200160002060030160009054906101000a900460ff16156132de57600190506132e3565b600090505b90565b600260003373ffffffffffffffffffffffffffffffffffffffff1673ffffffffffffffffffffffffffffffffffffffff16815260200190815260200160002060030160009054906101000a900460ff16613375576040517f08c379a000000000000000000000000000000000000000000000000000000000815260040161336c906150f2565b60405180910390fd5b6003826040516133859190614df9565b908152602001604051809103902060009054906101000a900473ffffffffffffffffffffffffffffffffffffffff16600260008273ffffffffffffffffffffffffffffffffffffffff1673ffffffffffffffffffffffffffffffffffffffff16815260200190815260200160002060030160009054906101000a900460ff16613443576040517f08c379a000000000000000000000000000000000000000000000000000000000815260040161343a90614f92565b60405180910390fd5b8180600260003373ffffffffffffffffffffffffffffffffffffffff1673ffffffffffffffffffffffffffffffffffffffff16815260200190815260200160002060020154101561349357600080fd5b82600260006003876040516134a89190614df9565b908152602001604051809103902060009054906101000a900473ffffffffffffffffffffffffffffffffffffffff1673ffffffffffffffffffffffffffffffffffffffff1673ffffffffffffffffffffffffffffffffffffffff1681526020019081526020016000206002016000828254019250508190555082600260003373ffffffffffffffffffffffffffffffffffffffff1673ffffffffffffffffffffffffffffffffffffffff16815260200190815260200160002060020160008282540392505081905550613697336003866040516135859190614df9565b908152602001604051809103902060009054906101000a900473ffffffffffffffffffffffffffffffffffffffff16600260003373ffffffffffffffffffffffffffffffffffffffff1673ffffffffffffffffffffffffffffffffffffffff1681526020019081526020016000206000018054600181600116156101000203166002900480601f01602080910402602001604051908101604052809291908181526020018280546001816001161561010002031660029004801561368a5780601f1061365f5761010080835404028352916020019161368a565b820191906000526020600020905b81548152906001019060200180831161366d57829003601f168201915b50505050508787426139fd565b50505050565b6001600760000154146136e5576040517f08c379a00000000000000000000000000000000000000000000000000000000081526004016136dc90614fb2565b60405180910390fd5b600760060154421061372c576040517f08c379a000000000000000000000000000000000000000000000000000000000815260040161372390615072565b60405180910390fd5b600260076001015414613774576040517f08c379a000000000000000000000000000000000000000000000000000000000815260040161376b90615012565b60405180910390fd5b601760003373ffffffffffffffffffffffffffffffffffffffff1673ffffffffffffffffffffffffffffffffffffffff16815260200190815260200160002060030160009054906101000a900460ff16613803576040517f08c379a00000000000000000000000000000000000000000000000000000000081526004016137fa90615112565b60405180910390fd5b80601760003373ffffffffffffffffffffffffffffffffffffffff1673ffffffffffffffffffffffffffffffffffffffff1681526020019081526020016000206002018190555050565b600160076000015414613895576040517f08c379a000000000000000000000000000000000000000000000000000000000815260040161388c90614fb2565b60405180910390fd5b60076006015442116138dc576040517f08c379a00000000000000000000000000000000000000000000000000000000081526004016138d390614f72565b60405180910390fd5b600260076001015414613924576040517f08c379a000000000000000000000000000000000000000000000000000000000815260040161391b90615012565b60405180910390fd5b601760003373ffffffffffffffffffffffffffffffffffffffff1673ffffffffffffffffffffffffffffffffffffffff16815260200190815260200160002060030160009054906101000a900460ff166139b3576040517f08c379a00000000000000000000000000000000000000000000000000000000081526004016139aa90615112565b60405180910390fd5b80601760003373ffffffffffffffffffffffffffffffffffffffff1673ffffffffffffffffffffffffffffffffffffffff1681526020019081526020016000206001018190555050565b6040518060c001604052808773ffffffffffffffffffffffffffffffffffffffff1681526020018673ffffffffffffffffffffffffffffffffffffffff1681526020018581526020018481526020018381526020018281525060046000600154815260200190815260200160002060008201518160000160006101000a81548173ffffffffffffffffffffffffffffffffffffffff021916908373ffffffffffffffffffffffffffffffffffffffff16021790555060208201518160010160006101000a81548173ffffffffffffffffffffffffffffffffffffffff021916908373ffffffffffffffffffffffffffffffffffffffff1602179055506040820151816002019080519060200190613b159291906144b0565b506060820151816003019080519060200190613b329291906144b0565b506080820151816004015560a08201518160050155905050600260008773ffffffffffffffffffffffffffffffffffffffff1673ffffffffffffffffffffffffffffffffffffffff1681526020019081526020016000206004016001549080600181540180825580915050906001820390600052602060002001600090919290919091505550600260008673ffffffffffffffffffffffffffffffffffffffff1673ffffffffffffffffffffffffffffffffffffffff1681526020019081526020016000206004016001549080600181540180825580915050906001820390600052602060002001600090919290919091505550600180600082825401925050819055506000805490505b6001548111613d1b5742620151806004600084815260200190815260200160002060050154011015613d0e5760046000828152602001908152602001600020600080820160006101000a81549073ffffffffffffffffffffffffffffffffffffffff02191690556001820160006101000a81549073ffffffffffffffffffffffffffffffffffffffff0219169055600282016000613cdb9190614530565b600382016000613ceb9190614530565b600482016000905560058201600090555050600160008082825401925050819055505b8080600101915050613c3d565b50505050505050565b6040518061016001604052808c81526020018b73ffffffffffffffffffffffffffffffffffffffff1681526020018a73ffffffffffffffffffffffffffffffffffffffff1681526020018981526020018881526020018781526020018681526020018581526020018481526020018373ffffffffffffffffffffffffffffffffffffffff168152602001828152506010600060065481526020019081526020016000206000820151816000015560208201518160010160006101000a81548173ffffffffffffffffffffffffffffffffffffffff021916908373ffffffffffffffffffffffffffffffffffffffff16021790555060408201518160020160006101000a81548173ffffffffffffffffffffffffffffffffffffffff021916908373ffffffffffffffffffffffffffffffffffffffff1602179055506060820151816003019080519060200190613e7b9291906144b0565b506080820151816004019080519060200190613e989291906144b0565b5060a0820151816005015560c0820151816006015560e0820151816007015561010082015181600801556101208201518160090160006101000a81548173ffffffffffffffffffffffffffffffffffffffff021916908373ffffffffffffffffffffffffffffffffffffffff16021790555061014082015181600a019080519060200190613f279291906144b0565b50905050600260008b73ffffffffffffffffffffffffffffffffffffffff1673ffffffffffffffffffffffffffffffffffffffff1681526020019081526020016000206005016006549080600181540180825580915050906001820390600052602060002001600090919290919091505550600260008a73ffffffffffffffffffffffffffffffffffffffff1673ffffffffffffffffffffffffffffffffffffffff1681526020019081526020016000206005016006549080600181540180825580915050906001820390600052602060002001600090919290919091505550601160030160065490806001815401808255809150509060018203906000526020600020016000909192909190915055506001600660008282540192505081905550600060055490505b600654811161417f574262015180601060008481526020019081526020016000206007015401101561417257601060008281526020019081526020016000206000808201600090556001820160006101000a81549073ffffffffffffffffffffffffffffffffffffffff02191690556002820160006101000a81549073ffffffffffffffffffffffffffffffffffffffff02191690556003820160006140f79190614530565b6004820160006141079190614530565b60058201600090556006820160009055600782016000905560088201600090556009820160006101000a81549073ffffffffffffffffffffffffffffffffffffffff0219169055600a8201600061415e9190614530565b505060016005600082825401925050819055505b8080600101915050614051565b505050505050505050505050565b60008090505b60028110156142645760176000601583600281106141ad57fe5b0160009054906101000a900473ffffffffffffffffffffffffffffffffffffffff1673ffffffffffffffffffffffffffffffffffffffff1673ffffffffffffffffffffffffffffffffffffffff168152602001908152602001600020600080820160006101000a81549073ffffffffffffffffffffffffffffffffffffffff0219169055600182016000905560028201600090556003820160006101000a81549060ff021916905550508080600101915050614193565b50601560006142739190614578565b601860006142819190614586565b565b6040518061012001604052806000815260200160008152602001670de0b6b3a76400008152602001603c8152602001600081526020016000815260200160008152602001600073ffffffffffffffffffffffffffffffffffffffff168152602001604051806020016040528060008152508152506007600082015181600001556020820151816001015560408201518160020155606082015181600301556080820151816004015560a0820151816005015560c0820151816006015560e08201518160070160006101000a81548173ffffffffffffffffffffffffffffffffffffffff021916908373ffffffffffffffffffffffffffffffffffffffff1602179055506101008201518160080190805190602001906143a39291906144b0565b50905050565b828054600181600116156101000203166002900490600052602060002090601f016020900481019282601f106143ea57805160ff1916838001178555614418565b82800160010185558215614418579182015b828111156144175782518255916020019190600101906143fc565b5b50905061442591906145a7565b5090565b828054600181600116156101000203166002900490600052602060002090601f016020900481019282601f10614462578054855561449f565b8280016001018555821561449f57600052602060002091601f016020900482015b8281111561449e578254825591600101919060010190614483565b5b5090506144ac91906145a7565b5090565b828054600181600116156101000203166002900490600052602060002090601f016020900481019282601f106144f157805160ff191683800117855561451f565b8280016001018555821561451f579182015b8281111561451e578251825591602001919060010190614503565b5b50905061452c91906145a7565b5090565b50805460018160011615610100020316600290046000825580601f106145565750614575565b601f01602090049060005260206000209081019061457491906145a7565b5b50565b506000815560010160009055565b50805460008255906000526020600020908101906145a491906145a7565b50565b6145c991905b808211156145c55760008160009055506001016145ad565b5090565b90565b6000813590506145db816153cc565b92915050565b6000813590506145f0816153e3565b92915050565b600081359050614605816153fa565b92915050565b600082601f83011261461c57600080fd5b813561462f61462a8261527f565b615252565b9150808252602083016020830185838301111561464b57600080fd5b61465683828461536f565b50505092915050565b60008135905061466e81615411565b92915050565b60006020828403121561468657600080fd5b6000614694848285016145cc565b91505092915050565b600080604083850312156146b057600080fd5b60006146be858286016145e1565b92505060206146cf8582860161465f565b9150509250929050565b6000602082840312156146eb57600080fd5b60006146f9848285016145f6565b91505092915050565b6000806040838503121561471557600080fd5b600083013567ffffffffffffffff81111561472f57600080fd5b61473b8582860161460b565b925050602061474c858286016145e1565b9150509250929050565b6000806040838503121561476957600080fd5b600083013567ffffffffffffffff81111561478357600080fd5b61478f8582860161460b565b92505060206147a08582860161465f565b9150509250929050565b6000602082840312156147bc57600080fd5b60006147ca8482850161465f565b91505092915050565b60006147df8383614dc4565b60208301905092915050565b6147f48161531d565b82525050565b6000614805826152bb565b61480f81856152de565b935061481a836152ab565b8060005b8381101561484b57815161483288826147d3565b975061483d836152d1565b92505060018101905061481e565b5085935050505092915050565b6148618161532f565b82525050565b6148708161533b565b82525050565b6000614881826152c6565b61488b81856152ef565b935061489b81856020860161537e565b6148a4816153bb565b840191505092915050565b60006148ba826152c6565b6148c48185615300565b93506148d481856020860161537e565b80840191505092915050565b60006148ed601f836152ef565b91507f4661696c65642120416c726561647920656e6f75676820706c617965727321006000830152602082019050919050565b600061492d6014836152ef565b91507f4661696c656421204e6f742064756520796574210000000000000000000000006000830152602082019050919050565b600061496d602c836152ef565b91507f4661696c65642120546865207265636569766572206163636f756e7420646f6560008301527f6e732774206578697374732100000000000000000000000000000000000000006020830152604082019050919050565b60006149d3601c836152ef565b91507f4661696c6564212047616d65206973206e6f74206f6e676f696e6721000000006000830152602082019050919050565b6000614a136025836152ef565b91507f4661696c656421204f6e6c792062616e6b657220616c6c6f77656420746f206460008301527f6f206974210000000000000000000000000000000000000000000000000000006020830152604082019050919050565b6000614a79601b836152ef565b91507f4661696c6564212047616d65206e6f7420656e646564207965742100000000006000830152602082019050919050565b6000614ab9601a836152ef565b91507f4661696c656421204e6f20656e6f75676820706c6179657273210000000000006000830152602082019050919050565b6000614af96020836152ef565b91507f4661696c65642120596f752068617665206e6f20656e6f7567682065746865726000830152602082019050919050565b6000614b396024836152ef565b91507f4661696c65642120596f7520616c7265616479206a6f696e656420746865206760008301527f616d6521000000000000000000000000000000000000000000000000000000006020830152604082019050919050565b6000614b9f6013836152ef565b91507f4661696c6564212054696d6520697320757021000000000000000000000000006000830152602082019050919050565b6000614bdf6024836152ef565b91507f4661696c65642120596f752068617665206e6f7420656e6f7567682062616c6160008301527f6e636521000000000000000000000000000000000000000000000000000000006020830152604082019050919050565b6000614c456030836152ef565b91507f4661696c656421205468697320616464726573732068617320616c726561647960008301527f206265656e207369676e656420757021000000000000000000000000000000006020830152604082019050919050565b6000614cab6031836152ef565b91507f4661696c65642c205468697320757365726e616d652068617320616c7265616460008301527f79206265656e207369676e6564207570210000000000000000000000000000006020830152604082019050919050565b6000614d11601f836152ef565b91507f4661696c65642120596f752068617665206e6f74207369676e656420757021006000830152602082019050919050565b6000614d516020836152ef565b91507f4661696c65642c20596f7520617265206e6f7420696e207468652067616d65216000830152602082019050919050565b6000614d91601d836152ef565b91507f4661696c6564212047616d65206e6f74207374617274656420796574210000006000830152602082019050919050565b614dcd81615365565b82525050565b614ddc81615365565b82525050565b614df3614dee82615365565b6153b1565b82525050565b6000614e0582846148af565b915081905092915050565b6000614e1c8284614de2565b60208201915081905092915050565b6000608082019050614e4060008301876147eb565b614e4d60208301866147eb565b8181036040830152614e5f8185614876565b90508181036060830152614e738184614876565b905095945050505050565b6000608082019050614e9360008301876147eb565b614ea06020830186614dd3565b614ead6040830185614867565b614eba6060830184614858565b95945050505050565b60006020820190508181036000830152614edd81846147fa565b905092915050565b6000602082019050614efa6000830184614858565b92915050565b60006020820190508181036000830152614f1a8184614876565b905092915050565b60006040820190508181036000830152614f3c8185614876565b9050614f4b6020830184614dd3565b9392505050565b60006020820190508181036000830152614f6b816148e0565b9050919050565b60006020820190508181036000830152614f8b81614920565b9050919050565b60006020820190508181036000830152614fab81614960565b9050919050565b60006020820190508181036000830152614fcb816149c6565b9050919050565b60006020820190508181036000830152614feb81614a06565b9050919050565b6000602082019050818103600083015261500b81614a6c565b9050919050565b6000602082019050818103600083015261502b81614aac565b9050919050565b6000602082019050818103600083015261504b81614aec565b9050919050565b6000602082019050818103600083015261506b81614b2c565b9050919050565b6000602082019050818103600083015261508b81614b92565b9050919050565b600060208201905081810360008301526150ab81614bd2565b9050919050565b600060208201905081810360008301526150cb81614c38565b9050919050565b600060208201905081810360008301526150eb81614c9e565b9050919050565b6000602082019050818103600083015261510b81614d04565b9050919050565b6000602082019050818103600083015261512b81614d44565b9050919050565b6000602082019050818103600083015261514b81614d84565b9050919050565b60006020820190506151676000830184614dd3565b92915050565b600060a0820190506151826000830188614dd3565b81810360208301526151948187614876565b905081810360408301526151a88186614876565b90506151b76060830185614dd3565b6151c46080830184614dd3565b9695505050505050565b600060e0820190506151e3600083018a614dd3565b81810360208301526151f58189614876565b905081810360408301526152098188614876565b90506152186060830187614dd3565b6152256080830186614dd3565b61523260a0830185614dd3565b81810360c08301526152448184614876565b905098975050505050505050565b6000604051905081810181811067ffffffffffffffff8211171561527557600080fd5b8060405250919050565b600067ffffffffffffffff82111561529657600080fd5b601f19601f8301169050602081019050919050565b6000819050602082019050919050565b600081519050919050565b600081519050919050565b6000602082019050919050565b600082825260208201905092915050565b600082825260208201905092915050565b600081905092915050565b600061531682615345565b9050919050565b600061532882615345565b9050919050565b60008115159050919050565b6000819050919050565b600073ffffffffffffffffffffffffffffffffffffffff82169050919050565b6000819050919050565b82818337600083830152505050565b60005b8381101561539c578082015181840152602081019050615381565b838111156153ab576000848401525b50505050565b6000819050919050565b6000601f19601f8301169050919050565b6153d58161530b565b81146153e057600080fd5b50565b6153ec8161531d565b81146153f757600080fd5b50565b6154038161533b565b811461540e57600080fd5b50565b61541a81615365565b811461542557600080fd5b5056fea365627a7a7231582095a7408ad5aca05f91798fb75a53cabaaf31b7c10773b4803f26ffb46e7885116c6578706572696d656e74616cf564736f6c63430005100040",
  "source": "pragma solidity >=0.4.22 <0.7.0;\npragma experimental ABIEncoderV2;\nimport \"./Accounts.sol\";\n\ncontract CoinFlipping is AccountsManager{\n    /*** structures ***/\n    struct Player{\n        address payable addr;\n        uint number; // the number to reveal\n        bytes32 hashNumber; // the hash of the number\n        bool valid;\n    }\n    \n    struct Game{\n        // current game state\n        uint ongoing; // 0 for not start yet, 1 for ongoing, 2 for already ended\n        uint currentPlayers; // no. of current players\n        uint bet; // bet value, 1 eth by default\n        uint due; // time limit\n        uint gameBalance;\n        uint start_time;\n        uint end_time;\n        address payable winnerAddr;\n        string winnerName;\n    }\n    \n    struct GameHistory{\n        // game states to store in history\n        uint gameID;\n        address payable player1;\n        address payable player2;\n        string playerName1;\n        string playerName2;\n        uint number1;\n        uint number2;\n        uint start_time;\n        uint end_time;\n        address payable winnerAddr;\n        string winnerName;\n    }\n\n    struct Banker{\n        // banker's state\n        address payable bankerAddr;\n        string bankerName;\n        uint bankerBalance;\n        uint[] gameIDs;\n    }\n\n    /*** attributes ***/\n    uint firstGameID;  // the first game record ID within one day\n    uint currentGameID;\n    Game currentGame; // current game's state\n    mapping (uint => GameHistory) gameHistory; // store game history\n    Banker banker; // the banker\n\n    address payable [2] players;\n    mapping (address => Player) public mapPlayers;\n    address payable [] honestPlayers;\n\n\n    /*** constructor ***/\n    constructor() public{\n        // initialize game, banker\n        currentGameID = 1;\n        clearGame();\n\n        banker.bankerAddr = 0xe29dEc2ffCf4d0A61ED9983ED5369E0EeB4A4708; // the last address offered by Ganache\n        banker.bankerName = \"BANKER\";\n    }\n\n\n    /*** modifiers ***/\n    modifier twoPlayers{\n        require(currentGame.currentPlayers == 2, \"Failed! No enough players!\");\n        _;\n    }\n\n    modifier notTwoPlayers{\n        require(currentGame.currentPlayers < 2, \"Failed! Already enough players!\");\n        _;\n    }\n\n    modifier ongoingGame{\n        require(currentGame.ongoing == 1, \"Failed! Game is not ongoing!\");\n        _;\n    }\n\n    modifier notOngoingGame{\n        require(currentGame.ongoing != 1, \"Failed! Game is ongoing!\");\n        _;\n    }\n\n    modifier notStartedGame{\n        require(currentGame.ongoing == 0, \"Failed! Game not started yet!\");\n        _;\n    }\n\n    modifier endedGame{\n        require(currentGame.ongoing == 2, \"Failed! Game not ended yet!\");\n        _;\n    }\n\n    modifier bePlayer{\n        require(mapPlayers[msg.sender].valid, \"Failed, You are not in the game!\");\n        _;\n    }\n\n    modifier beBanker{\n        require(msg.sender == banker.bankerAddr, \"Failed! Only banker allowed to do it!\");\n        _;\n    }\n\n    modifier beforeDue{\n        require(now < currentGame.end_time, \"Failed! Time is up!\");\n        _;\n    }\n\n    modifier overDue{\n        require(now > currentGame.end_time, \"Failed! Not due yet!\");\n        _;\n    }\n\n\n    /*** functions ***/\n\n    /** public **/\n\n    function withdrawByBanker(uint amount) public payable beBanker{\n        require(banker.bankerBalance >= amount, \"Failed! You have not enough balance!\");\n        banker.bankerAddr.transfer(amount);\n        banker.bankerBalance -= amount;\n    }\n\n    function joinGame() public notStartedGame notTwoPlayers{\n        require(accounts[msg.sender].balance >= currentGame.bet, \"Failed! You have no enough ether\");\n        require(!mapPlayers[msg.sender].valid, \"Failed! You already joined the game!\");\n        players[currentGame.currentPlayers] = msg.sender;\n        mapPlayers[msg.sender] = Player({\n           addr: msg.sender,\n           number: 0,\n           hashNumber: 0,\n           valid: true\n        });\n        currentGame.currentPlayers += 1;\n    }\n\n    function sendHash(bytes32 hashNumber) public ongoingGame beforeDue twoPlayers bePlayer{\n        mapPlayers[msg.sender].hashNumber = hashNumber;\n    }\n\n    function sendNumber(uint number) public ongoingGame overDue twoPlayers bePlayer{\n        mapPlayers[msg.sender].number = number;\n    }\n\n    function startGame() public notStartedGame twoPlayers beBanker{\n        currentGame.ongoing = 1;\n        currentGame.start_time = now;\n        currentGame.end_time = currentGame.start_time + currentGame.due;\n\n        // transfer ether from players to banker\n        for (uint i = 0; i < currentGame.currentPlayers; i++){\n            accounts[players[i]].balance -= currentGame.bet;\n        }\n        currentGame.gameBalance += currentGame.bet * currentGame.currentPlayers;\n    }\n\n\n    function checkWinner() public overDue twoPlayers beBanker{\n\n        if (currentGame.ongoing == 2){\n            return;\n        }\n        currentGame.ongoing = 2; // game ends.\n\n        // check cheaters\n        for (uint i = 0; i < currentGame.currentPlayers; i++){\n            if (mapPlayers[players[i]].hashNumber == keccak256(abi.encodePacked(mapPlayers[players[i]].number))){\n                honestPlayers.push(players[i]);\n            }\n        }\n\n        // check winner excluding cheaters\n        if (honestPlayers.length > 0){\n            uint winner = 0;\n            for (uint i = 0; i < honestPlayers.length; i++){\n                winner += mapPlayers[honestPlayers[i]].number;\n            }\n            winner = winner % honestPlayers.length;\n            currentGame.winnerAddr = honestPlayers[winner];\n        }\n        else{\n            currentGame.winnerAddr = banker.bankerAddr;\n        }\n\n        // banker transfers if not\n        if (msg.sender == banker.bankerAddr && currentGame.gameBalance > 0){\n            // do the transfer\n            if (currentGame.winnerAddr != banker.bankerAddr){\n                accounts[currentGame.winnerAddr].balance += currentGame.gameBalance * 95 / 100;\n                banker.bankerBalance += currentGame.gameBalance * 5 / 100;\n            }\n            else{\n                banker.bankerBalance += currentGame.gameBalance;\n            }\n            currentGame.gameBalance = 0;\n        }\n        currentGame.winnerName = accounts[currentGame.winnerAddr].username;\n    }\n\n    function clear() public endedGame beBanker{\n        // record the game to history and clear\n        logGame(currentGameID, players[0], players[1], accounts[players[0]].username, accounts[players[1]].username, mapPlayers[players[0]].number, mapPlayers[players[1]].number, currentGame.start_time, currentGame.end_time, currentGame.winnerAddr, accounts[currentGame.winnerAddr].username);\n\n        clearPlayers();\n        clearGame();\n    }\n\n    /** view **/\n    function getOngoing() public view returns(bool){\n        return(currentGame.ongoing == 1);\n    }\n\n    function getPlayers() public view returns(address payable, address payable, string memory, string memory){\n        return(players[0], players[1], accounts[players[0]].username, accounts[players[1]].username);\n    }\n\n    function queryByBanker() public view beBanker returns(string memory, uint){\n        return(banker.bankerName, banker.bankerBalance);\n    }\n\n    function playerGetWinner() public view endedGame returns(bool){\n        if (currentGame.winnerAddr == msg.sender){\n            return true;\n        }\n        return false;\n    }\n\n    function getWinner() public view endedGame returns (string memory){\n        // already checked, return result\n        if (currentGame.winnerAddr == banker.bankerAddr){\n            return \"All cheated! No Winner!\";\n        }\n        if (currentGame.winnerAddr != address(0)){\n            return currentGame.winnerName;\n        }\n        return \"Not checked yet!\";\n    }\n\n    function getGameIDs() public view returns(uint[] memory){\n        if(msg.sender == banker.bankerAddr){\n            return banker.gameIDs;\n        }\n        return accounts[msg.sender].myGames;\n    }\n\n    function checkHistory(uint i) public view returns(uint, string memory, string memory, uint, uint, uint, string memory){\n        return (i, gameHistory[i].playerName1, gameHistory[i].playerName2, gameHistory[i].number1, gameHistory[i].number2, gameHistory[i].start_time, gameHistory[i].winnerName);\n    }\n\n    function whoAmI() public view returns(uint){\n        // return 0 for unregistered, 1 for player, 2 for banker\n        if (banker.bankerAddr == msg.sender){\n            return 2;\n        }\n        if (accounts[msg.sender].valid){\n            return 1;\n        }\n        return 0;\n    }\n\n    /** private **/\n\n    function clearGame() private {\n        // clear game's state\n        currentGame = Game({\n          ongoing: 0,\n          currentPlayers: 0,\n          bet: 1 ether,\n          due: 1 minutes,\n          gameBalance: 0,\n          start_time: 0,\n          end_time: 0,\n          winnerAddr: address(0),\n          winnerName: \"\"\n        });\n    }\n\n    function clearPlayers() private {\n        // clear players' states\n        for (uint i = 0; i < 2; i++){\n            delete mapPlayers[players[i]];\n        }\n        delete players;\n        delete honestPlayers;\n    }\n\n    function logGame(uint _gameID, address payable _player1, address payable _player2, string memory _playerName1, string memory _playerName2, uint _number1, uint _number2, uint _start_time, uint _end_time, address payable _winnerAddr, string memory _winnerName) private {\n\n        gameHistory[currentGameID] = GameHistory({\n            gameID: _gameID,\n            player1: _player1,\n            player2: _player2,\n            playerName1: _playerName1,\n            playerName2: _playerName2,\n            number1: _number1,\n            number2: _number2,\n            start_time: _start_time,\n            end_time: _end_time,\n            winnerAddr: _winnerAddr,\n            winnerName: _winnerName\n        });\n\n        accounts[_player1].myGames.push(currentGameID);\n        accounts[_player2].myGames.push(currentGameID);\n        banker.gameIDs.push(currentGameID);\n        currentGameID += 1;\n\n        for (uint i = firstGameID; i <= currentGameID; i++){\n            if(gameHistory[i].start_time + 24 hours < now){\n                delete gameHistory[i];\n                firstGameID += 1;\n            }\n        }\n\n    }\n    \n}\n",
  "sourcePath": "/home/taliyah/coinflipping/contracts/CoinFlipping.sol",
  "compiler": {
    "name": "solc",
    "version": "0.5.16+commit.9c3226ce.Emscripten.clang"
  },
  "schemaVersion": "3.1.0",
  "updatedAt": "2020-04-26T07:49:16.160Z",
  "networkType": "ethereum",
  "devdoc": {
    "methods": {}
  },
  "userdoc": {
    "methods": {
      "constructor": "* constructor **",
      "create(string,address)": {
        "notice": "* functions **"
      },
      "getOngoing()": {
        "notice": "view *"
      },
      "query()": {
        "notice": "view *"
      },
      "withdrawByBanker(uint256)": {
        "notice": "public *"
      }
    }
  }
}